{
  "_format": "hh-sol-artifact-1",
  "contractName": "BNPLLendingPool",
  "sourceName": "contracts/BNPLLendingPool.sol",
  "abi": [
    {
      "inputs": [
        {
          "internalType": "address",
          "name": "_underlyingToken",
          "type": "address"
        }
      ],
      "stateMutability": "nonpayable",
      "type": "constructor"
    },
    {
      "anonymous": false,
      "inputs": [
        {
          "indexed": true,
          "internalType": "address",
          "name": "owner",
          "type": "address"
        },
        {
          "indexed": true,
          "internalType": "address",
          "name": "spender",
          "type": "address"
        },
        {
          "indexed": false,
          "internalType": "uint256",
          "name": "value",
          "type": "uint256"
        }
      ],
      "name": "Approval",
      "type": "event"
    },
    {
      "anonymous": false,
      "inputs": [
        {
          "indexed": true,
          "internalType": "address",
          "name": "borrower",
          "type": "address"
        },
        {
          "indexed": false,
          "internalType": "uint256",
          "name": "amount",
          "type": "uint256"
        },
        {
          "indexed": false,
          "internalType": "uint256",
          "name": "remainingPayments",
          "type": "uint256"
        }
      ],
      "name": "InstallmentPayment",
      "type": "event"
    },
    {
      "anonymous": false,
      "inputs": [
        {
          "indexed": true,
          "internalType": "address",
          "name": "borrower",
          "type": "address"
        },
        {
          "indexed": false,
          "internalType": "uint256",
          "name": "interestAmount",
          "type": "uint256"
        }
      ],
      "name": "InterestAccrued",
      "type": "event"
    },
    {
      "anonymous": false,
      "inputs": [
        {
          "indexed": true,
          "internalType": "address",
          "name": "provider",
          "type": "address"
        },
        {
          "indexed": false,
          "internalType": "uint256",
          "name": "amount",
          "type": "uint256"
        },
        {
          "indexed": false,
          "internalType": "uint256",
          "name": "sharesReceived",
          "type": "uint256"
        }
      ],
      "name": "LiquidityAdded",
      "type": "event"
    },
    {
      "anonymous": false,
      "inputs": [
        {
          "indexed": true,
          "internalType": "address",
          "name": "provider",
          "type": "address"
        },
        {
          "indexed": false,
          "internalType": "uint256",
          "name": "amount",
          "type": "uint256"
        },
        {
          "indexed": false,
          "internalType": "uint256",
          "name": "sharesBurned",
          "type": "uint256"
        }
      ],
      "name": "LiquidityRemoved",
      "type": "event"
    },
    {
      "anonymous": false,
      "inputs": [
        {
          "indexed": true,
          "internalType": "address",
          "name": "borrower",
          "type": "address"
        },
        {
          "indexed": false,
          "internalType": "uint256",
          "name": "amount",
          "type": "uint256"
        },
        {
          "indexed": false,
          "internalType": "uint256",
          "name": "installments",
          "type": "uint256"
        }
      ],
      "name": "LoanInitiated",
      "type": "event"
    },
    {
      "anonymous": false,
      "inputs": [
        {
          "indexed": true,
          "internalType": "address",
          "name": "previousOwner",
          "type": "address"
        },
        {
          "indexed": true,
          "internalType": "address",
          "name": "newOwner",
          "type": "address"
        }
      ],
      "name": "OwnershipTransferred",
      "type": "event"
    },
    {
      "anonymous": false,
      "inputs": [
        {
          "indexed": true,
          "internalType": "address",
          "name": "from",
          "type": "address"
        },
        {
          "indexed": true,
          "internalType": "address",
          "name": "to",
          "type": "address"
        },
        {
          "indexed": false,
          "internalType": "uint256",
          "name": "value",
          "type": "uint256"
        }
      ],
      "name": "Transfer",
      "type": "event"
    },
    {
      "inputs": [
        {
          "internalType": "address",
          "name": "owner",
          "type": "address"
        },
        {
          "internalType": "address",
          "name": "spender",
          "type": "address"
        }
      ],
      "name": "allowance",
      "outputs": [
        {
          "internalType": "uint256",
          "name": "",
          "type": "uint256"
        }
      ],
      "stateMutability": "view",
      "type": "function"
    },
    {
      "inputs": [
        {
          "internalType": "address",
          "name": "spender",
          "type": "address"
        },
        {
          "internalType": "uint256",
          "name": "amount",
          "type": "uint256"
        }
      ],
      "name": "approve",
      "outputs": [
        {
          "internalType": "bool",
          "name": "",
          "type": "bool"
        }
      ],
      "stateMutability": "nonpayable",
      "type": "function"
    },
    {
      "inputs": [
        {
          "internalType": "address",
          "name": "account",
          "type": "address"
        }
      ],
      "name": "balanceOf",
      "outputs": [
        {
          "internalType": "uint256",
          "name": "",
          "type": "uint256"
        }
      ],
      "stateMutability": "view",
      "type": "function"
    },
    {
      "inputs": [],
      "name": "baseInterestRate",
      "outputs": [
        {
          "internalType": "uint256",
          "name": "",
          "type": "uint256"
        }
      ],
      "stateMutability": "view",
      "type": "function"
    },
    {
      "inputs": [],
      "name": "calculateInterestRate",
      "outputs": [
        {
          "internalType": "uint256",
          "name": "",
          "type": "uint256"
        }
      ],
      "stateMutability": "view",
      "type": "function"
    },
    {
      "inputs": [],
      "name": "decimals",
      "outputs": [
        {
          "internalType": "uint8",
          "name": "",
          "type": "uint8"
        }
      ],
      "stateMutability": "view",
      "type": "function"
    },
    {
      "inputs": [
        {
          "internalType": "address",
          "name": "spender",
          "type": "address"
        },
        {
          "internalType": "uint256",
          "name": "subtractedValue",
          "type": "uint256"
        }
      ],
      "name": "decreaseAllowance",
      "outputs": [
        {
          "internalType": "bool",
          "name": "",
          "type": "bool"
        }
      ],
      "stateMutability": "nonpayable",
      "type": "function"
    },
    {
      "inputs": [
        {
          "internalType": "uint256",
          "name": "amount",
          "type": "uint256"
        }
      ],
      "name": "depositLiquidity",
      "outputs": [],
      "stateMutability": "nonpayable",
      "type": "function"
    },
    {
      "inputs": [
        {
          "internalType": "address",
          "name": "borrower",
          "type": "address"
        }
      ],
      "name": "getLoanStatus",
      "outputs": [
        {
          "internalType": "uint256",
          "name": "loanAmount",
          "type": "uint256"
        },
        {
          "internalType": "uint256",
          "name": "remainingPayments",
          "type": "uint256"
        },
        {
          "internalType": "uint256",
          "name": "nextPaymentDue",
          "type": "uint256"
        },
        {
          "internalType": "uint256",
          "name": "installmentAmount",
          "type": "uint256"
        },
        {
          "internalType": "bool",
          "name": "isActive",
          "type": "bool"
        }
      ],
      "stateMutability": "view",
      "type": "function"
    },
    {
      "inputs": [],
      "name": "getPoolStats",
      "outputs": [
        {
          "internalType": "uint256",
          "name": "liquidity",
          "type": "uint256"
        },
        {
          "internalType": "uint256",
          "name": "borrowed",
          "type": "uint256"
        },
        {
          "internalType": "uint256",
          "name": "utilization",
          "type": "uint256"
        },
        {
          "internalType": "uint256",
          "name": "currentRate",
          "type": "uint256"
        }
      ],
      "stateMutability": "view",
      "type": "function"
    },
    {
      "inputs": [
        {
          "internalType": "address",
          "name": "spender",
          "type": "address"
        },
        {
          "internalType": "uint256",
          "name": "addedValue",
          "type": "uint256"
        }
      ],
      "name": "increaseAllowance",
      "outputs": [
        {
          "internalType": "bool",
          "name": "",
          "type": "bool"
        }
      ],
      "stateMutability": "nonpayable",
      "type": "function"
    },
    {
      "inputs": [
        {
          "internalType": "uint256",
          "name": "loanAmount",
          "type": "uint256"
        },
        {
          "internalType": "uint256",
          "name": "numberOfInstallments",
          "type": "uint256"
        }
      ],
      "name": "initiateBNPLLoan",
      "outputs": [
        {
          "internalType": "bool",
          "name": "",
          "type": "bool"
        }
      ],
      "stateMutability": "nonpayable",
      "type": "function"
    },
    {
      "inputs": [
        {
          "internalType": "address",
          "name": "",
          "type": "address"
        }
      ],
      "name": "installmentLoans",
      "outputs": [
        {
          "internalType": "uint256",
          "name": "loanAmount",
          "type": "uint256"
        },
        {
          "internalType": "uint256",
          "name": "installmentAmount",
          "type": "uint256"
        },
        {
          "internalType": "uint256",
          "name": "nextPaymentDue",
          "type": "uint256"
        },
        {
          "internalType": "uint256",
          "name": "installmentsPaid",
          "type": "uint256"
        },
        {
          "internalType": "uint256",
          "name": "totalInstallments",
          "type": "uint256"
        },
        {
          "internalType": "bool",
          "name": "isActive",
          "type": "bool"
        }
      ],
      "stateMutability": "view",
      "type": "function"
    },
    {
      "inputs": [
        {
          "internalType": "address",
          "name": "borrower",
          "type": "address"
        }
      ],
      "name": "isInstallmentOverdue",
      "outputs": [
        {
          "internalType": "bool",
          "name": "",
          "type": "bool"
        }
      ],
      "stateMutability": "view",
      "type": "function"
    },
    {
      "inputs": [],
      "name": "name",
      "outputs": [
        {
          "internalType": "string",
          "name": "",
          "type": "string"
        }
      ],
      "stateMutability": "view",
      "type": "function"
    },
    {
      "inputs": [],
      "name": "owner",
      "outputs": [
        {
          "internalType": "address",
          "name": "",
          "type": "address"
        }
      ],
      "stateMutability": "view",
      "type": "function"
    },
    {
      "inputs": [
        {
          "internalType": "uint256",
          "name": "amount",
          "type": "uint256"
        }
      ],
      "name": "payInstallment",
      "outputs": [],
      "stateMutability": "nonpayable",
      "type": "function"
    },
    {
      "inputs": [],
      "name": "renounceOwnership",
      "outputs": [],
      "stateMutability": "nonpayable",
      "type": "function"
    },
    {
      "inputs": [
        {
          "internalType": "uint256",
          "name": "newRate",
          "type": "uint256"
        }
      ],
      "name": "setBaseInterestRate",
      "outputs": [],
      "stateMutability": "nonpayable",
      "type": "function"
    },
    {
      "inputs": [
        {
          "internalType": "uint256",
          "name": "newMultiplier",
          "type": "uint256"
        }
      ],
      "name": "setUtilizationMultiplier",
      "outputs": [],
      "stateMutability": "nonpayable",
      "type": "function"
    },
    {
      "inputs": [],
      "name": "symbol",
      "outputs": [
        {
          "internalType": "string",
          "name": "",
          "type": "string"
        }
      ],
      "stateMutability": "view",
      "type": "function"
    },
    {
      "inputs": [],
      "name": "totalBorrowed",
      "outputs": [
        {
          "internalType": "uint256",
          "name": "",
          "type": "uint256"
        }
      ],
      "stateMutability": "view",
      "type": "function"
    },
    {
      "inputs": [],
      "name": "totalLiquidityPool",
      "outputs": [
        {
          "internalType": "uint256",
          "name": "",
          "type": "uint256"
        }
      ],
      "stateMutability": "view",
      "type": "function"
    },
    {
      "inputs": [],
      "name": "totalSupply",
      "outputs": [
        {
          "internalType": "uint256",
          "name": "",
          "type": "uint256"
        }
      ],
      "stateMutability": "view",
      "type": "function"
    },
    {
      "inputs": [
        {
          "internalType": "address",
          "name": "to",
          "type": "address"
        },
        {
          "internalType": "uint256",
          "name": "amount",
          "type": "uint256"
        }
      ],
      "name": "transfer",
      "outputs": [
        {
          "internalType": "bool",
          "name": "",
          "type": "bool"
        }
      ],
      "stateMutability": "nonpayable",
      "type": "function"
    },
    {
      "inputs": [
        {
          "internalType": "address",
          "name": "from",
          "type": "address"
        },
        {
          "internalType": "address",
          "name": "to",
          "type": "address"
        },
        {
          "internalType": "uint256",
          "name": "amount",
          "type": "uint256"
        }
      ],
      "name": "transferFrom",
      "outputs": [
        {
          "internalType": "bool",
          "name": "",
          "type": "bool"
        }
      ],
      "stateMutability": "nonpayable",
      "type": "function"
    },
    {
      "inputs": [
        {
          "internalType": "address",
          "name": "newOwner",
          "type": "address"
        }
      ],
      "name": "transferOwnership",
      "outputs": [],
      "stateMutability": "nonpayable",
      "type": "function"
    },
    {
      "inputs": [],
      "name": "underlyingToken",
      "outputs": [
        {
          "internalType": "contract IERC20",
          "name": "",
          "type": "address"
        }
      ],
      "stateMutability": "view",
      "type": "function"
    },
    {
      "inputs": [],
      "name": "utilizationMultiplier",
      "outputs": [
        {
          "internalType": "uint256",
          "name": "",
          "type": "uint256"
        }
      ],
      "stateMutability": "view",
      "type": "function"
    },
    {
      "inputs": [
        {
          "internalType": "uint256",
          "name": "shares",
          "type": "uint256"
        }
      ],
      "name": "withdrawLiquidity",
      "outputs": [],
      "stateMutability": "nonpayable",
      "type": "function"
    }
  ],
  "bytecode": "0x60806040526101f4600a556107d0600b553480156200001d57600080fd5b5060405162001e1738038062001e17833981016040819052620000409162000173565b604051806040016040528060078152602001660424e504c2d4c560cc1b815250604051806040016040528060048152602001631093941360e21b81525081600390816200008e91906200024a565b5060046200009d82826200024a565b5050600160055550620000b03362000121565b6001600160a01b038116620000fb5760405162461bcd60e51b815260206004820152600d60248201526c24b73b30b634b2103a37b5b2b760991b604482015260640160405180910390fd5b600780546001600160a01b0319166001600160a01b039290921691909117905562000316565b600680546001600160a01b038381166001600160a01b0319831681179093556040519116919082907f8be0079c531659141344cd1fd0a4f28419497f9722a3daafe3b4186f6b6457e090600090a35050565b6000602082840312156200018657600080fd5b81516001600160a01b03811681146200019e57600080fd5b9392505050565b634e487b7160e01b600052604160045260246000fd5b600181811c90821680620001d057607f821691505b602082108103620001f157634e487b7160e01b600052602260045260246000fd5b50919050565b601f8211156200024557600081815260208120601f850160051c81016020861015620002205750805b601f850160051c820191505b8181101562000241578281556001016200022c565b5050505b505050565b81516001600160401b03811115620002665762000266620001a5565b6200027e81620002778454620001bb565b84620001f7565b602080601f831160018114620002b657600084156200029d5750858301515b600019600386901b1c1916600185901b17855562000241565b600085815260208120601f198616915b82811015620002e757888601518255948401946001909101908401620002c6565b5085821015620003065787850151600019600388901b60f8161c191681555b5050505050600190811b01905550565b611af180620003266000396000f3fe608060405234801561001057600080fd5b50600436106101da5760003560e01c80635b38298911610104578063a457c2d7116100a2578063bbe2230811610071578063bbe2230814610469578063dd62ed3e1461047c578063e2f8a0171461048f578063f2fde38b146104a257600080fd5b8063a457c2d714610412578063a9059cbb14610425578063afd9276214610438578063bbb851881461044157600080fd5b806376d58e1a116100de57806376d58e1a146103715780638da5cb5b146103845780639333d8c81461039557806395d89b411461040a57600080fd5b80635b3829891461033757806370a0823114610340578063715018a61461036957600080fd5b80631ef7b4301161017c578063395093511161014b57806339509351146103005780633a082d8e146103135780634c19386c1461031b5780635606fbef1461032457600080fd5b80631ef7b430146102aa57806323b872dd146102b35780632495a599146102c6578063313ce567146102f157600080fd5b8063112130ad116101b8578063112130ad14610235578063151405991461027257806317b1867e1461028557806318160ddd1461029857600080fd5b806306fdde03146101df578063095ea7b3146101fd5780630a861f2a14610220575b600080fd5b6101e76104b5565b6040516101f49190611878565b60405180910390f35b61021061020b3660046118e2565b610547565b60405190151581526020016101f4565b61023361022e36600461190c565b610561565b005b610248610243366004611925565b6107c0565b6040805195865260208601949094529284019190915260608301521515608082015260a0016101f4565b610210610280366004611925565b61085d565b61023361029336600461190c565b610893565b6002545b6040519081526020016101f4565b61029c60085481565b6102106102c1366004611940565b6108e2565b6007546102d9906001600160a01b031681565b6040516001600160a01b0390911681526020016101f4565b604051601281526020016101f4565b61021061030e3660046118e2565b610906565b61029c610928565b61029c60095481565b61023361033236600461190c565b610990565b61029c600b5481565b61029c61034e366004611925565b6001600160a01b031660009081526020819052604090205490565b61023361099d565b61023361037f36600461190c565b6109b1565b6006546001600160a01b03166102d9565b6103db6103a3366004611925565b600c60205260009081526040902080546001820154600283015460038401546004850154600590950154939492939192909160ff1686565b6040805196875260208701959095529385019290925260608401526080830152151560a082015260c0016101f4565b6101e7610b0a565b6102106104203660046118e2565b610b19565b6102106104333660046118e2565b610b94565b61029c600a5481565b610449610ba2565b6040805194855260208501939093529183015260608201526080016101f4565b61021061047736600461197c565b610bf4565b61029c61048a36600461199e565b610f5a565b61023361049d36600461190c565b610f85565b6102336104b0366004611925565b6111d1565b6060600380546104c4906119d1565b80601f01602080910402602001604051908101604052809291908181526020018280546104f0906119d1565b801561053d5780601f106105125761010080835404028352916020019161053d565b820191906000526020600020905b81548152906001019060200180831161052057829003601f168201915b5050505050905090565b600033610555818585611247565b60019150505b92915050565b61056961136c565b600081116105b35760405162461bcd60e51b81526020600482015260126024820152710536861726573206d757374206265203e20360741b60448201526064015b60405180910390fd5b336000908152602081905260409020548111156106085760405162461bcd60e51b8152602060048201526013602482015272496e73756666696369656e742073686172657360681b60448201526064016105aa565b600061061360025490565b6008546106209084611a21565b61062a9190611a38565b6007546040516370a0823160e01b81523060048201529192506001600160a01b0316906370a0823190602401602060405180830381865afa158015610673573d6000803e3d6000fd5b505050506040513d601f19601f820116820180604052508101906106979190611a5a565b8111156106df5760405162461bcd60e51b8152602060048201526016602482015275496e73756666696369656e74206c697175696469747960501b60448201526064016105aa565b6106e933836113c5565b80600860008282546106fb9190611a73565b909155505060075460405163a9059cbb60e01b8152336004820152602481018390526001600160a01b039091169063a9059cbb906044016020604051808303816000875af1158015610751573d6000803e3d6000fd5b505050506040513d601f19601f820116820180604052508101906107759190611a86565b50604080518281526020810184905233917f96cd817c6329656790ef8fba7675405193677d39619571282f5e21f3a98cd05991015b60405180910390a2506107bd6001600555565b50565b6001600160a01b0381166000908152600c60209081526040808320815160c081018352815480825260018301549482019490945260028201549281019290925260038101546060830181905260048201546080840181905260059092015460ff16151560a0840152849384938493849391929161083c91611a73565b6040830151602084015160a090940151929a91995097509195509350915050565b6001600160a01b0381166000908152600c60205260408120600581015460ff16801561088c5750806002015442115b9392505050565b61089b6114ef565b6127108111156108dd5760405162461bcd60e51b815260206004820152600d60248201526c0a4c2e8ca40e8dede40d0d2ced609b1b60448201526064016105aa565b600a55565b6000336108f0858285611549565b6108fb8585856115c3565b506001949350505050565b6000336105558185856109198383610f5a565b6109239190611aa8565b611247565b600060085460000361093b5750600a5490565b60006008546009546127106109509190611a21565b61095a9190611a38565b90506000612710600b548361096f9190611a21565b6109799190611a38565b905080600a546109899190611aa8565b9250505090565b6109986114ef565b600b55565b6109a56114ef565b6109af6000611767565b565b6109b961136c565b600081116109fe5760405162461bcd60e51b81526020600482015260126024820152710416d6f756e74206d757374206265203e20360741b60448201526064016105aa565b6000610a0960025490565b600003610a17575080610a34565b600854600254610a279084611a21565b610a319190611a38565b90505b6007546040516323b872dd60e01b8152336004820152306024820152604481018490526001600160a01b03909116906323b872dd906064016020604051808303816000875af1158015610a8b573d6000803e3d6000fd5b505050506040513d601f19601f82011682018060405250810190610aaf9190611a86565b508160086000828254610ac29190611aa8565b90915550610ad2905033826117b9565b604080518381526020810183905233917fac1d76749e5447b7b16f5ab61447e1bd502f3bb4807af3b28e620d1700a6ee4591016107aa565b6060600480546104c4906119d1565b60003381610b278286610f5a565b905083811015610b875760405162461bcd60e51b815260206004820152602560248201527f45524332303a2064656372656173656420616c6c6f77616e63652062656c6f77604482015264207a65726f60d81b60648201526084016105aa565b6108fb8286868403611247565b6000336105558185856115c3565b600080600080600060085411610bb9576000610bd5565b600854600954610bcb90612710611a21565b610bd59190611a38565b915060085460095483610be6610928565b935093509350935090919293565b6000610bfe61136c565b60008311610c4e5760405162461bcd60e51b815260206004820152601760248201527f4c6f616e20616d6f756e74206d757374206265203e203000000000000000000060448201526064016105aa565b60008211610c9e5760405162461bcd60e51b815260206004820152601860248201527f496e7374616c6c6d656e7473206d757374206265203e2030000000000000000060448201526064016105aa565b6007546040516370a0823160e01b81523060048201526001600160a01b03909116906370a0823190602401602060405180830381865afa158015610ce6573d6000803e3d6000fd5b505050506040513d601f19601f82011682018060405250810190610d0a9190611a5a565b831115610d595760405162461bcd60e51b815260206004820152601b60248201527f496e73756666696369656e7420706f6f6c206c6971756964697479000000000060448201526064016105aa565b336000908152600c602052604090206005015460ff1615610db35760405162461bcd60e51b815260206004820152601460248201527322bc34b9ba34b7339030b1ba34bb32903637b0b760611b60448201526064016105aa565b6000610dbd610928565b90506000612710610dce8387611a21565b610dd89190611a38565b610de29086611aa8565b90506000610df08583611a38565b90506040518060c001604052808781526020018281526020014262278d00610e189190611aa8565b81526000602080830182905260408084018a905260016060948501819052338452600c835281842086518155928601519083015584015160028201559183015160038301556080830151600483015560a0909201516005909101805460ff191691151591909117905560098054889290610e93908490611aa8565b909155505060075460405163a9059cbb60e01b8152336004820152602481018890526001600160a01b039091169063a9059cbb906044016020604051808303816000875af1158015610ee9573d6000803e3d6000fd5b505050506040513d601f19601f82011682018060405250810190610f0d9190611a86565b50604080518781526020810187905233917fcfd764d1003def490e5e311cbe89e370771801d767526c8ed9bbc7620a0fbbea910160405180910390a26001935050505061055b6001600555565b6001600160a01b03918216600090815260016020908152604080832093909416825291909152205490565b610f8d61136c565b336000908152600c60205260409020600581015460ff16610fe15760405162461bcd60e51b815260206004820152600e60248201526d27379030b1ba34bb32903637b0b760911b60448201526064016105aa565b80600101548210156110415760405162461bcd60e51b8152602060048201526024808201527f5061796d656e74206c657373207468616e20696e7374616c6c6d656e7420616d6044820152631bdd5b9d60e21b60648201526084016105aa565b80600401548160030154106110905760405162461bcd60e51b81526020600482015260156024820152742637b0b71030b63932b0b23c903830b4b21037b33360591b60448201526064016105aa565b6007546040516323b872dd60e01b8152336004820152306024820152604481018490526001600160a01b03909116906323b872dd906064016020604051808303816000875af11580156110e7573d6000803e3d6000fd5b505050506040513d601f19601f8201168201806040525081019061110b9190611a86565b5060018160030160008282546111219190611aa8565b9091555061113490504262278d00611aa8565b60028201556004810154815461114a9190611a38565b6009600082825461115b9190611a73565b9091555050600481015460038201541061117c5760058101805460ff191690555b336001600160a01b03167f0abcb6961b7063e59aa6191f9ca9d08943cd151c843d721b50e89ea828d6632d83836003015484600401546111bc9190611a73565b604080519283526020830191909152016107aa565b6111d96114ef565b6001600160a01b03811661123e5760405162461bcd60e51b815260206004820152602660248201527f4f776e61626c653a206e6577206f776e657220697320746865207a65726f206160448201526564647265737360d01b60648201526084016105aa565b6107bd81611767565b6001600160a01b0383166112a95760405162461bcd60e51b8152602060048201526024808201527f45524332303a20617070726f76652066726f6d20746865207a65726f206164646044820152637265737360e01b60648201526084016105aa565b6001600160a01b03821661130a5760405162461bcd60e51b815260206004820152602260248201527f45524332303a20617070726f766520746f20746865207a65726f206164647265604482015261737360f01b60648201526084016105aa565b6001600160a01b0383811660008181526001602090815260408083209487168084529482529182902085905590518481527f8c5be1e5ebec7d5bd14f71427d1e84f3dd0314c0f7b2291e5b200ac8c7c3b92591015b60405180910390a3505050565b6002600554036113be5760405162461bcd60e51b815260206004820152601f60248201527f5265656e7472616e637947756172643a207265656e7472616e742063616c6c0060448201526064016105aa565b6002600555565b6001600160a01b0382166114255760405162461bcd60e51b815260206004820152602160248201527f45524332303a206275726e2066726f6d20746865207a65726f206164647265736044820152607360f81b60648201526084016105aa565b6001600160a01b038216600090815260208190526040902054818110156114995760405162461bcd60e51b815260206004820152602260248201527f45524332303a206275726e20616d6f756e7420657863656564732062616c616e604482015261636560f01b60648201526084016105aa565b6001600160a01b0383166000818152602081815260408083208686039055600280548790039055518581529192917fddf252ad1be2c89b69c2b068fc378daa952ba7f163c4a11628f55a4df523b3ef910161135f565b6006546001600160a01b031633146109af5760405162461bcd60e51b815260206004820181905260248201527f4f776e61626c653a2063616c6c6572206973206e6f7420746865206f776e657260448201526064016105aa565b60006115558484610f5a565b905060001981146115bd57818110156115b05760405162461bcd60e51b815260206004820152601d60248201527f45524332303a20696e73756666696369656e7420616c6c6f77616e636500000060448201526064016105aa565b6115bd8484848403611247565b50505050565b6001600160a01b0383166116275760405162461bcd60e51b815260206004820152602560248201527f45524332303a207472616e736665722066726f6d20746865207a65726f206164604482015264647265737360d81b60648201526084016105aa565b6001600160a01b0382166116895760405162461bcd60e51b815260206004820152602360248201527f45524332303a207472616e7366657220746f20746865207a65726f206164647260448201526265737360e81b60648201526084016105aa565b6001600160a01b038316600090815260208190526040902054818110156117015760405162461bcd60e51b815260206004820152602660248201527f45524332303a207472616e7366657220616d6f756e7420657863656564732062604482015265616c616e636560d01b60648201526084016105aa565b6001600160a01b03848116600081815260208181526040808320878703905593871680835291849020805487019055925185815290927fddf252ad1be2c89b69c2b068fc378daa952ba7f163c4a11628f55a4df523b3ef910160405180910390a36115bd565b600680546001600160a01b038381166001600160a01b0319831681179093556040519116919082907f8be0079c531659141344cd1fd0a4f28419497f9722a3daafe3b4186f6b6457e090600090a35050565b6001600160a01b03821661180f5760405162461bcd60e51b815260206004820152601f60248201527f45524332303a206d696e7420746f20746865207a65726f20616464726573730060448201526064016105aa565b80600260008282546118219190611aa8565b90915550506001600160a01b038216600081815260208181526040808320805486019055518481527fddf252ad1be2c89b69c2b068fc378daa952ba7f163c4a11628f55a4df523b3ef910160405180910390a35050565b600060208083528351808285015260005b818110156118a557858101830151858201604001528201611889565b506000604082860101526040601f19601f8301168501019250505092915050565b80356001600160a01b03811681146118dd57600080fd5b919050565b600080604083850312156118f557600080fd5b6118fe836118c6565b946020939093013593505050565b60006020828403121561191e57600080fd5b5035919050565b60006020828403121561193757600080fd5b61088c826118c6565b60008060006060848603121561195557600080fd5b61195e846118c6565b925061196c602085016118c6565b9150604084013590509250925092565b6000806040838503121561198f57600080fd5b50508035926020909101359150565b600080604083850312156119b157600080fd5b6119ba836118c6565b91506119c8602084016118c6565b90509250929050565b600181811c908216806119e557607f821691505b602082108103611a0557634e487b7160e01b600052602260045260246000fd5b50919050565b634e487b7160e01b600052601160045260246000fd5b808202811582820484141761055b5761055b611a0b565b600082611a5557634e487b7160e01b600052601260045260246000fd5b500490565b600060208284031215611a6c57600080fd5b5051919050565b8181038181111561055b5761055b611a0b565b600060208284031215611a9857600080fd5b8151801515811461088c57600080fd5b8082018082111561055b5761055b611a0b56fea26469706673582212209bda220d6eb5f7a19c64f77da59bd05b20389eb6d997053f3745428ab552cab164736f6c63430008140033",
  "linkReferences": {},
  "deployedLinkReferences": {}
}