{
  "_format": "hh-sol-artifact-1",
  "contractName": "RiskController",
  "sourceName": "contracts/RiskController.sol",
  "abi": [
    {
      "inputs": [
        {
          "internalType": "address",
          "name": "_vault",
          "type": "address"
        },
        {
          "internalType": "address",
          "name": "_oracle",
          "type": "address"
        }
      ],
      "stateMutability": "nonpayable",
      "type": "constructor"
    },
    {
      "anonymous": false,
      "inputs": [
        {
          "indexed": true,
          "internalType": "address",
          "name": "token",
          "type": "address"
        },
        {
          "indexed": false,
          "internalType": "uint256",
          "name": "collateralFactor",
          "type": "uint256"
        },
        {
          "indexed": false,
          "internalType": "uint256",
          "name": "liquidationFactor",
          "type": "uint256"
        }
      ],
      "name": "CollateralParamsUpdated",
      "type": "event"
    },
    {
      "anonymous": false,
      "inputs": [
        {
          "indexed": true,
          "internalType": "address",
          "name": "user",
          "type": "address"
        },
        {
          "indexed": false,
          "internalType": "uint256",
          "name": "availableBorrow",
          "type": "uint256"
        }
      ],
      "name": "LiquidityUpdated",
      "type": "event"
    },
    {
      "anonymous": false,
      "inputs": [
        {
          "indexed": true,
          "internalType": "address",
          "name": "previousOwner",
          "type": "address"
        },
        {
          "indexed": true,
          "internalType": "address",
          "name": "newOwner",
          "type": "address"
        }
      ],
      "name": "OwnershipTransferred",
      "type": "event"
    },
    {
      "anonymous": false,
      "inputs": [
        {
          "indexed": false,
          "internalType": "uint256",
          "name": "utilization",
          "type": "uint256"
        },
        {
          "indexed": false,
          "internalType": "uint256",
          "name": "avgHealth",
          "type": "uint256"
        }
      ],
      "name": "RiskMetricsUpdated",
      "type": "event"
    },
    {
      "anonymous": false,
      "inputs": [
        {
          "indexed": false,
          "internalType": "string",
          "name": "riskType",
          "type": "string"
        },
        {
          "indexed": false,
          "internalType": "uint256",
          "name": "severity",
          "type": "uint256"
        }
      ],
      "name": "SystemRiskAlert",
      "type": "event"
    },
    {
      "inputs": [
        {
          "internalType": "address",
          "name": "",
          "type": "address"
        }
      ],
      "name": "accountLiquidity",
      "outputs": [
        {
          "internalType": "uint256",
          "name": "",
          "type": "uint256"
        }
      ],
      "stateMutability": "view",
      "type": "function"
    },
    {
      "inputs": [
        {
          "internalType": "address",
          "name": "account",
          "type": "address"
        },
        {
          "internalType": "uint256",
          "name": "amount",
          "type": "uint256"
        }
      ],
      "name": "canBorrow",
      "outputs": [
        {
          "internalType": "bool",
          "name": "",
          "type": "bool"
        }
      ],
      "stateMutability": "view",
      "type": "function"
    },
    {
      "inputs": [
        {
          "internalType": "address",
          "name": "",
          "type": "address"
        }
      ],
      "name": "collaterals",
      "outputs": [
        {
          "internalType": "uint256",
          "name": "collateralFactor",
          "type": "uint256"
        },
        {
          "internalType": "uint256",
          "name": "liquidationFactor",
          "type": "uint256"
        },
        {
          "internalType": "uint256",
          "name": "maxBorrowLimit",
          "type": "uint256"
        },
        {
          "internalType": "bool",
          "name": "isActive",
          "type": "bool"
        }
      ],
      "stateMutability": "view",
      "type": "function"
    },
    {
      "inputs": [
        {
          "internalType": "address",
          "name": "token",
          "type": "address"
        }
      ],
      "name": "disableCollateral",
      "outputs": [],
      "stateMutability": "nonpayable",
      "type": "function"
    },
    {
      "inputs": [
        {
          "internalType": "address",
          "name": "account",
          "type": "address"
        }
      ],
      "name": "getAccountLiquidity",
      "outputs": [
        {
          "internalType": "uint256",
          "name": "liquidity",
          "type": "uint256"
        },
        {
          "internalType": "uint256",
          "name": "shortfall",
          "type": "uint256"
        }
      ],
      "stateMutability": "view",
      "type": "function"
    },
    {
      "inputs": [
        {
          "internalType": "address",
          "name": "account",
          "type": "address"
        }
      ],
      "name": "getAccountRiskLevel",
      "outputs": [
        {
          "internalType": "uint256",
          "name": "",
          "type": "uint256"
        }
      ],
      "stateMutability": "view",
      "type": "function"
    },
    {
      "inputs": [
        {
          "internalType": "address",
          "name": "account",
          "type": "address"
        }
      ],
      "name": "getBorrowPower",
      "outputs": [
        {
          "internalType": "uint256",
          "name": "",
          "type": "uint256"
        }
      ],
      "stateMutability": "view",
      "type": "function"
    },
    {
      "inputs": [
        {
          "internalType": "address",
          "name": "account",
          "type": "address"
        }
      ],
      "name": "getLiquidationPrice",
      "outputs": [
        {
          "internalType": "uint256",
          "name": "",
          "type": "uint256"
        }
      ],
      "stateMutability": "view",
      "type": "function"
    },
    {
      "inputs": [
        {
          "internalType": "address",
          "name": "account",
          "type": "address"
        },
        {
          "internalType": "uint256",
          "name": "priceDropPercent",
          "type": "uint256"
        }
      ],
      "name": "getStressScenario",
      "outputs": [
        {
          "internalType": "uint256",
          "name": "healthFactorAfterStress",
          "type": "uint256"
        }
      ],
      "stateMutability": "view",
      "type": "function"
    },
    {
      "inputs": [
        {
          "internalType": "address",
          "name": "account",
          "type": "address"
        }
      ],
      "name": "isAccountAtRisk",
      "outputs": [
        {
          "internalType": "bool",
          "name": "",
          "type": "bool"
        }
      ],
      "stateMutability": "view",
      "type": "function"
    },
    {
      "inputs": [],
      "name": "metrics",
      "outputs": [
        {
          "internalType": "uint256",
          "name": "systemUtilization",
          "type": "uint256"
        },
        {
          "internalType": "uint256",
          "name": "maxLoanToValue",
          "type": "uint256"
        },
        {
          "internalType": "uint256",
          "name": "averageHealth",
          "type": "uint256"
        },
        {
          "internalType": "uint256",
          "name": "liquidationCount",
          "type": "uint256"
        }
      ],
      "stateMutability": "view",
      "type": "function"
    },
    {
      "inputs": [],
      "name": "oracle",
      "outputs": [
        {
          "internalType": "contract PriceOracle",
          "name": "",
          "type": "address"
        }
      ],
      "stateMutability": "view",
      "type": "function"
    },
    {
      "inputs": [],
      "name": "owner",
      "outputs": [
        {
          "internalType": "address",
          "name": "",
          "type": "address"
        }
      ],
      "stateMutability": "view",
      "type": "function"
    },
    {
      "inputs": [],
      "name": "renounceOwnership",
      "outputs": [],
      "stateMutability": "nonpayable",
      "type": "function"
    },
    {
      "inputs": [
        {
          "internalType": "address",
          "name": "token",
          "type": "address"
        },
        {
          "internalType": "uint256",
          "name": "collateralFactor",
          "type": "uint256"
        },
        {
          "internalType": "uint256",
          "name": "liquidationFactor",
          "type": "uint256"
        },
        {
          "internalType": "uint256",
          "name": "maxBorrowLimit",
          "type": "uint256"
        }
      ],
      "name": "setCollateralParams",
      "outputs": [],
      "stateMutability": "nonpayable",
      "type": "function"
    },
    {
      "inputs": [
        {
          "internalType": "address",
          "name": "newOwner",
          "type": "address"
        }
      ],
      "name": "transferOwnership",
      "outputs": [],
      "stateMutability": "nonpayable",
      "type": "function"
    },
    {
      "inputs": [],
      "name": "updateRiskMetrics",
      "outputs": [],
      "stateMutability": "nonpayable",
      "type": "function"
    },
    {
      "inputs": [],
      "name": "vault",
      "outputs": [
        {
          "internalType": "contract SmartCollateralVault",
          "name": "",
          "type": "address"
        }
      ],
      "stateMutability": "view",
      "type": "function"
    }
  ],
  "bytecode": "0x608060405234801561001057600080fd5b5060405161108638038061108683398101604081905261002f91610167565b610038336100fb565b6001600160a01b0382166100835760405162461bcd60e51b815260206004820152600d60248201526c125b9d985b1a59081d985d5b1d609a1b60448201526064015b60405180910390fd5b6001600160a01b0381166100ca5760405162461bcd60e51b815260206004820152600e60248201526d496e76616c6964206f7261636c6560901b604482015260640161007a565b600180546001600160a01b039384166001600160a01b0319918216179091556002805492909316911617905561019a565b600080546001600160a01b038381166001600160a01b0319831681178455604051919092169283917f8be0079c531659141344cd1fd0a4f28419497f9722a3daafe3b4186f6b6457e09190a35050565b80516001600160a01b038116811461016257600080fd5b919050565b6000806040838503121561017a57600080fd5b6101838361014b565b91506101916020840161014b565b90509250929050565b610edd806101a96000396000f3fe608060405234801561001057600080fd5b50600436106101165760003560e01c80639fd950be116100a2578063cf8c8c4411610071578063cf8c8c441461027c578063e21f0b551461028f578063eeb97d3b146102a2578063f2fde38b146102fe578063fbfa77cf1461031157600080fd5b80639fd950be146101fd578063a04748f614610210578063b5469d0d14610246578063bf979a391461026957600080fd5b80635ec88c79116100e95780635ec88c791461017e578063715018a6146101a657806375c038b7146101ae5780637dc0d1d0146101c15780638da5cb5b146101ec57600080fd5b806317d8de821461011b57806325224bd21461014157806346920df21461014b5780635a0f03c61461015e575b600080fd5b61012e610129366004610d83565b610324565b6040519081526020015b60405180910390f35b610149610444565b005b610149610159366004610da5565b610563565b61012e61016c366004610d83565b60046020526000908152604090205481565b61019161018c366004610d83565b610750565b60408051928352602083019190915201610138565b6101496108a3565b6101496101bc366004610d83565b6108b7565b6002546101d4906001600160a01b031681565b6040516001600160a01b039091168152602001610138565b6000546001600160a01b03166101d4565b61012e61020b366004610dde565b6108e4565b6005546006546007546008546102269392919084565b604080519485526020850193909352918301526060820152608001610138565b610259610254366004610d83565b610a28565b6040519015158152602001610138565b61012e610277366004610d83565b610aa5565b61025961028a366004610dde565b610b58565b61012e61029d366004610d83565b610bd0565b6102dc6102b0366004610d83565b600360208190526000918252604090912080546001820154600283015492909301549092919060ff1684565b6040805194855260208501939093529183015215156060820152608001610138565b61014961030c366004610d83565b610c44565b6001546101d4906001600160a01b031681565b600154604051634d44ac4f60e01b81526001600160a01b0383811660048301526000928392911690634d44ac4f90602401602060405180830381865afa158015610372573d6000803e3d6000fd5b505050506040513d601f19601f820116820180604052508101906103969190610e08565b90506000600160009054906101000a90046001600160a01b03166001600160a01b0316634031234c6040518163ffffffff1660e01b8152600401602060405180830381865afa1580156103ed573d6000803e3d6000fd5b505050506040513d601f19601f820116820180604052508101906104119190610e08565b905081600003610425575060009392505050565b8061043283612710610e37565b61043c9190610e4e565b949350505050565b61044c610cbd565b60055461232810156104b257604080518181526010818301526f2424a3a42faaaa24a624ad20aa24a7a760811b60608201526003602082015290517f1918b9def66daf76d3333d4be4d28fa4fd4473b809ef16b51b13f80c6dd4c5fa9181900360800190a15b6008546064101561051c576040805181815260158183015274484947485f4c49515549444154494f4e5f5241544560581b60608201526002602082015290517f1918b9def66daf76d3333d4be4d28fa4fd4473b809ef16b51b13f80c6dd4c5fa9181900360800190a15b6005546007546040517f20cad473c43972ccd178cbfac486163a2dd8fa6669b6fb5dd95cc144543462909261055992908252602082015260400190565b60405180910390a1565b61056b610cbd565b6001600160a01b0384166105b65760405162461bcd60e51b815260206004820152600d60248201526c24b73b30b634b2103a37b5b2b760991b60448201526064015b60405180910390fd5b6123288311156106085760405162461bcd60e51b815260206004820152601a60248201527f436f6c6c61746572616c20666163746f7220746f6f206869676800000000000060448201526064016105ad565b61271082101561065a5760405162461bcd60e51b815260206004820152601a60248201527f496e76616c6964206c69717569646174696f6e20666163746f7200000000000060448201526064016105ad565b613a988211156106ac5760405162461bcd60e51b815260206004820152601b60248201527f4c69717569646174696f6e20666163746f7220746f6f2068696768000000000060448201526064016105ad565b6040805160808101825284815260208082018581528284018581526001606085018181526001600160a01b038b1660008181526003808852908990209751885594519287019290925591516002860155905193909101805460ff191693151593909317909255825186815290810185905290917fb883fef8425dd63ad289ffcfb8012628eff059bf9af25dbcd0906137638889e2910160405180910390a250505050565b600154604051634bc8272160e11b81526001600160a01b03838116600483015260009283928392909116906397904e4290602401602060405180830381865afa1580156107a1573d6000803e3d6000fd5b505050506040513d601f19601f820116820180604052508101906107c59190610e08565b600154604051634d44ac4f60e01b81526001600160a01b03878116600483015292935060009290911690634d44ac4f90602401602060405180830381865afa158015610815573d6000803e3d6000fd5b505050506040513d601f19601f820116820180604052508101906108399190610e08565b90508160000361084f5760009590945092505050565b611b5860006127106108618386610e37565b61086b9190610e4e565b90508281106108895761087e8382610e70565b95506000945061089a565b600095506108978184610e70565b94505b50505050915091565b6108ab610cbd565b6108b56000610d17565b565b6108bf610cbd565b6001600160a01b0316600090815260036020819052604090912001805460ff19169055565b600154604051634bc8272160e11b81526001600160a01b03848116600483015260009283929116906397904e4290602401602060405180830381865afa158015610932573d6000803e3d6000fd5b505050506040513d601f19601f820116820180604052508101906109569190610e08565b9050600060646109668584610e37565b6109709190610e4e565b61097a9083610e70565b600154604051634d44ac4f60e01b81526001600160a01b03888116600483015292935060009290911690634d44ac4f90602401602060405180830381865afa1580156109ca573d6000803e3d6000fd5b505050506040513d601f19601f820116820180604052508101906109ee9190610e08565b905080600003610a05576000199350505050610a22565b80610a1283612710610e37565b610a1c9190610e4e565b93505050505b92915050565b600154604051633f9af35f60e21b81526001600160a01b038381166004830152600092839291169063fe6bcd7c90602401602060405180830381865afa158015610a76573d6000803e3d6000fd5b505050506040513d601f19601f82011682018060405250810190610a9a9190610e08565b613a98119392505050565b600154604051633f9af35f60e21b81526001600160a01b038381166004830152600092839291169063fe6bcd7c90602401602060405180830381865afa158015610af3573d6000803e3d6000fd5b505050506040513d601f19601f82011682018060405250810190610b179190610e08565b9050613a988110610b2b5750600092915050565b612ee08110610b3d5750600192915050565b612af88110610b4f5750600292915050565b50600392915050565b604051635ec88c7960e01b81526001600160a01b038316600482015260009081903090635ec88c79906024016040805180830381865afa158015610ba0573d6000803e3d6000fd5b505050506040513d601f19601f82011682018060405250810190610bc49190610e83565b50909211159392505050565b604051635ec88c7960e01b81526001600160a01b038216600482015260009081903090635ec88c79906024016040805180830381865afa158015610c18573d6000803e3d6000fd5b505050506040513d601f19601f82011682018060405250810190610c3c9190610e83565b509392505050565b610c4c610cbd565b6001600160a01b038116610cb15760405162461bcd60e51b815260206004820152602660248201527f4f776e61626c653a206e6577206f776e657220697320746865207a65726f206160448201526564647265737360d01b60648201526084016105ad565b610cba81610d17565b50565b6000546001600160a01b031633146108b55760405162461bcd60e51b815260206004820181905260248201527f4f776e61626c653a2063616c6c6572206973206e6f7420746865206f776e657260448201526064016105ad565b600080546001600160a01b038381166001600160a01b0319831681178455604051919092169283917f8be0079c531659141344cd1fd0a4f28419497f9722a3daafe3b4186f6b6457e09190a35050565b80356001600160a01b0381168114610d7e57600080fd5b919050565b600060208284031215610d9557600080fd5b610d9e82610d67565b9392505050565b60008060008060808587031215610dbb57600080fd5b610dc485610d67565b966020860135965060408601359560600135945092505050565b60008060408385031215610df157600080fd5b610dfa83610d67565b946020939093013593505050565b600060208284031215610e1a57600080fd5b5051919050565b634e487b7160e01b600052601160045260246000fd5b8082028115828204841417610a2257610a22610e21565b600082610e6b57634e487b7160e01b600052601260045260246000fd5b500490565b81810381811115610a2257610a22610e21565b60008060408385031215610e9657600080fd5b50508051602090910151909290915056fea264697066735822122066c0a656e93ea8f17fd2d2fcfd030e48cdd161c2fda9b3588061a528a392a8f364736f6c63430008140033",
  "linkReferences": {},
  "deployedLinkReferences": {}
}