{
  "_format": "hh-sol-artifact-1",
  "contractName": "DynamicCollateralValidator",
  "sourceName": "contracts/DynamicCollateralValidator.sol",
  "abi": [
    {
      "inputs": [
        {
          "internalType": "address",
          "name": "_riskOracle",
          "type": "address"
        },
        {
          "internalType": "address",
          "name": "_vault",
          "type": "address"
        }
      ],
      "stateMutability": "nonpayable",
      "type": "constructor"
    },
    {
      "anonymous": false,
      "inputs": [
        {
          "indexed": true,
          "internalType": "address",
          "name": "borrower",
          "type": "address"
        },
        {
          "indexed": true,
          "internalType": "address",
          "name": "collateral",
          "type": "address"
        },
        {
          "indexed": false,
          "internalType": "uint256",
          "name": "collateralAmount",
          "type": "uint256"
        },
        {
          "indexed": false,
          "internalType": "uint256",
          "name": "borrowAmount",
          "type": "uint256"
        },
        {
          "indexed": false,
          "internalType": "uint256",
          "name": "requiredRatioBps",
          "type": "uint256"
        },
        {
          "indexed": false,
          "internalType": "uint256",
          "name": "actualRatioBps",
          "type": "uint256"
        }
      ],
      "name": "BorrowRejected",
      "type": "event"
    },
    {
      "anonymous": false,
      "inputs": [
        {
          "indexed": true,
          "internalType": "address",
          "name": "borrower",
          "type": "address"
        },
        {
          "indexed": true,
          "internalType": "address",
          "name": "collateral",
          "type": "address"
        },
        {
          "indexed": false,
          "internalType": "uint256",
          "name": "collateralAmount",
          "type": "uint256"
        },
        {
          "indexed": false,
          "internalType": "uint256",
          "name": "borrowAmount",
          "type": "uint256"
        },
        {
          "indexed": false,
          "internalType": "uint256",
          "name": "requiredRatioBps",
          "type": "uint256"
        },
        {
          "indexed": false,
          "internalType": "uint256",
          "name": "actualRatioBps",
          "type": "uint256"
        }
      ],
      "name": "BorrowValidated",
      "type": "event"
    },
    {
      "anonymous": false,
      "inputs": [
        {
          "indexed": true,
          "internalType": "address",
          "name": "previousOwner",
          "type": "address"
        },
        {
          "indexed": true,
          "internalType": "address",
          "name": "newOwner",
          "type": "address"
        }
      ],
      "name": "OwnershipTransferred",
      "type": "event"
    },
    {
      "inputs": [
        {
          "internalType": "address",
          "name": "asset",
          "type": "address"
        }
      ],
      "name": "getAssetRiskInfo",
      "outputs": [
        {
          "internalType": "uint256",
          "name": "riskScorePercent",
          "type": "uint256"
        },
        {
          "internalType": "uint256",
          "name": "volatilityPercent",
          "type": "uint256"
        },
        {
          "internalType": "uint256",
          "name": "requiredCollateralPercent",
          "type": "uint256"
        },
        {
          "internalType": "string",
          "name": "riskLevel",
          "type": "string"
        }
      ],
      "stateMutability": "view",
      "type": "function"
    },
    {
      "inputs": [],
      "name": "owner",
      "outputs": [
        {
          "internalType": "address",
          "name": "",
          "type": "address"
        }
      ],
      "stateMutability": "view",
      "type": "function"
    },
    {
      "inputs": [],
      "name": "renounceOwnership",
      "outputs": [],
      "stateMutability": "nonpayable",
      "type": "function"
    },
    {
      "inputs": [
        {
          "internalType": "address",
          "name": "borrower",
          "type": "address"
        },
        {
          "internalType": "address",
          "name": "collateralToken",
          "type": "address"
        },
        {
          "internalType": "uint256",
          "name": "collateralAmount",
          "type": "uint256"
        },
        {
          "internalType": "uint256",
          "name": "borrowAmount",
          "type": "uint256"
        }
      ],
      "name": "requireValidBorrow",
      "outputs": [],
      "stateMutability": "view",
      "type": "function"
    },
    {
      "inputs": [],
      "name": "riskOracle",
      "outputs": [
        {
          "internalType": "contract RiskOracle",
          "name": "",
          "type": "address"
        }
      ],
      "stateMutability": "view",
      "type": "function"
    },
    {
      "inputs": [
        {
          "internalType": "address",
          "name": "newOwner",
          "type": "address"
        }
      ],
      "name": "transferOwnership",
      "outputs": [],
      "stateMutability": "nonpayable",
      "type": "function"
    },
    {
      "inputs": [
        {
          "internalType": "address",
          "name": "borrower",
          "type": "address"
        },
        {
          "internalType": "address",
          "name": "collateralToken",
          "type": "address"
        },
        {
          "internalType": "uint256",
          "name": "collateralAmount",
          "type": "uint256"
        },
        {
          "internalType": "uint256",
          "name": "borrowAmount",
          "type": "uint256"
        }
      ],
      "name": "validateBorrow",
      "outputs": [
        {
          "internalType": "bool",
          "name": "isValid",
          "type": "bool"
        },
        {
          "internalType": "uint256",
          "name": "requiredRatioBps",
          "type": "uint256"
        },
        {
          "internalType": "uint256",
          "name": "currentRatioBps",
          "type": "uint256"
        }
      ],
      "stateMutability": "view",
      "type": "function"
    },
    {
      "inputs": [],
      "name": "vault",
      "outputs": [
        {
          "internalType": "contract SmartCollateralVault",
          "name": "",
          "type": "address"
        }
      ],
      "stateMutability": "view",
      "type": "function"
    }
  ],
  "bytecode": "0x608060405234801561001057600080fd5b50604051610a60380380610a6083398101604081905261002f91610139565b610038336100cd565b6001600160a01b0382161580159061005857506001600160a01b03811615155b61009c5760405162461bcd60e51b8152602060048201526011602482015270496e76616c69642061646472657373657360781b604482015260640160405180910390fd5b600180546001600160a01b039384166001600160a01b0319918216179091556002805492909316911617905561016c565b600080546001600160a01b038381166001600160a01b0319831681178455604051919092169283917f8be0079c531659141344cd1fd0a4f28419497f9722a3daafe3b4186f6b6457e09190a35050565b80516001600160a01b038116811461013457600080fd5b919050565b6000806040838503121561014c57600080fd5b6101558361011d565b91506101636020840161011d565b90509250929050565b6108e58061017b6000396000f3fe608060405234801561001057600080fd5b50600436106100885760003560e01c8063dc064f551161005b578063dc064f55146100e7578063ebaf976814610117578063f2fde38b1461013a578063fbfa77cf1461014d57600080fd5b8063715018a61461008d5780638da5cb5b14610097578063a1070e8b146100c1578063d50507fd146100d4575b600080fd5b610095610160565b005b6000546001600160a01b03165b6040516001600160a01b0390911681526020015b60405180910390f35b6100956100cf36600461064c565b610174565b6001546100a4906001600160a01b031681565b6100fa6100f536600461064c565b61026c565b6040805193151584526020840192909252908201526060016100b8565b61012a61012536600461068e565b6103e5565b6040516100b894939291906106d4565b61009561014836600461068e565b61050d565b6002546100a4906001600160a01b031681565b610168610586565b61017260006105e0565b565b60405163dc064f5560e01b81526001600160a01b03808616600483015284166024820152604481018390526064810182905260009081908190309063dc064f5590608401606060405180830381865afa1580156101d5573d6000803e3d6000fd5b505050506040513d601f19601f820116820180604052508101906101f9919061071c565b925092509250826102635760405162461bcd60e51b815260206004820152602960248201527f496e73756666696369656e7420636f6c6c61746572616c20666f722064796e616044820152686d696320726174696f60b81b60648201526084015b60405180910390fd5b50505050505050565b600080806001600160a01b0387166102b95760405162461bcd60e51b815260206004820152601060248201526f24b73b30b634b2103137b93937bbb2b960811b604482015260640161025a565b6001600160a01b0386166103045760405162461bcd60e51b8152602060048201526012602482015271125b9d985b1a590818dbdb1b185d195c985b60721b604482015260640161025a565b6000841161034c5760405162461bcd60e51b8152602060048201526015602482015274125b9d985b1a5908189bdc9c9bddc8185b5bdd5b9d605a1b604482015260640161025a565b60015460405163859b1f2360e01b81526001600160a01b0388811660048301529091169063859b1f2390602401602060405180830381865afa158015610396573d6000803e3d6000fd5b505050506040513d601f19601f820116820180604052508101906103ba9190610758565b9150836103c986612710610771565b6103d3919061079c565b90508181101592509450945094915050565b60015460405163153623c960e11b81526001600160a01b038381166004830152600092839283926060928492839283921690632a6c479290602401606060405180830381865afa15801561043d573d6000803e3d6000fd5b505050506040513d601f19601f8201168201806040525081019061046191906107be565b9194509250905061047360648461079c565b61047e60648461079c565b61048960648461079c565b6001546040516366f759a160e11b81526001600160a01b038d811660048301529091169063cdeeb34290602401600060405180830381865afa1580156104d3573d6000803e3d6000fd5b505050506040513d6000823e601f3d908101601f191682016040526104fb9190810190610802565b96509650965096505050509193509193565b610515610586565b6001600160a01b03811661057a5760405162461bcd60e51b815260206004820152602660248201527f4f776e61626c653a206e6577206f776e657220697320746865207a65726f206160448201526564647265737360d01b606482015260840161025a565b610583816105e0565b50565b6000546001600160a01b031633146101725760405162461bcd60e51b815260206004820181905260248201527f4f776e61626c653a2063616c6c6572206973206e6f7420746865206f776e6572604482015260640161025a565b600080546001600160a01b038381166001600160a01b0319831681178455604051919092169283917f8be0079c531659141344cd1fd0a4f28419497f9722a3daafe3b4186f6b6457e09190a35050565b80356001600160a01b038116811461064757600080fd5b919050565b6000806000806080858703121561066257600080fd5b61066b85610630565b935061067960208601610630565b93969395505050506040820135916060013590565b6000602082840312156106a057600080fd5b6106a982610630565b9392505050565b60005b838110156106cb5781810151838201526020016106b3565b50506000910152565b84815283602082015282604082015260806060820152600082518060808401526107058160a08501602087016106b0565b601f01601f19169190910160a00195945050505050565b60008060006060848603121561073157600080fd5b8351801515811461074157600080fd5b602085015160409095015190969495509392505050565b60006020828403121561076a57600080fd5b5051919050565b808202811582820484141761079657634e487b7160e01b600052601160045260246000fd5b92915050565b6000826107b957634e487b7160e01b600052601260045260246000fd5b500490565b6000806000606084860312156107d357600080fd5b8351925060208401519150604084015190509250925092565b634e487b7160e01b600052604160045260246000fd5b60006020828403121561081457600080fd5b815167ffffffffffffffff8082111561082c57600080fd5b818401915084601f83011261084057600080fd5b815181811115610852576108526107ec565b604051601f8201601f19908116603f0116810190838211818310171561087a5761087a6107ec565b8160405282815287602084870101111561089357600080fd5b6108a48360208301602088016106b0565b97965050505050505056fea26469706673582212208a3ac2ad45925c50e8a7371a9a6c7296d1b9c197f7a1f3c8af1c5d5242d9a1e464736f6c63430008140033",
  "linkReferences": {},
  "deployedLinkReferences": {}
}