{
  "_format": "hh-sol-artifact-1",
  "contractName": "SmartCollateralVault",
  "sourceName": "contracts/SmartCollateralVault.sol",
  "abi": [
    {
      "inputs": [],
      "stateMutability": "nonpayable",
      "type": "constructor"
    },
    {
      "anonymous": false,
      "inputs": [
        {
          "indexed": true,
          "internalType": "address",
          "name": "user",
          "type": "address"
        },
        {
          "indexed": true,
          "internalType": "address",
          "name": "token",
          "type": "address"
        },
        {
          "indexed": false,
          "internalType": "uint256",
          "name": "amount",
          "type": "uint256"
        }
      ],
      "name": "BorrowingInitiated",
      "type": "event"
    },
    {
      "anonymous": false,
      "inputs": [
        {
          "indexed": true,
          "internalType": "address",
          "name": "token",
          "type": "address"
        }
      ],
      "name": "CollateralAdded",
      "type": "event"
    },
    {
      "anonymous": false,
      "inputs": [
        {
          "indexed": true,
          "internalType": "address",
          "name": "user",
          "type": "address"
        },
        {
          "indexed": true,
          "internalType": "address",
          "name": "token",
          "type": "address"
        },
        {
          "indexed": false,
          "internalType": "uint256",
          "name": "amount",
          "type": "uint256"
        }
      ],
      "name": "CollateralDeposited",
      "type": "event"
    },
    {
      "anonymous": false,
      "inputs": [
        {
          "indexed": true,
          "internalType": "address",
          "name": "user",
          "type": "address"
        },
        {
          "indexed": true,
          "internalType": "address",
          "name": "token",
          "type": "address"
        },
        {
          "indexed": false,
          "internalType": "uint256",
          "name": "amount",
          "type": "uint256"
        },
        {
          "indexed": true,
          "internalType": "address",
          "name": "liquidator",
          "type": "address"
        }
      ],
      "name": "CollateralLiquidated",
      "type": "event"
    },
    {
      "anonymous": false,
      "inputs": [
        {
          "indexed": true,
          "internalType": "address",
          "name": "token",
          "type": "address"
        }
      ],
      "name": "CollateralRemoved",
      "type": "event"
    },
    {
      "anonymous": false,
      "inputs": [
        {
          "indexed": true,
          "internalType": "address",
          "name": "user",
          "type": "address"
        },
        {
          "indexed": true,
          "internalType": "address",
          "name": "token",
          "type": "address"
        },
        {
          "indexed": false,
          "internalType": "uint256",
          "name": "amount",
          "type": "uint256"
        }
      ],
      "name": "CollateralWithdrawn",
      "type": "event"
    },
    {
      "anonymous": false,
      "inputs": [
        {
          "indexed": true,
          "internalType": "address",
          "name": "user",
          "type": "address"
        },
        {
          "indexed": true,
          "internalType": "address",
          "name": "token",
          "type": "address"
        },
        {
          "indexed": false,
          "internalType": "uint256",
          "name": "amount",
          "type": "uint256"
        }
      ],
      "name": "DebtRepaid",
      "type": "event"
    },
    {
      "anonymous": false,
      "inputs": [
        {
          "indexed": true,
          "internalType": "address",
          "name": "previousOwner",
          "type": "address"
        },
        {
          "indexed": true,
          "internalType": "address",
          "name": "newOwner",
          "type": "address"
        }
      ],
      "name": "OwnershipTransferred",
      "type": "event"
    },
    {
      "inputs": [
        {
          "internalType": "address",
          "name": "token",
          "type": "address"
        }
      ],
      "name": "addCollateral",
      "outputs": [],
      "stateMutability": "nonpayable",
      "type": "function"
    },
    {
      "inputs": [
        {
          "internalType": "address",
          "name": "collateralToken",
          "type": "address"
        },
        {
          "internalType": "address",
          "name": "borrowToken",
          "type": "address"
        },
        {
          "internalType": "uint256",
          "name": "borrowAmount",
          "type": "uint256"
        }
      ],
      "name": "borrow",
      "outputs": [],
      "stateMutability": "nonpayable",
      "type": "function"
    },
    {
      "inputs": [
        {
          "internalType": "address",
          "name": "",
          "type": "address"
        },
        {
          "internalType": "address",
          "name": "",
          "type": "address"
        }
      ],
      "name": "borrowedAmount",
      "outputs": [
        {
          "internalType": "uint256",
          "name": "",
          "type": "uint256"
        }
      ],
      "stateMutability": "view",
      "type": "function"
    },
    {
      "inputs": [
        {
          "internalType": "address",
          "name": "user",
          "type": "address"
        }
      ],
      "name": "canBeLiquidated",
      "outputs": [
        {
          "internalType": "bool",
          "name": "",
          "type": "bool"
        }
      ],
      "stateMutability": "view",
      "type": "function"
    },
    {
      "inputs": [
        {
          "internalType": "address",
          "name": "",
          "type": "address"
        },
        {
          "internalType": "address",
          "name": "",
          "type": "address"
        }
      ],
      "name": "collateralDeposits",
      "outputs": [
        {
          "internalType": "uint256",
          "name": "",
          "type": "uint256"
        }
      ],
      "stateMutability": "view",
      "type": "function"
    },
    {
      "inputs": [
        {
          "internalType": "address",
          "name": "token",
          "type": "address"
        },
        {
          "internalType": "uint256",
          "name": "amount",
          "type": "uint256"
        }
      ],
      "name": "depositCollateral",
      "outputs": [],
      "stateMutability": "nonpayable",
      "type": "function"
    },
    {
      "inputs": [
        {
          "internalType": "address",
          "name": "user",
          "type": "address"
        }
      ],
      "name": "getCollateralValue",
      "outputs": [
        {
          "internalType": "uint256",
          "name": "",
          "type": "uint256"
        }
      ],
      "stateMutability": "view",
      "type": "function"
    },
    {
      "inputs": [
        {
          "internalType": "address",
          "name": "user",
          "type": "address"
        }
      ],
      "name": "getHealthFactor",
      "outputs": [
        {
          "internalType": "uint256",
          "name": "",
          "type": "uint256"
        }
      ],
      "stateMutability": "view",
      "type": "function"
    },
    {
      "inputs": [],
      "name": "getSupportedCollaterals",
      "outputs": [
        {
          "internalType": "address[]",
          "name": "",
          "type": "address[]"
        }
      ],
      "stateMutability": "view",
      "type": "function"
    },
    {
      "inputs": [
        {
          "internalType": "address",
          "name": "user",
          "type": "address"
        }
      ],
      "name": "getTotalDebt",
      "outputs": [
        {
          "internalType": "uint256",
          "name": "",
          "type": "uint256"
        }
      ],
      "stateMutability": "view",
      "type": "function"
    },
    {
      "inputs": [
        {
          "internalType": "address",
          "name": "",
          "type": "address"
        }
      ],
      "name": "isCollateralSupported",
      "outputs": [
        {
          "internalType": "bool",
          "name": "",
          "type": "bool"
        }
      ],
      "stateMutability": "view",
      "type": "function"
    },
    {
      "inputs": [
        {
          "internalType": "address",
          "name": "user",
          "type": "address"
        }
      ],
      "name": "isHealthy",
      "outputs": [
        {
          "internalType": "bool",
          "name": "",
          "type": "bool"
        }
      ],
      "stateMutability": "view",
      "type": "function"
    },
    {
      "inputs": [],
      "name": "liquidationBonus",
      "outputs": [
        {
          "internalType": "uint256",
          "name": "",
          "type": "uint256"
        }
      ],
      "stateMutability": "view",
      "type": "function"
    },
    {
      "inputs": [],
      "name": "liquidationThreshold",
      "outputs": [
        {
          "internalType": "uint256",
          "name": "",
          "type": "uint256"
        }
      ],
      "stateMutability": "view",
      "type": "function"
    },
    {
      "inputs": [],
      "name": "minCollateralRatio",
      "outputs": [
        {
          "internalType": "uint256",
          "name": "",
          "type": "uint256"
        }
      ],
      "stateMutability": "view",
      "type": "function"
    },
    {
      "inputs": [],
      "name": "owner",
      "outputs": [
        {
          "internalType": "address",
          "name": "",
          "type": "address"
        }
      ],
      "stateMutability": "view",
      "type": "function"
    },
    {
      "inputs": [
        {
          "internalType": "address",
          "name": "token",
          "type": "address"
        }
      ],
      "name": "removeCollateral",
      "outputs": [],
      "stateMutability": "nonpayable",
      "type": "function"
    },
    {
      "inputs": [],
      "name": "renounceOwnership",
      "outputs": [],
      "stateMutability": "nonpayable",
      "type": "function"
    },
    {
      "inputs": [
        {
          "internalType": "address",
          "name": "borrowToken",
          "type": "address"
        },
        {
          "internalType": "uint256",
          "name": "amount",
          "type": "uint256"
        }
      ],
      "name": "repay",
      "outputs": [],
      "stateMutability": "nonpayable",
      "type": "function"
    },
    {
      "inputs": [
        {
          "internalType": "uint256",
          "name": "bonus",
          "type": "uint256"
        }
      ],
      "name": "setLiquidationBonus",
      "outputs": [],
      "stateMutability": "nonpayable",
      "type": "function"
    },
    {
      "inputs": [
        {
          "internalType": "uint256",
          "name": "threshold",
          "type": "uint256"
        }
      ],
      "name": "setLiquidationThreshold",
      "outputs": [],
      "stateMutability": "nonpayable",
      "type": "function"
    },
    {
      "inputs": [
        {
          "internalType": "uint256",
          "name": "newRatio",
          "type": "uint256"
        }
      ],
      "name": "setMinCollateralRatio",
      "outputs": [],
      "stateMutability": "nonpayable",
      "type": "function"
    },
    {
      "inputs": [
        {
          "internalType": "uint256",
          "name": "",
          "type": "uint256"
        }
      ],
      "name": "supportedCollaterals",
      "outputs": [
        {
          "internalType": "address",
          "name": "",
          "type": "address"
        }
      ],
      "stateMutability": "view",
      "type": "function"
    },
    {
      "inputs": [
        {
          "internalType": "address",
          "name": "",
          "type": "address"
        }
      ],
      "name": "totalDebt",
      "outputs": [
        {
          "internalType": "uint256",
          "name": "",
          "type": "uint256"
        }
      ],
      "stateMutability": "view",
      "type": "function"
    },
    {
      "inputs": [
        {
          "internalType": "address",
          "name": "newOwner",
          "type": "address"
        }
      ],
      "name": "transferOwnership",
      "outputs": [],
      "stateMutability": "nonpayable",
      "type": "function"
    },
    {
      "inputs": [
        {
          "internalType": "address",
          "name": "token",
          "type": "address"
        },
        {
          "internalType": "uint256",
          "name": "amount",
          "type": "uint256"
        }
      ],
      "name": "withdrawCollateral",
      "outputs": [],
      "stateMutability": "nonpayable",
      "type": "function"
    }
  ],
  "bytecode": "0x6080604052613a98600655612ee06007556103e860085534801561002257600080fd5b50600160005561003133610036565b610088565b600180546001600160a01b038381166001600160a01b0319831681179093556040519116919082907f8be0079c531659141344cd1fd0a4f28419497f9722a3daafe3b4186f6b6457e090600090a35050565b6115cd806100976000396000f3fe608060405234801561001057600080fd5b506004361061018e5760003560e01c806372665438116100de578063c99d3a0611610097578063f0d2d5a811610071578063f0d2d5a814610386578063f2fde38b14610399578063fa6bd2ee146103ac578063fe6bcd7c146103cf57600080fd5b8063c99d3a061461034d578063d0b0c81614610360578063d4d9bc681461037357600080fd5b806372665438146102d95780637b7c1f4c1461030457806384da26661461030d5780638da5cb5b1461031657806397904e4214610327578063a5d5db0c1461033a57600080fd5b8063350c35e91161014b57806347788cd01161012557806347788cd0146102885780634d44ac4f146102ab5780635224372c146102be578063715018a6146102d157600080fd5b8063350c35e914610259578063385362751461026c5780634031234c1461027f57600080fd5b806303e2bb2e1461019357806305db8a69146101c35780630c65e07b146101d85780631ff517ff1461021157806322867d781461023157806328842d4f14610246575b600080fd5b6101a66101a1366004611341565b6103e2565b6040516001600160a01b0390911681526020015b60405180910390f35b6101cb61040c565b6040516101ba919061135a565b6102036101e63660046113c3565b600260209081526000928352604080842090915290825290205481565b6040519081526020016101ba565b61020361021f3660046113f6565b60056020526000908152604090205481565b61024461023f366004611418565b61046e565b005b610244610254366004611341565b610632565b610244610267366004611418565b610682565b61024461027a366004611341565b61085a565b61020360075481565b61029b6102963660046113f6565b6108a8565b60405190151581526020016101ba565b6102036102b93660046113f6565b6108bf565b6102446102cc366004611442565b61093e565b610244610bf6565b6102036102e73660046113c3565b600460209081526000928352604080842090915290825290205481565b61020360085481565b61020360065481565b6001546001600160a01b03166101a6565b6102036103353660046113f6565b610c0a565b610244610348366004611418565b610c8a565b61024461035b3660046113f6565b610dfd565b61024461036e366004611341565b610fc1565b61029b6103813660046113f6565b611013565b6102446103943660046113f6565b61102b565b6102446103a73660046113f6565b611176565b61029b6103ba3660046113f6565b60036020526000908152604090205460ff1681565b6102036103dd3660046113f6565b6111ef565b600981815481106103f257600080fd5b6000918252602090912001546001600160a01b0316905081565b6060600980548060200260200160405190810160405280929190818152602001828054801561046457602002820191906000526020600020905b81546001600160a01b03168152600190910190602001808311610446575b5050505050905090565b61047661123c565b3360009081526004602090815260408083206001600160a01b03861684529091529020548111156104e65760405162461bcd60e51b81526020600482015260156024820152740a4cae0c2f240c2dadeeadce840e8dede40d0d2ced605b1b60448201526064015b60405180910390fd5b600081116105065760405162461bcd60e51b81526004016104dd9061147e565b6040516323b872dd60e01b8152336004820152306024820152604481018290526001600160a01b038316906323b872dd906064016020604051808303816000875af1158015610559573d6000803e3d6000fd5b505050506040513d601f19601f8201168201806040525081019061057d91906114b5565b503360009081526004602090815260408083206001600160a01b0386168452909152812080548392906105b19084906114ed565b90915550506001600160a01b038216600090815260056020526040812080548392906105de9084906114ed565b90915550506040518181526001600160a01b0383169033907feef1a28252f7c3266ccea3202ee9693f0834485bc3551310a406e04829c7e2cf906020015b60405180910390a361062e6001600055565b5050565b61063a611295565b61138881111561067d5760405162461bcd60e51b815260206004820152600e60248201526d084dedceae640e8dede40d0d2ced60931b60448201526064016104dd565b600855565b61068a61123c565b3360009081526002602090815260408083206001600160a01b03861684529091529020548111156106fd5760405162461bcd60e51b815260206004820152601760248201527f496e73756666696369656e7420636f6c6c61746572616c00000000000000000060448201526064016104dd565b6000811161071d5760405162461bcd60e51b81526004016104dd9061147e565b3360009081526002602090815260408083206001600160a01b0386168452909152812080548392906107509084906114ed565b9091555061075f905033611013565b6107ab5760405162461bcd60e51b815260206004820152601e60248201527f576f756c642076696f6c61746520636f6c6c61746572616c20726174696f000060448201526064016104dd565b60405163a9059cbb60e01b8152336004820152602481018290526001600160a01b0383169063a9059cbb906044016020604051808303816000875af11580156107f8573d6000803e3d6000fd5b505050506040513d601f19601f8201168201806040525081019061081c91906114b5565b506040518181526001600160a01b0383169033907f45892a46e6cef329bb642da6d69846d324db43d19008edc141ed82382eda1bee9060200161061c565b610862611295565b60075481116108a35760405162461bcd60e51b815260206004820152600d60248201526c526174696f20746f6f206c6f7760981b60448201526064016104dd565b600655565b6000806108b4836111ef565b600754119392505050565b600080805b600954811015610937576000600982815481106108e3576108e3611506565b60009182526020808320909101546001600160a01b03888116845260048352604080852091909216808552925290912054909150610921908461151c565b925050808061092f9061152f565b9150506108c4565b5092915050565b61094661123c565b6001600160a01b03831660009081526003602052604090205460ff166109ae5760405162461bcd60e51b815260206004820152601e60248201527f436f6c6c61746572616c20746f6b656e206e6f7420737570706f72746564000060448201526064016104dd565b3360009081526002602090815260408083206001600160a01b0387168452909152902054610a1e5760405162461bcd60e51b815260206004820152601760248201527f4e6f20636f6c6c61746572616c206465706f736974656400000000000000000060448201526064016104dd565b60008111610a7a5760405162461bcd60e51b8152602060048201526024808201527f426f72726f7720616d6f756e74206d75737420626520677265617465722074686044820152630616e20360e41b60648201526084016104dd565b3360009081526004602090815260408083206001600160a01b038616845290915281208054839290610aad90849061151c565b90915550506001600160a01b03821660009081526005602052604081208054839290610ada90849061151c565b90915550610ae9905033611013565b610b355760405162461bcd60e51b815260206004820152601e60248201527f576f756c642076696f6c61746520636f6c6c61746572616c20726174696f000060448201526064016104dd565b60405163a9059cbb60e01b8152336004820152602481018290526001600160a01b0383169063a9059cbb906044016020604051808303816000875af1158015610b82573d6000803e3d6000fd5b505050506040513d601f19601f82011682018060405250810190610ba691906114b5565b506040518181526001600160a01b0383169033907ffe821c07e412216df3754b3a1e48236aeb7e71d02963f09736f67fe568718ca69060200160405180910390a3610bf16001600055565b505050565b610bfe611295565b610c0860006112ef565b565b600080805b60095481101561093757600060098281548110610c2e57610c2e611506565b60009182526020808320909101546001600160a01b038881168452600283526040808520919092168085529252909120549091508015610c7557610c72818561151c565b93505b50508080610c829061152f565b915050610c0f565b610c9261123c565b6001600160a01b03821660009081526003602052604090205460ff16610cf05760405162461bcd60e51b8152602060048201526013602482015272151bdad95b881b9bdd081cdd5c1c1bdc9d1959606a1b60448201526064016104dd565b60008111610d105760405162461bcd60e51b81526004016104dd9061147e565b6040516323b872dd60e01b8152336004820152306024820152604481018290526001600160a01b038316906323b872dd906064016020604051808303816000875af1158015610d63573d6000803e3d6000fd5b505050506040513d601f19601f82011682018060405250810190610d8791906114b5565b503360009081526002602090815260408083206001600160a01b038616845290915281208054839290610dbb90849061151c565b90915550506040518181526001600160a01b0383169033907ff1c0dd7e9b98bbff859029005ef89b127af049cd18df1a8d79f0b7e019911e569060200161061c565b610e05611295565b6001600160a01b03811660009081526003602052604090205460ff16610e635760405162461bcd60e51b8152602060048201526013602482015272151bdad95b881b9bdd081cdd5c1c1bdc9d1959606a1b60448201526064016104dd565b6001600160a01b0381166000908152600360205260408120805460ff191690555b600954811015610f8957816001600160a01b031660098281548110610eab57610eab611506565b6000918252602090912001546001600160a01b031603610f775760098054610ed5906001906114ed565b81548110610ee557610ee5611506565b600091825260209091200154600980546001600160a01b039092169183908110610f1157610f11611506565b9060005260206000200160006101000a8154816001600160a01b0302191690836001600160a01b031602179055506009805480610f5057610f50611548565b600082815260209020810160001990810180546001600160a01b0319169055019055610f89565b80610f818161152f565b915050610e84565b506040516001600160a01b038216907fd89d2ee68ab04dca0193f48a4aff55e20fa5ec0429a8a8c1c51b8dad6178a59390600090a250565b610fc9611295565b600654811061100e5760405162461bcd60e51b8152602060048201526011602482015270125b9d985b1a59081d1a1c995cda1bdb19607a1b60448201526064016104dd565b600755565b60008061101f836111ef565b60065411159392505050565b611033611295565b6001600160a01b0381166110815760405162461bcd60e51b8152602060048201526015602482015274496e76616c696420746f6b656e206164647265737360581b60448201526064016104dd565b6001600160a01b03811660009081526003602052604090205460ff16156110ea5760405162461bcd60e51b815260206004820152601760248201527f546f6b656e20616c726561647920737570706f7274656400000000000000000060448201526064016104dd565b6001600160a01b038116600081815260036020526040808220805460ff1916600190811790915560098054918201815583527f6e1540171b6c0c960b71a7020d9f60077f6af931a8bbf590da0223dacf75c7af0180546001600160a01b03191684179055517f7db05e63d635a68c62fd7fd8f3107ae8ab584a383e102d1bd8a40f4c977e465f9190a250565b61117e611295565b6001600160a01b0381166111e35760405162461bcd60e51b815260206004820152602660248201527f4f776e61626c653a206e6577206f776e657220697320746865207a65726f206160448201526564647265737360d01b60648201526084016104dd565b6111ec816112ef565b50565b6000806111fb83610c0a565b90506000611208846108bf565b90508060000361121d57506000199392505050565b8061122a8361271061155e565b6112349190611575565b949350505050565b60026000540361128e5760405162461bcd60e51b815260206004820152601f60248201527f5265656e7472616e637947756172643a207265656e7472616e742063616c6c0060448201526064016104dd565b6002600055565b6001546001600160a01b03163314610c085760405162461bcd60e51b815260206004820181905260248201527f4f776e61626c653a2063616c6c6572206973206e6f7420746865206f776e657260448201526064016104dd565b600180546001600160a01b038381166001600160a01b0319831681179093556040519116919082907f8be0079c531659141344cd1fd0a4f28419497f9722a3daafe3b4186f6b6457e090600090a35050565b60006020828403121561135357600080fd5b5035919050565b6020808252825182820181905260009190848201906040850190845b8181101561139b5783516001600160a01b031683529284019291840191600101611376565b50909695505050505050565b80356001600160a01b03811681146113be57600080fd5b919050565b600080604083850312156113d657600080fd5b6113df836113a7565b91506113ed602084016113a7565b90509250929050565b60006020828403121561140857600080fd5b611411826113a7565b9392505050565b6000806040838503121561142b57600080fd5b611434836113a7565b946020939093013593505050565b60008060006060848603121561145757600080fd5b611460846113a7565b925061146e602085016113a7565b9150604084013590509250925092565b6020808252601d908201527f416d6f756e74206d7573742062652067726561746572207468616e2030000000604082015260600190565b6000602082840312156114c757600080fd5b8151801515811461141157600080fd5b634e487b7160e01b600052601160045260246000fd5b81810381811115611500576115006114d7565b92915050565b634e487b7160e01b600052603260045260246000fd5b80820180821115611500576115006114d7565b600060018201611541576115416114d7565b5060010190565b634e487b7160e01b600052603160045260246000fd5b8082028115828204841417611500576115006114d7565b60008261159257634e487b7160e01b600052601260045260246000fd5b50049056fea264697066735822122069397819931f17f8c44744f565ca2a6c73d3963638010331258848c614b1660064736f6c63430008140033",
  "linkReferences": {},
  "deployedLinkReferences": {}
}