{
  "_format": "hh-sol-artifact-1",
  "contractName": "RiskOracle",
  "sourceName": "contracts/RiskOracle.sol",
  "abi": [
    {
      "inputs": [],
      "stateMutability": "nonpayable",
      "type": "constructor"
    },
    {
      "anonymous": false,
      "inputs": [
        {
          "indexed": true,
          "internalType": "address",
          "name": "asset",
          "type": "address"
        },
        {
          "indexed": false,
          "internalType": "uint256",
          "name": "riskScore",
          "type": "uint256"
        },
        {
          "indexed": false,
          "internalType": "uint256",
          "name": "volatilityScore",
          "type": "uint256"
        },
        {
          "indexed": false,
          "internalType": "uint256",
          "name": "requiredCollateralRatioBps",
          "type": "uint256"
        }
      ],
      "name": "AssetRiskUpdated",
      "type": "event"
    },
    {
      "anonymous": false,
      "inputs": [
        {
          "indexed": true,
          "internalType": "address",
          "name": "borrower",
          "type": "address"
        },
        {
          "indexed": true,
          "internalType": "uint256",
          "name": "loanId",
          "type": "uint256"
        },
        {
          "indexed": false,
          "internalType": "uint256",
          "name": "riskBps",
          "type": "uint256"
        }
      ],
      "name": "BorrowerRiskScoreUpdated",
      "type": "event"
    },
    {
      "anonymous": false,
      "inputs": [
        {
          "indexed": true,
          "internalType": "address",
          "name": "previousOwner",
          "type": "address"
        },
        {
          "indexed": true,
          "internalType": "address",
          "name": "newOwner",
          "type": "address"
        }
      ],
      "name": "OwnershipTransferred",
      "type": "event"
    },
    {
      "inputs": [
        {
          "internalType": "address",
          "name": "",
          "type": "address"
        }
      ],
      "name": "assetRisks",
      "outputs": [
        {
          "internalType": "uint256",
          "name": "riskScore",
          "type": "uint256"
        },
        {
          "internalType": "uint256",
          "name": "volatilityScore",
          "type": "uint256"
        },
        {
          "internalType": "uint256",
          "name": "requiredCollateralRatioBps",
          "type": "uint256"
        },
        {
          "internalType": "uint256",
          "name": "updatedAt",
          "type": "uint256"
        },
        {
          "internalType": "bool",
          "name": "isActive",
          "type": "bool"
        }
      ],
      "stateMutability": "view",
      "type": "function"
    },
    {
      "inputs": [
        {
          "internalType": "address",
          "name": "asset",
          "type": "address"
        }
      ],
      "name": "getAssetRisk",
      "outputs": [
        {
          "internalType": "uint256",
          "name": "riskScore",
          "type": "uint256"
        },
        {
          "internalType": "uint256",
          "name": "volatilityScore",
          "type": "uint256"
        },
        {
          "internalType": "uint256",
          "name": "requiredCollateralRatioBps",
          "type": "uint256"
        }
      ],
      "stateMutability": "view",
      "type": "function"
    },
    {
      "inputs": [
        {
          "internalType": "address",
          "name": "asset",
          "type": "address"
        }
      ],
      "name": "getLiquidationRiskLevel",
      "outputs": [
        {
          "internalType": "string",
          "name": "",
          "type": "string"
        }
      ],
      "stateMutability": "view",
      "type": "function"
    },
    {
      "inputs": [
        {
          "internalType": "address",
          "name": "asset",
          "type": "address"
        }
      ],
      "name": "getRequiredCollateralRatio",
      "outputs": [
        {
          "internalType": "uint256",
          "name": "",
          "type": "uint256"
        }
      ],
      "stateMutability": "view",
      "type": "function"
    },
    {
      "inputs": [
        {
          "internalType": "address",
          "name": "borrower",
          "type": "address"
        },
        {
          "internalType": "uint256",
          "name": "loanId",
          "type": "uint256"
        }
      ],
      "name": "getRiskBps",
      "outputs": [
        {
          "internalType": "uint256",
          "name": "",
          "type": "uint256"
        }
      ],
      "stateMutability": "view",
      "type": "function"
    },
    {
      "inputs": [
        {
          "internalType": "address",
          "name": "borrower",
          "type": "address"
        },
        {
          "internalType": "uint256",
          "name": "loanId",
          "type": "uint256"
        }
      ],
      "name": "getRiskScore",
      "outputs": [
        {
          "internalType": "uint256",
          "name": "riskBps",
          "type": "uint256"
        },
        {
          "internalType": "uint256",
          "name": "updatedAt",
          "type": "uint256"
        }
      ],
      "stateMutability": "view",
      "type": "function"
    },
    {
      "inputs": [
        {
          "internalType": "address",
          "name": "asset",
          "type": "address"
        }
      ],
      "name": "getRiskScorePercent",
      "outputs": [
        {
          "internalType": "uint256",
          "name": "",
          "type": "uint256"
        }
      ],
      "stateMutability": "view",
      "type": "function"
    },
    {
      "inputs": [
        {
          "internalType": "address",
          "name": "asset",
          "type": "address"
        }
      ],
      "name": "getVolatilityScore",
      "outputs": [
        {
          "internalType": "uint256",
          "name": "",
          "type": "uint256"
        }
      ],
      "stateMutability": "view",
      "type": "function"
    },
    {
      "inputs": [],
      "name": "owner",
      "outputs": [
        {
          "internalType": "address",
          "name": "",
          "type": "address"
        }
      ],
      "stateMutability": "view",
      "type": "function"
    },
    {
      "inputs": [],
      "name": "renounceOwnership",
      "outputs": [],
      "stateMutability": "nonpayable",
      "type": "function"
    },
    {
      "inputs": [
        {
          "internalType": "address",
          "name": "asset",
          "type": "address"
        },
        {
          "internalType": "uint256",
          "name": "riskScore",
          "type": "uint256"
        },
        {
          "internalType": "uint256",
          "name": "volatilityScore",
          "type": "uint256"
        },
        {
          "internalType": "uint256",
          "name": "requiredCollateralRatioBps",
          "type": "uint256"
        }
      ],
      "name": "setAssetRisk",
      "outputs": [],
      "stateMutability": "nonpayable",
      "type": "function"
    },
    {
      "inputs": [
        {
          "internalType": "address",
          "name": "borrower",
          "type": "address"
        },
        {
          "internalType": "uint256",
          "name": "loanId",
          "type": "uint256"
        },
        {
          "internalType": "uint256",
          "name": "riskBps",
          "type": "uint256"
        }
      ],
      "name": "setRiskScore",
      "outputs": [],
      "stateMutability": "nonpayable",
      "type": "function"
    },
    {
      "inputs": [
        {
          "internalType": "address",
          "name": "newOwner",
          "type": "address"
        }
      ],
      "name": "transferOwnership",
      "outputs": [],
      "stateMutability": "nonpayable",
      "type": "function"
    }
  ],
  "bytecode": "0x608060405234801561001057600080fd5b5061001a33610310565b6040805160a08101825261032081526107d060208083019182526136b093830193845242606084019081526001608085018181526000829052925292517fcc69885fda6bcc1a4ace058b4a62bf5e179ea78fd58a1ccd71c22cc9b688792f5590517fcc69885fda6bcc1a4ace058b4a62bf5e179ea78fd58a1ccd71c22cc9b68879305591517fcc69885fda6bcc1a4ace058b4a62bf5e179ea78fd58a1ccd71c22cc9b688793155517fcc69885fda6bcc1a4ace058b4a62bf5e179ea78fd58a1ccd71c22cc9b688793255517fcc69885fda6bcc1a4ace058b4a62bf5e179ea78fd58a1ccd71c22cc9b6887933805460ff19169115159190911790556040805160a0810182526104b08152610fa06020808301918252613e8093830193845242606084019081526001608085018181526002600052925292517fd9d16d34ffb15ba3a3d852f0d403e2ce1d691fb54de27ac87cd2f993f3ec330f5590517fd9d16d34ffb15ba3a3d852f0d403e2ce1d691fb54de27ac87cd2f993f3ec33105591517fd9d16d34ffb15ba3a3d852f0d403e2ce1d691fb54de27ac87cd2f993f3ec331155517fd9d16d34ffb15ba3a3d852f0d403e2ce1d691fb54de27ac87cd2f993f3ec331255517fd9d16d34ffb15ba3a3d852f0d403e2ce1d691fb54de27ac87cd2f993f3ec3313805460ff19169115159190911790556040805160a081018252610dac8152611f4060208083019182526155f093830193845242606084019081526001608085018181526003600052925292517f7dfe757ecd65cbd7922a9c0161e935dd7fdbcc0e999689c7d31633896b1fc60b5590517f7dfe757ecd65cbd7922a9c0161e935dd7fdbcc0e999689c7d31633896b1fc60c5591517f7dfe757ecd65cbd7922a9c0161e935dd7fdbcc0e999689c7d31633896b1fc60d55517f7dfe757ecd65cbd7922a9c0161e935dd7fdbcc0e999689c7d31633896b1fc60e55517f7dfe757ecd65cbd7922a9c0161e935dd7fdbcc0e999689c7d31633896b1fc60f805460ff1916911515919091179055610360565b600080546001600160a01b038381166001600160a01b0319831681178455604051919092169283917f8be0079c531659141344cd1fd0a4f28419497f9722a3daafe3b4186f6b6457e09190a35050565b610b058061036f6000396000f3fe608060405234801561001057600080fd5b50600436106100cf5760003560e01c80636953637b1161008c5780638ba08220116100665780638ba08220146101fa5780638da5cb5b14610222578063cdeeb3421461023d578063f2fde38b1461025d57600080fd5b80636953637b146101cc578063715018a6146101df578063859b1f23146101e757600080fd5b80631f210998146100d45780632a6c4792146100fa5780633c26ba31146101285780633f448d971461013d5780636241d7681461015057806364210613146101b9575b600080fd5b6100e76100e23660046109c9565b610270565b6040519081526020015b60405180910390f35b61010d6101083660046109c9565b6102dd565b604080519384526020840192909252908201526060016100f1565b61013b6101363660046109eb565b61036d565b005b6100e761014b3660046109c9565b610542565b61018f61015e3660046109c9565b6001602081905260009182526040909120805491810154600282015460038301546004909301549192909160ff1685565b6040805195865260208601949094529284019190915260608301521515608082015260a0016100f1565b61013b6101c7366004610a24565b6105ac565b6100e76101da366004610a57565b61069e565b61013b6106d9565b6100e76101f53660046109c9565b6106ed565b61020d610208366004610a57565b61075a565b604080519283526020830191909152016100f1565b6000546040516001600160a01b0390911681526020016100f1565b61025061024b3660046109c9565b61079c565b6040516100f19190610a81565b61013b61026b3660046109c9565b61088a565b6001600160a01b0381166000908152600160208181526040808420815160a081018352815481529381015492840192909252600282015490830152600381015460608301526004015460ff161515608082018190526102d357506107d092915050565b6020015192915050565b6001600160a01b0381166000908152600160208181526040808420815160a081018352815481529381015492840192909252600282015490830152600381015460608301526004015460ff161515608082018190528291829161034f576103e86107d06136b093509350935050610366565b806000015181602001518260400151935093509350505b9193909250565b610375610903565b6001600160a01b0384166103c05760405162461bcd60e51b815260206004820152600d60248201526c125b9d985b1a5908185cdcd95d609a1b60448201526064015b60405180910390fd5b6127108311156104025760405162461bcd60e51b815260206004820152600d60248201526c0a4d2e6d640e8dede40d0d2ced609b1b60448201526064016103b7565b61271082111561044a5760405162461bcd60e51b81526020600482015260136024820152720acded8c2e8d2d8d2e8f240e8dede40d0d2ced606b1b60448201526064016103b7565b61271081101561048c5760405162461bcd60e51b815260206004820152600d60248201526c526174696f20746f6f206c6f7760981b60448201526064016103b7565b6040805160a08101825284815260208082018581528284018581524260608086019182526001608087018181526001600160a01b038d1660008181528389528a902098518955955191880191909155925160028701559051600386015590516004909401805460ff19169415159490941790935583518781529182018690529281018490527f7d0f860c98a939841ac79d041d73c28b5b838c2ada786e72f4a6a1b1dc0f2569910160405180910390a250505050565b6001600160a01b0381166000908152600160208181526040808420815160a081018352815481529381015492840192909252600282015490830152600381015460608301526004015460ff161515608082018190526105a557506103e892915050565b5192915050565b6105b4610903565b6001600160a01b0383166105fd5760405162461bcd60e51b815260206004820152601060248201526f24b73b30b634b2103137b93937bbb2b960811b60448201526064016103b7565b61271081111561063f5760405162461bcd60e51b815260206004820152600d60248201526c0a4d2e6d640e8dede40d0d2ced609b1b60448201526064016103b7565b6001600160a01b038316600081815260026020908152604080832086845282529182902084905590518381528492917f110c508fad105609d333b96a011a1111c0d0312391b18e1ddb5cf9f15ec155c6910160405180910390a3505050565b6001600160a01b0382166000908152600260209081526040808320848452909152812054806106cf576103e86106d1565b805b949350505050565b6106e1610903565b6106eb600061095d565b565b6001600160a01b0381166000908152600160208181526040808420815160a081018352815481529381015492840192909252600282015490830152600381015460608301526004015460ff1615156080820181905261075057506136b092915050565b6040015192915050565b6001600160a01b03821660009081526002602090815260408083208484529091528120548190818161078e576103e8610790565b815b96429650945050505050565b6001600160a01b0381166000908152600160208181526040808420815160a081018352815481529381015492840192909252600282015490830152600381015460608381019190915260049091015460ff16151560808301819052909290610806576103e8610809565b81515b90506103e881101561083957505060408051808201909152600581526423a922a2a760d91b602082015292915050565b6109c481101561086857505060408051808201909152600681526559454c4c4f5760d01b602082015292915050565b505060408051808201909152600381526214915160ea1b602082015292915050565b610892610903565b6001600160a01b0381166108f75760405162461bcd60e51b815260206004820152602660248201527f4f776e61626c653a206e6577206f776e657220697320746865207a65726f206160448201526564647265737360d01b60648201526084016103b7565b6109008161095d565b50565b6000546001600160a01b031633146106eb5760405162461bcd60e51b815260206004820181905260248201527f4f776e61626c653a2063616c6c6572206973206e6f7420746865206f776e657260448201526064016103b7565b600080546001600160a01b038381166001600160a01b0319831681178455604051919092169283917f8be0079c531659141344cd1fd0a4f28419497f9722a3daafe3b4186f6b6457e09190a35050565b80356001600160a01b03811681146109c457600080fd5b919050565b6000602082840312156109db57600080fd5b6109e4826109ad565b9392505050565b60008060008060808587031215610a0157600080fd5b610a0a856109ad565b966020860135965060408601359560600135945092505050565b600080600060608486031215610a3957600080fd5b610a42846109ad565b95602085013595506040909401359392505050565b60008060408385031215610a6a57600080fd5b610a73836109ad565b946020939093013593505050565b600060208083528351808285015260005b81811015610aae57858101830151858201604001528201610a92565b506000604082860101526040601f19601f830116850101925050509291505056fea2646970667358221220f3db7057c19e7c5aa6f54168e8a7b1252478f994d6ab068c2bd6411a65b074ba64736f6c63430008140033",
  "linkReferences": {},
  "deployedLinkReferences": {}
}