{
  "_format": "hh-sol-artifact-1",
  "contractName": "MockUSDT",
  "sourceName": "contracts/MockUSDT.sol",
  "abi": [
    {
      "inputs": [],
      "stateMutability": "nonpayable",
      "type": "constructor"
    },
    {
      "anonymous": false,
      "inputs": [
        {
          "indexed": true,
          "internalType": "address",
          "name": "owner",
          "type": "address"
        },
        {
          "indexed": true,
          "internalType": "address",
          "name": "spender",
          "type": "address"
        },
        {
          "indexed": false,
          "internalType": "uint256",
          "name": "value",
          "type": "uint256"
        }
      ],
      "name": "Approval",
      "type": "event"
    },
    {
      "anonymous": false,
      "inputs": [
        {
          "indexed": true,
          "internalType": "address",
          "name": "previousOwner",
          "type": "address"
        },
        {
          "indexed": true,
          "internalType": "address",
          "name": "newOwner",
          "type": "address"
        }
      ],
      "name": "OwnershipTransferred",
      "type": "event"
    },
    {
      "anonymous": false,
      "inputs": [
        {
          "indexed": true,
          "internalType": "address",
          "name": "from",
          "type": "address"
        },
        {
          "indexed": true,
          "internalType": "address",
          "name": "to",
          "type": "address"
        },
        {
          "indexed": false,
          "internalType": "uint256",
          "name": "value",
          "type": "uint256"
        }
      ],
      "name": "Transfer",
      "type": "event"
    },
    {
      "inputs": [
        {
          "internalType": "address",
          "name": "owner",
          "type": "address"
        },
        {
          "internalType": "address",
          "name": "spender",
          "type": "address"
        }
      ],
      "name": "allowance",
      "outputs": [
        {
          "internalType": "uint256",
          "name": "",
          "type": "uint256"
        }
      ],
      "stateMutability": "view",
      "type": "function"
    },
    {
      "inputs": [
        {
          "internalType": "address",
          "name": "spender",
          "type": "address"
        },
        {
          "internalType": "uint256",
          "name": "amount",
          "type": "uint256"
        }
      ],
      "name": "approve",
      "outputs": [
        {
          "internalType": "bool",
          "name": "",
          "type": "bool"
        }
      ],
      "stateMutability": "nonpayable",
      "type": "function"
    },
    {
      "inputs": [
        {
          "internalType": "address",
          "name": "account",
          "type": "address"
        }
      ],
      "name": "balanceOf",
      "outputs": [
        {
          "internalType": "uint256",
          "name": "",
          "type": "uint256"
        }
      ],
      "stateMutability": "view",
      "type": "function"
    },
    {
      "inputs": [],
      "name": "decimals",
      "outputs": [
        {
          "internalType": "uint8",
          "name": "",
          "type": "uint8"
        }
      ],
      "stateMutability": "view",
      "type": "function"
    },
    {
      "inputs": [
        {
          "internalType": "address",
          "name": "spender",
          "type": "address"
        },
        {
          "internalType": "uint256",
          "name": "subtractedValue",
          "type": "uint256"
        }
      ],
      "name": "decreaseAllowance",
      "outputs": [
        {
          "internalType": "bool",
          "name": "",
          "type": "bool"
        }
      ],
      "stateMutability": "nonpayable",
      "type": "function"
    },
    {
      "inputs": [
        {
          "internalType": "uint256",
          "name": "amount",
          "type": "uint256"
        }
      ],
      "name": "faucet",
      "outputs": [],
      "stateMutability": "nonpayable",
      "type": "function"
    },
    {
      "inputs": [
        {
          "internalType": "address",
          "name": "spender",
          "type": "address"
        },
        {
          "internalType": "uint256",
          "name": "addedValue",
          "type": "uint256"
        }
      ],
      "name": "increaseAllowance",
      "outputs": [
        {
          "internalType": "bool",
          "name": "",
          "type": "bool"
        }
      ],
      "stateMutability": "nonpayable",
      "type": "function"
    },
    {
      "inputs": [
        {
          "internalType": "address",
          "name": "to",
          "type": "address"
        },
        {
          "internalType": "uint256",
          "name": "amount",
          "type": "uint256"
        }
      ],
      "name": "mint",
      "outputs": [],
      "stateMutability": "nonpayable",
      "type": "function"
    },
    {
      "inputs": [],
      "name": "name",
      "outputs": [
        {
          "internalType": "string",
          "name": "",
          "type": "string"
        }
      ],
      "stateMutability": "view",
      "type": "function"
    },
    {
      "inputs": [],
      "name": "owner",
      "outputs": [
        {
          "internalType": "address",
          "name": "",
          "type": "address"
        }
      ],
      "stateMutability": "view",
      "type": "function"
    },
    {
      "inputs": [],
      "name": "renounceOwnership",
      "outputs": [],
      "stateMutability": "nonpayable",
      "type": "function"
    },
    {
      "inputs": [],
      "name": "symbol",
      "outputs": [
        {
          "internalType": "string",
          "name": "",
          "type": "string"
        }
      ],
      "stateMutability": "view",
      "type": "function"
    },
    {
      "inputs": [],
      "name": "totalSupply",
      "outputs": [
        {
          "internalType": "uint256",
          "name": "",
          "type": "uint256"
        }
      ],
      "stateMutability": "view",
      "type": "function"
    },
    {
      "inputs": [
        {
          "internalType": "address",
          "name": "to",
          "type": "address"
        },
        {
          "internalType": "uint256",
          "name": "amount",
          "type": "uint256"
        }
      ],
      "name": "transfer",
      "outputs": [
        {
          "internalType": "bool",
          "name": "",
          "type": "bool"
        }
      ],
      "stateMutability": "nonpayable",
      "type": "function"
    },
    {
      "inputs": [
        {
          "internalType": "address",
          "name": "from",
          "type": "address"
        },
        {
          "internalType": "address",
          "name": "to",
          "type": "address"
        },
        {
          "internalType": "uint256",
          "name": "amount",
          "type": "uint256"
        }
      ],
      "name": "transferFrom",
      "outputs": [
        {
          "internalType": "bool",
          "name": "",
          "type": "bool"
        }
      ],
      "stateMutability": "nonpayable",
      "type": "function"
    },
    {
      "inputs": [
        {
          "internalType": "address",
          "name": "newOwner",
          "type": "address"
        }
      ],
      "name": "transferOwnership",
      "outputs": [],
      "stateMutability": "nonpayable",
      "type": "function"
    }
  ],
  "bytecode": "0x60806040523480156200001157600080fd5b5060405180604001604052806009815260200168135bd8dac81554d11560ba1b815250604051806040016040528060058152602001641b5554d11560da1b815250816003908162000063919062000283565b50600462000072828262000283565b5050506200008f62000089620000be60201b60201c565b620000c2565b6005805460ff60a01b1916600960a11b179055620000b83369d3c21bcecceda100000062000114565b62000377565b3390565b600580546001600160a01b038381166001600160a01b0319831681179093556040519116919082907f8be0079c531659141344cd1fd0a4f28419497f9722a3daafe3b4186f6b6457e090600090a35050565b6001600160a01b0382166200016f5760405162461bcd60e51b815260206004820152601f60248201527f45524332303a206d696e7420746f20746865207a65726f206164647265737300604482015260640160405180910390fd5b80600260008282546200018391906200034f565b90915550506001600160a01b038216600081815260208181526040808320805486019055518481527fddf252ad1be2c89b69c2b068fc378daa952ba7f163c4a11628f55a4df523b3ef910160405180910390a35050565b505050565b634e487b7160e01b600052604160045260246000fd5b600181811c908216806200020a57607f821691505b6020821081036200022b57634e487b7160e01b600052602260045260246000fd5b50919050565b601f821115620001da57600081815260208120601f850160051c810160208610156200025a5750805b601f850160051c820191505b818110156200027b5782815560010162000266565b505050505050565b81516001600160401b038111156200029f576200029f620001df565b620002b781620002b08454620001f5565b8462000231565b602080601f831160018114620002ef5760008415620002d65750858301515b600019600386901b1c1916600185901b1785556200027b565b600085815260208120601f198616915b828110156200032057888601518255948401946001909101908401620002ff565b50858210156200033f5787850151600019600388901b60f8161c191681555b5050505050600190811b01905550565b808201808211156200037157634e487b7160e01b600052601160045260246000fd5b92915050565b610b4880620003876000396000f3fe608060405234801561001057600080fd5b50600436106101005760003560e01c806370a0823111610097578063a457c2d711610066578063a457c2d714610219578063a9059cbb1461022c578063dd62ed3e1461023f578063f2fde38b1461025257600080fd5b806370a08231146101c5578063715018a6146101ee5780638da5cb5b146101f657806395d89b411461021157600080fd5b8063313ce567116100d3578063313ce5671461016b578063395093511461018a57806340c10f191461019d57806357915897146101b257600080fd5b806306fdde0314610105578063095ea7b31461012357806318160ddd1461014657806323b872dd14610158575b600080fd5b61010d610265565b60405161011a9190610979565b60405180910390f35b6101366101313660046109e3565b6102f7565b604051901515815260200161011a565b6002545b60405190815260200161011a565b610136610166366004610a0d565b610311565b600554600160a01b900460ff1660405160ff909116815260200161011a565b6101366101983660046109e3565b610335565b6101b06101ab3660046109e3565b610357565b005b6101b06101c0366004610a49565b61036d565b61014a6101d3366004610a62565b6001600160a01b031660009081526020819052604090205490565b6101b061037a565b6005546040516001600160a01b03909116815260200161011a565b61010d61038e565b6101366102273660046109e3565b61039d565b61013661023a3660046109e3565b61041d565b61014a61024d366004610a84565b61042b565b6101b0610260366004610a62565b610456565b60606003805461027490610ab7565b80601f01602080910402602001604051908101604052809291908181526020018280546102a090610ab7565b80156102ed5780601f106102c2576101008083540402835291602001916102ed565b820191906000526020600020905b8154815290600101906020018083116102d057829003601f168201915b5050505050905090565b6000336103058185856104cc565b60019150505b92915050565b60003361031f8582856105f0565b61032a85858561066a565b506001949350505050565b600033610305818585610348838361042b565b6103529190610af1565b6104cc565b61035f61080e565b6103698282610868565b5050565b6103773382610868565b50565b61038261080e565b61038c6000610927565b565b60606004805461027490610ab7565b600033816103ab828661042b565b9050838110156104105760405162461bcd60e51b815260206004820152602560248201527f45524332303a2064656372656173656420616c6c6f77616e63652062656c6f77604482015264207a65726f60d81b60648201526084015b60405180910390fd5b61032a82868684036104cc565b60003361030581858561066a565b6001600160a01b03918216600090815260016020908152604080832093909416825291909152205490565b61045e61080e565b6001600160a01b0381166104c35760405162461bcd60e51b815260206004820152602660248201527f4f776e61626c653a206e6577206f776e657220697320746865207a65726f206160448201526564647265737360d01b6064820152608401610407565b61037781610927565b6001600160a01b03831661052e5760405162461bcd60e51b8152602060048201526024808201527f45524332303a20617070726f76652066726f6d20746865207a65726f206164646044820152637265737360e01b6064820152608401610407565b6001600160a01b03821661058f5760405162461bcd60e51b815260206004820152602260248201527f45524332303a20617070726f766520746f20746865207a65726f206164647265604482015261737360f01b6064820152608401610407565b6001600160a01b0383811660008181526001602090815260408083209487168084529482529182902085905590518481527f8c5be1e5ebec7d5bd14f71427d1e84f3dd0314c0f7b2291e5b200ac8c7c3b925910160405180910390a3505050565b60006105fc848461042b565b9050600019811461066457818110156106575760405162461bcd60e51b815260206004820152601d60248201527f45524332303a20696e73756666696369656e7420616c6c6f77616e63650000006044820152606401610407565b61066484848484036104cc565b50505050565b6001600160a01b0383166106ce5760405162461bcd60e51b815260206004820152602560248201527f45524332303a207472616e736665722066726f6d20746865207a65726f206164604482015264647265737360d81b6064820152608401610407565b6001600160a01b0382166107305760405162461bcd60e51b815260206004820152602360248201527f45524332303a207472616e7366657220746f20746865207a65726f206164647260448201526265737360e81b6064820152608401610407565b6001600160a01b038316600090815260208190526040902054818110156107a85760405162461bcd60e51b815260206004820152602660248201527f45524332303a207472616e7366657220616d6f756e7420657863656564732062604482015265616c616e636560d01b6064820152608401610407565b6001600160a01b03848116600081815260208181526040808320878703905593871680835291849020805487019055925185815290927fddf252ad1be2c89b69c2b068fc378daa952ba7f163c4a11628f55a4df523b3ef910160405180910390a3610664565b6005546001600160a01b0316331461038c5760405162461bcd60e51b815260206004820181905260248201527f4f776e61626c653a2063616c6c6572206973206e6f7420746865206f776e65726044820152606401610407565b6001600160a01b0382166108be5760405162461bcd60e51b815260206004820152601f60248201527f45524332303a206d696e7420746f20746865207a65726f2061646472657373006044820152606401610407565b80600260008282546108d09190610af1565b90915550506001600160a01b038216600081815260208181526040808320805486019055518481527fddf252ad1be2c89b69c2b068fc378daa952ba7f163c4a11628f55a4df523b3ef910160405180910390a35050565b600580546001600160a01b038381166001600160a01b0319831681179093556040519116919082907f8be0079c531659141344cd1fd0a4f28419497f9722a3daafe3b4186f6b6457e090600090a35050565b600060208083528351808285015260005b818110156109a65785810183015185820160400152820161098a565b506000604082860101526040601f19601f8301168501019250505092915050565b80356001600160a01b03811681146109de57600080fd5b919050565b600080604083850312156109f657600080fd5b6109ff836109c7565b946020939093013593505050565b600080600060608486031215610a2257600080fd5b610a2b846109c7565b9250610a39602085016109c7565b9150604084013590509250925092565b600060208284031215610a5b57600080fd5b5035919050565b600060208284031215610a7457600080fd5b610a7d826109c7565b9392505050565b60008060408385031215610a9757600080fd5b610aa0836109c7565b9150610aae602084016109c7565b90509250929050565b600181811c90821680610acb57607f821691505b602082108103610aeb57634e487b7160e01b600052602260045260246000fd5b50919050565b8082018082111561030b57634e487b7160e01b600052601160045260246000fdfea2646970667358221220521e5f087e0930238a574621b846890ac442e00e5e11d40c6d214e6ae2e213de64736f6c63430008140033",
  "linkReferences": {},
  "deployedLinkReferences": {}
}