{
  "_format": "hh-sol-artifact-1",
  "contractName": "LiquidationEngine",
  "sourceName": "contracts/LiquidationEngine.sol",
  "abi": [
    {
      "inputs": [
        {
          "internalType": "address",
          "name": "_vault",
          "type": "address"
        }
      ],
      "stateMutability": "nonpayable",
      "type": "constructor"
    },
    {
      "anonymous": false,
      "inputs": [
        {
          "indexed": true,
          "internalType": "address",
          "name": "user",
          "type": "address"
        },
        {
          "indexed": true,
          "internalType": "address",
          "name": "liquidator",
          "type": "address"
        },
        {
          "indexed": false,
          "internalType": "address",
          "name": "collateralToken",
          "type": "address"
        },
        {
          "indexed": false,
          "internalType": "uint256",
          "name": "totalCollateral",
          "type": "uint256"
        },
        {
          "indexed": false,
          "internalType": "uint256",
          "name": "totalDebt",
          "type": "uint256"
        }
      ],
      "name": "FullLiquidation",
      "type": "event"
    },
    {
      "anonymous": false,
      "inputs": [
        {
          "indexed": true,
          "internalType": "address",
          "name": "user",
          "type": "address"
        },
        {
          "indexed": false,
          "internalType": "string",
          "name": "reason",
          "type": "string"
        }
      ],
      "name": "LiquidationFailed",
      "type": "event"
    },
    {
      "anonymous": false,
      "inputs": [
        {
          "indexed": true,
          "internalType": "address",
          "name": "user",
          "type": "address"
        },
        {
          "indexed": false,
          "internalType": "uint256",
          "name": "healthFactor",
          "type": "uint256"
        }
      ],
      "name": "LiquidationTriggered",
      "type": "event"
    },
    {
      "anonymous": false,
      "inputs": [
        {
          "indexed": true,
          "internalType": "address",
          "name": "previousOwner",
          "type": "address"
        },
        {
          "indexed": true,
          "internalType": "address",
          "name": "newOwner",
          "type": "address"
        }
      ],
      "name": "OwnershipTransferred",
      "type": "event"
    },
    {
      "anonymous": false,
      "inputs": [
        {
          "indexed": true,
          "internalType": "address",
          "name": "user",
          "type": "address"
        },
        {
          "indexed": true,
          "internalType": "address",
          "name": "liquidator",
          "type": "address"
        },
        {
          "indexed": false,
          "internalType": "address",
          "name": "collateralToken",
          "type": "address"
        },
        {
          "indexed": false,
          "internalType": "uint256",
          "name": "collateralAmount",
          "type": "uint256"
        },
        {
          "indexed": false,
          "internalType": "uint256",
          "name": "debtRepaid",
          "type": "uint256"
        },
        {
          "indexed": false,
          "internalType": "uint256",
          "name": "liquidationBonus",
          "type": "uint256"
        }
      ],
      "name": "PartialLiquidation",
      "type": "event"
    },
    {
      "inputs": [
        {
          "internalType": "address",
          "name": "borrower",
          "type": "address"
        },
        {
          "internalType": "address",
          "name": "collateralToken",
          "type": "address"
        },
        {
          "internalType": "uint256",
          "name": "repayAmount",
          "type": "uint256"
        }
      ],
      "name": "calculateLiquidationAmount",
      "outputs": [
        {
          "internalType": "uint256",
          "name": "collateralAmount",
          "type": "uint256"
        },
        {
          "internalType": "uint256",
          "name": "bonus",
          "type": "uint256"
        }
      ],
      "stateMutability": "view",
      "type": "function"
    },
    {
      "inputs": [
        {
          "internalType": "address",
          "name": "account",
          "type": "address"
        }
      ],
      "name": "canLiquidate",
      "outputs": [
        {
          "internalType": "bool",
          "name": "",
          "type": "bool"
        }
      ],
      "stateMutability": "view",
      "type": "function"
    },
    {
      "inputs": [
        {
          "internalType": "address",
          "name": "token",
          "type": "address"
        }
      ],
      "name": "emergencyWithdraw",
      "outputs": [],
      "stateMutability": "nonpayable",
      "type": "function"
    },
    {
      "inputs": [],
      "name": "getLiquidationDiscount",
      "outputs": [
        {
          "internalType": "uint256",
          "name": "",
          "type": "uint256"
        }
      ],
      "stateMutability": "view",
      "type": "function"
    },
    {
      "inputs": [
        {
          "internalType": "address",
          "name": "",
          "type": "address"
        }
      ],
      "name": "lastLiquidationTime",
      "outputs": [
        {
          "internalType": "uint256",
          "name": "",
          "type": "uint256"
        }
      ],
      "stateMutability": "view",
      "type": "function"
    },
    {
      "inputs": [
        {
          "internalType": "address",
          "name": "borrower",
          "type": "address"
        },
        {
          "internalType": "address",
          "name": "collateralToken",
          "type": "address"
        },
        {
          "internalType": "address",
          "name": "debtToken",
          "type": "address"
        }
      ],
      "name": "liquidateFull",
      "outputs": [
        {
          "internalType": "bool",
          "name": "",
          "type": "bool"
        }
      ],
      "stateMutability": "nonpayable",
      "type": "function"
    },
    {
      "inputs": [
        {
          "internalType": "address",
          "name": "borrower",
          "type": "address"
        },
        {
          "internalType": "address",
          "name": "collateralToken",
          "type": "address"
        },
        {
          "internalType": "address",
          "name": "debtToken",
          "type": "address"
        },
        {
          "internalType": "uint256",
          "name": "repayAmount",
          "type": "uint256"
        }
      ],
      "name": "liquidatePartial",
      "outputs": [
        {
          "internalType": "bool",
          "name": "",
          "type": "bool"
        }
      ],
      "stateMutability": "nonpayable",
      "type": "function"
    },
    {
      "inputs": [],
      "name": "minLiquidationInterval",
      "outputs": [
        {
          "internalType": "uint256",
          "name": "",
          "type": "uint256"
        }
      ],
      "stateMutability": "view",
      "type": "function"
    },
    {
      "inputs": [],
      "name": "owner",
      "outputs": [
        {
          "internalType": "address",
          "name": "",
          "type": "address"
        }
      ],
      "stateMutability": "view",
      "type": "function"
    },
    {
      "inputs": [
        {
          "internalType": "bytes32",
          "name": "",
          "type": "bytes32"
        }
      ],
      "name": "pendingFlashLoans",
      "outputs": [
        {
          "internalType": "bool",
          "name": "",
          "type": "bool"
        }
      ],
      "stateMutability": "view",
      "type": "function"
    },
    {
      "inputs": [],
      "name": "renounceOwnership",
      "outputs": [],
      "stateMutability": "nonpayable",
      "type": "function"
    },
    {
      "inputs": [
        {
          "internalType": "uint256",
          "name": "interval",
          "type": "uint256"
        }
      ],
      "name": "setMinLiquidationInterval",
      "outputs": [],
      "stateMutability": "nonpayable",
      "type": "function"
    },
    {
      "inputs": [
        {
          "internalType": "address",
          "name": "newOwner",
          "type": "address"
        }
      ],
      "name": "transferOwnership",
      "outputs": [],
      "stateMutability": "nonpayable",
      "type": "function"
    },
    {
      "inputs": [],
      "name": "vault",
      "outputs": [
        {
          "internalType": "contract SmartCollateralVault",
          "name": "",
          "type": "address"
        }
      ],
      "stateMutability": "view",
      "type": "function"
    }
  ],
  "bytecode": "0x6080604052610e1060045534801561001657600080fd5b506040516110dd3803806110dd83398101604081905261003591610114565b6001600055610043336100c2565b6001600160a01b03811661009d5760405162461bcd60e51b815260206004820152601560248201527f496e76616c6964207661756c7420616464726573730000000000000000000000604482015260640160405180910390fd5b600280546001600160a01b0319166001600160a01b0392909216919091179055610144565b600180546001600160a01b038381166001600160a01b0319831681179093556040519116919082907f8be0079c531659141344cd1fd0a4f28419497f9722a3daafe3b4186f6b6457e090600090a35050565b60006020828403121561012657600080fd5b81516001600160a01b038116811461013d57600080fd5b9392505050565b610f8a806101536000396000f3fe608060405234801561001057600080fd5b50600436106100ea5760003560e01c8063a448cae11161008c578063c36b2fc111610066578063c36b2fc114610201578063e9a23a2914610214578063f2fde38b1461021c578063fbfa77cf1461022f57600080fd5b8063a448cae1146101c2578063a8a4218b146101cb578063b9f4ff55146101ee57600080fd5b80636ff1c9bc116100c85780636ff1c9bc14610158578063715018a61461016d578063715856f5146101755780638da5cb5b1461019d57600080fd5b806307949acd146100ef5780631af6c9de14610117578063692468a114610145575b600080fd5b6101026100fd366004610d76565b610242565b60405190151581526020015b60405180910390f35b610137610125366004610dc1565b60036020526000908152604090205481565b60405190815260200161010e565b610102610153366004610ddc565b610693565b61016b610166366004610dc1565b6108e2565b005b61016b6109ee565b610188610183366004610e1f565b610a02565b6040805192835260208301919091520161010e565b6001546001600160a01b03165b6040516001600160a01b03909116815260200161010e565b61013760045481565b6101026101d9366004610e5b565b60056020526000908152604090205460ff1681565b6101026101fc366004610dc1565b610aa0565b61016b61020f366004610e5b565b610b15565b610137610b69565b61016b61022a366004610dc1565b610bdc565b6002546101aa906001600160a01b031681565b600061024c610c55565b61025585610aa0565b6102a25760405162461bcd60e51b8152602060048201526019602482015278506f736974696f6e206e6f74206c6971756964617461626c6560381b60448201526064015b60405180910390fd5b600082116102f25760405162461bcd60e51b815260206004820152601860248201527f526570617920616d6f756e74206d757374206265203e203000000000000000006044820152606401610299565b6004546001600160a01b0386166000908152600360205260409020546103189190610e8a565b4210156103375760405162461bcd60e51b815260040161029990610e9d565b600080610345878786610a02565b91509150600082116103995760405162461bcd60e51b815260206004820152601a60248201527f496e76616c6964206c69717569646174696f6e20616d6f756e740000000000006044820152606401610299565b6001600160a01b038781166000908152600360205260409081902042905560025490516323b872dd60e01b8152336004820152908216602482015260448101869052908616906323b872dd906064016020604051808303816000875af1158015610407573d6000803e3d6000fd5b505050506040513d601f19601f8201168201806040525081019061042b9190610ee0565b5060405163a9059cbb60e01b8152336004820152602481018390526001600160a01b0387169063a9059cbb906044016020604051808303816000875af1158015610479573d6000803e3d6000fd5b505050506040513d601f19601f8201168201806040525081019061049d9190610ee0565b506000612710600260009054906101000a90046001600160a01b03166001600160a01b0316637b7c1f4c6040518163ffffffff1660e01b8152600401602060405180830381865afa1580156104f6573d6000803e3d6000fd5b505050506040513d601f19601f8201168201806040525081019061051a9190610f02565b6105249085610f1b565b61052e9190610f32565b60405163a9059cbb60e01b8152336004820152602481018290529091506001600160a01b0388169063a9059cbb906044016020604051808303816000875af115801561057e573d6000803e3d6000fd5b505050506040513d601f19601f820116820180604052508101906105a29190610ee0565b50604080516001600160a01b038981168252602082018690529181018790526060810183905233918a16907f4377b8e8615f23572b636d0e2adb79a98515e5840120da33382346b2ab2c229f9060800160405180910390a3600254604051631a9b378d60e31b81526001600160a01b038a811660048301529091169063d4d9bc6890602401602060405180830381865afa158015610644573d6000803e3d6000fd5b505050506040513d601f19601f820116820180604052508101906106689190610ee0565b156106795760019350505050610681565b600093505050505b61068b6001600055565b949350505050565b600061069d610c55565b6106a684610aa0565b6106ee5760405162461bcd60e51b8152602060048201526019602482015278506f736974696f6e206e6f74206c6971756964617461626c6560381b6044820152606401610299565b6004546001600160a01b0385166000908152600360205260409020546107149190610e8a565b4210156107335760405162461bcd60e51b815260040161029990610e9d565b6002546040516370a0823160e01b81526001600160a01b0391821660048201526000918516906370a0823190602401602060405180830381865afa15801561077f573d6000803e3d6000fd5b505050506040513d601f19601f820116820180604052508101906107a39190610f02565b9050600081116107f55760405162461bcd60e51b815260206004820152601a60248201527f4e6f20636f6c6c61746572616c20746f206c69717569646174650000000000006044820152606401610299565b6001600160a01b03858116600090815260036020526040908190204290555163a9059cbb60e01b8152336004820152602481018390529085169063a9059cbb906044016020604051808303816000875af1158015610857573d6000803e3d6000fd5b505050506040513d601f19601f8201168201806040525081019061087b9190610ee0565b50604080516001600160a01b03868116825260208201849052600082840152915133928816917fa2d7818f7e65257180fa25443221882e464fa8d73f0c2c14b95f1e0cf998e410919081900360600190a360019150506108db6001600055565b9392505050565b6108ea610cae565b6040516370a0823160e01b81523060048201526000906001600160a01b038316906370a0823190602401602060405180830381865afa158015610931573d6000803e3d6000fd5b505050506040513d601f19601f820116820180604052508101906109559190610f02565b9050816001600160a01b031663a9059cbb6109786001546001600160a01b031690565b6040516001600160e01b031960e084901b1681526001600160a01b039091166004820152602481018490526044016020604051808303816000875af11580156109c5573d6000803e3d6000fd5b505050506040513d601f19601f820116820180604052508101906109e99190610ee0565b505050565b6109f6610cae565b610a006000610d08565b565b600080829150612710600260009054906101000a90046001600160a01b03166001600160a01b0316637b7c1f4c6040518163ffffffff1660e01b8152600401602060405180830381865afa158015610a5e573d6000803e3d6000fd5b505050506040513d601f19601f82011682018060405250810190610a829190610f02565b610a8c9084610f1b565b610a969190610f32565b9050935093915050565b60025460405163047788cd60e41b81526001600160a01b03838116600483015260009216906347788cd090602401602060405180830381865afa158015610aeb573d6000803e3d6000fd5b505050506040513d601f19601f82011682018060405250810190610b0f9190610ee0565b92915050565b610b1d610cae565b62015180811115610b645760405162461bcd60e51b8152602060048201526011602482015270496e74657276616c20746f6f206c6f6e6760781b6044820152606401610299565b600455565b60025460408051631edf07d360e21b815290516000926001600160a01b031691637b7c1f4c9160048083019260209291908290030181865afa158015610bb3573d6000803e3d6000fd5b505050506040513d601f19601f82011682018060405250810190610bd79190610f02565b905090565b610be4610cae565b6001600160a01b038116610c495760405162461bcd60e51b815260206004820152602660248201527f4f776e61626c653a206e6577206f776e657220697320746865207a65726f206160448201526564647265737360d01b6064820152608401610299565b610c5281610d08565b50565b600260005403610ca75760405162461bcd60e51b815260206004820152601f60248201527f5265656e7472616e637947756172643a207265656e7472616e742063616c6c006044820152606401610299565b6002600055565b6001546001600160a01b03163314610a005760405162461bcd60e51b815260206004820181905260248201527f4f776e61626c653a2063616c6c6572206973206e6f7420746865206f776e65726044820152606401610299565b600180546001600160a01b038381166001600160a01b0319831681179093556040519116919082907f8be0079c531659141344cd1fd0a4f28419497f9722a3daafe3b4186f6b6457e090600090a35050565b80356001600160a01b0381168114610d7157600080fd5b919050565b60008060008060808587031215610d8c57600080fd5b610d9585610d5a565b9350610da360208601610d5a565b9250610db160408601610d5a565b9396929550929360600135925050565b600060208284031215610dd357600080fd5b6108db82610d5a565b600080600060608486031215610df157600080fd5b610dfa84610d5a565b9250610e0860208501610d5a565b9150610e1660408501610d5a565b90509250925092565b600080600060608486031215610e3457600080fd5b610e3d84610d5a565b9250610e4b60208501610d5a565b9150604084013590509250925092565b600060208284031215610e6d57600080fd5b5035919050565b634e487b7160e01b600052601160045260246000fd5b80820180821115610b0f57610b0f610e74565b60208082526023908201527f4c69717569646174696f6e20636f6f6c646f776e206e6f7420796574207061736040820152621cd95960ea1b606082015260800190565b600060208284031215610ef257600080fd5b815180151581146108db57600080fd5b600060208284031215610f1457600080fd5b5051919050565b8082028115828204841417610b0f57610b0f610e74565b600082610f4f57634e487b7160e01b600052601260045260246000fd5b50049056fea26469706673582212205c7b222c4963d82f95700febf97aff41606f4c7f3e5dd606f9a853dbe8d6e49e64736f6c63430008140033",
  "linkReferences": {},
  "deployedLinkReferences": {}
}