{"contracts/InsuranceManager.sol":{"InsuranceManager":{"abi":[{"inputs":[{"internalType":"address","name":"nft","type":"address"},{"internalType":"address","name":"pool","type":"address"},{"internalType":"address","name":"oracle","type":"address"}],"stateMutability":"nonpayable","type":"constructor"},{"anonymous":false,"inputs":[{"indexed":false,"internalType":"uint256","name":"coverageFactorBps","type":"uint256"},{"indexed":false,"internalType":"uint256","name":"maxCoverageBps","type":"uint256"},{"indexed":false,"internalType":"uint256","name":"minLockPeriod","type":"uint256"}],"name":"CoverageParamsUpdated","type":"event"},{"anonymous":false,"inputs":[{"indexed":true,"internalType":"address","name":"liquidationEngine","type":"address"}],"name":"LiquidationEngineUpdated","type":"event"},{"anonymous":false,"inputs":[{"indexed":true,"internalType":"address","name":"borrower","type":"address"},{"indexed":true,"internalType":"uint256","name":"loanId","type":"uint256"},{"indexed":false,"internalType":"uint256","name":"lossAmount","type":"uint256"}],"name":"LiquidationRecorded","type":"event"},{"anonymous":false,"inputs":[{"indexed":true,"internalType":"address","name":"previousOwner","type":"address"},{"indexed":true,"internalType":"address","name":"newOwner","type":"address"}],"name":"OwnershipTransferred","type":"event"},{"anonymous":false,"inputs":[{"indexed":true,"internalType":"address","name":"borrower","type":"address"},{"indexed":true,"internalType":"uint256","name":"policyId","type":"uint256"},{"indexed":false,"internalType":"uint256","name":"payoutAmount","type":"uint256"}],"name":"PolicyClaimed","type":"event"},{"anonymous":false,"inputs":[{"indexed":true,"internalType":"address","name":"borrower","type":"address"},{"indexed":true,"internalType":"uint256","name":"policyId","type":"uint256"},{"indexed":true,"internalType":"uint256","name":"loanId","type":"uint256"},{"indexed":false,"internalType":"uint256","name":"premium","type":"uint256"},{"indexed":false,"internalType":"uint256","name":"coverageAmount","type":"uint256"}],"name":"PolicyPurchased","type":"event"},{"inputs":[{"internalType":"uint256","name":"loanId","type":"uint256"},{"internalType":"uint256","name":"loanAmount","type":"uint256"},{"internalType":"uint256","name":"coverageAmount","type":"uint256"},{"internalType":"uint256","name":"duration","type":"uint256"}],"name":"buyPolicy","outputs":[{"internalType":"uint256","name":"policyId","type":"uint256"},{"internalType":"uint256","name":"premium","type":"uint256"}],"stateMutability":"nonpayable","type":"function"},{"inputs":[{"internalType":"uint256","name":"policyId","type":"uint256"}],"name":"claimPolicy","outputs":[{"internalType":"uint256","name":"payoutAmount","type":"uint256"}],"stateMutability":"nonpayable","type":"function"},{"inputs":[],"name":"coverageFactorBps","outputs":[{"internalType":"uint256","name":"","type":"uint256"}],"stateMutability":"view","type":"function"},{"inputs":[],"name":"insuranceNFT","outputs":[{"internalType":"contract InsuranceNFT","name":"","type":"address"}],"stateMutability":"view","type":"function"},{"inputs":[],"name":"insurancePool","outputs":[{"internalType":"contract InsurancePool","name":"","type":"address"}],"stateMutability":"view","type":"function"},{"inputs":[],"name":"liquidationEngine","outputs":[{"internalType":"address","name":"","type":"address"}],"stateMutability":"view","type":"function"},{"inputs":[],"name":"maxCoverageBps","outputs":[{"internalType":"uint256","name":"","type":"uint256"}],"stateMutability":"view","type":"function"},{"inputs":[],"name":"minLockPeriod","outputs":[{"internalType":"uint256","name":"","type":"uint256"}],"stateMutability":"view","type":"function"},{"inputs":[],"name":"owner","outputs":[{"internalType":"address","name":"","type":"address"}],"stateMutability":"view","type":"function"},{"inputs":[{"internalType":"address","name":"borrower","type":"address"},{"internalType":"uint256","name":"loanId","type":"uint256"},{"internalType":"uint256","name":"coverageAmount","type":"uint256"}],"name":"quotePremium","outputs":[{"internalType":"uint256","name":"premium","type":"uint256"},{"internalType":"uint256","name":"riskBps","type":"uint256"}],"stateMutability":"view","type":"function"},{"inputs":[{"internalType":"address","name":"borrower","type":"address"},{"internalType":"uint256","name":"loanId","type":"uint256"},{"internalType":"uint256","name":"lossAmount","type":"uint256"}],"name":"recordLiquidation","outputs":[],"stateMutability":"nonpayable","type":"function"},{"inputs":[{"internalType":"bytes32","name":"","type":"bytes32"}],"name":"recordedLiquidationLoss","outputs":[{"internalType":"uint256","name":"","type":"uint256"}],"stateMutability":"view","type":"function"},{"inputs":[],"name":"renounceOwnership","outputs":[],"stateMutability":"nonpayable","type":"function"},{"inputs":[],"name":"riskOracle","outputs":[{"internalType":"contract RiskOracle","name":"","type":"address"}],"stateMutability":"view","type":"function"},{"inputs":[{"internalType":"uint256","name":"_coverageFactorBps","type":"uint256"},{"internalType":"uint256","name":"_maxCoverageBps","type":"uint256"},{"internalType":"uint256","name":"_minLockPeriod","type":"uint256"}],"name":"setCoverageParams","outputs":[],"stateMutability":"nonpayable","type":"function"},{"inputs":[{"internalType":"address","name":"engine","type":"address"}],"name":"setLiquidationEngine","outputs":[],"stateMutability":"nonpayable","type":"function"},{"inputs":[{"internalType":"address","name":"newOwner","type":"address"}],"name":"transferOwnership","outputs":[],"stateMutability":"nonpayable","type":"function"}],"evm":{"bytecode":{"linkReferences":{},"object":"60e0604052611388600255611770600355610e106004553480156200002357600080fd5b506040516200145d3803806200145d833981016040819052620000469162000155565b6200005133620000e8565b6001600160a01b038316158015906200007257506001600160a01b03821615155b80156200008757506001600160a01b03811615155b620000ca5760405162461bcd60e51b815260206004820152600f60248201526e496e76616c6964206164647265737360881b604482015260640160405180910390fd5b6001600160a01b0392831660805290821660a0521660c0526200019f565b600080546001600160a01b038381166001600160a01b0319831681178455604051919092169283917f8be0079c531659141344cd1fd0a4f28419497f9722a3daafe3b4186f6b6457e09190a35050565b80516001600160a01b03811681146200015057600080fd5b919050565b6000806000606084860312156200016b57600080fd5b620001768462000138565b9250620001866020850162000138565b9150620001966040850162000138565b90509250925092565b60805160a05160c05161125d6200020060003960008181610275015261084801526000818161023b0152818161063d0152610d2d01526000818161013b015281816102d6015281816103a8015281816105bf0152610dda015261125d6000f3fe608060405234801561001057600080fd5b506004361061010b5760003560e01c806373ae54b5116100a2578063ab2adc0011610071578063ab2adc0014610236578063cb60c8221461025d578063d50507fd14610270578063e74c64b714610297578063f2fde38b146102a057600080fd5b806373ae54b5146101e95780638da5cb5b146101f25780639e36a45614610203578063a87b978a1461022357600080fd5b80634ef58d60116100de5780634ef58d601461019d57806355b662f5146101c5578063561b1749146101d8578063715018a6146101e157600080fd5b80632aea118d14610110578063328eb4631461013657806344bf3c72146101755780634d298abd14610188575b600080fd5b61012361011e366004610fc0565b6102b3565b6040519081526020015b60405180910390f35b61015d7f000000000000000000000000000000000000000000000000000000000000000081565b6040516001600160a01b03909116815260200161012d565b60015461015d906001600160a01b031681565b61019b610196366004610fee565b6106fa565b005b6101b06101ab366004611012565b610793565b6040805192835260208301919091520161012d565b61019b6101d3366004611047565b610936565b61012360025481565b61019b610a2e565b61012360045481565b6000546001600160a01b031661015d565b610123610211366004610fc0565b60056020526000908152604090205481565b61019b610231366004611012565b610a42565b61015d7f000000000000000000000000000000000000000000000000000000000000000081565b6101b061026b366004611073565b610bc4565b61015d7f000000000000000000000000000000000000000000000000000000000000000081565b61012360035481565b61019b6102ae366004610fee565b610e9d565b6040516331a9108f60e11b81526004810182905260009033906001600160a01b037f00000000000000000000000000000000000000000000000000000000000000001690636352211e90602401602060405180830381865afa15801561031d573d6000803e3d6000fd5b505050506040513d601f19601f8201168201806040525081019061034191906110b5565b6001600160a01b03161461038f5760405162461bcd60e51b815260206004820152601060248201526f2737ba103837b634b1bc9037bbb732b960811b60448201526064015b60405180910390fd5b604051632b07fce360e01b8152600481018390526000907f00000000000000000000000000000000000000000000000000000000000000006001600160a01b031690632b07fce39060240161012060405180830381865afa1580156103f8573d6000803e3d6000fd5b505050506040513d601f19601f8201168201806040525081019061041c919061111a565b90508061010001516104625760405162461bcd60e51b815260206004820152600f60248201526e506f6c69637920696e61637469766560881b6044820152606401610386565b8060e00151156104a65760405162461bcd60e51b815260206004820152600f60248201526e105b1c9958591e4818db185a5b5959608a1b6044820152606401610386565b8060c001514211156104eb5760405162461bcd60e51b815260206004820152600e60248201526d141bdb1a58de48195e1c1a5c995960921b6044820152606401610386565b60008160000151826020015160405160200161052592919060609290921b6bffffffffffffffffffffffff19168252601482015260340190565b60408051601f19818403018152918152815160209283012060008181526005909352912054909150806105925760405162461bcd60e51b8152602060048201526015602482015274139bc81b1a5c5d5a59185d1a5bdb881c9958dbdc99605a1b6044820152606401610386565b80935082604001518411156105a957826040015193505b60405163c2ccc8ef60e01b8152600481018690527f00000000000000000000000000000000000000000000000000000000000000006001600160a01b03169063c2ccc8ef90602401600060405180830381600087803b15801561060b57600080fd5b505af115801561061f573d6000803e3d6000fd5b5050604051636240901160e01b8152336004820152602481018790527f00000000000000000000000000000000000000000000000000000000000000006001600160a01b0316925063624090119150604401600060405180830381600087803b15801561068b57600080fd5b505af115801561069f573d6000803e3d6000fd5b505050600083815260056020526040808220919091555186915033907fed750b94c78c97aa2b3696061ef8e68e83866262d95283e35e178b024b4837cc906106ea9088815260200190565b60405180910390a3505050919050565b610702610f16565b6001600160a01b0381166107495760405162461bcd60e51b815260206004820152600e60248201526d496e76616c696420656e67696e6560901b6044820152606401610386565b600180546001600160a01b0319166001600160a01b0383169081179091556040517f46f5f516f6e3226c27d878e2a87f74ebdc95e752f7d5de0f102a231a8d28f74590600090a250565b6000806001600160a01b0385166107df5760405162461bcd60e51b815260206004820152601060248201526f24b73b30b634b2103137b93937bbb2b960811b6044820152606401610386565b600083116108225760405162461bcd60e51b815260206004820152601060248201526f496e76616c696420636f76657261676560801b6044820152606401610386565b604051636953637b60e01b81526001600160a01b038681166004830152602482018690527f00000000000000000000000000000000000000000000000000000000000000001690636953637b90604401602060405180830381865afa15801561088f573d6000803e3d6000fd5b505050506040513d601f19601f820116820180604052508101906108b391906111a6565b9050600081116108f85760405162461bcd60e51b815260206004820152601060248201526f5269736b20756e617661696c61626c6560801b6044820152606401610386565b6002546305f5e1009061090b83866111d5565b61091591906111d5565b61091f91906111f2565b91508160000361092e57600191505b935093915050565b61093e610f16565b6127108311156109905760405162461bcd60e51b815260206004820152601760248201527f496e76616c696420636f76657261676520666163746f720000000000000000006044820152606401610386565b6127108211156109d95760405162461bcd60e51b8152602060048201526014602482015273496e76616c6964206d617820636f76657261676560601b6044820152606401610386565b60028390556003829055600481905560408051848152602081018490529081018290527f52c85ebb83df3ee630bb87f1fc0dbbc70844f066d7c7af71cc33ed70d81c7f819060600160405180910390a1505050565b610a36610f16565b610a406000610f70565b565b6001546001600160a01b0316331480610a6557506000546001600160a01b031633145b610aa75760405162461bcd60e51b81526020600482015260136024820152722ab730baba3437b934bd32b21031b0b63632b960691b6044820152606401610386565b6001600160a01b038316610af05760405162461bcd60e51b815260206004820152601060248201526f24b73b30b634b2103137b93937bbb2b960811b6044820152606401610386565b60008111610b2f5760405162461bcd60e51b815260206004820152600c60248201526b496e76616c6964206c6f737360a01b6044820152606401610386565b6040516bffffffffffffffffffffffff19606085901b1660208201526034810183905260009060540160408051808303601f1901815282825280516020918201206000818152600583529290922085905584835290925084916001600160a01b038716917f6dedf4870418a0998fa354d0e3f2908e6a67eb9fe466cbf33be5b99a67a58561910160405180910390a350505050565b600080600454831015610c0e5760405162461bcd60e51b8152602060048201526012602482015271111d5c985d1a5bdb881d1bdbc81cda1bdc9d60721b6044820152606401610386565b60008411610c525760405162461bcd60e51b815260206004820152601160248201527010dbdd995c9859d9481c995c5d5a5c9959607a1b6044820152606401610386565b60008511610c995760405162461bcd60e51b8152602060048201526014602482015273131bd85b88185b5bdd5b9d081c995c5d5a5c995960621b6044820152606401610386565b600061271060035487610cac91906111d5565b610cb691906111f2565b905080851115610cff5760405162461bcd60e51b81526020600482015260146024820152730436f7665726167652065786365656473206361760641b6044820152606401610386565b6000610d0c338988610793565b604051638c8ac76d60e01b81523360048201526024810183905291945091507f00000000000000000000000000000000000000000000000000000000000000006001600160a01b031690638c8ac76d90604401600060405180830381600087803b158015610d7957600080fd5b505af1158015610d8d573d6000803e3d6000fd5b5050505060008542610d9f9190611214565b60405163137d90c360e01b8152336004820152602481018b905260448101899052606481018690526084810184905260a481018290529091507f00000000000000000000000000000000000000000000000000000000000000006001600160a01b03169063137d90c39060c4016020604051808303816000875af1158015610e2b573d6000803e3d6000fd5b505050506040513d601f19601f82011682018060405250810190610e4f91906111a6565b60408051868152602081018a90529196508a91879133917f8e63e251f17c4f8c8dd082b9641ba8a3a04d5506e4a1b1782c6e3f57abc39374910160405180910390a450505094509492505050565b610ea5610f16565b6001600160a01b038116610f0a5760405162461bcd60e51b815260206004820152602660248201527f4f776e61626c653a206e6577206f776e657220697320746865207a65726f206160448201526564647265737360d01b6064820152608401610386565b610f1381610f70565b50565b6000546001600160a01b03163314610a405760405162461bcd60e51b815260206004820181905260248201527f4f776e61626c653a2063616c6c6572206973206e6f7420746865206f776e65726044820152606401610386565b600080546001600160a01b038381166001600160a01b0319831681178455604051919092169283917f8be0079c531659141344cd1fd0a4f28419497f9722a3daafe3b4186f6b6457e09190a35050565b600060208284031215610fd257600080fd5b5035919050565b6001600160a01b0381168114610f1357600080fd5b60006020828403121561100057600080fd5b813561100b81610fd9565b9392505050565b60008060006060848603121561102757600080fd5b833561103281610fd9565b95602085013595506040909401359392505050565b60008060006060848603121561105c57600080fd5b505081359360208301359350604090920135919050565b6000806000806080858703121561108957600080fd5b5050823594602084013594506040840135936060013592509050565b80516110b081610fd9565b919050565b6000602082840312156110c757600080fd5b815161100b81610fd9565b604051610120810167ffffffffffffffff8111828210171561110457634e487b7160e01b600052604160045260246000fd5b60405290565b805180151581146110b057600080fd5b6000610120828403121561112d57600080fd5b6111356110d2565b61113e836110a5565b81526020830151602082015260408301516040820152606083015160608201526080830151608082015260a083015160a082015260c083015160c082015261118860e0840161110a565b60e082015261010061119b81850161110a565b908201529392505050565b6000602082840312156111b857600080fd5b5051919050565b634e487b7160e01b600052601160045260246000fd5b80820281158282048414176111ec576111ec6111bf565b92915050565b60008261120f57634e487b7160e01b600052601260045260246000fd5b500490565b808201808211156111ec576111ec6111bf56fea26469706673582212208853224754c74ab5c152d1fb023659281f14c19c5f85a66cbf4ba1306ecee4ff64736f6c63430008140033","opcodes":"PUSH1 0xE0 PUSH1 0x40 MSTORE PUSH2 0x1388 PUSH1 0x2 SSTORE PUSH2 0x1770 PUSH1 0x3 SSTORE PUSH2 0xE10 PUSH1 0x4 SSTORE CALLVALUE DUP1 ISZERO PUSH3 0x23 JUMPI PUSH1 0x0 DUP1 REVERT JUMPDEST POP PUSH1 0x40 MLOAD PUSH3 0x145D CODESIZE SUB DUP1 PUSH3 0x145D DUP4 CODECOPY DUP2 ADD PUSH1 0x40 DUP2 SWAP1 MSTORE PUSH3 0x46 SWAP2 PUSH3 0x155 JUMP JUMPDEST PUSH3 0x51 CALLER PUSH3 0xE8 JUMP JUMPDEST PUSH1 0x1 PUSH1 0x1 PUSH1 0xA0 SHL SUB DUP4 AND ISZERO DUP1 ISZERO SWAP1 PUSH3 0x72 JUMPI POP PUSH1 0x1 PUSH1 0x1 PUSH1 0xA0 SHL SUB DUP3 AND ISZERO ISZERO JUMPDEST DUP1 ISZERO PUSH3 0x87 JUMPI POP PUSH1 0x1 PUSH1 0x1 PUSH1 0xA0 SHL SUB DUP2 AND ISZERO ISZERO JUMPDEST PUSH3 0xCA JUMPI PUSH1 0x40 MLOAD PUSH3 0x461BCD PUSH1 0xE5 SHL DUP2 MSTORE PUSH1 0x20 PUSH1 0x4 DUP3 ADD MSTORE PUSH1 0xF PUSH1 0x24 DUP3 ADD MSTORE PUSH15 0x496E76616C69642061646472657373 PUSH1 0x88 SHL PUSH1 0x44 DUP3 ADD MSTORE PUSH1 0x64 ADD PUSH1 0x40 MLOAD DUP1 SWAP2 SUB SWAP1 REVERT JUMPDEST PUSH1 0x1 PUSH1 0x1 PUSH1 0xA0 SHL SUB SWAP3 DUP4 AND PUSH1 0x80 MSTORE SWAP1 DUP3 AND PUSH1 0xA0 MSTORE AND PUSH1 0xC0 MSTORE PUSH3 0x19F JUMP JUMPDEST PUSH1 0x0 DUP1 SLOAD PUSH1 0x1 PUSH1 0x1 PUSH1 0xA0 SHL SUB DUP4 DUP2 AND PUSH1 0x1 PUSH1 0x1 PUSH1 0xA0 SHL SUB NOT DUP4 AND DUP2 OR DUP5 SSTORE PUSH1 0x40 MLOAD SWAP2 SWAP1 SWAP3 AND SWAP3 DUP4 SWAP2 PUSH32 0x8BE0079C531659141344CD1FD0A4F28419497F9722A3DAAFE3B4186F6B6457E0 SWAP2 SWAP1 LOG3 POP POP JUMP JUMPDEST DUP1 MLOAD PUSH1 0x1 PUSH1 0x1 PUSH1 0xA0 SHL SUB DUP2 AND DUP2 EQ PUSH3 0x150 JUMPI PUSH1 0x0 DUP1 REVERT JUMPDEST SWAP2 SWAP1 POP JUMP JUMPDEST PUSH1 0x0 DUP1 PUSH1 0x0 PUSH1 0x60 DUP5 DUP7 SUB SLT ISZERO PUSH3 0x16B JUMPI PUSH1 0x0 DUP1 REVERT JUMPDEST PUSH3 0x176 DUP5 PUSH3 0x138 JUMP JUMPDEST SWAP3 POP PUSH3 0x186 PUSH1 0x20 DUP6 ADD PUSH3 0x138 JUMP JUMPDEST SWAP2 POP PUSH3 0x196 PUSH1 0x40 DUP6 ADD PUSH3 0x138 JUMP JUMPDEST SWAP1 POP SWAP3 POP SWAP3 POP SWAP3 JUMP JUMPDEST PUSH1 0x80 MLOAD PUSH1 0xA0 MLOAD PUSH1 0xC0 MLOAD PUSH2 0x125D PUSH3 0x200 PUSH1 0x0 CODECOPY PUSH1 0x0 DUP2 DUP2 PUSH2 0x275 ADD MSTORE PUSH2 0x848 ADD MSTORE PUSH1 0x0 DUP2 DUP2 PUSH2 0x23B ADD MSTORE DUP2 DUP2 PUSH2 0x63D ADD MSTORE PUSH2 0xD2D ADD MSTORE PUSH1 0x0 DUP2 DUP2 PUSH2 0x13B ADD MSTORE DUP2 DUP2 PUSH2 0x2D6 ADD MSTORE DUP2 DUP2 PUSH2 0x3A8 ADD MSTORE DUP2 DUP2 PUSH2 0x5BF ADD MSTORE PUSH2 0xDDA ADD MSTORE PUSH2 0x125D PUSH1 0x0 RETURN INVALID PUSH1 0x80 PUSH1 0x40 MSTORE CALLVALUE DUP1 ISZERO PUSH2 0x10 JUMPI PUSH1 0x0 DUP1 REVERT JUMPDEST POP PUSH1 0x4 CALLDATASIZE LT PUSH2 0x10B JUMPI PUSH1 0x0 CALLDATALOAD PUSH1 0xE0 SHR DUP1 PUSH4 0x73AE54B5 GT PUSH2 0xA2 JUMPI DUP1 PUSH4 0xAB2ADC00 GT PUSH2 0x71 JUMPI DUP1 PUSH4 0xAB2ADC00 EQ PUSH2 0x236 JUMPI DUP1 PUSH4 0xCB60C822 EQ PUSH2 0x25D JUMPI DUP1 PUSH4 0xD50507FD EQ PUSH2 0x270 JUMPI DUP1 PUSH4 0xE74C64B7 EQ PUSH2 0x297 JUMPI DUP1 PUSH4 0xF2FDE38B EQ PUSH2 0x2A0 JUMPI PUSH1 0x0 DUP1 REVERT JUMPDEST DUP1 PUSH4 0x73AE54B5 EQ PUSH2 0x1E9 JUMPI DUP1 PUSH4 0x8DA5CB5B EQ PUSH2 0x1F2 JUMPI DUP1 PUSH4 0x9E36A456 EQ PUSH2 0x203 JUMPI DUP1 PUSH4 0xA87B978A EQ PUSH2 0x223 JUMPI PUSH1 0x0 DUP1 REVERT JUMPDEST DUP1 PUSH4 0x4EF58D60 GT PUSH2 0xDE JUMPI DUP1 PUSH4 0x4EF58D60 EQ PUSH2 0x19D JUMPI DUP1 PUSH4 0x55B662F5 EQ PUSH2 0x1C5 JUMPI DUP1 PUSH4 0x561B1749 EQ PUSH2 0x1D8 JUMPI DUP1 PUSH4 0x715018A6 EQ PUSH2 0x1E1 JUMPI PUSH1 0x0 DUP1 REVERT JUMPDEST DUP1 PUSH4 0x2AEA118D EQ PUSH2 0x110 JUMPI DUP1 PUSH4 0x328EB463 EQ PUSH2 0x136 JUMPI DUP1 PUSH4 0x44BF3C72 EQ PUSH2 0x175 JUMPI DUP1 PUSH4 0x4D298ABD EQ PUSH2 0x188 JUMPI JUMPDEST PUSH1 0x0 DUP1 REVERT JUMPDEST PUSH2 0x123 PUSH2 0x11E CALLDATASIZE PUSH1 0x4 PUSH2 0xFC0 JUMP JUMPDEST PUSH2 0x2B3 JUMP JUMPDEST PUSH1 0x40 MLOAD SWAP1 DUP2 MSTORE PUSH1 0x20 ADD JUMPDEST PUSH1 0x40 MLOAD DUP1 SWAP2 SUB SWAP1 RETURN JUMPDEST PUSH2 0x15D PUSH32 0x0 DUP2 JUMP JUMPDEST PUSH1 0x40 MLOAD PUSH1 0x1 PUSH1 0x1 PUSH1 0xA0 SHL SUB SWAP1 SWAP2 AND DUP2 MSTORE PUSH1 0x20 ADD PUSH2 0x12D JUMP JUMPDEST PUSH1 0x1 SLOAD PUSH2 0x15D SWAP1 PUSH1 0x1 PUSH1 0x1 PUSH1 0xA0 SHL SUB AND DUP2 JUMP JUMPDEST PUSH2 0x19B PUSH2 0x196 CALLDATASIZE PUSH1 0x4 PUSH2 0xFEE JUMP JUMPDEST PUSH2 0x6FA JUMP JUMPDEST STOP JUMPDEST PUSH2 0x1B0 PUSH2 0x1AB CALLDATASIZE PUSH1 0x4 PUSH2 0x1012 JUMP JUMPDEST PUSH2 0x793 JUMP JUMPDEST PUSH1 0x40 DUP1 MLOAD SWAP3 DUP4 MSTORE PUSH1 0x20 DUP4 ADD SWAP2 SWAP1 SWAP2 MSTORE ADD PUSH2 0x12D JUMP JUMPDEST PUSH2 0x19B PUSH2 0x1D3 CALLDATASIZE PUSH1 0x4 PUSH2 0x1047 JUMP JUMPDEST PUSH2 0x936 JUMP JUMPDEST PUSH2 0x123 PUSH1 0x2 SLOAD DUP2 JUMP JUMPDEST PUSH2 0x19B PUSH2 0xA2E JUMP JUMPDEST PUSH2 0x123 PUSH1 0x4 SLOAD DUP2 JUMP JUMPDEST PUSH1 0x0 SLOAD PUSH1 0x1 PUSH1 0x1 PUSH1 0xA0 SHL SUB AND PUSH2 0x15D JUMP JUMPDEST PUSH2 0x123 PUSH2 0x211 CALLDATASIZE PUSH1 0x4 PUSH2 0xFC0 JUMP JUMPDEST PUSH1 0x5 PUSH1 0x20 MSTORE PUSH1 0x0 SWAP1 DUP2 MSTORE PUSH1 0x40 SWAP1 KECCAK256 SLOAD DUP2 JUMP JUMPDEST PUSH2 0x19B PUSH2 0x231 CALLDATASIZE PUSH1 0x4 PUSH2 0x1012 JUMP JUMPDEST PUSH2 0xA42 JUMP JUMPDEST PUSH2 0x15D PUSH32 0x0 DUP2 JUMP JUMPDEST PUSH2 0x1B0 PUSH2 0x26B CALLDATASIZE PUSH1 0x4 PUSH2 0x1073 JUMP JUMPDEST PUSH2 0xBC4 JUMP JUMPDEST PUSH2 0x15D PUSH32 0x0 DUP2 JUMP JUMPDEST PUSH2 0x123 PUSH1 0x3 SLOAD DUP2 JUMP JUMPDEST PUSH2 0x19B PUSH2 0x2AE CALLDATASIZE PUSH1 0x4 PUSH2 0xFEE JUMP JUMPDEST PUSH2 0xE9D JUMP JUMPDEST PUSH1 0x40 MLOAD PUSH4 0x31A9108F PUSH1 0xE1 SHL DUP2 MSTORE PUSH1 0x4 DUP2 ADD DUP3 SWAP1 MSTORE PUSH1 0x0 SWAP1 CALLER SWAP1 PUSH1 0x1 PUSH1 0x1 PUSH1 0xA0 SHL SUB PUSH32 0x0 AND SWAP1 PUSH4 0x6352211E SWAP1 PUSH1 0x24 ADD PUSH1 0x20 PUSH1 0x40 MLOAD DUP1 DUP4 SUB DUP2 DUP7 GAS STATICCALL ISZERO DUP1 ISZERO PUSH2 0x31D JUMPI RETURNDATASIZE PUSH1 0x0 DUP1 RETURNDATACOPY RETURNDATASIZE PUSH1 0x0 REVERT JUMPDEST POP POP POP POP PUSH1 0x40 MLOAD RETURNDATASIZE PUSH1 0x1F NOT PUSH1 0x1F DUP3 ADD AND DUP3 ADD DUP1 PUSH1 0x40 MSTORE POP DUP2 ADD SWAP1 PUSH2 0x341 SWAP2 SWAP1 PUSH2 0x10B5 JUMP JUMPDEST PUSH1 0x1 PUSH1 0x1 PUSH1 0xA0 SHL SUB AND EQ PUSH2 0x38F JUMPI PUSH1 0x40 MLOAD PUSH3 0x461BCD PUSH1 0xE5 SHL DUP2 MSTORE PUSH1 0x20 PUSH1 0x4 DUP3 ADD MSTORE PUSH1 0x10 PUSH1 0x24 DUP3 ADD MSTORE PUSH16 0x2737BA103837B634B1BC9037BBB732B9 PUSH1 0x81 SHL PUSH1 0x44 DUP3 ADD MSTORE PUSH1 0x64 ADD JUMPDEST PUSH1 0x40 MLOAD DUP1 SWAP2 SUB SWAP1 REVERT JUMPDEST PUSH1 0x40 MLOAD PUSH4 0x2B07FCE3 PUSH1 0xE0 SHL DUP2 MSTORE PUSH1 0x4 DUP2 ADD DUP4 SWAP1 MSTORE PUSH1 0x0 SWAP1 PUSH32 0x0 PUSH1 0x1 PUSH1 0x1 PUSH1 0xA0 SHL SUB AND SWAP1 PUSH4 0x2B07FCE3 SWAP1 PUSH1 0x24 ADD PUSH2 0x120 PUSH1 0x40 MLOAD DUP1 DUP4 SUB DUP2 DUP7 GAS STATICCALL ISZERO DUP1 ISZERO PUSH2 0x3F8 JUMPI RETURNDATASIZE PUSH1 0x0 DUP1 RETURNDATACOPY RETURNDATASIZE PUSH1 0x0 REVERT JUMPDEST POP POP POP POP PUSH1 0x40 MLOAD RETURNDATASIZE PUSH1 0x1F NOT PUSH1 0x1F DUP3 ADD AND DUP3 ADD DUP1 PUSH1 0x40 MSTORE POP DUP2 ADD SWAP1 PUSH2 0x41C SWAP2 SWAP1 PUSH2 0x111A JUMP JUMPDEST SWAP1 POP DUP1 PUSH2 0x100 ADD MLOAD PUSH2 0x462 JUMPI PUSH1 0x40 MLOAD PUSH3 0x461BCD PUSH1 0xE5 SHL DUP2 MSTORE PUSH1 0x20 PUSH1 0x4 DUP3 ADD MSTORE PUSH1 0xF PUSH1 0x24 DUP3 ADD MSTORE PUSH15 0x506F6C69637920696E616374697665 PUSH1 0x88 SHL PUSH1 0x44 DUP3 ADD MSTORE PUSH1 0x64 ADD PUSH2 0x386 JUMP JUMPDEST DUP1 PUSH1 0xE0 ADD MLOAD ISZERO PUSH2 0x4A6 JUMPI PUSH1 0x40 MLOAD PUSH3 0x461BCD PUSH1 0xE5 SHL DUP2 MSTORE PUSH1 0x20 PUSH1 0x4 DUP3 ADD MSTORE PUSH1 0xF PUSH1 0x24 DUP3 ADD MSTORE PUSH15 0x105B1C9958591E4818DB185A5B5959 PUSH1 0x8A SHL PUSH1 0x44 DUP3 ADD MSTORE PUSH1 0x64 ADD PUSH2 0x386 JUMP JUMPDEST DUP1 PUSH1 0xC0 ADD MLOAD TIMESTAMP GT ISZERO PUSH2 0x4EB JUMPI PUSH1 0x40 MLOAD PUSH3 0x461BCD PUSH1 0xE5 SHL DUP2 MSTORE PUSH1 0x20 PUSH1 0x4 DUP3 ADD MSTORE PUSH1 0xE PUSH1 0x24 DUP3 ADD MSTORE PUSH14 0x141BDB1A58DE48195E1C1A5C9959 PUSH1 0x92 SHL PUSH1 0x44 DUP3 ADD MSTORE PUSH1 0x64 ADD PUSH2 0x386 JUMP JUMPDEST PUSH1 0x0 DUP2 PUSH1 0x0 ADD MLOAD DUP3 PUSH1 0x20 ADD MLOAD PUSH1 0x40 MLOAD PUSH1 0x20 ADD PUSH2 0x525 SWAP3 SWAP2 SWAP1 PUSH1 0x60 SWAP3 SWAP1 SWAP3 SHL PUSH12 0xFFFFFFFFFFFFFFFFFFFFFFFF NOT AND DUP3 MSTORE PUSH1 0x14 DUP3 ADD MSTORE PUSH1 0x34 ADD SWAP1 JUMP JUMPDEST PUSH1 0x40 DUP1 MLOAD PUSH1 0x1F NOT DUP2 DUP5 SUB ADD DUP2 MSTORE SWAP2 DUP2 MSTORE DUP2 MLOAD PUSH1 0x20 SWAP3 DUP4 ADD KECCAK256 PUSH1 0x0 DUP2 DUP2 MSTORE PUSH1 0x5 SWAP1 SWAP4 MSTORE SWAP2 KECCAK256 SLOAD SWAP1 SWAP2 POP DUP1 PUSH2 0x592 JUMPI PUSH1 0x40 MLOAD PUSH3 0x461BCD PUSH1 0xE5 SHL DUP2 MSTORE PUSH1 0x20 PUSH1 0x4 DUP3 ADD MSTORE PUSH1 0x15 PUSH1 0x24 DUP3 ADD MSTORE PUSH21 0x139BC81B1A5C5D5A59185D1A5BDB881C9958DBDC99 PUSH1 0x5A SHL PUSH1 0x44 DUP3 ADD MSTORE PUSH1 0x64 ADD PUSH2 0x386 JUMP JUMPDEST DUP1 SWAP4 POP DUP3 PUSH1 0x40 ADD MLOAD DUP5 GT ISZERO PUSH2 0x5A9 JUMPI DUP3 PUSH1 0x40 ADD MLOAD SWAP4 POP JUMPDEST PUSH1 0x40 MLOAD PUSH4 0xC2CCC8EF PUSH1 0xE0 SHL DUP2 MSTORE PUSH1 0x4 DUP2 ADD DUP7 SWAP1 MSTORE PUSH32 0x0 PUSH1 0x1 PUSH1 0x1 PUSH1 0xA0 SHL SUB AND SWAP1 PUSH4 0xC2CCC8EF SWAP1 PUSH1 0x24 ADD PUSH1 0x0 PUSH1 0x40 MLOAD DUP1 DUP4 SUB DUP2 PUSH1 0x0 DUP8 DUP1 EXTCODESIZE ISZERO DUP1 ISZERO PUSH2 0x60B JUMPI PUSH1 0x0 DUP1 REVERT JUMPDEST POP GAS CALL ISZERO DUP1 ISZERO PUSH2 0x61F JUMPI RETURNDATASIZE PUSH1 0x0 DUP1 RETURNDATACOPY RETURNDATASIZE PUSH1 0x0 REVERT JUMPDEST POP POP PUSH1 0x40 MLOAD PUSH4 0x62409011 PUSH1 0xE0 SHL DUP2 MSTORE CALLER PUSH1 0x4 DUP3 ADD MSTORE PUSH1 0x24 DUP2 ADD DUP8 SWAP1 MSTORE PUSH32 0x0 PUSH1 0x1 PUSH1 0x1 PUSH1 0xA0 SHL SUB AND SWAP3 POP PUSH4 0x62409011 SWAP2 POP PUSH1 0x44 ADD PUSH1 0x0 PUSH1 0x40 MLOAD DUP1 DUP4 SUB DUP2 PUSH1 0x0 DUP8 DUP1 EXTCODESIZE ISZERO DUP1 ISZERO PUSH2 0x68B JUMPI PUSH1 0x0 DUP1 REVERT JUMPDEST POP GAS CALL ISZERO DUP1 ISZERO PUSH2 0x69F JUMPI RETURNDATASIZE PUSH1 0x0 DUP1 RETURNDATACOPY RETURNDATASIZE PUSH1 0x0 REVERT JUMPDEST POP POP POP PUSH1 0x0 DUP4 DUP2 MSTORE PUSH1 0x5 PUSH1 0x20 MSTORE PUSH1 0x40 DUP1 DUP3 KECCAK256 SWAP2 SWAP1 SWAP2 SSTORE MLOAD DUP7 SWAP2 POP CALLER SWAP1 PUSH32 0xED750B94C78C97AA2B3696061EF8E68E83866262D95283E35E178B024B4837CC SWAP1 PUSH2 0x6EA SWAP1 DUP9 DUP2 MSTORE PUSH1 0x20 ADD SWAP1 JUMP JUMPDEST PUSH1 0x40 MLOAD DUP1 SWAP2 SUB SWAP1 LOG3 POP POP POP SWAP2 SWAP1 POP JUMP JUMPDEST PUSH2 0x702 PUSH2 0xF16 JUMP JUMPDEST PUSH1 0x1 PUSH1 0x1 PUSH1 0xA0 SHL SUB DUP2 AND PUSH2 0x749 JUMPI PUSH1 0x40 MLOAD PUSH3 0x461BCD PUSH1 0xE5 SHL DUP2 MSTORE PUSH1 0x20 PUSH1 0x4 DUP3 ADD MSTORE PUSH1 0xE PUSH1 0x24 DUP3 ADD MSTORE PUSH14 0x496E76616C696420656E67696E65 PUSH1 0x90 SHL PUSH1 0x44 DUP3 ADD MSTORE PUSH1 0x64 ADD PUSH2 0x386 JUMP JUMPDEST PUSH1 0x1 DUP1 SLOAD PUSH1 0x1 PUSH1 0x1 PUSH1 0xA0 SHL SUB NOT AND PUSH1 0x1 PUSH1 0x1 PUSH1 0xA0 SHL SUB DUP4 AND SWAP1 DUP2 OR SWAP1 SWAP2 SSTORE PUSH1 0x40 MLOAD PUSH32 0x46F5F516F6E3226C27D878E2A87F74EBDC95E752F7D5DE0F102A231A8D28F745 SWAP1 PUSH1 0x0 SWAP1 LOG2 POP JUMP JUMPDEST PUSH1 0x0 DUP1 PUSH1 0x1 PUSH1 0x1 PUSH1 0xA0 SHL SUB DUP6 AND PUSH2 0x7DF JUMPI PUSH1 0x40 MLOAD PUSH3 0x461BCD PUSH1 0xE5 SHL DUP2 MSTORE PUSH1 0x20 PUSH1 0x4 DUP3 ADD MSTORE PUSH1 0x10 PUSH1 0x24 DUP3 ADD MSTORE PUSH16 0x24B73B30B634B2103137B93937BBB2B9 PUSH1 0x81 SHL PUSH1 0x44 DUP3 ADD MSTORE PUSH1 0x64 ADD PUSH2 0x386 JUMP JUMPDEST PUSH1 0x0 DUP4 GT PUSH2 0x822 JUMPI PUSH1 0x40 MLOAD PUSH3 0x461BCD PUSH1 0xE5 SHL DUP2 MSTORE PUSH1 0x20 PUSH1 0x4 DUP3 ADD MSTORE PUSH1 0x10 PUSH1 0x24 DUP3 ADD MSTORE PUSH16 0x496E76616C696420636F766572616765 PUSH1 0x80 SHL PUSH1 0x44 DUP3 ADD MSTORE PUSH1 0x64 ADD PUSH2 0x386 JUMP JUMPDEST PUSH1 0x40 MLOAD PUSH4 0x6953637B PUSH1 0xE0 SHL DUP2 MSTORE PUSH1 0x1 PUSH1 0x1 PUSH1 0xA0 SHL SUB DUP7 DUP2 AND PUSH1 0x4 DUP4 ADD MSTORE PUSH1 0x24 DUP3 ADD DUP7 SWAP1 MSTORE PUSH32 0x0 AND SWAP1 PUSH4 0x6953637B SWAP1 PUSH1 0x44 ADD PUSH1 0x20 PUSH1 0x40 MLOAD DUP1 DUP4 SUB DUP2 DUP7 GAS STATICCALL ISZERO DUP1 ISZERO PUSH2 0x88F JUMPI RETURNDATASIZE PUSH1 0x0 DUP1 RETURNDATACOPY RETURNDATASIZE PUSH1 0x0 REVERT JUMPDEST POP POP POP POP PUSH1 0x40 MLOAD RETURNDATASIZE PUSH1 0x1F NOT PUSH1 0x1F DUP3 ADD AND DUP3 ADD DUP1 PUSH1 0x40 MSTORE POP DUP2 ADD SWAP1 PUSH2 0x8B3 SWAP2 SWAP1 PUSH2 0x11A6 JUMP JUMPDEST SWAP1 POP PUSH1 0x0 DUP2 GT PUSH2 0x8F8 JUMPI PUSH1 0x40 MLOAD PUSH3 0x461BCD PUSH1 0xE5 SHL DUP2 MSTORE PUSH1 0x20 PUSH1 0x4 DUP3 ADD MSTORE PUSH1 0x10 PUSH1 0x24 DUP3 ADD MSTORE PUSH16 0x5269736B20756E617661696C61626C65 PUSH1 0x80 SHL PUSH1 0x44 DUP3 ADD MSTORE PUSH1 0x64 ADD PUSH2 0x386 JUMP JUMPDEST PUSH1 0x2 SLOAD PUSH4 0x5F5E100 SWAP1 PUSH2 0x90B DUP4 DUP7 PUSH2 0x11D5 JUMP JUMPDEST PUSH2 0x915 SWAP2 SWAP1 PUSH2 0x11D5 JUMP JUMPDEST PUSH2 0x91F SWAP2 SWAP1 PUSH2 0x11F2 JUMP JUMPDEST SWAP2 POP DUP2 PUSH1 0x0 SUB PUSH2 0x92E JUMPI PUSH1 0x1 SWAP2 POP JUMPDEST SWAP4 POP SWAP4 SWAP2 POP POP JUMP JUMPDEST PUSH2 0x93E PUSH2 0xF16 JUMP JUMPDEST PUSH2 0x2710 DUP4 GT ISZERO PUSH2 0x990 JUMPI PUSH1 0x40 MLOAD PUSH3 0x461BCD PUSH1 0xE5 SHL DUP2 MSTORE PUSH1 0x20 PUSH1 0x4 DUP3 ADD MSTORE PUSH1 0x17 PUSH1 0x24 DUP3 ADD MSTORE PUSH32 0x496E76616C696420636F76657261676520666163746F72000000000000000000 PUSH1 0x44 DUP3 ADD MSTORE PUSH1 0x64 ADD PUSH2 0x386 JUMP JUMPDEST PUSH2 0x2710 DUP3 GT ISZERO PUSH2 0x9D9 JUMPI PUSH1 0x40 MLOAD PUSH3 0x461BCD PUSH1 0xE5 SHL DUP2 MSTORE PUSH1 0x20 PUSH1 0x4 DUP3 ADD MSTORE PUSH1 0x14 PUSH1 0x24 DUP3 ADD MSTORE PUSH20 0x496E76616C6964206D617820636F766572616765 PUSH1 0x60 SHL PUSH1 0x44 DUP3 ADD MSTORE PUSH1 0x64 ADD PUSH2 0x386 JUMP JUMPDEST PUSH1 0x2 DUP4 SWAP1 SSTORE PUSH1 0x3 DUP3 SWAP1 SSTORE PUSH1 0x4 DUP2 SWAP1 SSTORE PUSH1 0x40 DUP1 MLOAD DUP5 DUP2 MSTORE PUSH1 0x20 DUP2 ADD DUP5 SWAP1 MSTORE SWAP1 DUP2 ADD DUP3 SWAP1 MSTORE PUSH32 0x52C85EBB83DF3EE630BB87F1FC0DBBC70844F066D7C7AF71CC33ED70D81C7F81 SWAP1 PUSH1 0x60 ADD PUSH1 0x40 MLOAD DUP1 SWAP2 SUB SWAP1 LOG1 POP POP POP JUMP JUMPDEST PUSH2 0xA36 PUSH2 0xF16 JUMP JUMPDEST PUSH2 0xA40 PUSH1 0x0 PUSH2 0xF70 JUMP JUMPDEST JUMP JUMPDEST PUSH1 0x1 SLOAD PUSH1 0x1 PUSH1 0x1 PUSH1 0xA0 SHL SUB AND CALLER EQ DUP1 PUSH2 0xA65 JUMPI POP PUSH1 0x0 SLOAD PUSH1 0x1 PUSH1 0x1 PUSH1 0xA0 SHL SUB AND CALLER EQ JUMPDEST PUSH2 0xAA7 JUMPI PUSH1 0x40 MLOAD PUSH3 0x461BCD PUSH1 0xE5 SHL DUP2 MSTORE PUSH1 0x20 PUSH1 0x4 DUP3 ADD MSTORE PUSH1 0x13 PUSH1 0x24 DUP3 ADD MSTORE PUSH19 0x2AB730BABA3437B934BD32B21031B0B63632B9 PUSH1 0x69 SHL PUSH1 0x44 DUP3 ADD MSTORE PUSH1 0x64 ADD PUSH2 0x386 JUMP JUMPDEST PUSH1 0x1 PUSH1 0x1 PUSH1 0xA0 SHL SUB DUP4 AND PUSH2 0xAF0 JUMPI PUSH1 0x40 MLOAD PUSH3 0x461BCD PUSH1 0xE5 SHL DUP2 MSTORE PUSH1 0x20 PUSH1 0x4 DUP3 ADD MSTORE PUSH1 0x10 PUSH1 0x24 DUP3 ADD MSTORE PUSH16 0x24B73B30B634B2103137B93937BBB2B9 PUSH1 0x81 SHL PUSH1 0x44 DUP3 ADD MSTORE PUSH1 0x64 ADD PUSH2 0x386 JUMP JUMPDEST PUSH1 0x0 DUP2 GT PUSH2 0xB2F JUMPI PUSH1 0x40 MLOAD PUSH3 0x461BCD PUSH1 0xE5 SHL DUP2 MSTORE PUSH1 0x20 PUSH1 0x4 DUP3 ADD MSTORE PUSH1 0xC PUSH1 0x24 DUP3 ADD MSTORE PUSH12 0x496E76616C6964206C6F7373 PUSH1 0xA0 SHL PUSH1 0x44 DUP3 ADD MSTORE PUSH1 0x64 ADD PUSH2 0x386 JUMP JUMPDEST PUSH1 0x40 MLOAD PUSH12 0xFFFFFFFFFFFFFFFFFFFFFFFF NOT PUSH1 0x60 DUP6 SWAP1 SHL AND PUSH1 0x20 DUP3 ADD MSTORE PUSH1 0x34 DUP2 ADD DUP4 SWAP1 MSTORE PUSH1 0x0 SWAP1 PUSH1 0x54 ADD PUSH1 0x40 DUP1 MLOAD DUP1 DUP4 SUB PUSH1 0x1F NOT ADD DUP2 MSTORE DUP3 DUP3 MSTORE DUP1 MLOAD PUSH1 0x20 SWAP2 DUP3 ADD KECCAK256 PUSH1 0x0 DUP2 DUP2 MSTORE PUSH1 0x5 DUP4 MSTORE SWAP3 SWAP1 SWAP3 KECCAK256 DUP6 SWAP1 SSTORE DUP5 DUP4 MSTORE SWAP1 SWAP3 POP DUP5 SWAP2 PUSH1 0x1 PUSH1 0x1 PUSH1 0xA0 SHL SUB DUP8 AND SWAP2 PUSH32 0x6DEDF4870418A0998FA354D0E3F2908E6A67EB9FE466CBF33BE5B99A67A58561 SWAP2 ADD PUSH1 0x40 MLOAD DUP1 SWAP2 SUB SWAP1 LOG3 POP POP POP POP JUMP JUMPDEST PUSH1 0x0 DUP1 PUSH1 0x4 SLOAD DUP4 LT ISZERO PUSH2 0xC0E JUMPI PUSH1 0x40 MLOAD PUSH3 0x461BCD PUSH1 0xE5 SHL DUP2 MSTORE PUSH1 0x20 PUSH1 0x4 DUP3 ADD MSTORE PUSH1 0x12 PUSH1 0x24 DUP3 ADD MSTORE PUSH18 0x111D5C985D1A5BDB881D1BDBC81CDA1BDC9D PUSH1 0x72 SHL PUSH1 0x44 DUP3 ADD MSTORE PUSH1 0x64 ADD PUSH2 0x386 JUMP JUMPDEST PUSH1 0x0 DUP5 GT PUSH2 0xC52 JUMPI PUSH1 0x40 MLOAD PUSH3 0x461BCD PUSH1 0xE5 SHL DUP2 MSTORE PUSH1 0x20 PUSH1 0x4 DUP3 ADD MSTORE PUSH1 0x11 PUSH1 0x24 DUP3 ADD MSTORE PUSH17 0x10DBDD995C9859D9481C995C5D5A5C9959 PUSH1 0x7A SHL PUSH1 0x44 DUP3 ADD MSTORE PUSH1 0x64 ADD PUSH2 0x386 JUMP JUMPDEST PUSH1 0x0 DUP6 GT PUSH2 0xC99 JUMPI PUSH1 0x40 MLOAD PUSH3 0x461BCD PUSH1 0xE5 SHL DUP2 MSTORE PUSH1 0x20 PUSH1 0x4 DUP3 ADD MSTORE PUSH1 0x14 PUSH1 0x24 DUP3 ADD MSTORE PUSH20 0x131BD85B88185B5BDD5B9D081C995C5D5A5C9959 PUSH1 0x62 SHL PUSH1 0x44 DUP3 ADD MSTORE PUSH1 0x64 ADD PUSH2 0x386 JUMP JUMPDEST PUSH1 0x0 PUSH2 0x2710 PUSH1 0x3 SLOAD DUP8 PUSH2 0xCAC SWAP2 SWAP1 PUSH2 0x11D5 JUMP JUMPDEST PUSH2 0xCB6 SWAP2 SWAP1 PUSH2 0x11F2 JUMP JUMPDEST SWAP1 POP DUP1 DUP6 GT ISZERO PUSH2 0xCFF JUMPI PUSH1 0x40 MLOAD PUSH3 0x461BCD PUSH1 0xE5 SHL DUP2 MSTORE PUSH1 0x20 PUSH1 0x4 DUP3 ADD MSTORE PUSH1 0x14 PUSH1 0x24 DUP3 ADD MSTORE PUSH20 0x436F76657261676520657863656564732063617 PUSH1 0x64 SHL PUSH1 0x44 DUP3 ADD MSTORE PUSH1 0x64 ADD PUSH2 0x386 JUMP JUMPDEST PUSH1 0x0 PUSH2 0xD0C CALLER DUP10 DUP9 PUSH2 0x793 JUMP JUMPDEST PUSH1 0x40 MLOAD PUSH4 0x8C8AC76D PUSH1 0xE0 SHL DUP2 MSTORE CALLER PUSH1 0x4 DUP3 ADD MSTORE PUSH1 0x24 DUP2 ADD DUP4 SWAP1 MSTORE SWAP2 SWAP5 POP SWAP2 POP PUSH32 0x0 PUSH1 0x1 PUSH1 0x1 PUSH1 0xA0 SHL SUB AND SWAP1 PUSH4 0x8C8AC76D SWAP1 PUSH1 0x44 ADD PUSH1 0x0 PUSH1 0x40 MLOAD DUP1 DUP4 SUB DUP2 PUSH1 0x0 DUP8 DUP1 EXTCODESIZE ISZERO DUP1 ISZERO PUSH2 0xD79 JUMPI PUSH1 0x0 DUP1 REVERT JUMPDEST POP GAS CALL ISZERO DUP1 ISZERO PUSH2 0xD8D JUMPI RETURNDATASIZE PUSH1 0x0 DUP1 RETURNDATACOPY RETURNDATASIZE PUSH1 0x0 REVERT JUMPDEST POP POP POP POP PUSH1 0x0 DUP6 TIMESTAMP PUSH2 0xD9F SWAP2 SWAP1 PUSH2 0x1214 JUMP JUMPDEST PUSH1 0x40 MLOAD PUSH4 0x137D90C3 PUSH1 0xE0 SHL DUP2 MSTORE CALLER PUSH1 0x4 DUP3 ADD MSTORE PUSH1 0x24 DUP2 ADD DUP12 SWAP1 MSTORE PUSH1 0x44 DUP2 ADD DUP10 SWAP1 MSTORE PUSH1 0x64 DUP2 ADD DUP7 SWAP1 MSTORE PUSH1 0x84 DUP2 ADD DUP5 SWAP1 MSTORE PUSH1 0xA4 DUP2 ADD DUP3 SWAP1 MSTORE SWAP1 SWAP2 POP PUSH32 0x0 PUSH1 0x1 PUSH1 0x1 PUSH1 0xA0 SHL SUB AND SWAP1 PUSH4 0x137D90C3 SWAP1 PUSH1 0xC4 ADD PUSH1 0x20 PUSH1 0x40 MLOAD DUP1 DUP4 SUB DUP2 PUSH1 0x0 DUP8 GAS CALL ISZERO DUP1 ISZERO PUSH2 0xE2B JUMPI RETURNDATASIZE PUSH1 0x0 DUP1 RETURNDATACOPY RETURNDATASIZE PUSH1 0x0 REVERT JUMPDEST POP POP POP POP PUSH1 0x40 MLOAD RETURNDATASIZE PUSH1 0x1F NOT PUSH1 0x1F DUP3 ADD AND DUP3 ADD DUP1 PUSH1 0x40 MSTORE POP DUP2 ADD SWAP1 PUSH2 0xE4F SWAP2 SWAP1 PUSH2 0x11A6 JUMP JUMPDEST PUSH1 0x40 DUP1 MLOAD DUP7 DUP2 MSTORE PUSH1 0x20 DUP2 ADD DUP11 SWAP1 MSTORE SWAP2 SWAP7 POP DUP11 SWAP2 DUP8 SWAP2 CALLER SWAP2 PUSH32 0x8E63E251F17C4F8C8DD082B9641BA8A3A04D5506E4A1B1782C6E3F57ABC39374 SWAP2 ADD PUSH1 0x40 MLOAD DUP1 SWAP2 SUB SWAP1 LOG4 POP POP POP SWAP5 POP SWAP5 SWAP3 POP POP POP JUMP JUMPDEST PUSH2 0xEA5 PUSH2 0xF16 JUMP JUMPDEST PUSH1 0x1 PUSH1 0x1 PUSH1 0xA0 SHL SUB DUP2 AND PUSH2 0xF0A JUMPI PUSH1 0x40 MLOAD PUSH3 0x461BCD PUSH1 0xE5 SHL DUP2 MSTORE PUSH1 0x20 PUSH1 0x4 DUP3 ADD MSTORE PUSH1 0x26 PUSH1 0x24 DUP3 ADD MSTORE PUSH32 0x4F776E61626C653A206E6577206F776E657220697320746865207A65726F2061 PUSH1 0x44 DUP3 ADD MSTORE PUSH6 0x646472657373 PUSH1 0xD0 SHL PUSH1 0x64 DUP3 ADD MSTORE PUSH1 0x84 ADD PUSH2 0x386 JUMP JUMPDEST PUSH2 0xF13 DUP2 PUSH2 0xF70 JUMP JUMPDEST POP JUMP JUMPDEST PUSH1 0x0 SLOAD PUSH1 0x1 PUSH1 0x1 PUSH1 0xA0 SHL SUB AND CALLER EQ PUSH2 0xA40 JUMPI PUSH1 0x40 MLOAD PUSH3 0x461BCD PUSH1 0xE5 SHL DUP2 MSTORE PUSH1 0x20 PUSH1 0x4 DUP3 ADD DUP2 SWAP1 MSTORE PUSH1 0x24 DUP3 ADD MSTORE PUSH32 0x4F776E61626C653A2063616C6C6572206973206E6F7420746865206F776E6572 PUSH1 0x44 DUP3 ADD MSTORE PUSH1 0x64 ADD PUSH2 0x386 JUMP JUMPDEST PUSH1 0x0 DUP1 SLOAD PUSH1 0x1 PUSH1 0x1 PUSH1 0xA0 SHL SUB DUP4 DUP2 AND PUSH1 0x1 PUSH1 0x1 PUSH1 0xA0 SHL SUB NOT DUP4 AND DUP2 OR DUP5 SSTORE PUSH1 0x40 MLOAD SWAP2 SWAP1 SWAP3 AND SWAP3 DUP4 SWAP2 PUSH32 0x8BE0079C531659141344CD1FD0A4F28419497F9722A3DAAFE3B4186F6B6457E0 SWAP2 SWAP1 LOG3 POP POP JUMP JUMPDEST PUSH1 0x0 PUSH1 0x20 DUP3 DUP5 SUB SLT ISZERO PUSH2 0xFD2 JUMPI PUSH1 0x0 DUP1 REVERT JUMPDEST POP CALLDATALOAD SWAP2 SWAP1 POP JUMP JUMPDEST PUSH1 0x1 PUSH1 0x1 PUSH1 0xA0 SHL SUB DUP2 AND DUP2 EQ PUSH2 0xF13 JUMPI PUSH1 0x0 DUP1 REVERT JUMPDEST PUSH1 0x0 PUSH1 0x20 DUP3 DUP5 SUB SLT ISZERO PUSH2 0x1000 JUMPI PUSH1 0x0 DUP1 REVERT JUMPDEST DUP2 CALLDATALOAD PUSH2 0x100B DUP2 PUSH2 0xFD9 JUMP JUMPDEST SWAP4 SWAP3 POP POP POP JUMP JUMPDEST PUSH1 0x0 DUP1 PUSH1 0x0 PUSH1 0x60 DUP5 DUP7 SUB SLT ISZERO PUSH2 0x1027 JUMPI PUSH1 0x0 DUP1 REVERT JUMPDEST DUP4 CALLDATALOAD PUSH2 0x1032 DUP2 PUSH2 0xFD9 JUMP JUMPDEST SWAP6 PUSH1 0x20 DUP6 ADD CALLDATALOAD SWAP6 POP PUSH1 0x40 SWAP1 SWAP5 ADD CALLDATALOAD SWAP4 SWAP3 POP POP POP JUMP JUMPDEST PUSH1 0x0 DUP1 PUSH1 0x0 PUSH1 0x60 DUP5 DUP7 SUB SLT ISZERO PUSH2 0x105C JUMPI PUSH1 0x0 DUP1 REVERT JUMPDEST POP POP DUP2 CALLDATALOAD SWAP4 PUSH1 0x20 DUP4 ADD CALLDATALOAD SWAP4 POP PUSH1 0x40 SWAP1 SWAP3 ADD CALLDATALOAD SWAP2 SWAP1 POP JUMP JUMPDEST PUSH1 0x0 DUP1 PUSH1 0x0 DUP1 PUSH1 0x80 DUP6 DUP8 SUB SLT ISZERO PUSH2 0x1089 JUMPI PUSH1 0x0 DUP1 REVERT JUMPDEST POP POP DUP3 CALLDATALOAD SWAP5 PUSH1 0x20 DUP5 ADD CALLDATALOAD SWAP5 POP PUSH1 0x40 DUP5 ADD CALLDATALOAD SWAP4 PUSH1 0x60 ADD CALLDATALOAD SWAP3 POP SWAP1 POP JUMP JUMPDEST DUP1 MLOAD PUSH2 0x10B0 DUP2 PUSH2 0xFD9 JUMP JUMPDEST SWAP2 SWAP1 POP JUMP JUMPDEST PUSH1 0x0 PUSH1 0x20 DUP3 DUP5 SUB SLT ISZERO PUSH2 0x10C7 JUMPI PUSH1 0x0 DUP1 REVERT JUMPDEST DUP2 MLOAD PUSH2 0x100B DUP2 PUSH2 0xFD9 JUMP JUMPDEST PUSH1 0x40 MLOAD PUSH2 0x120 DUP2 ADD PUSH8 0xFFFFFFFFFFFFFFFF DUP2 GT DUP3 DUP3 LT OR ISZERO PUSH2 0x1104 JUMPI PUSH4 0x4E487B71 PUSH1 0xE0 SHL PUSH1 0x0 MSTORE PUSH1 0x41 PUSH1 0x4 MSTORE PUSH1 0x24 PUSH1 0x0 REVERT JUMPDEST PUSH1 0x40 MSTORE SWAP1 JUMP JUMPDEST DUP1 MLOAD DUP1 ISZERO ISZERO DUP2 EQ PUSH2 0x10B0 JUMPI PUSH1 0x0 DUP1 REVERT JUMPDEST PUSH1 0x0 PUSH2 0x120 DUP3 DUP5 SUB SLT ISZERO PUSH2 0x112D JUMPI PUSH1 0x0 DUP1 REVERT JUMPDEST PUSH2 0x1135 PUSH2 0x10D2 JUMP JUMPDEST PUSH2 0x113E DUP4 PUSH2 0x10A5 JUMP JUMPDEST DUP2 MSTORE PUSH1 0x20 DUP4 ADD MLOAD PUSH1 0x20 DUP3 ADD MSTORE PUSH1 0x40 DUP4 ADD MLOAD PUSH1 0x40 DUP3 ADD MSTORE PUSH1 0x60 DUP4 ADD MLOAD PUSH1 0x60 DUP3 ADD MSTORE PUSH1 0x80 DUP4 ADD MLOAD PUSH1 0x80 DUP3 ADD MSTORE PUSH1 0xA0 DUP4 ADD MLOAD PUSH1 0xA0 DUP3 ADD MSTORE PUSH1 0xC0 DUP4 ADD MLOAD PUSH1 0xC0 DUP3 ADD MSTORE PUSH2 0x1188 PUSH1 0xE0 DUP5 ADD PUSH2 0x110A JUMP JUMPDEST PUSH1 0xE0 DUP3 ADD MSTORE PUSH2 0x100 PUSH2 0x119B DUP2 DUP6 ADD PUSH2 0x110A JUMP JUMPDEST SWAP1 DUP3 ADD MSTORE SWAP4 SWAP3 POP POP POP JUMP JUMPDEST PUSH1 0x0 PUSH1 0x20 DUP3 DUP5 SUB SLT ISZERO PUSH2 0x11B8 JUMPI PUSH1 0x0 DUP1 REVERT JUMPDEST POP MLOAD SWAP2 SWAP1 POP JUMP JUMPDEST PUSH4 0x4E487B71 PUSH1 0xE0 SHL PUSH1 0x0 MSTORE PUSH1 0x11 PUSH1 0x4 MSTORE PUSH1 0x24 PUSH1 0x0 REVERT JUMPDEST DUP1 DUP3 MUL DUP2 ISZERO DUP3 DUP3 DIV DUP5 EQ OR PUSH2 0x11EC JUMPI PUSH2 0x11EC PUSH2 0x11BF JUMP JUMPDEST SWAP3 SWAP2 POP POP JUMP JUMPDEST PUSH1 0x0 DUP3 PUSH2 0x120F JUMPI PUSH4 0x4E487B71 PUSH1 0xE0 SHL PUSH1 0x0 MSTORE PUSH1 0x12 PUSH1 0x4 MSTORE PUSH1 0x24 PUSH1 0x0 REVERT JUMPDEST POP DIV SWAP1 JUMP JUMPDEST DUP1 DUP3 ADD DUP1 DUP3 GT ISZERO PUSH2 0x11EC JUMPI PUSH2 0x11EC PUSH2 0x11BF JUMP INVALID LOG2 PUSH5 0x6970667358 0x22 SLT KECCAK256 DUP9 MSTORE8 0x22 SELFBALANCE SLOAD 0xC7 0x4A 0xB5 0xC1 MSTORE 0xD1 0xFB MUL CALLDATASIZE MSIZE 0x28 0x1F EQ 0xC1 SWAP13 PUSH0 DUP6 0xA6 PUSH13 0xBF4BA1306ECEE4FF64736F6C63 NUMBER STOP ADDMOD EQ STOP CALLER "},"methodIdentifiers":{"buyPolicy(uint256,uint256,uint256,uint256)":"cb60c822","claimPolicy(uint256)":"2aea118d","coverageFactorBps()":"561b1749","insuranceNFT()":"328eb463","insurancePool()":"ab2adc00","liquidationEngine()":"44bf3c72","maxCoverageBps()":"e74c64b7","minLockPeriod()":"73ae54b5","owner()":"8da5cb5b","quotePremium(address,uint256,uint256)":"4ef58d60","recordLiquidation(address,uint256,uint256)":"a87b978a","recordedLiquidationLoss(bytes32)":"9e36a456","renounceOwnership()":"715018a6","riskOracle()":"d50507fd","setCoverageParams(uint256,uint256,uint256)":"55b662f5","setLiquidationEngine(address)":"4d298abd","transferOwnership(address)":"f2fde38b"}}}}}