{"contracts/SmartCollateralVault.sol":{"SmartCollateralVault":{"abi":[{"inputs":[],"stateMutability":"nonpayable","type":"constructor"},{"anonymous":false,"inputs":[{"indexed":true,"internalType":"address","name":"user","type":"address"},{"indexed":true,"internalType":"address","name":"token","type":"address"},{"indexed":false,"internalType":"uint256","name":"amount","type":"uint256"}],"name":"BorrowingInitiated","type":"event"},{"anonymous":false,"inputs":[{"indexed":true,"internalType":"address","name":"token","type":"address"}],"name":"CollateralAdded","type":"event"},{"anonymous":false,"inputs":[{"indexed":true,"internalType":"address","name":"user","type":"address"},{"indexed":true,"internalType":"address","name":"token","type":"address"},{"indexed":false,"internalType":"uint256","name":"amount","type":"uint256"}],"name":"CollateralDeposited","type":"event"},{"anonymous":false,"inputs":[{"indexed":true,"internalType":"address","name":"user","type":"address"},{"indexed":true,"internalType":"address","name":"token","type":"address"},{"indexed":false,"internalType":"uint256","name":"amount","type":"uint256"},{"indexed":true,"internalType":"address","name":"liquidator","type":"address"}],"name":"CollateralLiquidated","type":"event"},{"anonymous":false,"inputs":[{"indexed":true,"internalType":"address","name":"token","type":"address"}],"name":"CollateralRemoved","type":"event"},{"anonymous":false,"inputs":[{"indexed":true,"internalType":"address","name":"user","type":"address"},{"indexed":true,"internalType":"address","name":"token","type":"address"},{"indexed":false,"internalType":"uint256","name":"amount","type":"uint256"}],"name":"CollateralWithdrawn","type":"event"},{"anonymous":false,"inputs":[{"indexed":true,"internalType":"address","name":"user","type":"address"},{"indexed":true,"internalType":"address","name":"token","type":"address"},{"indexed":false,"internalType":"uint256","name":"amount","type":"uint256"}],"name":"DebtRepaid","type":"event"},{"anonymous":false,"inputs":[{"indexed":true,"internalType":"address","name":"previousOwner","type":"address"},{"indexed":true,"internalType":"address","name":"newOwner","type":"address"}],"name":"OwnershipTransferred","type":"event"},{"inputs":[{"internalType":"address","name":"token","type":"address"}],"name":"addCollateral","outputs":[],"stateMutability":"nonpayable","type":"function"},{"inputs":[{"internalType":"address","name":"collateralToken","type":"address"},{"internalType":"address","name":"borrowToken","type":"address"},{"internalType":"uint256","name":"borrowAmount","type":"uint256"}],"name":"borrow","outputs":[],"stateMutability":"nonpayable","type":"function"},{"inputs":[{"internalType":"address","name":"","type":"address"},{"internalType":"address","name":"","type":"address"}],"name":"borrowedAmount","outputs":[{"internalType":"uint256","name":"","type":"uint256"}],"stateMutability":"view","type":"function"},{"inputs":[{"internalType":"address","name":"user","type":"address"}],"name":"canBeLiquidated","outputs":[{"internalType":"bool","name":"","type":"bool"}],"stateMutability":"view","type":"function"},{"inputs":[{"internalType":"address","name":"","type":"address"},{"internalType":"address","name":"","type":"address"}],"name":"collateralDeposits","outputs":[{"internalType":"uint256","name":"","type":"uint256"}],"stateMutability":"view","type":"function"},{"inputs":[{"internalType":"address","name":"token","type":"address"},{"internalType":"uint256","name":"amount","type":"uint256"}],"name":"depositCollateral","outputs":[],"stateMutability":"nonpayable","type":"function"},{"inputs":[{"internalType":"address","name":"user","type":"address"}],"name":"getCollateralValue","outputs":[{"internalType":"uint256","name":"","type":"uint256"}],"stateMutability":"view","type":"function"},{"inputs":[{"internalType":"address","name":"user","type":"address"}],"name":"getHealthFactor","outputs":[{"internalType":"uint256","name":"","type":"uint256"}],"stateMutability":"view","type":"function"},{"inputs":[],"name":"getSupportedCollaterals","outputs":[{"internalType":"address[]","name":"","type":"address[]"}],"stateMutability":"view","type":"function"},{"inputs":[{"internalType":"address","name":"user","type":"address"}],"name":"getTotalDebt","outputs":[{"internalType":"uint256","name":"","type":"uint256"}],"stateMutability":"view","type":"function"},{"inputs":[{"internalType":"address","name":"","type":"address"}],"name":"isCollateralSupported","outputs":[{"internalType":"bool","name":"","type":"bool"}],"stateMutability":"view","type":"function"},{"inputs":[{"internalType":"address","name":"user","type":"address"}],"name":"isHealthy","outputs":[{"internalType":"bool","name":"","type":"bool"}],"stateMutability":"view","type":"function"},{"inputs":[],"name":"liquidationBonus","outputs":[{"internalType":"uint256","name":"","type":"uint256"}],"stateMutability":"view","type":"function"},{"inputs":[],"name":"liquidationThreshold","outputs":[{"internalType":"uint256","name":"","type":"uint256"}],"stateMutability":"view","type":"function"},{"inputs":[],"name":"minCollateralRatio","outputs":[{"internalType":"uint256","name":"","type":"uint256"}],"stateMutability":"view","type":"function"},{"inputs":[],"name":"owner","outputs":[{"internalType":"address","name":"","type":"address"}],"stateMutability":"view","type":"function"},{"inputs":[{"internalType":"address","name":"token","type":"address"}],"name":"removeCollateral","outputs":[],"stateMutability":"nonpayable","type":"function"},{"inputs":[],"name":"renounceOwnership","outputs":[],"stateMutability":"nonpayable","type":"function"},{"inputs":[{"internalType":"address","name":"borrowToken","type":"address"},{"internalType":"uint256","name":"amount","type":"uint256"}],"name":"repay","outputs":[],"stateMutability":"nonpayable","type":"function"},{"inputs":[{"internalType":"uint256","name":"bonus","type":"uint256"}],"name":"setLiquidationBonus","outputs":[],"stateMutability":"nonpayable","type":"function"},{"inputs":[{"internalType":"uint256","name":"threshold","type":"uint256"}],"name":"setLiquidationThreshold","outputs":[],"stateMutability":"nonpayable","type":"function"},{"inputs":[{"internalType":"uint256","name":"newRatio","type":"uint256"}],"name":"setMinCollateralRatio","outputs":[],"stateMutability":"nonpayable","type":"function"},{"inputs":[{"internalType":"uint256","name":"","type":"uint256"}],"name":"supportedCollaterals","outputs":[{"internalType":"address","name":"","type":"address"}],"stateMutability":"view","type":"function"},{"inputs":[{"internalType":"address","name":"","type":"address"}],"name":"totalDebt","outputs":[{"internalType":"uint256","name":"","type":"uint256"}],"stateMutability":"view","type":"function"},{"inputs":[{"internalType":"address","name":"newOwner","type":"address"}],"name":"transferOwnership","outputs":[],"stateMutability":"nonpayable","type":"function"},{"inputs":[{"internalType":"address","name":"token","type":"address"},{"internalType":"uint256","name":"amount","type":"uint256"}],"name":"withdrawCollateral","outputs":[],"stateMutability":"nonpayable","type":"function"}],"evm":{"bytecode":{"linkReferences":{},"object":"6080604052613a98600655612ee06007556103e860085534801561002257600080fd5b50600160005561003133610036565b610088565b600180546001600160a01b038381166001600160a01b0319831681179093556040519116919082907f8be0079c531659141344cd1fd0a4f28419497f9722a3daafe3b4186f6b6457e090600090a35050565b6115cd806100976000396000f3fe608060405234801561001057600080fd5b506004361061018e5760003560e01c806372665438116100de578063c99d3a0611610097578063f0d2d5a811610071578063f0d2d5a814610386578063f2fde38b14610399578063fa6bd2ee146103ac578063fe6bcd7c146103cf57600080fd5b8063c99d3a061461034d578063d0b0c81614610360578063d4d9bc681461037357600080fd5b806372665438146102d95780637b7c1f4c1461030457806384da26661461030d5780638da5cb5b1461031657806397904e4214610327578063a5d5db0c1461033a57600080fd5b8063350c35e91161014b57806347788cd01161012557806347788cd0146102885780634d44ac4f146102ab5780635224372c146102be578063715018a6146102d157600080fd5b8063350c35e914610259578063385362751461026c5780634031234c1461027f57600080fd5b806303e2bb2e1461019357806305db8a69146101c35780630c65e07b146101d85780631ff517ff1461021157806322867d781461023157806328842d4f14610246575b600080fd5b6101a66101a1366004611341565b6103e2565b6040516001600160a01b0390911681526020015b60405180910390f35b6101cb61040c565b6040516101ba919061135a565b6102036101e63660046113c3565b600260209081526000928352604080842090915290825290205481565b6040519081526020016101ba565b61020361021f3660046113f6565b60056020526000908152604090205481565b61024461023f366004611418565b61046e565b005b610244610254366004611341565b610632565b610244610267366004611418565b610682565b61024461027a366004611341565b61085a565b61020360075481565b61029b6102963660046113f6565b6108a8565b60405190151581526020016101ba565b6102036102b93660046113f6565b6108bf565b6102446102cc366004611442565b61093e565b610244610bf6565b6102036102e73660046113c3565b600460209081526000928352604080842090915290825290205481565b61020360085481565b61020360065481565b6001546001600160a01b03166101a6565b6102036103353660046113f6565b610c0a565b610244610348366004611418565b610c8a565b61024461035b3660046113f6565b610dfd565b61024461036e366004611341565b610fc1565b61029b6103813660046113f6565b611013565b6102446103943660046113f6565b61102b565b6102446103a73660046113f6565b611176565b61029b6103ba3660046113f6565b60036020526000908152604090205460ff1681565b6102036103dd3660046113f6565b6111ef565b600981815481106103f257600080fd5b6000918252602090912001546001600160a01b0316905081565b6060600980548060200260200160405190810160405280929190818152602001828054801561046457602002820191906000526020600020905b81546001600160a01b03168152600190910190602001808311610446575b5050505050905090565b61047661123c565b3360009081526004602090815260408083206001600160a01b03861684529091529020548111156104e65760405162461bcd60e51b81526020600482015260156024820152740a4cae0c2f240c2dadeeadce840e8dede40d0d2ced605b1b60448201526064015b60405180910390fd5b600081116105065760405162461bcd60e51b81526004016104dd9061147e565b6040516323b872dd60e01b8152336004820152306024820152604481018290526001600160a01b038316906323b872dd906064016020604051808303816000875af1158015610559573d6000803e3d6000fd5b505050506040513d601f19601f8201168201806040525081019061057d91906114b5565b503360009081526004602090815260408083206001600160a01b0386168452909152812080548392906105b19084906114ed565b90915550506001600160a01b038216600090815260056020526040812080548392906105de9084906114ed565b90915550506040518181526001600160a01b0383169033907feef1a28252f7c3266ccea3202ee9693f0834485bc3551310a406e04829c7e2cf906020015b60405180910390a361062e6001600055565b5050565b61063a611295565b61138881111561067d5760405162461bcd60e51b815260206004820152600e60248201526d084dedceae640e8dede40d0d2ced60931b60448201526064016104dd565b600855565b61068a61123c565b3360009081526002602090815260408083206001600160a01b03861684529091529020548111156106fd5760405162461bcd60e51b815260206004820152601760248201527f496e73756666696369656e7420636f6c6c61746572616c00000000000000000060448201526064016104dd565b6000811161071d5760405162461bcd60e51b81526004016104dd9061147e565b3360009081526002602090815260408083206001600160a01b0386168452909152812080548392906107509084906114ed565b9091555061075f905033611013565b6107ab5760405162461bcd60e51b815260206004820152601e60248201527f576f756c642076696f6c61746520636f6c6c61746572616c20726174696f000060448201526064016104dd565b60405163a9059cbb60e01b8152336004820152602481018290526001600160a01b0383169063a9059cbb906044016020604051808303816000875af11580156107f8573d6000803e3d6000fd5b505050506040513d601f19601f8201168201806040525081019061081c91906114b5565b506040518181526001600160a01b0383169033907f45892a46e6cef329bb642da6d69846d324db43d19008edc141ed82382eda1bee9060200161061c565b610862611295565b60075481116108a35760405162461bcd60e51b815260206004820152600d60248201526c526174696f20746f6f206c6f7760981b60448201526064016104dd565b600655565b6000806108b4836111ef565b600754119392505050565b600080805b600954811015610937576000600982815481106108e3576108e3611506565b60009182526020808320909101546001600160a01b03888116845260048352604080852091909216808552925290912054909150610921908461151c565b925050808061092f9061152f565b9150506108c4565b5092915050565b61094661123c565b6001600160a01b03831660009081526003602052604090205460ff166109ae5760405162461bcd60e51b815260206004820152601e60248201527f436f6c6c61746572616c20746f6b656e206e6f7420737570706f72746564000060448201526064016104dd565b3360009081526002602090815260408083206001600160a01b0387168452909152902054610a1e5760405162461bcd60e51b815260206004820152601760248201527f4e6f20636f6c6c61746572616c206465706f736974656400000000000000000060448201526064016104dd565b60008111610a7a5760405162461bcd60e51b8152602060048201526024808201527f426f72726f7720616d6f756e74206d75737420626520677265617465722074686044820152630616e20360e41b60648201526084016104dd565b3360009081526004602090815260408083206001600160a01b038616845290915281208054839290610aad90849061151c565b90915550506001600160a01b03821660009081526005602052604081208054839290610ada90849061151c565b90915550610ae9905033611013565b610b355760405162461bcd60e51b815260206004820152601e60248201527f576f756c642076696f6c61746520636f6c6c61746572616c20726174696f000060448201526064016104dd565b60405163a9059cbb60e01b8152336004820152602481018290526001600160a01b0383169063a9059cbb906044016020604051808303816000875af1158015610b82573d6000803e3d6000fd5b505050506040513d601f19601f82011682018060405250810190610ba691906114b5565b506040518181526001600160a01b0383169033907ffe821c07e412216df3754b3a1e48236aeb7e71d02963f09736f67fe568718ca69060200160405180910390a3610bf16001600055565b505050565b610bfe611295565b610c0860006112ef565b565b600080805b60095481101561093757600060098281548110610c2e57610c2e611506565b60009182526020808320909101546001600160a01b038881168452600283526040808520919092168085529252909120549091508015610c7557610c72818561151c565b93505b50508080610c829061152f565b915050610c0f565b610c9261123c565b6001600160a01b03821660009081526003602052604090205460ff16610cf05760405162461bcd60e51b8152602060048201526013602482015272151bdad95b881b9bdd081cdd5c1c1bdc9d1959606a1b60448201526064016104dd565b60008111610d105760405162461bcd60e51b81526004016104dd9061147e565b6040516323b872dd60e01b8152336004820152306024820152604481018290526001600160a01b038316906323b872dd906064016020604051808303816000875af1158015610d63573d6000803e3d6000fd5b505050506040513d601f19601f82011682018060405250810190610d8791906114b5565b503360009081526002602090815260408083206001600160a01b038616845290915281208054839290610dbb90849061151c565b90915550506040518181526001600160a01b0383169033907ff1c0dd7e9b98bbff859029005ef89b127af049cd18df1a8d79f0b7e019911e569060200161061c565b610e05611295565b6001600160a01b03811660009081526003602052604090205460ff16610e635760405162461bcd60e51b8152602060048201526013602482015272151bdad95b881b9bdd081cdd5c1c1bdc9d1959606a1b60448201526064016104dd565b6001600160a01b0381166000908152600360205260408120805460ff191690555b600954811015610f8957816001600160a01b031660098281548110610eab57610eab611506565b6000918252602090912001546001600160a01b031603610f775760098054610ed5906001906114ed565b81548110610ee557610ee5611506565b600091825260209091200154600980546001600160a01b039092169183908110610f1157610f11611506565b9060005260206000200160006101000a8154816001600160a01b0302191690836001600160a01b031602179055506009805480610f5057610f50611548565b600082815260209020810160001990810180546001600160a01b0319169055019055610f89565b80610f818161152f565b915050610e84565b506040516001600160a01b038216907fd89d2ee68ab04dca0193f48a4aff55e20fa5ec0429a8a8c1c51b8dad6178a59390600090a250565b610fc9611295565b600654811061100e5760405162461bcd60e51b8152602060048201526011602482015270125b9d985b1a59081d1a1c995cda1bdb19607a1b60448201526064016104dd565b600755565b60008061101f836111ef565b60065411159392505050565b611033611295565b6001600160a01b0381166110815760405162461bcd60e51b8152602060048201526015602482015274496e76616c696420746f6b656e206164647265737360581b60448201526064016104dd565b6001600160a01b03811660009081526003602052604090205460ff16156110ea5760405162461bcd60e51b815260206004820152601760248201527f546f6b656e20616c726561647920737570706f7274656400000000000000000060448201526064016104dd565b6001600160a01b038116600081815260036020526040808220805460ff1916600190811790915560098054918201815583527f6e1540171b6c0c960b71a7020d9f60077f6af931a8bbf590da0223dacf75c7af0180546001600160a01b03191684179055517f7db05e63d635a68c62fd7fd8f3107ae8ab584a383e102d1bd8a40f4c977e465f9190a250565b61117e611295565b6001600160a01b0381166111e35760405162461bcd60e51b815260206004820152602660248201527f4f776e61626c653a206e6577206f776e657220697320746865207a65726f206160448201526564647265737360d01b60648201526084016104dd565b6111ec816112ef565b50565b6000806111fb83610c0a565b90506000611208846108bf565b90508060000361121d57506000199392505050565b8061122a8361271061155e565b6112349190611575565b949350505050565b60026000540361128e5760405162461bcd60e51b815260206004820152601f60248201527f5265656e7472616e637947756172643a207265656e7472616e742063616c6c0060448201526064016104dd565b6002600055565b6001546001600160a01b03163314610c085760405162461bcd60e51b815260206004820181905260248201527f4f776e61626c653a2063616c6c6572206973206e6f7420746865206f776e657260448201526064016104dd565b600180546001600160a01b038381166001600160a01b0319831681179093556040519116919082907f8be0079c531659141344cd1fd0a4f28419497f9722a3daafe3b4186f6b6457e090600090a35050565b60006020828403121561135357600080fd5b5035919050565b6020808252825182820181905260009190848201906040850190845b8181101561139b5783516001600160a01b031683529284019291840191600101611376565b50909695505050505050565b80356001600160a01b03811681146113be57600080fd5b919050565b600080604083850312156113d657600080fd5b6113df836113a7565b91506113ed602084016113a7565b90509250929050565b60006020828403121561140857600080fd5b611411826113a7565b9392505050565b6000806040838503121561142b57600080fd5b611434836113a7565b946020939093013593505050565b60008060006060848603121561145757600080fd5b611460846113a7565b925061146e602085016113a7565b9150604084013590509250925092565b6020808252601d908201527f416d6f756e74206d7573742062652067726561746572207468616e2030000000604082015260600190565b6000602082840312156114c757600080fd5b8151801515811461141157600080fd5b634e487b7160e01b600052601160045260246000fd5b81810381811115611500576115006114d7565b92915050565b634e487b7160e01b600052603260045260246000fd5b80820180821115611500576115006114d7565b600060018201611541576115416114d7565b5060010190565b634e487b7160e01b600052603160045260246000fd5b8082028115828204841417611500576115006114d7565b60008261159257634e487b7160e01b600052601260045260246000fd5b50049056fea264697066735822122069397819931f17f8c44744f565ca2a6c73d3963638010331258848c614b1660064736f6c63430008140033","opcodes":"PUSH1 0x80 PUSH1 0x40 MSTORE PUSH2 0x3A98 PUSH1 0x6 SSTORE PUSH2 0x2EE0 PUSH1 0x7 SSTORE PUSH2 0x3E8 PUSH1 0x8 SSTORE CALLVALUE DUP1 ISZERO PUSH2 0x22 JUMPI PUSH1 0x0 DUP1 REVERT JUMPDEST POP PUSH1 0x1 PUSH1 0x0 SSTORE PUSH2 0x31 CALLER PUSH2 0x36 JUMP JUMPDEST PUSH2 0x88 JUMP JUMPDEST PUSH1 0x1 DUP1 SLOAD PUSH1 0x1 PUSH1 0x1 PUSH1 0xA0 SHL SUB DUP4 DUP2 AND PUSH1 0x1 PUSH1 0x1 PUSH1 0xA0 SHL SUB NOT DUP4 AND DUP2 OR SWAP1 SWAP4 SSTORE PUSH1 0x40 MLOAD SWAP2 AND SWAP2 SWAP1 DUP3 SWAP1 PUSH32 0x8BE0079C531659141344CD1FD0A4F28419497F9722A3DAAFE3B4186F6B6457E0 SWAP1 PUSH1 0x0 SWAP1 LOG3 POP POP JUMP JUMPDEST PUSH2 0x15CD DUP1 PUSH2 0x97 PUSH1 0x0 CODECOPY PUSH1 0x0 RETURN INVALID PUSH1 0x80 PUSH1 0x40 MSTORE CALLVALUE DUP1 ISZERO PUSH2 0x10 JUMPI PUSH1 0x0 DUP1 REVERT JUMPDEST POP PUSH1 0x4 CALLDATASIZE LT PUSH2 0x18E JUMPI PUSH1 0x0 CALLDATALOAD PUSH1 0xE0 SHR DUP1 PUSH4 0x72665438 GT PUSH2 0xDE JUMPI DUP1 PUSH4 0xC99D3A06 GT PUSH2 0x97 JUMPI DUP1 PUSH4 0xF0D2D5A8 GT PUSH2 0x71 JUMPI DUP1 PUSH4 0xF0D2D5A8 EQ PUSH2 0x386 JUMPI DUP1 PUSH4 0xF2FDE38B EQ PUSH2 0x399 JUMPI DUP1 PUSH4 0xFA6BD2EE EQ PUSH2 0x3AC JUMPI DUP1 PUSH4 0xFE6BCD7C EQ PUSH2 0x3CF JUMPI PUSH1 0x0 DUP1 REVERT JUMPDEST DUP1 PUSH4 0xC99D3A06 EQ PUSH2 0x34D JUMPI DUP1 PUSH4 0xD0B0C816 EQ PUSH2 0x360 JUMPI DUP1 PUSH4 0xD4D9BC68 EQ PUSH2 0x373 JUMPI PUSH1 0x0 DUP1 REVERT JUMPDEST DUP1 PUSH4 0x72665438 EQ PUSH2 0x2D9 JUMPI DUP1 PUSH4 0x7B7C1F4C EQ PUSH2 0x304 JUMPI DUP1 PUSH4 0x84DA2666 EQ PUSH2 0x30D JUMPI DUP1 PUSH4 0x8DA5CB5B EQ PUSH2 0x316 JUMPI DUP1 PUSH4 0x97904E42 EQ PUSH2 0x327 JUMPI DUP1 PUSH4 0xA5D5DB0C EQ PUSH2 0x33A JUMPI PUSH1 0x0 DUP1 REVERT JUMPDEST DUP1 PUSH4 0x350C35E9 GT PUSH2 0x14B JUMPI DUP1 PUSH4 0x47788CD0 GT PUSH2 0x125 JUMPI DUP1 PUSH4 0x47788CD0 EQ PUSH2 0x288 JUMPI DUP1 PUSH4 0x4D44AC4F EQ PUSH2 0x2AB JUMPI DUP1 PUSH4 0x5224372C EQ PUSH2 0x2BE JUMPI DUP1 PUSH4 0x715018A6 EQ PUSH2 0x2D1 JUMPI PUSH1 0x0 DUP1 REVERT JUMPDEST DUP1 PUSH4 0x350C35E9 EQ PUSH2 0x259 JUMPI DUP1 PUSH4 0x38536275 EQ PUSH2 0x26C JUMPI DUP1 PUSH4 0x4031234C EQ PUSH2 0x27F JUMPI PUSH1 0x0 DUP1 REVERT JUMPDEST DUP1 PUSH4 0x3E2BB2E EQ PUSH2 0x193 JUMPI DUP1 PUSH4 0x5DB8A69 EQ PUSH2 0x1C3 JUMPI DUP1 PUSH4 0xC65E07B EQ PUSH2 0x1D8 JUMPI DUP1 PUSH4 0x1FF517FF EQ PUSH2 0x211 JUMPI DUP1 PUSH4 0x22867D78 EQ PUSH2 0x231 JUMPI DUP1 PUSH4 0x28842D4F EQ PUSH2 0x246 JUMPI JUMPDEST PUSH1 0x0 DUP1 REVERT JUMPDEST PUSH2 0x1A6 PUSH2 0x1A1 CALLDATASIZE PUSH1 0x4 PUSH2 0x1341 JUMP JUMPDEST PUSH2 0x3E2 JUMP JUMPDEST PUSH1 0x40 MLOAD PUSH1 0x1 PUSH1 0x1 PUSH1 0xA0 SHL SUB SWAP1 SWAP2 AND DUP2 MSTORE PUSH1 0x20 ADD JUMPDEST PUSH1 0x40 MLOAD DUP1 SWAP2 SUB SWAP1 RETURN JUMPDEST PUSH2 0x1CB PUSH2 0x40C JUMP JUMPDEST PUSH1 0x40 MLOAD PUSH2 0x1BA SWAP2 SWAP1 PUSH2 0x135A JUMP JUMPDEST PUSH2 0x203 PUSH2 0x1E6 CALLDATASIZE PUSH1 0x4 PUSH2 0x13C3 JUMP JUMPDEST PUSH1 0x2 PUSH1 0x20 SWAP1 DUP2 MSTORE PUSH1 0x0 SWAP3 DUP4 MSTORE PUSH1 0x40 DUP1 DUP5 KECCAK256 SWAP1 SWAP2 MSTORE SWAP1 DUP3 MSTORE SWAP1 KECCAK256 SLOAD DUP2 JUMP JUMPDEST PUSH1 0x40 MLOAD SWAP1 DUP2 MSTORE PUSH1 0x20 ADD PUSH2 0x1BA JUMP JUMPDEST PUSH2 0x203 PUSH2 0x21F CALLDATASIZE PUSH1 0x4 PUSH2 0x13F6 JUMP JUMPDEST PUSH1 0x5 PUSH1 0x20 MSTORE PUSH1 0x0 SWAP1 DUP2 MSTORE PUSH1 0x40 SWAP1 KECCAK256 SLOAD DUP2 JUMP JUMPDEST PUSH2 0x244 PUSH2 0x23F CALLDATASIZE PUSH1 0x4 PUSH2 0x1418 JUMP JUMPDEST PUSH2 0x46E JUMP JUMPDEST STOP JUMPDEST PUSH2 0x244 PUSH2 0x254 CALLDATASIZE PUSH1 0x4 PUSH2 0x1341 JUMP JUMPDEST PUSH2 0x632 JUMP JUMPDEST PUSH2 0x244 PUSH2 0x267 CALLDATASIZE PUSH1 0x4 PUSH2 0x1418 JUMP JUMPDEST PUSH2 0x682 JUMP JUMPDEST PUSH2 0x244 PUSH2 0x27A CALLDATASIZE PUSH1 0x4 PUSH2 0x1341 JUMP JUMPDEST PUSH2 0x85A JUMP JUMPDEST PUSH2 0x203 PUSH1 0x7 SLOAD DUP2 JUMP JUMPDEST PUSH2 0x29B PUSH2 0x296 CALLDATASIZE PUSH1 0x4 PUSH2 0x13F6 JUMP JUMPDEST PUSH2 0x8A8 JUMP JUMPDEST PUSH1 0x40 MLOAD SWAP1 ISZERO ISZERO DUP2 MSTORE PUSH1 0x20 ADD PUSH2 0x1BA JUMP JUMPDEST PUSH2 0x203 PUSH2 0x2B9 CALLDATASIZE PUSH1 0x4 PUSH2 0x13F6 JUMP JUMPDEST PUSH2 0x8BF JUMP JUMPDEST PUSH2 0x244 PUSH2 0x2CC CALLDATASIZE PUSH1 0x4 PUSH2 0x1442 JUMP JUMPDEST PUSH2 0x93E JUMP JUMPDEST PUSH2 0x244 PUSH2 0xBF6 JUMP JUMPDEST PUSH2 0x203 PUSH2 0x2E7 CALLDATASIZE PUSH1 0x4 PUSH2 0x13C3 JUMP JUMPDEST PUSH1 0x4 PUSH1 0x20 SWAP1 DUP2 MSTORE PUSH1 0x0 SWAP3 DUP4 MSTORE PUSH1 0x40 DUP1 DUP5 KECCAK256 SWAP1 SWAP2 MSTORE SWAP1 DUP3 MSTORE SWAP1 KECCAK256 SLOAD DUP2 JUMP JUMPDEST PUSH2 0x203 PUSH1 0x8 SLOAD DUP2 JUMP JUMPDEST PUSH2 0x203 PUSH1 0x6 SLOAD DUP2 JUMP JUMPDEST PUSH1 0x1 SLOAD PUSH1 0x1 PUSH1 0x1 PUSH1 0xA0 SHL SUB AND PUSH2 0x1A6 JUMP JUMPDEST PUSH2 0x203 PUSH2 0x335 CALLDATASIZE PUSH1 0x4 PUSH2 0x13F6 JUMP JUMPDEST PUSH2 0xC0A JUMP JUMPDEST PUSH2 0x244 PUSH2 0x348 CALLDATASIZE PUSH1 0x4 PUSH2 0x1418 JUMP JUMPDEST PUSH2 0xC8A JUMP JUMPDEST PUSH2 0x244 PUSH2 0x35B CALLDATASIZE PUSH1 0x4 PUSH2 0x13F6 JUMP JUMPDEST PUSH2 0xDFD JUMP JUMPDEST PUSH2 0x244 PUSH2 0x36E CALLDATASIZE PUSH1 0x4 PUSH2 0x1341 JUMP JUMPDEST PUSH2 0xFC1 JUMP JUMPDEST PUSH2 0x29B PUSH2 0x381 CALLDATASIZE PUSH1 0x4 PUSH2 0x13F6 JUMP JUMPDEST PUSH2 0x1013 JUMP JUMPDEST PUSH2 0x244 PUSH2 0x394 CALLDATASIZE PUSH1 0x4 PUSH2 0x13F6 JUMP JUMPDEST PUSH2 0x102B JUMP JUMPDEST PUSH2 0x244 PUSH2 0x3A7 CALLDATASIZE PUSH1 0x4 PUSH2 0x13F6 JUMP JUMPDEST PUSH2 0x1176 JUMP JUMPDEST PUSH2 0x29B PUSH2 0x3BA CALLDATASIZE PUSH1 0x4 PUSH2 0x13F6 JUMP JUMPDEST PUSH1 0x3 PUSH1 0x20 MSTORE PUSH1 0x0 SWAP1 DUP2 MSTORE PUSH1 0x40 SWAP1 KECCAK256 SLOAD PUSH1 0xFF AND DUP2 JUMP JUMPDEST PUSH2 0x203 PUSH2 0x3DD CALLDATASIZE PUSH1 0x4 PUSH2 0x13F6 JUMP JUMPDEST PUSH2 0x11EF JUMP JUMPDEST PUSH1 0x9 DUP2 DUP2 SLOAD DUP2 LT PUSH2 0x3F2 JUMPI PUSH1 0x0 DUP1 REVERT JUMPDEST PUSH1 0x0 SWAP2 DUP3 MSTORE PUSH1 0x20 SWAP1 SWAP2 KECCAK256 ADD SLOAD PUSH1 0x1 PUSH1 0x1 PUSH1 0xA0 SHL SUB AND SWAP1 POP DUP2 JUMP JUMPDEST PUSH1 0x60 PUSH1 0x9 DUP1 SLOAD DUP1 PUSH1 0x20 MUL PUSH1 0x20 ADD PUSH1 0x40 MLOAD SWAP1 DUP2 ADD PUSH1 0x40 MSTORE DUP1 SWAP3 SWAP2 SWAP1 DUP2 DUP2 MSTORE PUSH1 0x20 ADD DUP3 DUP1 SLOAD DUP1 ISZERO PUSH2 0x464 JUMPI PUSH1 0x20 MUL DUP3 ADD SWAP2 SWAP1 PUSH1 0x0 MSTORE PUSH1 0x20 PUSH1 0x0 KECCAK256 SWAP1 JUMPDEST DUP2 SLOAD PUSH1 0x1 PUSH1 0x1 PUSH1 0xA0 SHL SUB AND DUP2 MSTORE PUSH1 0x1 SWAP1 SWAP2 ADD SWAP1 PUSH1 0x20 ADD DUP1 DUP4 GT PUSH2 0x446 JUMPI JUMPDEST POP POP POP POP POP SWAP1 POP SWAP1 JUMP JUMPDEST PUSH2 0x476 PUSH2 0x123C JUMP JUMPDEST CALLER PUSH1 0x0 SWAP1 DUP2 MSTORE PUSH1 0x4 PUSH1 0x20 SWAP1 DUP2 MSTORE PUSH1 0x40 DUP1 DUP4 KECCAK256 PUSH1 0x1 PUSH1 0x1 PUSH1 0xA0 SHL SUB DUP7 AND DUP5 MSTORE SWAP1 SWAP2 MSTORE SWAP1 KECCAK256 SLOAD DUP2 GT ISZERO PUSH2 0x4E6 JUMPI PUSH1 0x40 MLOAD PUSH3 0x461BCD PUSH1 0xE5 SHL DUP2 MSTORE PUSH1 0x20 PUSH1 0x4 DUP3 ADD MSTORE PUSH1 0x15 PUSH1 0x24 DUP3 ADD MSTORE PUSH21 0xA4CAE0C2F240C2DADEEADCE840E8DEDE40D0D2CED PUSH1 0x5B SHL PUSH1 0x44 DUP3 ADD MSTORE PUSH1 0x64 ADD JUMPDEST PUSH1 0x40 MLOAD DUP1 SWAP2 SUB SWAP1 REVERT JUMPDEST PUSH1 0x0 DUP2 GT PUSH2 0x506 JUMPI PUSH1 0x40 MLOAD PUSH3 0x461BCD PUSH1 0xE5 SHL DUP2 MSTORE PUSH1 0x4 ADD PUSH2 0x4DD SWAP1 PUSH2 0x147E JUMP JUMPDEST PUSH1 0x40 MLOAD PUSH4 0x23B872DD PUSH1 0xE0 SHL DUP2 MSTORE CALLER PUSH1 0x4 DUP3 ADD MSTORE ADDRESS PUSH1 0x24 DUP3 ADD MSTORE PUSH1 0x44 DUP2 ADD DUP3 SWAP1 MSTORE PUSH1 0x1 PUSH1 0x1 PUSH1 0xA0 SHL SUB DUP4 AND SWAP1 PUSH4 0x23B872DD SWAP1 PUSH1 0x64 ADD PUSH1 0x20 PUSH1 0x40 MLOAD DUP1 DUP4 SUB DUP2 PUSH1 0x0 DUP8 GAS CALL ISZERO DUP1 ISZERO PUSH2 0x559 JUMPI RETURNDATASIZE PUSH1 0x0 DUP1 RETURNDATACOPY RETURNDATASIZE PUSH1 0x0 REVERT JUMPDEST POP POP POP POP PUSH1 0x40 MLOAD RETURNDATASIZE PUSH1 0x1F NOT PUSH1 0x1F DUP3 ADD AND DUP3 ADD DUP1 PUSH1 0x40 MSTORE POP DUP2 ADD SWAP1 PUSH2 0x57D SWAP2 SWAP1 PUSH2 0x14B5 JUMP JUMPDEST POP CALLER PUSH1 0x0 SWAP1 DUP2 MSTORE PUSH1 0x4 PUSH1 0x20 SWAP1 DUP2 MSTORE PUSH1 0x40 DUP1 DUP4 KECCAK256 PUSH1 0x1 PUSH1 0x1 PUSH1 0xA0 SHL SUB DUP7 AND DUP5 MSTORE SWAP1 SWAP2 MSTORE DUP2 KECCAK256 DUP1 SLOAD DUP4 SWAP3 SWAP1 PUSH2 0x5B1 SWAP1 DUP5 SWAP1 PUSH2 0x14ED JUMP JUMPDEST SWAP1 SWAP2 SSTORE POP POP PUSH1 0x1 PUSH1 0x1 PUSH1 0xA0 SHL SUB DUP3 AND PUSH1 0x0 SWAP1 DUP2 MSTORE PUSH1 0x5 PUSH1 0x20 MSTORE PUSH1 0x40 DUP2 KECCAK256 DUP1 SLOAD DUP4 SWAP3 SWAP1 PUSH2 0x5DE SWAP1 DUP5 SWAP1 PUSH2 0x14ED JUMP JUMPDEST SWAP1 SWAP2 SSTORE POP POP PUSH1 0x40 MLOAD DUP2 DUP2 MSTORE PUSH1 0x1 PUSH1 0x1 PUSH1 0xA0 SHL SUB DUP4 AND SWAP1 CALLER SWAP1 PUSH32 0xEEF1A28252F7C3266CCEA3202EE9693F0834485BC3551310A406E04829C7E2CF SWAP1 PUSH1 0x20 ADD JUMPDEST PUSH1 0x40 MLOAD DUP1 SWAP2 SUB SWAP1 LOG3 PUSH2 0x62E PUSH1 0x1 PUSH1 0x0 SSTORE JUMP JUMPDEST POP POP JUMP JUMPDEST PUSH2 0x63A PUSH2 0x1295 JUMP JUMPDEST PUSH2 0x1388 DUP2 GT ISZERO PUSH2 0x67D JUMPI PUSH1 0x40 MLOAD PUSH3 0x461BCD PUSH1 0xE5 SHL DUP2 MSTORE PUSH1 0x20 PUSH1 0x4 DUP3 ADD MSTORE PUSH1 0xE PUSH1 0x24 DUP3 ADD MSTORE PUSH14 0x84DEDCEAE640E8DEDE40D0D2CED PUSH1 0x93 SHL PUSH1 0x44 DUP3 ADD MSTORE PUSH1 0x64 ADD PUSH2 0x4DD JUMP JUMPDEST PUSH1 0x8 SSTORE JUMP JUMPDEST PUSH2 0x68A PUSH2 0x123C JUMP JUMPDEST CALLER PUSH1 0x0 SWAP1 DUP2 MSTORE PUSH1 0x2 PUSH1 0x20 SWAP1 DUP2 MSTORE PUSH1 0x40 DUP1 DUP4 KECCAK256 PUSH1 0x1 PUSH1 0x1 PUSH1 0xA0 SHL SUB DUP7 AND DUP5 MSTORE SWAP1 SWAP2 MSTORE SWAP1 KECCAK256 SLOAD DUP2 GT ISZERO PUSH2 0x6FD JUMPI PUSH1 0x40 MLOAD PUSH3 0x461BCD PUSH1 0xE5 SHL DUP2 MSTORE PUSH1 0x20 PUSH1 0x4 DUP3 ADD MSTORE PUSH1 0x17 PUSH1 0x24 DUP3 ADD MSTORE PUSH32 0x496E73756666696369656E7420636F6C6C61746572616C000000000000000000 PUSH1 0x44 DUP3 ADD MSTORE PUSH1 0x64 ADD PUSH2 0x4DD JUMP JUMPDEST PUSH1 0x0 DUP2 GT PUSH2 0x71D JUMPI PUSH1 0x40 MLOAD PUSH3 0x461BCD PUSH1 0xE5 SHL DUP2 MSTORE PUSH1 0x4 ADD PUSH2 0x4DD SWAP1 PUSH2 0x147E JUMP JUMPDEST CALLER PUSH1 0x0 SWAP1 DUP2 MSTORE PUSH1 0x2 PUSH1 0x20 SWAP1 DUP2 MSTORE PUSH1 0x40 DUP1 DUP4 KECCAK256 PUSH1 0x1 PUSH1 0x1 PUSH1 0xA0 SHL SUB DUP7 AND DUP5 MSTORE SWAP1 SWAP2 MSTORE DUP2 KECCAK256 DUP1 SLOAD DUP4 SWAP3 SWAP1 PUSH2 0x750 SWAP1 DUP5 SWAP1 PUSH2 0x14ED JUMP JUMPDEST SWAP1 SWAP2 SSTORE POP PUSH2 0x75F SWAP1 POP CALLER PUSH2 0x1013 JUMP JUMPDEST PUSH2 0x7AB JUMPI PUSH1 0x40 MLOAD PUSH3 0x461BCD PUSH1 0xE5 SHL DUP2 MSTORE PUSH1 0x20 PUSH1 0x4 DUP3 ADD MSTORE PUSH1 0x1E PUSH1 0x24 DUP3 ADD MSTORE PUSH32 0x576F756C642076696F6C61746520636F6C6C61746572616C20726174696F0000 PUSH1 0x44 DUP3 ADD MSTORE PUSH1 0x64 ADD PUSH2 0x4DD JUMP JUMPDEST PUSH1 0x40 MLOAD PUSH4 0xA9059CBB PUSH1 0xE0 SHL DUP2 MSTORE CALLER PUSH1 0x4 DUP3 ADD MSTORE PUSH1 0x24 DUP2 ADD DUP3 SWAP1 MSTORE PUSH1 0x1 PUSH1 0x1 PUSH1 0xA0 SHL SUB DUP4 AND SWAP1 PUSH4 0xA9059CBB SWAP1 PUSH1 0x44 ADD PUSH1 0x20 PUSH1 0x40 MLOAD DUP1 DUP4 SUB DUP2 PUSH1 0x0 DUP8 GAS CALL ISZERO DUP1 ISZERO PUSH2 0x7F8 JUMPI RETURNDATASIZE PUSH1 0x0 DUP1 RETURNDATACOPY RETURNDATASIZE PUSH1 0x0 REVERT JUMPDEST POP POP POP POP PUSH1 0x40 MLOAD RETURNDATASIZE PUSH1 0x1F NOT PUSH1 0x1F DUP3 ADD AND DUP3 ADD DUP1 PUSH1 0x40 MSTORE POP DUP2 ADD SWAP1 PUSH2 0x81C SWAP2 SWAP1 PUSH2 0x14B5 JUMP JUMPDEST POP PUSH1 0x40 MLOAD DUP2 DUP2 MSTORE PUSH1 0x1 PUSH1 0x1 PUSH1 0xA0 SHL SUB DUP4 AND SWAP1 CALLER SWAP1 PUSH32 0x45892A46E6CEF329BB642DA6D69846D324DB43D19008EDC141ED82382EDA1BEE SWAP1 PUSH1 0x20 ADD PUSH2 0x61C JUMP JUMPDEST PUSH2 0x862 PUSH2 0x1295 JUMP JUMPDEST PUSH1 0x7 SLOAD DUP2 GT PUSH2 0x8A3 JUMPI PUSH1 0x40 MLOAD PUSH3 0x461BCD PUSH1 0xE5 SHL DUP2 MSTORE PUSH1 0x20 PUSH1 0x4 DUP3 ADD MSTORE PUSH1 0xD PUSH1 0x24 DUP3 ADD MSTORE PUSH13 0x526174696F20746F6F206C6F77 PUSH1 0x98 SHL PUSH1 0x44 DUP3 ADD MSTORE PUSH1 0x64 ADD PUSH2 0x4DD JUMP JUMPDEST PUSH1 0x6 SSTORE JUMP JUMPDEST PUSH1 0x0 DUP1 PUSH2 0x8B4 DUP4 PUSH2 0x11EF JUMP JUMPDEST PUSH1 0x7 SLOAD GT SWAP4 SWAP3 POP POP POP JUMP JUMPDEST PUSH1 0x0 DUP1 DUP1 JUMPDEST PUSH1 0x9 SLOAD DUP2 LT ISZERO PUSH2 0x937 JUMPI PUSH1 0x0 PUSH1 0x9 DUP3 DUP2 SLOAD DUP2 LT PUSH2 0x8E3 JUMPI PUSH2 0x8E3 PUSH2 0x1506 JUMP JUMPDEST PUSH1 0x0 SWAP2 DUP3 MSTORE PUSH1 0x20 DUP1 DUP4 KECCAK256 SWAP1 SWAP2 ADD SLOAD PUSH1 0x1 PUSH1 0x1 PUSH1 0xA0 SHL SUB DUP9 DUP2 AND DUP5 MSTORE PUSH1 0x4 DUP4 MSTORE PUSH1 0x40 DUP1 DUP6 KECCAK256 SWAP2 SWAP1 SWAP3 AND DUP1 DUP6 MSTORE SWAP3 MSTORE SWAP1 SWAP2 KECCAK256 SLOAD SWAP1 SWAP2 POP PUSH2 0x921 SWAP1 DUP5 PUSH2 0x151C JUMP JUMPDEST SWAP3 POP POP DUP1 DUP1 PUSH2 0x92F SWAP1 PUSH2 0x152F JUMP JUMPDEST SWAP2 POP POP PUSH2 0x8C4 JUMP JUMPDEST POP SWAP3 SWAP2 POP POP JUMP JUMPDEST PUSH2 0x946 PUSH2 0x123C JUMP JUMPDEST PUSH1 0x1 PUSH1 0x1 PUSH1 0xA0 SHL SUB DUP4 AND PUSH1 0x0 SWAP1 DUP2 MSTORE PUSH1 0x3 PUSH1 0x20 MSTORE PUSH1 0x40 SWAP1 KECCAK256 SLOAD PUSH1 0xFF AND PUSH2 0x9AE JUMPI PUSH1 0x40 MLOAD PUSH3 0x461BCD PUSH1 0xE5 SHL DUP2 MSTORE PUSH1 0x20 PUSH1 0x4 DUP3 ADD MSTORE PUSH1 0x1E PUSH1 0x24 DUP3 ADD MSTORE PUSH32 0x436F6C6C61746572616C20746F6B656E206E6F7420737570706F727465640000 PUSH1 0x44 DUP3 ADD MSTORE PUSH1 0x64 ADD PUSH2 0x4DD JUMP JUMPDEST CALLER PUSH1 0x0 SWAP1 DUP2 MSTORE PUSH1 0x2 PUSH1 0x20 SWAP1 DUP2 MSTORE PUSH1 0x40 DUP1 DUP4 KECCAK256 PUSH1 0x1 PUSH1 0x1 PUSH1 0xA0 SHL SUB DUP8 AND DUP5 MSTORE SWAP1 SWAP2 MSTORE SWAP1 KECCAK256 SLOAD PUSH2 0xA1E JUMPI PUSH1 0x40 MLOAD PUSH3 0x461BCD PUSH1 0xE5 SHL DUP2 MSTORE PUSH1 0x20 PUSH1 0x4 DUP3 ADD MSTORE PUSH1 0x17 PUSH1 0x24 DUP3 ADD MSTORE PUSH32 0x4E6F20636F6C6C61746572616C206465706F7369746564000000000000000000 PUSH1 0x44 DUP3 ADD MSTORE PUSH1 0x64 ADD PUSH2 0x4DD JUMP JUMPDEST PUSH1 0x0 DUP2 GT PUSH2 0xA7A JUMPI PUSH1 0x40 MLOAD PUSH3 0x461BCD PUSH1 0xE5 SHL DUP2 MSTORE PUSH1 0x20 PUSH1 0x4 DUP3 ADD MSTORE PUSH1 0x24 DUP1 DUP3 ADD MSTORE PUSH32 0x426F72726F7720616D6F756E74206D7573742062652067726561746572207468 PUSH1 0x44 DUP3 ADD MSTORE PUSH4 0x616E203 PUSH1 0xE4 SHL PUSH1 0x64 DUP3 ADD MSTORE PUSH1 0x84 ADD PUSH2 0x4DD JUMP JUMPDEST CALLER PUSH1 0x0 SWAP1 DUP2 MSTORE PUSH1 0x4 PUSH1 0x20 SWAP1 DUP2 MSTORE PUSH1 0x40 DUP1 DUP4 KECCAK256 PUSH1 0x1 PUSH1 0x1 PUSH1 0xA0 SHL SUB DUP7 AND DUP5 MSTORE SWAP1 SWAP2 MSTORE DUP2 KECCAK256 DUP1 SLOAD DUP4 SWAP3 SWAP1 PUSH2 0xAAD SWAP1 DUP5 SWAP1 PUSH2 0x151C JUMP JUMPDEST SWAP1 SWAP2 SSTORE POP POP PUSH1 0x1 PUSH1 0x1 PUSH1 0xA0 SHL SUB DUP3 AND PUSH1 0x0 SWAP1 DUP2 MSTORE PUSH1 0x5 PUSH1 0x20 MSTORE PUSH1 0x40 DUP2 KECCAK256 DUP1 SLOAD DUP4 SWAP3 SWAP1 PUSH2 0xADA SWAP1 DUP5 SWAP1 PUSH2 0x151C JUMP JUMPDEST SWAP1 SWAP2 SSTORE POP PUSH2 0xAE9 SWAP1 POP CALLER PUSH2 0x1013 JUMP JUMPDEST PUSH2 0xB35 JUMPI PUSH1 0x40 MLOAD PUSH3 0x461BCD PUSH1 0xE5 SHL DUP2 MSTORE PUSH1 0x20 PUSH1 0x4 DUP3 ADD MSTORE PUSH1 0x1E PUSH1 0x24 DUP3 ADD MSTORE PUSH32 0x576F756C642076696F6C61746520636F6C6C61746572616C20726174696F0000 PUSH1 0x44 DUP3 ADD MSTORE PUSH1 0x64 ADD PUSH2 0x4DD JUMP JUMPDEST PUSH1 0x40 MLOAD PUSH4 0xA9059CBB PUSH1 0xE0 SHL DUP2 MSTORE CALLER PUSH1 0x4 DUP3 ADD MSTORE PUSH1 0x24 DUP2 ADD DUP3 SWAP1 MSTORE PUSH1 0x1 PUSH1 0x1 PUSH1 0xA0 SHL SUB DUP4 AND SWAP1 PUSH4 0xA9059CBB SWAP1 PUSH1 0x44 ADD PUSH1 0x20 PUSH1 0x40 MLOAD DUP1 DUP4 SUB DUP2 PUSH1 0x0 DUP8 GAS CALL ISZERO DUP1 ISZERO PUSH2 0xB82 JUMPI RETURNDATASIZE PUSH1 0x0 DUP1 RETURNDATACOPY RETURNDATASIZE PUSH1 0x0 REVERT JUMPDEST POP POP POP POP PUSH1 0x40 MLOAD RETURNDATASIZE PUSH1 0x1F NOT PUSH1 0x1F DUP3 ADD AND DUP3 ADD DUP1 PUSH1 0x40 MSTORE POP DUP2 ADD SWAP1 PUSH2 0xBA6 SWAP2 SWAP1 PUSH2 0x14B5 JUMP JUMPDEST POP PUSH1 0x40 MLOAD DUP2 DUP2 MSTORE PUSH1 0x1 PUSH1 0x1 PUSH1 0xA0 SHL SUB DUP4 AND SWAP1 CALLER SWAP1 PUSH32 0xFE821C07E412216DF3754B3A1E48236AEB7E71D02963F09736F67FE568718CA6 SWAP1 PUSH1 0x20 ADD PUSH1 0x40 MLOAD DUP1 SWAP2 SUB SWAP1 LOG3 PUSH2 0xBF1 PUSH1 0x1 PUSH1 0x0 SSTORE JUMP JUMPDEST POP POP POP JUMP JUMPDEST PUSH2 0xBFE PUSH2 0x1295 JUMP JUMPDEST PUSH2 0xC08 PUSH1 0x0 PUSH2 0x12EF JUMP JUMPDEST JUMP JUMPDEST PUSH1 0x0 DUP1 DUP1 JUMPDEST PUSH1 0x9 SLOAD DUP2 LT ISZERO PUSH2 0x937 JUMPI PUSH1 0x0 PUSH1 0x9 DUP3 DUP2 SLOAD DUP2 LT PUSH2 0xC2E JUMPI PUSH2 0xC2E PUSH2 0x1506 JUMP JUMPDEST PUSH1 0x0 SWAP2 DUP3 MSTORE PUSH1 0x20 DUP1 DUP4 KECCAK256 SWAP1 SWAP2 ADD SLOAD PUSH1 0x1 PUSH1 0x1 PUSH1 0xA0 SHL SUB DUP9 DUP2 AND DUP5 MSTORE PUSH1 0x2 DUP4 MSTORE PUSH1 0x40 DUP1 DUP6 KECCAK256 SWAP2 SWAP1 SWAP3 AND DUP1 DUP6 MSTORE SWAP3 MSTORE SWAP1 SWAP2 KECCAK256 SLOAD SWAP1 SWAP2 POP DUP1 ISZERO PUSH2 0xC75 JUMPI PUSH2 0xC72 DUP2 DUP6 PUSH2 0x151C JUMP JUMPDEST SWAP4 POP JUMPDEST POP POP DUP1 DUP1 PUSH2 0xC82 SWAP1 PUSH2 0x152F JUMP JUMPDEST SWAP2 POP POP PUSH2 0xC0F JUMP JUMPDEST PUSH2 0xC92 PUSH2 0x123C JUMP JUMPDEST PUSH1 0x1 PUSH1 0x1 PUSH1 0xA0 SHL SUB DUP3 AND PUSH1 0x0 SWAP1 DUP2 MSTORE PUSH1 0x3 PUSH1 0x20 MSTORE PUSH1 0x40 SWAP1 KECCAK256 SLOAD PUSH1 0xFF AND PUSH2 0xCF0 JUMPI PUSH1 0x40 MLOAD PUSH3 0x461BCD PUSH1 0xE5 SHL DUP2 MSTORE PUSH1 0x20 PUSH1 0x4 DUP3 ADD MSTORE PUSH1 0x13 PUSH1 0x24 DUP3 ADD MSTORE PUSH19 0x151BDAD95B881B9BDD081CDD5C1C1BDC9D1959 PUSH1 0x6A SHL PUSH1 0x44 DUP3 ADD MSTORE PUSH1 0x64 ADD PUSH2 0x4DD JUMP JUMPDEST PUSH1 0x0 DUP2 GT PUSH2 0xD10 JUMPI PUSH1 0x40 MLOAD PUSH3 0x461BCD PUSH1 0xE5 SHL DUP2 MSTORE PUSH1 0x4 ADD PUSH2 0x4DD SWAP1 PUSH2 0x147E JUMP JUMPDEST PUSH1 0x40 MLOAD PUSH4 0x23B872DD PUSH1 0xE0 SHL DUP2 MSTORE CALLER PUSH1 0x4 DUP3 ADD MSTORE ADDRESS PUSH1 0x24 DUP3 ADD MSTORE PUSH1 0x44 DUP2 ADD DUP3 SWAP1 MSTORE PUSH1 0x1 PUSH1 0x1 PUSH1 0xA0 SHL SUB DUP4 AND SWAP1 PUSH4 0x23B872DD SWAP1 PUSH1 0x64 ADD PUSH1 0x20 PUSH1 0x40 MLOAD DUP1 DUP4 SUB DUP2 PUSH1 0x0 DUP8 GAS CALL ISZERO DUP1 ISZERO PUSH2 0xD63 JUMPI RETURNDATASIZE PUSH1 0x0 DUP1 RETURNDATACOPY RETURNDATASIZE PUSH1 0x0 REVERT JUMPDEST POP POP POP POP PUSH1 0x40 MLOAD RETURNDATASIZE PUSH1 0x1F NOT PUSH1 0x1F DUP3 ADD AND DUP3 ADD DUP1 PUSH1 0x40 MSTORE POP DUP2 ADD SWAP1 PUSH2 0xD87 SWAP2 SWAP1 PUSH2 0x14B5 JUMP JUMPDEST POP CALLER PUSH1 0x0 SWAP1 DUP2 MSTORE PUSH1 0x2 PUSH1 0x20 SWAP1 DUP2 MSTORE PUSH1 0x40 DUP1 DUP4 KECCAK256 PUSH1 0x1 PUSH1 0x1 PUSH1 0xA0 SHL SUB DUP7 AND DUP5 MSTORE SWAP1 SWAP2 MSTORE DUP2 KECCAK256 DUP1 SLOAD DUP4 SWAP3 SWAP1 PUSH2 0xDBB SWAP1 DUP5 SWAP1 PUSH2 0x151C JUMP JUMPDEST SWAP1 SWAP2 SSTORE POP POP PUSH1 0x40 MLOAD DUP2 DUP2 MSTORE PUSH1 0x1 PUSH1 0x1 PUSH1 0xA0 SHL SUB DUP4 AND SWAP1 CALLER SWAP1 PUSH32 0xF1C0DD7E9B98BBFF859029005EF89B127AF049CD18DF1A8D79F0B7E019911E56 SWAP1 PUSH1 0x20 ADD PUSH2 0x61C JUMP JUMPDEST PUSH2 0xE05 PUSH2 0x1295 JUMP JUMPDEST PUSH1 0x1 PUSH1 0x1 PUSH1 0xA0 SHL SUB DUP2 AND PUSH1 0x0 SWAP1 DUP2 MSTORE PUSH1 0x3 PUSH1 0x20 MSTORE PUSH1 0x40 SWAP1 KECCAK256 SLOAD PUSH1 0xFF AND PUSH2 0xE63 JUMPI PUSH1 0x40 MLOAD PUSH3 0x461BCD PUSH1 0xE5 SHL DUP2 MSTORE PUSH1 0x20 PUSH1 0x4 DUP3 ADD MSTORE PUSH1 0x13 PUSH1 0x24 DUP3 ADD MSTORE PUSH19 0x151BDAD95B881B9BDD081CDD5C1C1BDC9D1959 PUSH1 0x6A SHL PUSH1 0x44 DUP3 ADD MSTORE PUSH1 0x64 ADD PUSH2 0x4DD JUMP JUMPDEST PUSH1 0x1 PUSH1 0x1 PUSH1 0xA0 SHL SUB DUP2 AND PUSH1 0x0 SWAP1 DUP2 MSTORE PUSH1 0x3 PUSH1 0x20 MSTORE PUSH1 0x40 DUP2 KECCAK256 DUP1 SLOAD PUSH1 0xFF NOT AND SWAP1 SSTORE JUMPDEST PUSH1 0x9 SLOAD DUP2 LT ISZERO PUSH2 0xF89 JUMPI DUP2 PUSH1 0x1 PUSH1 0x1 PUSH1 0xA0 SHL SUB AND PUSH1 0x9 DUP3 DUP2 SLOAD DUP2 LT PUSH2 0xEAB JUMPI PUSH2 0xEAB PUSH2 0x1506 JUMP JUMPDEST PUSH1 0x0 SWAP2 DUP3 MSTORE PUSH1 0x20 SWAP1 SWAP2 KECCAK256 ADD SLOAD PUSH1 0x1 PUSH1 0x1 PUSH1 0xA0 SHL SUB AND SUB PUSH2 0xF77 JUMPI PUSH1 0x9 DUP1 SLOAD PUSH2 0xED5 SWAP1 PUSH1 0x1 SWAP1 PUSH2 0x14ED JUMP JUMPDEST DUP2 SLOAD DUP2 LT PUSH2 0xEE5 JUMPI PUSH2 0xEE5 PUSH2 0x1506 JUMP JUMPDEST PUSH1 0x0 SWAP2 DUP3 MSTORE PUSH1 0x20 SWAP1 SWAP2 KECCAK256 ADD SLOAD PUSH1 0x9 DUP1 SLOAD PUSH1 0x1 PUSH1 0x1 PUSH1 0xA0 SHL SUB SWAP1 SWAP3 AND SWAP2 DUP4 SWAP1 DUP2 LT PUSH2 0xF11 JUMPI PUSH2 0xF11 PUSH2 0x1506 JUMP JUMPDEST SWAP1 PUSH1 0x0 MSTORE PUSH1 0x20 PUSH1 0x0 KECCAK256 ADD PUSH1 0x0 PUSH2 0x100 EXP DUP2 SLOAD DUP2 PUSH1 0x1 PUSH1 0x1 PUSH1 0xA0 SHL SUB MUL NOT AND SWAP1 DUP4 PUSH1 0x1 PUSH1 0x1 PUSH1 0xA0 SHL SUB AND MUL OR SWAP1 SSTORE POP PUSH1 0x9 DUP1 SLOAD DUP1 PUSH2 0xF50 JUMPI PUSH2 0xF50 PUSH2 0x1548 JUMP JUMPDEST PUSH1 0x0 DUP3 DUP2 MSTORE PUSH1 0x20 SWAP1 KECCAK256 DUP2 ADD PUSH1 0x0 NOT SWAP1 DUP2 ADD DUP1 SLOAD PUSH1 0x1 PUSH1 0x1 PUSH1 0xA0 SHL SUB NOT AND SWAP1 SSTORE ADD SWAP1 SSTORE PUSH2 0xF89 JUMP JUMPDEST DUP1 PUSH2 0xF81 DUP2 PUSH2 0x152F JUMP JUMPDEST SWAP2 POP POP PUSH2 0xE84 JUMP JUMPDEST POP PUSH1 0x40 MLOAD PUSH1 0x1 PUSH1 0x1 PUSH1 0xA0 SHL SUB DUP3 AND SWAP1 PUSH32 0xD89D2EE68AB04DCA0193F48A4AFF55E20FA5EC0429A8A8C1C51B8DAD6178A593 SWAP1 PUSH1 0x0 SWAP1 LOG2 POP JUMP JUMPDEST PUSH2 0xFC9 PUSH2 0x1295 JUMP JUMPDEST PUSH1 0x6 SLOAD DUP2 LT PUSH2 0x100E JUMPI PUSH1 0x40 MLOAD PUSH3 0x461BCD PUSH1 0xE5 SHL DUP2 MSTORE PUSH1 0x20 PUSH1 0x4 DUP3 ADD MSTORE PUSH1 0x11 PUSH1 0x24 DUP3 ADD MSTORE PUSH17 0x125B9D985B1A59081D1A1C995CDA1BDB19 PUSH1 0x7A SHL PUSH1 0x44 DUP3 ADD MSTORE PUSH1 0x64 ADD PUSH2 0x4DD JUMP JUMPDEST PUSH1 0x7 SSTORE JUMP JUMPDEST PUSH1 0x0 DUP1 PUSH2 0x101F DUP4 PUSH2 0x11EF JUMP JUMPDEST PUSH1 0x6 SLOAD GT ISZERO SWAP4 SWAP3 POP POP POP JUMP JUMPDEST PUSH2 0x1033 PUSH2 0x1295 JUMP JUMPDEST PUSH1 0x1 PUSH1 0x1 PUSH1 0xA0 SHL SUB DUP2 AND PUSH2 0x1081 JUMPI PUSH1 0x40 MLOAD PUSH3 0x461BCD PUSH1 0xE5 SHL DUP2 MSTORE PUSH1 0x20 PUSH1 0x4 DUP3 ADD MSTORE PUSH1 0x15 PUSH1 0x24 DUP3 ADD MSTORE PUSH21 0x496E76616C696420746F6B656E2061646472657373 PUSH1 0x58 SHL PUSH1 0x44 DUP3 ADD MSTORE PUSH1 0x64 ADD PUSH2 0x4DD JUMP JUMPDEST PUSH1 0x1 PUSH1 0x1 PUSH1 0xA0 SHL SUB DUP2 AND PUSH1 0x0 SWAP1 DUP2 MSTORE PUSH1 0x3 PUSH1 0x20 MSTORE PUSH1 0x40 SWAP1 KECCAK256 SLOAD PUSH1 0xFF AND ISZERO PUSH2 0x10EA JUMPI PUSH1 0x40 MLOAD PUSH3 0x461BCD PUSH1 0xE5 SHL DUP2 MSTORE PUSH1 0x20 PUSH1 0x4 DUP3 ADD MSTORE PUSH1 0x17 PUSH1 0x24 DUP3 ADD MSTORE PUSH32 0x546F6B656E20616C726561647920737570706F72746564000000000000000000 PUSH1 0x44 DUP3 ADD MSTORE PUSH1 0x64 ADD PUSH2 0x4DD JUMP JUMPDEST PUSH1 0x1 PUSH1 0x1 PUSH1 0xA0 SHL SUB DUP2 AND PUSH1 0x0 DUP2 DUP2 MSTORE PUSH1 0x3 PUSH1 0x20 MSTORE PUSH1 0x40 DUP1 DUP3 KECCAK256 DUP1 SLOAD PUSH1 0xFF NOT AND PUSH1 0x1 SWAP1 DUP2 OR SWAP1 SWAP2 SSTORE PUSH1 0x9 DUP1 SLOAD SWAP2 DUP3 ADD DUP2 SSTORE DUP4 MSTORE PUSH32 0x6E1540171B6C0C960B71A7020D9F60077F6AF931A8BBF590DA0223DACF75C7AF ADD DUP1 SLOAD PUSH1 0x1 PUSH1 0x1 PUSH1 0xA0 SHL SUB NOT AND DUP5 OR SWAP1 SSTORE MLOAD PUSH32 0x7DB05E63D635A68C62FD7FD8F3107AE8AB584A383E102D1BD8A40F4C977E465F SWAP2 SWAP1 LOG2 POP JUMP JUMPDEST PUSH2 0x117E PUSH2 0x1295 JUMP JUMPDEST PUSH1 0x1 PUSH1 0x1 PUSH1 0xA0 SHL SUB DUP2 AND PUSH2 0x11E3 JUMPI PUSH1 0x40 MLOAD PUSH3 0x461BCD PUSH1 0xE5 SHL DUP2 MSTORE PUSH1 0x20 PUSH1 0x4 DUP3 ADD MSTORE PUSH1 0x26 PUSH1 0x24 DUP3 ADD MSTORE PUSH32 0x4F776E61626C653A206E6577206F776E657220697320746865207A65726F2061 PUSH1 0x44 DUP3 ADD MSTORE PUSH6 0x646472657373 PUSH1 0xD0 SHL PUSH1 0x64 DUP3 ADD MSTORE PUSH1 0x84 ADD PUSH2 0x4DD JUMP JUMPDEST PUSH2 0x11EC DUP2 PUSH2 0x12EF JUMP JUMPDEST POP JUMP JUMPDEST PUSH1 0x0 DUP1 PUSH2 0x11FB DUP4 PUSH2 0xC0A JUMP JUMPDEST SWAP1 POP PUSH1 0x0 PUSH2 0x1208 DUP5 PUSH2 0x8BF JUMP JUMPDEST SWAP1 POP DUP1 PUSH1 0x0 SUB PUSH2 0x121D JUMPI POP PUSH1 0x0 NOT SWAP4 SWAP3 POP POP POP JUMP JUMPDEST DUP1 PUSH2 0x122A DUP4 PUSH2 0x2710 PUSH2 0x155E JUMP JUMPDEST PUSH2 0x1234 SWAP2 SWAP1 PUSH2 0x1575 JUMP JUMPDEST SWAP5 SWAP4 POP POP POP POP JUMP JUMPDEST PUSH1 0x2 PUSH1 0x0 SLOAD SUB PUSH2 0x128E JUMPI PUSH1 0x40 MLOAD PUSH3 0x461BCD PUSH1 0xE5 SHL DUP2 MSTORE PUSH1 0x20 PUSH1 0x4 DUP3 ADD MSTORE PUSH1 0x1F PUSH1 0x24 DUP3 ADD MSTORE PUSH32 0x5265656E7472616E637947756172643A207265656E7472616E742063616C6C00 PUSH1 0x44 DUP3 ADD MSTORE PUSH1 0x64 ADD PUSH2 0x4DD JUMP JUMPDEST PUSH1 0x2 PUSH1 0x0 SSTORE JUMP JUMPDEST PUSH1 0x1 SLOAD PUSH1 0x1 PUSH1 0x1 PUSH1 0xA0 SHL SUB AND CALLER EQ PUSH2 0xC08 JUMPI PUSH1 0x40 MLOAD PUSH3 0x461BCD PUSH1 0xE5 SHL DUP2 MSTORE PUSH1 0x20 PUSH1 0x4 DUP3 ADD DUP2 SWAP1 MSTORE PUSH1 0x24 DUP3 ADD MSTORE PUSH32 0x4F776E61626C653A2063616C6C6572206973206E6F7420746865206F776E6572 PUSH1 0x44 DUP3 ADD MSTORE PUSH1 0x64 ADD PUSH2 0x4DD JUMP JUMPDEST PUSH1 0x1 DUP1 SLOAD PUSH1 0x1 PUSH1 0x1 PUSH1 0xA0 SHL SUB DUP4 DUP2 AND PUSH1 0x1 PUSH1 0x1 PUSH1 0xA0 SHL SUB NOT DUP4 AND DUP2 OR SWAP1 SWAP4 SSTORE PUSH1 0x40 MLOAD SWAP2 AND SWAP2 SWAP1 DUP3 SWAP1 PUSH32 0x8BE0079C531659141344CD1FD0A4F28419497F9722A3DAAFE3B4186F6B6457E0 SWAP1 PUSH1 0x0 SWAP1 LOG3 POP POP JUMP JUMPDEST PUSH1 0x0 PUSH1 0x20 DUP3 DUP5 SUB SLT ISZERO PUSH2 0x1353 JUMPI PUSH1 0x0 DUP1 REVERT JUMPDEST POP CALLDATALOAD SWAP2 SWAP1 POP JUMP JUMPDEST PUSH1 0x20 DUP1 DUP3 MSTORE DUP3 MLOAD DUP3 DUP3 ADD DUP2 SWAP1 MSTORE PUSH1 0x0 SWAP2 SWAP1 DUP5 DUP3 ADD SWAP1 PUSH1 0x40 DUP6 ADD SWAP1 DUP5 JUMPDEST DUP2 DUP2 LT ISZERO PUSH2 0x139B JUMPI DUP4 MLOAD PUSH1 0x1 PUSH1 0x1 PUSH1 0xA0 SHL SUB AND DUP4 MSTORE SWAP3 DUP5 ADD SWAP3 SWAP2 DUP5 ADD SWAP2 PUSH1 0x1 ADD PUSH2 0x1376 JUMP JUMPDEST POP SWAP1 SWAP7 SWAP6 POP POP POP POP POP POP JUMP JUMPDEST DUP1 CALLDATALOAD PUSH1 0x1 PUSH1 0x1 PUSH1 0xA0 SHL SUB DUP2 AND DUP2 EQ PUSH2 0x13BE JUMPI PUSH1 0x0 DUP1 REVERT JUMPDEST SWAP2 SWAP1 POP JUMP JUMPDEST PUSH1 0x0 DUP1 PUSH1 0x40 DUP4 DUP6 SUB SLT ISZERO PUSH2 0x13D6 JUMPI PUSH1 0x0 DUP1 REVERT JUMPDEST PUSH2 0x13DF DUP4 PUSH2 0x13A7 JUMP JUMPDEST SWAP2 POP PUSH2 0x13ED PUSH1 0x20 DUP5 ADD PUSH2 0x13A7 JUMP JUMPDEST SWAP1 POP SWAP3 POP SWAP3 SWAP1 POP JUMP JUMPDEST PUSH1 0x0 PUSH1 0x20 DUP3 DUP5 SUB SLT ISZERO PUSH2 0x1408 JUMPI PUSH1 0x0 DUP1 REVERT JUMPDEST PUSH2 0x1411 DUP3 PUSH2 0x13A7 JUMP JUMPDEST SWAP4 SWAP3 POP POP POP JUMP JUMPDEST PUSH1 0x0 DUP1 PUSH1 0x40 DUP4 DUP6 SUB SLT ISZERO PUSH2 0x142B JUMPI PUSH1 0x0 DUP1 REVERT JUMPDEST PUSH2 0x1434 DUP4 PUSH2 0x13A7 JUMP JUMPDEST SWAP5 PUSH1 0x20 SWAP4 SWAP1 SWAP4 ADD CALLDATALOAD SWAP4 POP POP POP JUMP JUMPDEST PUSH1 0x0 DUP1 PUSH1 0x0 PUSH1 0x60 DUP5 DUP7 SUB SLT ISZERO PUSH2 0x1457 JUMPI PUSH1 0x0 DUP1 REVERT JUMPDEST PUSH2 0x1460 DUP5 PUSH2 0x13A7 JUMP JUMPDEST SWAP3 POP PUSH2 0x146E PUSH1 0x20 DUP6 ADD PUSH2 0x13A7 JUMP JUMPDEST SWAP2 POP PUSH1 0x40 DUP5 ADD CALLDATALOAD SWAP1 POP SWAP3 POP SWAP3 POP SWAP3 JUMP JUMPDEST PUSH1 0x20 DUP1 DUP3 MSTORE PUSH1 0x1D SWAP1 DUP3 ADD MSTORE PUSH32 0x416D6F756E74206D7573742062652067726561746572207468616E2030000000 PUSH1 0x40 DUP3 ADD MSTORE PUSH1 0x60 ADD SWAP1 JUMP JUMPDEST PUSH1 0x0 PUSH1 0x20 DUP3 DUP5 SUB SLT ISZERO PUSH2 0x14C7 JUMPI PUSH1 0x0 DUP1 REVERT JUMPDEST DUP2 MLOAD DUP1 ISZERO ISZERO DUP2 EQ PUSH2 0x1411 JUMPI PUSH1 0x0 DUP1 REVERT JUMPDEST PUSH4 0x4E487B71 PUSH1 0xE0 SHL PUSH1 0x0 MSTORE PUSH1 0x11 PUSH1 0x4 MSTORE PUSH1 0x24 PUSH1 0x0 REVERT JUMPDEST DUP2 DUP2 SUB DUP2 DUP2 GT ISZERO PUSH2 0x1500 JUMPI PUSH2 0x1500 PUSH2 0x14D7 JUMP JUMPDEST SWAP3 SWAP2 POP POP JUMP JUMPDEST PUSH4 0x4E487B71 PUSH1 0xE0 SHL PUSH1 0x0 MSTORE PUSH1 0x32 PUSH1 0x4 MSTORE PUSH1 0x24 PUSH1 0x0 REVERT JUMPDEST DUP1 DUP3 ADD DUP1 DUP3 GT ISZERO PUSH2 0x1500 JUMPI PUSH2 0x1500 PUSH2 0x14D7 JUMP JUMPDEST PUSH1 0x0 PUSH1 0x1 DUP3 ADD PUSH2 0x1541 JUMPI PUSH2 0x1541 PUSH2 0x14D7 JUMP JUMPDEST POP PUSH1 0x1 ADD SWAP1 JUMP JUMPDEST PUSH4 0x4E487B71 PUSH1 0xE0 SHL PUSH1 0x0 MSTORE PUSH1 0x31 PUSH1 0x4 MSTORE PUSH1 0x24 PUSH1 0x0 REVERT JUMPDEST DUP1 DUP3 MUL DUP2 ISZERO DUP3 DUP3 DIV DUP5 EQ OR PUSH2 0x1500 JUMPI PUSH2 0x1500 PUSH2 0x14D7 JUMP JUMPDEST PUSH1 0x0 DUP3 PUSH2 0x1592 JUMPI PUSH4 0x4E487B71 PUSH1 0xE0 SHL PUSH1 0x0 MSTORE PUSH1 0x12 PUSH1 0x4 MSTORE PUSH1 0x24 PUSH1 0x0 REVERT JUMPDEST POP DIV SWAP1 JUMP INVALID LOG2 PUSH5 0x6970667358 0x22 SLT KECCAK256 PUSH10 0x397819931F17F8C44744 CREATE2 PUSH6 0xCA2A6C73D396 CALLDATASIZE CODESIZE ADD SUB BALANCE 0x25 DUP9 BASEFEE 0xC6 EQ 0xB1 PUSH7 0x64736F6C6343 STOP ADDMOD EQ STOP CALLER "},"methodIdentifiers":{"addCollateral(address)":"f0d2d5a8","borrow(address,address,uint256)":"5224372c","borrowedAmount(address,address)":"72665438","canBeLiquidated(address)":"47788cd0","collateralDeposits(address,address)":"0c65e07b","depositCollateral(address,uint256)":"a5d5db0c","getCollateralValue(address)":"97904e42","getHealthFactor(address)":"fe6bcd7c","getSupportedCollaterals()":"05db8a69","getTotalDebt(address)":"4d44ac4f","isCollateralSupported(address)":"fa6bd2ee","isHealthy(address)":"d4d9bc68","liquidationBonus()":"7b7c1f4c","liquidationThreshold()":"4031234c","minCollateralRatio()":"84da2666","owner()":"8da5cb5b","removeCollateral(address)":"c99d3a06","renounceOwnership()":"715018a6","repay(address,uint256)":"22867d78","setLiquidationBonus(uint256)":"28842d4f","setLiquidationThreshold(uint256)":"d0b0c816","setMinCollateralRatio(uint256)":"38536275","supportedCollaterals(uint256)":"03e2bb2e","totalDebt(address)":"1ff517ff","transferOwnership(address)":"f2fde38b","withdrawCollateral(address,uint256)":"350c35e9"}}}}}