{"contracts/RiskOracle.sol":{"RiskOracle":{"abi":[{"inputs":[],"stateMutability":"nonpayable","type":"constructor"},{"anonymous":false,"inputs":[{"indexed":true,"internalType":"address","name":"asset","type":"address"},{"indexed":false,"internalType":"uint256","name":"riskScore","type":"uint256"},{"indexed":false,"internalType":"uint256","name":"volatilityScore","type":"uint256"},{"indexed":false,"internalType":"uint256","name":"requiredCollateralRatioBps","type":"uint256"}],"name":"AssetRiskUpdated","type":"event"},{"anonymous":false,"inputs":[{"indexed":true,"internalType":"address","name":"borrower","type":"address"},{"indexed":true,"internalType":"uint256","name":"loanId","type":"uint256"},{"indexed":false,"internalType":"uint256","name":"riskBps","type":"uint256"}],"name":"BorrowerRiskScoreUpdated","type":"event"},{"anonymous":false,"inputs":[{"indexed":true,"internalType":"address","name":"previousOwner","type":"address"},{"indexed":true,"internalType":"address","name":"newOwner","type":"address"}],"name":"OwnershipTransferred","type":"event"},{"inputs":[{"internalType":"address","name":"","type":"address"}],"name":"assetRisks","outputs":[{"internalType":"uint256","name":"riskScore","type":"uint256"},{"internalType":"uint256","name":"volatilityScore","type":"uint256"},{"internalType":"uint256","name":"requiredCollateralRatioBps","type":"uint256"},{"internalType":"uint256","name":"updatedAt","type":"uint256"},{"internalType":"bool","name":"isActive","type":"bool"}],"stateMutability":"view","type":"function"},{"inputs":[{"internalType":"address","name":"asset","type":"address"}],"name":"getAssetRisk","outputs":[{"internalType":"uint256","name":"riskScore","type":"uint256"},{"internalType":"uint256","name":"volatilityScore","type":"uint256"},{"internalType":"uint256","name":"requiredCollateralRatioBps","type":"uint256"}],"stateMutability":"view","type":"function"},{"inputs":[{"internalType":"address","name":"asset","type":"address"}],"name":"getLiquidationRiskLevel","outputs":[{"internalType":"string","name":"","type":"string"}],"stateMutability":"view","type":"function"},{"inputs":[{"internalType":"address","name":"asset","type":"address"}],"name":"getRequiredCollateralRatio","outputs":[{"internalType":"uint256","name":"","type":"uint256"}],"stateMutability":"view","type":"function"},{"inputs":[{"internalType":"address","name":"borrower","type":"address"},{"internalType":"uint256","name":"loanId","type":"uint256"}],"name":"getRiskBps","outputs":[{"internalType":"uint256","name":"","type":"uint256"}],"stateMutability":"view","type":"function"},{"inputs":[{"internalType":"address","name":"borrower","type":"address"},{"internalType":"uint256","name":"loanId","type":"uint256"}],"name":"getRiskScore","outputs":[{"internalType":"uint256","name":"riskBps","type":"uint256"},{"internalType":"uint256","name":"updatedAt","type":"uint256"}],"stateMutability":"view","type":"function"},{"inputs":[{"internalType":"address","name":"asset","type":"address"}],"name":"getRiskScorePercent","outputs":[{"internalType":"uint256","name":"","type":"uint256"}],"stateMutability":"view","type":"function"},{"inputs":[{"internalType":"address","name":"asset","type":"address"}],"name":"getVolatilityScore","outputs":[{"internalType":"uint256","name":"","type":"uint256"}],"stateMutability":"view","type":"function"},{"inputs":[],"name":"owner","outputs":[{"internalType":"address","name":"","type":"address"}],"stateMutability":"view","type":"function"},{"inputs":[],"name":"renounceOwnership","outputs":[],"stateMutability":"nonpayable","type":"function"},{"inputs":[{"internalType":"address","name":"asset","type":"address"},{"internalType":"uint256","name":"riskScore","type":"uint256"},{"internalType":"uint256","name":"volatilityScore","type":"uint256"},{"internalType":"uint256","name":"requiredCollateralRatioBps","type":"uint256"}],"name":"setAssetRisk","outputs":[],"stateMutability":"nonpayable","type":"function"},{"inputs":[{"internalType":"address","name":"borrower","type":"address"},{"internalType":"uint256","name":"loanId","type":"uint256"},{"internalType":"uint256","name":"riskBps","type":"uint256"}],"name":"setRiskScore","outputs":[],"stateMutability":"nonpayable","type":"function"},{"inputs":[{"internalType":"address","name":"newOwner","type":"address"}],"name":"transferOwnership","outputs":[],"stateMutability":"nonpayable","type":"function"}],"evm":{"bytecode":{"linkReferences":{},"object":"608060405234801561001057600080fd5b5061001a33610310565b6040805160a08101825261032081526107d060208083019182526136b093830193845242606084019081526001608085018181526000829052925292517fcc69885fda6bcc1a4ace058b4a62bf5e179ea78fd58a1ccd71c22cc9b688792f5590517fcc69885fda6bcc1a4ace058b4a62bf5e179ea78fd58a1ccd71c22cc9b68879305591517fcc69885fda6bcc1a4ace058b4a62bf5e179ea78fd58a1ccd71c22cc9b688793155517fcc69885fda6bcc1a4ace058b4a62bf5e179ea78fd58a1ccd71c22cc9b688793255517fcc69885fda6bcc1a4ace058b4a62bf5e179ea78fd58a1ccd71c22cc9b6887933805460ff19169115159190911790556040805160a0810182526104b08152610fa06020808301918252613e8093830193845242606084019081526001608085018181526002600052925292517fd9d16d34ffb15ba3a3d852f0d403e2ce1d691fb54de27ac87cd2f993f3ec330f5590517fd9d16d34ffb15ba3a3d852f0d403e2ce1d691fb54de27ac87cd2f993f3ec33105591517fd9d16d34ffb15ba3a3d852f0d403e2ce1d691fb54de27ac87cd2f993f3ec331155517fd9d16d34ffb15ba3a3d852f0d403e2ce1d691fb54de27ac87cd2f993f3ec331255517fd9d16d34ffb15ba3a3d852f0d403e2ce1d691fb54de27ac87cd2f993f3ec3313805460ff19169115159190911790556040805160a081018252610dac8152611f4060208083019182526155f093830193845242606084019081526001608085018181526003600052925292517f7dfe757ecd65cbd7922a9c0161e935dd7fdbcc0e999689c7d31633896b1fc60b5590517f7dfe757ecd65cbd7922a9c0161e935dd7fdbcc0e999689c7d31633896b1fc60c5591517f7dfe757ecd65cbd7922a9c0161e935dd7fdbcc0e999689c7d31633896b1fc60d55517f7dfe757ecd65cbd7922a9c0161e935dd7fdbcc0e999689c7d31633896b1fc60e55517f7dfe757ecd65cbd7922a9c0161e935dd7fdbcc0e999689c7d31633896b1fc60f805460ff1916911515919091179055610360565b600080546001600160a01b038381166001600160a01b0319831681178455604051919092169283917f8be0079c531659141344cd1fd0a4f28419497f9722a3daafe3b4186f6b6457e09190a35050565b610b058061036f6000396000f3fe608060405234801561001057600080fd5b50600436106100cf5760003560e01c80636953637b1161008c5780638ba08220116100665780638ba08220146101fa5780638da5cb5b14610222578063cdeeb3421461023d578063f2fde38b1461025d57600080fd5b80636953637b146101cc578063715018a6146101df578063859b1f23146101e757600080fd5b80631f210998146100d45780632a6c4792146100fa5780633c26ba31146101285780633f448d971461013d5780636241d7681461015057806364210613146101b9575b600080fd5b6100e76100e23660046109c9565b610270565b6040519081526020015b60405180910390f35b61010d6101083660046109c9565b6102dd565b604080519384526020840192909252908201526060016100f1565b61013b6101363660046109eb565b61036d565b005b6100e761014b3660046109c9565b610542565b61018f61015e3660046109c9565b6001602081905260009182526040909120805491810154600282015460038301546004909301549192909160ff1685565b6040805195865260208601949094529284019190915260608301521515608082015260a0016100f1565b61013b6101c7366004610a24565b6105ac565b6100e76101da366004610a57565b61069e565b61013b6106d9565b6100e76101f53660046109c9565b6106ed565b61020d610208366004610a57565b61075a565b604080519283526020830191909152016100f1565b6000546040516001600160a01b0390911681526020016100f1565b61025061024b3660046109c9565b61079c565b6040516100f19190610a81565b61013b61026b3660046109c9565b61088a565b6001600160a01b0381166000908152600160208181526040808420815160a081018352815481529381015492840192909252600282015490830152600381015460608301526004015460ff161515608082018190526102d357506107d092915050565b6020015192915050565b6001600160a01b0381166000908152600160208181526040808420815160a081018352815481529381015492840192909252600282015490830152600381015460608301526004015460ff161515608082018190528291829161034f576103e86107d06136b093509350935050610366565b806000015181602001518260400151935093509350505b9193909250565b610375610903565b6001600160a01b0384166103c05760405162461bcd60e51b815260206004820152600d60248201526c125b9d985b1a5908185cdcd95d609a1b60448201526064015b60405180910390fd5b6127108311156104025760405162461bcd60e51b815260206004820152600d60248201526c0a4d2e6d640e8dede40d0d2ced609b1b60448201526064016103b7565b61271082111561044a5760405162461bcd60e51b81526020600482015260136024820152720acded8c2e8d2d8d2e8f240e8dede40d0d2ced606b1b60448201526064016103b7565b61271081101561048c5760405162461bcd60e51b815260206004820152600d60248201526c526174696f20746f6f206c6f7760981b60448201526064016103b7565b6040805160a08101825284815260208082018581528284018581524260608086019182526001608087018181526001600160a01b038d1660008181528389528a902098518955955191880191909155925160028701559051600386015590516004909401805460ff19169415159490941790935583518781529182018690529281018490527f7d0f860c98a939841ac79d041d73c28b5b838c2ada786e72f4a6a1b1dc0f2569910160405180910390a250505050565b6001600160a01b0381166000908152600160208181526040808420815160a081018352815481529381015492840192909252600282015490830152600381015460608301526004015460ff161515608082018190526105a557506103e892915050565b5192915050565b6105b4610903565b6001600160a01b0383166105fd5760405162461bcd60e51b815260206004820152601060248201526f24b73b30b634b2103137b93937bbb2b960811b60448201526064016103b7565b61271081111561063f5760405162461bcd60e51b815260206004820152600d60248201526c0a4d2e6d640e8dede40d0d2ced609b1b60448201526064016103b7565b6001600160a01b038316600081815260026020908152604080832086845282529182902084905590518381528492917f110c508fad105609d333b96a011a1111c0d0312391b18e1ddb5cf9f15ec155c6910160405180910390a3505050565b6001600160a01b0382166000908152600260209081526040808320848452909152812054806106cf576103e86106d1565b805b949350505050565b6106e1610903565b6106eb600061095d565b565b6001600160a01b0381166000908152600160208181526040808420815160a081018352815481529381015492840192909252600282015490830152600381015460608301526004015460ff1615156080820181905261075057506136b092915050565b6040015192915050565b6001600160a01b03821660009081526002602090815260408083208484529091528120548190818161078e576103e8610790565b815b96429650945050505050565b6001600160a01b0381166000908152600160208181526040808420815160a081018352815481529381015492840192909252600282015490830152600381015460608381019190915260049091015460ff16151560808301819052909290610806576103e8610809565b81515b90506103e881101561083957505060408051808201909152600581526423a922a2a760d91b602082015292915050565b6109c481101561086857505060408051808201909152600681526559454c4c4f5760d01b602082015292915050565b505060408051808201909152600381526214915160ea1b602082015292915050565b610892610903565b6001600160a01b0381166108f75760405162461bcd60e51b815260206004820152602660248201527f4f776e61626c653a206e6577206f776e657220697320746865207a65726f206160448201526564647265737360d01b60648201526084016103b7565b6109008161095d565b50565b6000546001600160a01b031633146106eb5760405162461bcd60e51b815260206004820181905260248201527f4f776e61626c653a2063616c6c6572206973206e6f7420746865206f776e657260448201526064016103b7565b600080546001600160a01b038381166001600160a01b0319831681178455604051919092169283917f8be0079c531659141344cd1fd0a4f28419497f9722a3daafe3b4186f6b6457e09190a35050565b80356001600160a01b03811681146109c457600080fd5b919050565b6000602082840312156109db57600080fd5b6109e4826109ad565b9392505050565b60008060008060808587031215610a0157600080fd5b610a0a856109ad565b966020860135965060408601359560600135945092505050565b600080600060608486031215610a3957600080fd5b610a42846109ad565b95602085013595506040909401359392505050565b60008060408385031215610a6a57600080fd5b610a73836109ad565b946020939093013593505050565b600060208083528351808285015260005b81811015610aae57858101830151858201604001528201610a92565b506000604082860101526040601f19601f830116850101925050509291505056fea2646970667358221220f3db7057c19e7c5aa6f54168e8a7b1252478f994d6ab068c2bd6411a65b074ba64736f6c63430008140033","opcodes":"PUSH1 0x80 PUSH1 0x40 MSTORE CALLVALUE DUP1 ISZERO PUSH2 0x10 JUMPI PUSH1 0x0 DUP1 REVERT JUMPDEST POP PUSH2 0x1A CALLER PUSH2 0x310 JUMP JUMPDEST PUSH1 0x40 DUP1 MLOAD PUSH1 0xA0 DUP2 ADD DUP3 MSTORE PUSH2 0x320 DUP2 MSTORE PUSH2 0x7D0 PUSH1 0x20 DUP1 DUP4 ADD SWAP2 DUP3 MSTORE PUSH2 0x36B0 SWAP4 DUP4 ADD SWAP4 DUP5 MSTORE TIMESTAMP PUSH1 0x60 DUP5 ADD SWAP1 DUP2 MSTORE PUSH1 0x1 PUSH1 0x80 DUP6 ADD DUP2 DUP2 MSTORE PUSH1 0x0 DUP3 SWAP1 MSTORE SWAP3 MSTORE SWAP3 MLOAD PUSH32 0xCC69885FDA6BCC1A4ACE058B4A62BF5E179EA78FD58A1CCD71C22CC9B688792F SSTORE SWAP1 MLOAD PUSH32 0xCC69885FDA6BCC1A4ACE058B4A62BF5E179EA78FD58A1CCD71C22CC9B6887930 SSTORE SWAP2 MLOAD PUSH32 0xCC69885FDA6BCC1A4ACE058B4A62BF5E179EA78FD58A1CCD71C22CC9B6887931 SSTORE MLOAD PUSH32 0xCC69885FDA6BCC1A4ACE058B4A62BF5E179EA78FD58A1CCD71C22CC9B6887932 SSTORE MLOAD PUSH32 0xCC69885FDA6BCC1A4ACE058B4A62BF5E179EA78FD58A1CCD71C22CC9B6887933 DUP1 SLOAD PUSH1 0xFF NOT AND SWAP2 ISZERO ISZERO SWAP2 SWAP1 SWAP2 OR SWAP1 SSTORE PUSH1 0x40 DUP1 MLOAD PUSH1 0xA0 DUP2 ADD DUP3 MSTORE PUSH2 0x4B0 DUP2 MSTORE PUSH2 0xFA0 PUSH1 0x20 DUP1 DUP4 ADD SWAP2 DUP3 MSTORE PUSH2 0x3E80 SWAP4 DUP4 ADD SWAP4 DUP5 MSTORE TIMESTAMP PUSH1 0x60 DUP5 ADD SWAP1 DUP2 MSTORE PUSH1 0x1 PUSH1 0x80 DUP6 ADD DUP2 DUP2 MSTORE PUSH1 0x2 PUSH1 0x0 MSTORE SWAP3 MSTORE SWAP3 MLOAD PUSH32 0xD9D16D34FFB15BA3A3D852F0D403E2CE1D691FB54DE27AC87CD2F993F3EC330F SSTORE SWAP1 MLOAD PUSH32 0xD9D16D34FFB15BA3A3D852F0D403E2CE1D691FB54DE27AC87CD2F993F3EC3310 SSTORE SWAP2 MLOAD PUSH32 0xD9D16D34FFB15BA3A3D852F0D403E2CE1D691FB54DE27AC87CD2F993F3EC3311 SSTORE MLOAD PUSH32 0xD9D16D34FFB15BA3A3D852F0D403E2CE1D691FB54DE27AC87CD2F993F3EC3312 SSTORE MLOAD PUSH32 0xD9D16D34FFB15BA3A3D852F0D403E2CE1D691FB54DE27AC87CD2F993F3EC3313 DUP1 SLOAD PUSH1 0xFF NOT AND SWAP2 ISZERO ISZERO SWAP2 SWAP1 SWAP2 OR SWAP1 SSTORE PUSH1 0x40 DUP1 MLOAD PUSH1 0xA0 DUP2 ADD DUP3 MSTORE PUSH2 0xDAC DUP2 MSTORE PUSH2 0x1F40 PUSH1 0x20 DUP1 DUP4 ADD SWAP2 DUP3 MSTORE PUSH2 0x55F0 SWAP4 DUP4 ADD SWAP4 DUP5 MSTORE TIMESTAMP PUSH1 0x60 DUP5 ADD SWAP1 DUP2 MSTORE PUSH1 0x1 PUSH1 0x80 DUP6 ADD DUP2 DUP2 MSTORE PUSH1 0x3 PUSH1 0x0 MSTORE SWAP3 MSTORE SWAP3 MLOAD PUSH32 0x7DFE757ECD65CBD7922A9C0161E935DD7FDBCC0E999689C7D31633896B1FC60B SSTORE SWAP1 MLOAD PUSH32 0x7DFE757ECD65CBD7922A9C0161E935DD7FDBCC0E999689C7D31633896B1FC60C SSTORE SWAP2 MLOAD PUSH32 0x7DFE757ECD65CBD7922A9C0161E935DD7FDBCC0E999689C7D31633896B1FC60D SSTORE MLOAD PUSH32 0x7DFE757ECD65CBD7922A9C0161E935DD7FDBCC0E999689C7D31633896B1FC60E SSTORE MLOAD PUSH32 0x7DFE757ECD65CBD7922A9C0161E935DD7FDBCC0E999689C7D31633896B1FC60F DUP1 SLOAD PUSH1 0xFF NOT AND SWAP2 ISZERO ISZERO SWAP2 SWAP1 SWAP2 OR SWAP1 SSTORE PUSH2 0x360 JUMP JUMPDEST PUSH1 0x0 DUP1 SLOAD PUSH1 0x1 PUSH1 0x1 PUSH1 0xA0 SHL SUB DUP4 DUP2 AND PUSH1 0x1 PUSH1 0x1 PUSH1 0xA0 SHL SUB NOT DUP4 AND DUP2 OR DUP5 SSTORE PUSH1 0x40 MLOAD SWAP2 SWAP1 SWAP3 AND SWAP3 DUP4 SWAP2 PUSH32 0x8BE0079C531659141344CD1FD0A4F28419497F9722A3DAAFE3B4186F6B6457E0 SWAP2 SWAP1 LOG3 POP POP JUMP JUMPDEST PUSH2 0xB05 DUP1 PUSH2 0x36F PUSH1 0x0 CODECOPY PUSH1 0x0 RETURN INVALID PUSH1 0x80 PUSH1 0x40 MSTORE CALLVALUE DUP1 ISZERO PUSH2 0x10 JUMPI PUSH1 0x0 DUP1 REVERT JUMPDEST POP PUSH1 0x4 CALLDATASIZE LT PUSH2 0xCF JUMPI PUSH1 0x0 CALLDATALOAD PUSH1 0xE0 SHR DUP1 PUSH4 0x6953637B GT PUSH2 0x8C JUMPI DUP1 PUSH4 0x8BA08220 GT PUSH2 0x66 JUMPI DUP1 PUSH4 0x8BA08220 EQ PUSH2 0x1FA JUMPI DUP1 PUSH4 0x8DA5CB5B EQ PUSH2 0x222 JUMPI DUP1 PUSH4 0xCDEEB342 EQ PUSH2 0x23D JUMPI DUP1 PUSH4 0xF2FDE38B EQ PUSH2 0x25D JUMPI PUSH1 0x0 DUP1 REVERT JUMPDEST DUP1 PUSH4 0x6953637B EQ PUSH2 0x1CC JUMPI DUP1 PUSH4 0x715018A6 EQ PUSH2 0x1DF JUMPI DUP1 PUSH4 0x859B1F23 EQ PUSH2 0x1E7 JUMPI PUSH1 0x0 DUP1 REVERT JUMPDEST DUP1 PUSH4 0x1F210998 EQ PUSH2 0xD4 JUMPI DUP1 PUSH4 0x2A6C4792 EQ PUSH2 0xFA JUMPI DUP1 PUSH4 0x3C26BA31 EQ PUSH2 0x128 JUMPI DUP1 PUSH4 0x3F448D97 EQ PUSH2 0x13D JUMPI DUP1 PUSH4 0x6241D768 EQ PUSH2 0x150 JUMPI DUP1 PUSH4 0x64210613 EQ PUSH2 0x1B9 JUMPI JUMPDEST PUSH1 0x0 DUP1 REVERT JUMPDEST PUSH2 0xE7 PUSH2 0xE2 CALLDATASIZE PUSH1 0x4 PUSH2 0x9C9 JUMP JUMPDEST PUSH2 0x270 JUMP JUMPDEST PUSH1 0x40 MLOAD SWAP1 DUP2 MSTORE PUSH1 0x20 ADD JUMPDEST PUSH1 0x40 MLOAD DUP1 SWAP2 SUB SWAP1 RETURN JUMPDEST PUSH2 0x10D PUSH2 0x108 CALLDATASIZE PUSH1 0x4 PUSH2 0x9C9 JUMP JUMPDEST PUSH2 0x2DD JUMP JUMPDEST PUSH1 0x40 DUP1 MLOAD SWAP4 DUP5 MSTORE PUSH1 0x20 DUP5 ADD SWAP3 SWAP1 SWAP3 MSTORE SWAP1 DUP3 ADD MSTORE PUSH1 0x60 ADD PUSH2 0xF1 JUMP JUMPDEST PUSH2 0x13B PUSH2 0x136 CALLDATASIZE PUSH1 0x4 PUSH2 0x9EB JUMP JUMPDEST PUSH2 0x36D JUMP JUMPDEST STOP JUMPDEST PUSH2 0xE7 PUSH2 0x14B CALLDATASIZE PUSH1 0x4 PUSH2 0x9C9 JUMP JUMPDEST PUSH2 0x542 JUMP JUMPDEST PUSH2 0x18F PUSH2 0x15E CALLDATASIZE PUSH1 0x4 PUSH2 0x9C9 JUMP JUMPDEST PUSH1 0x1 PUSH1 0x20 DUP2 SWAP1 MSTORE PUSH1 0x0 SWAP2 DUP3 MSTORE PUSH1 0x40 SWAP1 SWAP2 KECCAK256 DUP1 SLOAD SWAP2 DUP2 ADD SLOAD PUSH1 0x2 DUP3 ADD SLOAD PUSH1 0x3 DUP4 ADD SLOAD PUSH1 0x4 SWAP1 SWAP4 ADD SLOAD SWAP2 SWAP3 SWAP1 SWAP2 PUSH1 0xFF AND DUP6 JUMP JUMPDEST PUSH1 0x40 DUP1 MLOAD SWAP6 DUP7 MSTORE PUSH1 0x20 DUP7 ADD SWAP5 SWAP1 SWAP5 MSTORE SWAP3 DUP5 ADD SWAP2 SWAP1 SWAP2 MSTORE PUSH1 0x60 DUP4 ADD MSTORE ISZERO ISZERO PUSH1 0x80 DUP3 ADD MSTORE PUSH1 0xA0 ADD PUSH2 0xF1 JUMP JUMPDEST PUSH2 0x13B PUSH2 0x1C7 CALLDATASIZE PUSH1 0x4 PUSH2 0xA24 JUMP JUMPDEST PUSH2 0x5AC JUMP JUMPDEST PUSH2 0xE7 PUSH2 0x1DA CALLDATASIZE PUSH1 0x4 PUSH2 0xA57 JUMP JUMPDEST PUSH2 0x69E JUMP JUMPDEST PUSH2 0x13B PUSH2 0x6D9 JUMP JUMPDEST PUSH2 0xE7 PUSH2 0x1F5 CALLDATASIZE PUSH1 0x4 PUSH2 0x9C9 JUMP JUMPDEST PUSH2 0x6ED JUMP JUMPDEST PUSH2 0x20D PUSH2 0x208 CALLDATASIZE PUSH1 0x4 PUSH2 0xA57 JUMP JUMPDEST PUSH2 0x75A JUMP JUMPDEST PUSH1 0x40 DUP1 MLOAD SWAP3 DUP4 MSTORE PUSH1 0x20 DUP4 ADD SWAP2 SWAP1 SWAP2 MSTORE ADD PUSH2 0xF1 JUMP JUMPDEST PUSH1 0x0 SLOAD PUSH1 0x40 MLOAD PUSH1 0x1 PUSH1 0x1 PUSH1 0xA0 SHL SUB SWAP1 SWAP2 AND DUP2 MSTORE PUSH1 0x20 ADD PUSH2 0xF1 JUMP JUMPDEST PUSH2 0x250 PUSH2 0x24B CALLDATASIZE PUSH1 0x4 PUSH2 0x9C9 JUMP JUMPDEST PUSH2 0x79C JUMP JUMPDEST PUSH1 0x40 MLOAD PUSH2 0xF1 SWAP2 SWAP1 PUSH2 0xA81 JUMP JUMPDEST PUSH2 0x13B PUSH2 0x26B CALLDATASIZE PUSH1 0x4 PUSH2 0x9C9 JUMP JUMPDEST PUSH2 0x88A JUMP JUMPDEST PUSH1 0x1 PUSH1 0x1 PUSH1 0xA0 SHL SUB DUP2 AND PUSH1 0x0 SWAP1 DUP2 MSTORE PUSH1 0x1 PUSH1 0x20 DUP2 DUP2 MSTORE PUSH1 0x40 DUP1 DUP5 KECCAK256 DUP2 MLOAD PUSH1 0xA0 DUP2 ADD DUP4 MSTORE DUP2 SLOAD DUP2 MSTORE SWAP4 DUP2 ADD SLOAD SWAP3 DUP5 ADD SWAP3 SWAP1 SWAP3 MSTORE PUSH1 0x2 DUP3 ADD SLOAD SWAP1 DUP4 ADD MSTORE PUSH1 0x3 DUP2 ADD SLOAD PUSH1 0x60 DUP4 ADD MSTORE PUSH1 0x4 ADD SLOAD PUSH1 0xFF AND ISZERO ISZERO PUSH1 0x80 DUP3 ADD DUP2 SWAP1 MSTORE PUSH2 0x2D3 JUMPI POP PUSH2 0x7D0 SWAP3 SWAP2 POP POP JUMP JUMPDEST PUSH1 0x20 ADD MLOAD SWAP3 SWAP2 POP POP JUMP JUMPDEST PUSH1 0x1 PUSH1 0x1 PUSH1 0xA0 SHL SUB DUP2 AND PUSH1 0x0 SWAP1 DUP2 MSTORE PUSH1 0x1 PUSH1 0x20 DUP2 DUP2 MSTORE PUSH1 0x40 DUP1 DUP5 KECCAK256 DUP2 MLOAD PUSH1 0xA0 DUP2 ADD DUP4 MSTORE DUP2 SLOAD DUP2 MSTORE SWAP4 DUP2 ADD SLOAD SWAP3 DUP5 ADD SWAP3 SWAP1 SWAP3 MSTORE PUSH1 0x2 DUP3 ADD SLOAD SWAP1 DUP4 ADD MSTORE PUSH1 0x3 DUP2 ADD SLOAD PUSH1 0x60 DUP4 ADD MSTORE PUSH1 0x4 ADD SLOAD PUSH1 0xFF AND ISZERO ISZERO PUSH1 0x80 DUP3 ADD DUP2 SWAP1 MSTORE DUP3 SWAP2 DUP3 SWAP2 PUSH2 0x34F JUMPI PUSH2 0x3E8 PUSH2 0x7D0 PUSH2 0x36B0 SWAP4 POP SWAP4 POP SWAP4 POP POP PUSH2 0x366 JUMP JUMPDEST DUP1 PUSH1 0x0 ADD MLOAD DUP2 PUSH1 0x20 ADD MLOAD DUP3 PUSH1 0x40 ADD MLOAD SWAP4 POP SWAP4 POP SWAP4 POP POP JUMPDEST SWAP2 SWAP4 SWAP1 SWAP3 POP JUMP JUMPDEST PUSH2 0x375 PUSH2 0x903 JUMP JUMPDEST PUSH1 0x1 PUSH1 0x1 PUSH1 0xA0 SHL SUB DUP5 AND PUSH2 0x3C0 JUMPI PUSH1 0x40 MLOAD PUSH3 0x461BCD PUSH1 0xE5 SHL DUP2 MSTORE PUSH1 0x20 PUSH1 0x4 DUP3 ADD MSTORE PUSH1 0xD PUSH1 0x24 DUP3 ADD MSTORE PUSH13 0x125B9D985B1A5908185CDCD95D PUSH1 0x9A SHL PUSH1 0x44 DUP3 ADD MSTORE PUSH1 0x64 ADD JUMPDEST PUSH1 0x40 MLOAD DUP1 SWAP2 SUB SWAP1 REVERT JUMPDEST PUSH2 0x2710 DUP4 GT ISZERO PUSH2 0x402 JUMPI PUSH1 0x40 MLOAD PUSH3 0x461BCD PUSH1 0xE5 SHL DUP2 MSTORE PUSH1 0x20 PUSH1 0x4 DUP3 ADD MSTORE PUSH1 0xD PUSH1 0x24 DUP3 ADD MSTORE PUSH13 0xA4D2E6D640E8DEDE40D0D2CED PUSH1 0x9B SHL PUSH1 0x44 DUP3 ADD MSTORE PUSH1 0x64 ADD PUSH2 0x3B7 JUMP JUMPDEST PUSH2 0x2710 DUP3 GT ISZERO PUSH2 0x44A JUMPI PUSH1 0x40 MLOAD PUSH3 0x461BCD PUSH1 0xE5 SHL DUP2 MSTORE PUSH1 0x20 PUSH1 0x4 DUP3 ADD MSTORE PUSH1 0x13 PUSH1 0x24 DUP3 ADD MSTORE PUSH19 0xACDED8C2E8D2D8D2E8F240E8DEDE40D0D2CED PUSH1 0x6B SHL PUSH1 0x44 DUP3 ADD MSTORE PUSH1 0x64 ADD PUSH2 0x3B7 JUMP JUMPDEST PUSH2 0x2710 DUP2 LT ISZERO PUSH2 0x48C JUMPI PUSH1 0x40 MLOAD PUSH3 0x461BCD PUSH1 0xE5 SHL DUP2 MSTORE PUSH1 0x20 PUSH1 0x4 DUP3 ADD MSTORE PUSH1 0xD PUSH1 0x24 DUP3 ADD MSTORE PUSH13 0x526174696F20746F6F206C6F77 PUSH1 0x98 SHL PUSH1 0x44 DUP3 ADD MSTORE PUSH1 0x64 ADD PUSH2 0x3B7 JUMP JUMPDEST PUSH1 0x40 DUP1 MLOAD PUSH1 0xA0 DUP2 ADD DUP3 MSTORE DUP5 DUP2 MSTORE PUSH1 0x20 DUP1 DUP3 ADD DUP6 DUP2 MSTORE DUP3 DUP5 ADD DUP6 DUP2 MSTORE TIMESTAMP PUSH1 0x60 DUP1 DUP7 ADD SWAP2 DUP3 MSTORE PUSH1 0x1 PUSH1 0x80 DUP8 ADD DUP2 DUP2 MSTORE PUSH1 0x1 PUSH1 0x1 PUSH1 0xA0 SHL SUB DUP14 AND PUSH1 0x0 DUP2 DUP2 MSTORE DUP4 DUP10 MSTORE DUP11 SWAP1 KECCAK256 SWAP9 MLOAD DUP10 SSTORE SWAP6 MLOAD SWAP2 DUP9 ADD SWAP2 SWAP1 SWAP2 SSTORE SWAP3 MLOAD PUSH1 0x2 DUP8 ADD SSTORE SWAP1 MLOAD PUSH1 0x3 DUP7 ADD SSTORE SWAP1 MLOAD PUSH1 0x4 SWAP1 SWAP5 ADD DUP1 SLOAD PUSH1 0xFF NOT AND SWAP5 ISZERO ISZERO SWAP5 SWAP1 SWAP5 OR SWAP1 SWAP4 SSTORE DUP4 MLOAD DUP8 DUP2 MSTORE SWAP2 DUP3 ADD DUP7 SWAP1 MSTORE SWAP3 DUP2 ADD DUP5 SWAP1 MSTORE PUSH32 0x7D0F860C98A939841AC79D041D73C28B5B838C2ADA786E72F4A6A1B1DC0F2569 SWAP2 ADD PUSH1 0x40 MLOAD DUP1 SWAP2 SUB SWAP1 LOG2 POP POP POP POP JUMP JUMPDEST PUSH1 0x1 PUSH1 0x1 PUSH1 0xA0 SHL SUB DUP2 AND PUSH1 0x0 SWAP1 DUP2 MSTORE PUSH1 0x1 PUSH1 0x20 DUP2 DUP2 MSTORE PUSH1 0x40 DUP1 DUP5 KECCAK256 DUP2 MLOAD PUSH1 0xA0 DUP2 ADD DUP4 MSTORE DUP2 SLOAD DUP2 MSTORE SWAP4 DUP2 ADD SLOAD SWAP3 DUP5 ADD SWAP3 SWAP1 SWAP3 MSTORE PUSH1 0x2 DUP3 ADD SLOAD SWAP1 DUP4 ADD MSTORE PUSH1 0x3 DUP2 ADD SLOAD PUSH1 0x60 DUP4 ADD MSTORE PUSH1 0x4 ADD SLOAD PUSH1 0xFF AND ISZERO ISZERO PUSH1 0x80 DUP3 ADD DUP2 SWAP1 MSTORE PUSH2 0x5A5 JUMPI POP PUSH2 0x3E8 SWAP3 SWAP2 POP POP JUMP JUMPDEST MLOAD SWAP3 SWAP2 POP POP JUMP JUMPDEST PUSH2 0x5B4 PUSH2 0x903 JUMP JUMPDEST PUSH1 0x1 PUSH1 0x1 PUSH1 0xA0 SHL SUB DUP4 AND PUSH2 0x5FD JUMPI PUSH1 0x40 MLOAD PUSH3 0x461BCD PUSH1 0xE5 SHL DUP2 MSTORE PUSH1 0x20 PUSH1 0x4 DUP3 ADD MSTORE PUSH1 0x10 PUSH1 0x24 DUP3 ADD MSTORE PUSH16 0x24B73B30B634B2103137B93937BBB2B9 PUSH1 0x81 SHL PUSH1 0x44 DUP3 ADD MSTORE PUSH1 0x64 ADD PUSH2 0x3B7 JUMP JUMPDEST PUSH2 0x2710 DUP2 GT ISZERO PUSH2 0x63F JUMPI PUSH1 0x40 MLOAD PUSH3 0x461BCD PUSH1 0xE5 SHL DUP2 MSTORE PUSH1 0x20 PUSH1 0x4 DUP3 ADD MSTORE PUSH1 0xD PUSH1 0x24 DUP3 ADD MSTORE PUSH13 0xA4D2E6D640E8DEDE40D0D2CED PUSH1 0x9B SHL PUSH1 0x44 DUP3 ADD MSTORE PUSH1 0x64 ADD PUSH2 0x3B7 JUMP JUMPDEST PUSH1 0x1 PUSH1 0x1 PUSH1 0xA0 SHL SUB DUP4 AND PUSH1 0x0 DUP2 DUP2 MSTORE PUSH1 0x2 PUSH1 0x20 SWAP1 DUP2 MSTORE PUSH1 0x40 DUP1 DUP4 KECCAK256 DUP7 DUP5 MSTORE DUP3 MSTORE SWAP2 DUP3 SWAP1 KECCAK256 DUP5 SWAP1 SSTORE SWAP1 MLOAD DUP4 DUP2 MSTORE DUP5 SWAP3 SWAP2 PUSH32 0x110C508FAD105609D333B96A011A1111C0D0312391B18E1DDB5CF9F15EC155C6 SWAP2 ADD PUSH1 0x40 MLOAD DUP1 SWAP2 SUB SWAP1 LOG3 POP POP POP JUMP JUMPDEST PUSH1 0x1 PUSH1 0x1 PUSH1 0xA0 SHL SUB DUP3 AND PUSH1 0x0 SWAP1 DUP2 MSTORE PUSH1 0x2 PUSH1 0x20 SWAP1 DUP2 MSTORE PUSH1 0x40 DUP1 DUP4 KECCAK256 DUP5 DUP5 MSTORE SWAP1 SWAP2 MSTORE DUP2 KECCAK256 SLOAD DUP1 PUSH2 0x6CF JUMPI PUSH2 0x3E8 PUSH2 0x6D1 JUMP JUMPDEST DUP1 JUMPDEST SWAP5 SWAP4 POP POP POP POP JUMP JUMPDEST PUSH2 0x6E1 PUSH2 0x903 JUMP JUMPDEST PUSH2 0x6EB PUSH1 0x0 PUSH2 0x95D JUMP JUMPDEST JUMP JUMPDEST PUSH1 0x1 PUSH1 0x1 PUSH1 0xA0 SHL SUB DUP2 AND PUSH1 0x0 SWAP1 DUP2 MSTORE PUSH1 0x1 PUSH1 0x20 DUP2 DUP2 MSTORE PUSH1 0x40 DUP1 DUP5 KECCAK256 DUP2 MLOAD PUSH1 0xA0 DUP2 ADD DUP4 MSTORE DUP2 SLOAD DUP2 MSTORE SWAP4 DUP2 ADD SLOAD SWAP3 DUP5 ADD SWAP3 SWAP1 SWAP3 MSTORE PUSH1 0x2 DUP3 ADD SLOAD SWAP1 DUP4 ADD MSTORE PUSH1 0x3 DUP2 ADD SLOAD PUSH1 0x60 DUP4 ADD MSTORE PUSH1 0x4 ADD SLOAD PUSH1 0xFF AND ISZERO ISZERO PUSH1 0x80 DUP3 ADD DUP2 SWAP1 MSTORE PUSH2 0x750 JUMPI POP PUSH2 0x36B0 SWAP3 SWAP2 POP POP JUMP JUMPDEST PUSH1 0x40 ADD MLOAD SWAP3 SWAP2 POP POP JUMP JUMPDEST PUSH1 0x1 PUSH1 0x1 PUSH1 0xA0 SHL SUB DUP3 AND PUSH1 0x0 SWAP1 DUP2 MSTORE PUSH1 0x2 PUSH1 0x20 SWAP1 DUP2 MSTORE PUSH1 0x40 DUP1 DUP4 KECCAK256 DUP5 DUP5 MSTORE SWAP1 SWAP2 MSTORE DUP2 KECCAK256 SLOAD DUP2 SWAP1 DUP2 DUP2 PUSH2 0x78E JUMPI PUSH2 0x3E8 PUSH2 0x790 JUMP JUMPDEST DUP2 JUMPDEST SWAP7 TIMESTAMP SWAP7 POP SWAP5 POP POP POP POP POP JUMP JUMPDEST PUSH1 0x1 PUSH1 0x1 PUSH1 0xA0 SHL SUB DUP2 AND PUSH1 0x0 SWAP1 DUP2 MSTORE PUSH1 0x1 PUSH1 0x20 DUP2 DUP2 MSTORE PUSH1 0x40 DUP1 DUP5 KECCAK256 DUP2 MLOAD PUSH1 0xA0 DUP2 ADD DUP4 MSTORE DUP2 SLOAD DUP2 MSTORE SWAP4 DUP2 ADD SLOAD SWAP3 DUP5 ADD SWAP3 SWAP1 SWAP3 MSTORE PUSH1 0x2 DUP3 ADD SLOAD SWAP1 DUP4 ADD MSTORE PUSH1 0x3 DUP2 ADD SLOAD PUSH1 0x60 DUP4 DUP2 ADD SWAP2 SWAP1 SWAP2 MSTORE PUSH1 0x4 SWAP1 SWAP2 ADD SLOAD PUSH1 0xFF AND ISZERO ISZERO PUSH1 0x80 DUP4 ADD DUP2 SWAP1 MSTORE SWAP1 SWAP3 SWAP1 PUSH2 0x806 JUMPI PUSH2 0x3E8 PUSH2 0x809 JUMP JUMPDEST DUP2 MLOAD JUMPDEST SWAP1 POP PUSH2 0x3E8 DUP2 LT ISZERO PUSH2 0x839 JUMPI POP POP PUSH1 0x40 DUP1 MLOAD DUP1 DUP3 ADD SWAP1 SWAP2 MSTORE PUSH1 0x5 DUP2 MSTORE PUSH5 0x23A922A2A7 PUSH1 0xD9 SHL PUSH1 0x20 DUP3 ADD MSTORE SWAP3 SWAP2 POP POP JUMP JUMPDEST PUSH2 0x9C4 DUP2 LT ISZERO PUSH2 0x868 JUMPI POP POP PUSH1 0x40 DUP1 MLOAD DUP1 DUP3 ADD SWAP1 SWAP2 MSTORE PUSH1 0x6 DUP2 MSTORE PUSH6 0x59454C4C4F57 PUSH1 0xD0 SHL PUSH1 0x20 DUP3 ADD MSTORE SWAP3 SWAP2 POP POP JUMP JUMPDEST POP POP PUSH1 0x40 DUP1 MLOAD DUP1 DUP3 ADD SWAP1 SWAP2 MSTORE PUSH1 0x3 DUP2 MSTORE PUSH3 0x149151 PUSH1 0xEA SHL PUSH1 0x20 DUP3 ADD MSTORE SWAP3 SWAP2 POP POP JUMP JUMPDEST PUSH2 0x892 PUSH2 0x903 JUMP JUMPDEST PUSH1 0x1 PUSH1 0x1 PUSH1 0xA0 SHL SUB DUP2 AND PUSH2 0x8F7 JUMPI PUSH1 0x40 MLOAD PUSH3 0x461BCD PUSH1 0xE5 SHL DUP2 MSTORE PUSH1 0x20 PUSH1 0x4 DUP3 ADD MSTORE PUSH1 0x26 PUSH1 0x24 DUP3 ADD MSTORE PUSH32 0x4F776E61626C653A206E6577206F776E657220697320746865207A65726F2061 PUSH1 0x44 DUP3 ADD MSTORE PUSH6 0x646472657373 PUSH1 0xD0 SHL PUSH1 0x64 DUP3 ADD MSTORE PUSH1 0x84 ADD PUSH2 0x3B7 JUMP JUMPDEST PUSH2 0x900 DUP2 PUSH2 0x95D JUMP JUMPDEST POP JUMP JUMPDEST PUSH1 0x0 SLOAD PUSH1 0x1 PUSH1 0x1 PUSH1 0xA0 SHL SUB AND CALLER EQ PUSH2 0x6EB JUMPI PUSH1 0x40 MLOAD PUSH3 0x461BCD PUSH1 0xE5 SHL DUP2 MSTORE PUSH1 0x20 PUSH1 0x4 DUP3 ADD DUP2 SWAP1 MSTORE PUSH1 0x24 DUP3 ADD MSTORE PUSH32 0x4F776E61626C653A2063616C6C6572206973206E6F7420746865206F776E6572 PUSH1 0x44 DUP3 ADD MSTORE PUSH1 0x64 ADD PUSH2 0x3B7 JUMP JUMPDEST PUSH1 0x0 DUP1 SLOAD PUSH1 0x1 PUSH1 0x1 PUSH1 0xA0 SHL SUB DUP4 DUP2 AND PUSH1 0x1 PUSH1 0x1 PUSH1 0xA0 SHL SUB NOT DUP4 AND DUP2 OR DUP5 SSTORE PUSH1 0x40 MLOAD SWAP2 SWAP1 SWAP3 AND SWAP3 DUP4 SWAP2 PUSH32 0x8BE0079C531659141344CD1FD0A4F28419497F9722A3DAAFE3B4186F6B6457E0 SWAP2 SWAP1 LOG3 POP POP JUMP JUMPDEST DUP1 CALLDATALOAD PUSH1 0x1 PUSH1 0x1 PUSH1 0xA0 SHL SUB DUP2 AND DUP2 EQ PUSH2 0x9C4 JUMPI PUSH1 0x0 DUP1 REVERT JUMPDEST SWAP2 SWAP1 POP JUMP JUMPDEST PUSH1 0x0 PUSH1 0x20 DUP3 DUP5 SUB SLT ISZERO PUSH2 0x9DB JUMPI PUSH1 0x0 DUP1 REVERT JUMPDEST PUSH2 0x9E4 DUP3 PUSH2 0x9AD JUMP JUMPDEST SWAP4 SWAP3 POP POP POP JUMP JUMPDEST PUSH1 0x0 DUP1 PUSH1 0x0 DUP1 PUSH1 0x80 DUP6 DUP8 SUB SLT ISZERO PUSH2 0xA01 JUMPI PUSH1 0x0 DUP1 REVERT JUMPDEST PUSH2 0xA0A DUP6 PUSH2 0x9AD JUMP JUMPDEST SWAP7 PUSH1 0x20 DUP7 ADD CALLDATALOAD SWAP7 POP PUSH1 0x40 DUP7 ADD CALLDATALOAD SWAP6 PUSH1 0x60 ADD CALLDATALOAD SWAP5 POP SWAP3 POP POP POP JUMP JUMPDEST PUSH1 0x0 DUP1 PUSH1 0x0 PUSH1 0x60 DUP5 DUP7 SUB SLT ISZERO PUSH2 0xA39 JUMPI PUSH1 0x0 DUP1 REVERT JUMPDEST PUSH2 0xA42 DUP5 PUSH2 0x9AD JUMP JUMPDEST SWAP6 PUSH1 0x20 DUP6 ADD CALLDATALOAD SWAP6 POP PUSH1 0x40 SWAP1 SWAP5 ADD CALLDATALOAD SWAP4 SWAP3 POP POP POP JUMP JUMPDEST PUSH1 0x0 DUP1 PUSH1 0x40 DUP4 DUP6 SUB SLT ISZERO PUSH2 0xA6A JUMPI PUSH1 0x0 DUP1 REVERT JUMPDEST PUSH2 0xA73 DUP4 PUSH2 0x9AD JUMP JUMPDEST SWAP5 PUSH1 0x20 SWAP4 SWAP1 SWAP4 ADD CALLDATALOAD SWAP4 POP POP POP JUMP JUMPDEST PUSH1 0x0 PUSH1 0x20 DUP1 DUP4 MSTORE DUP4 MLOAD DUP1 DUP3 DUP6 ADD MSTORE PUSH1 0x0 JUMPDEST DUP2 DUP2 LT ISZERO PUSH2 0xAAE JUMPI DUP6 DUP2 ADD DUP4 ADD MLOAD DUP6 DUP3 ADD PUSH1 0x40 ADD MSTORE DUP3 ADD PUSH2 0xA92 JUMP JUMPDEST POP PUSH1 0x0 PUSH1 0x40 DUP3 DUP7 ADD ADD MSTORE PUSH1 0x40 PUSH1 0x1F NOT PUSH1 0x1F DUP4 ADD AND DUP6 ADD ADD SWAP3 POP POP POP SWAP3 SWAP2 POP POP JUMP INVALID LOG2 PUSH5 0x6970667358 0x22 SLT KECCAK256 RETURN 0xDB PUSH17 0x57C19E7C5AA6F54168E8A7B1252478F994 0xD6 0xAB MOD DUP13 0x2B 0xD6 COINBASE BYTE PUSH6 0xB074BA64736F PUSH13 0x63430008140033000000000000 "},"methodIdentifiers":{"assetRisks(address)":"6241d768","getAssetRisk(address)":"2a6c4792","getLiquidationRiskLevel(address)":"cdeeb342","getRequiredCollateralRatio(address)":"859b1f23","getRiskBps(address,uint256)":"6953637b","getRiskScore(address,uint256)":"8ba08220","getRiskScorePercent(address)":"3f448d97","getVolatilityScore(address)":"1f210998","owner()":"8da5cb5b","renounceOwnership()":"715018a6","setAssetRisk(address,uint256,uint256,uint256)":"3c26ba31","setRiskScore(address,uint256,uint256)":"64210613","transferOwnership(address)":"f2fde38b"}}}}}