{"contracts/InsurancePool.sol":{"InsurancePool":{"abi":[{"inputs":[{"internalType":"address","name":"stableTokenAddress","type":"address"}],"stateMutability":"nonpayable","type":"constructor"},{"anonymous":false,"inputs":[{"indexed":true,"internalType":"address","name":"recipient","type":"address"},{"indexed":false,"internalType":"uint256","name":"amount","type":"uint256"}],"name":"ClaimPaid","type":"event"},{"anonymous":false,"inputs":[{"indexed":true,"internalType":"address","name":"provider","type":"address"},{"indexed":false,"internalType":"uint256","name":"amount","type":"uint256"}],"name":"LiquidityDeposited","type":"event"},{"anonymous":false,"inputs":[{"indexed":true,"internalType":"address","name":"provider","type":"address"},{"indexed":false,"internalType":"uint256","name":"amount","type":"uint256"}],"name":"LiquidityWithdrawn","type":"event"},{"anonymous":false,"inputs":[{"indexed":true,"internalType":"address","name":"manager","type":"address"}],"name":"ManagerUpdated","type":"event"},{"anonymous":false,"inputs":[{"indexed":true,"internalType":"address","name":"previousOwner","type":"address"},{"indexed":true,"internalType":"address","name":"newOwner","type":"address"}],"name":"OwnershipTransferred","type":"event"},{"anonymous":false,"inputs":[{"indexed":true,"internalType":"address","name":"payer","type":"address"},{"indexed":false,"internalType":"uint256","name":"amount","type":"uint256"}],"name":"PremiumCollected","type":"event"},{"inputs":[{"internalType":"address","name":"payer","type":"address"},{"internalType":"uint256","name":"amount","type":"uint256"}],"name":"collectPremium","outputs":[],"stateMutability":"nonpayable","type":"function"},{"inputs":[{"internalType":"uint256","name":"amount","type":"uint256"}],"name":"depositLiquidity","outputs":[],"stateMutability":"nonpayable","type":"function"},{"inputs":[{"internalType":"address","name":"","type":"address"}],"name":"liquidityProvided","outputs":[{"internalType":"uint256","name":"","type":"uint256"}],"stateMutability":"view","type":"function"},{"inputs":[],"name":"manager","outputs":[{"internalType":"address","name":"","type":"address"}],"stateMutability":"view","type":"function"},{"inputs":[],"name":"owner","outputs":[{"internalType":"address","name":"","type":"address"}],"stateMutability":"view","type":"function"},{"inputs":[{"internalType":"address","name":"recipient","type":"address"},{"internalType":"uint256","name":"amount","type":"uint256"}],"name":"payoutClaim","outputs":[],"stateMutability":"nonpayable","type":"function"},{"inputs":[],"name":"poolBalance","outputs":[{"internalType":"uint256","name":"","type":"uint256"}],"stateMutability":"view","type":"function"},{"inputs":[],"name":"renounceOwnership","outputs":[],"stateMutability":"nonpayable","type":"function"},{"inputs":[{"internalType":"address","name":"_manager","type":"address"}],"name":"setManager","outputs":[],"stateMutability":"nonpayable","type":"function"},{"inputs":[],"name":"stableToken","outputs":[{"internalType":"contract IERC20","name":"","type":"address"}],"stateMutability":"view","type":"function"},{"inputs":[],"name":"totalLiquidity","outputs":[{"internalType":"uint256","name":"","type":"uint256"}],"stateMutability":"view","type":"function"},{"inputs":[{"internalType":"address","name":"newOwner","type":"address"}],"name":"transferOwnership","outputs":[],"stateMutability":"nonpayable","type":"function"},{"inputs":[{"internalType":"uint256","name":"amount","type":"uint256"}],"name":"withdrawLiquidity","outputs":[],"stateMutability":"nonpayable","type":"function"}],"evm":{"bytecode":{"linkReferences":{},"object":"60a060405234801561001057600080fd5b50604051610f52380380610f5283398101604081905261002f916100ea565b600160005561003d33610098565b6001600160a01b0381166100875760405162461bcd60e51b815260206004820152600d60248201526c24b73b30b634b2103a37b5b2b760991b604482015260640160405180910390fd5b6001600160a01b031660805261011a565b600180546001600160a01b038381166001600160a01b0319831681179093556040519116919082907f8be0079c531659141344cd1fd0a4f28419497f9722a3daafe3b4186f6b6457e090600090a35050565b6000602082840312156100fc57600080fd5b81516001600160a01b038116811461011357600080fd5b9392505050565b608051610dec610166600039600081816101af0152818161029c015281816103b70152818161054001528181610646015281816107630152818161092b0152610a030152610dec6000f3fe608060405234801561001057600080fd5b50600436106100cf5760003560e01c806376d58e1a1161008c57806396365d441161006657806396365d44146101a2578063a9d75b2b146101aa578063d0ebdbe7146101d1578063f2fde38b146101e457600080fd5b806376d58e1a1461016b5780638c8ac76d1461017e5780638da5cb5b1461019157600080fd5b80630a861f2a146100d457806315770f92146100e9578063481c6a7514610105578063624090111461013057806365119f7214610143578063715018a614610163575b600080fd5b6100e76100e2366004610c90565b6101f7565b005b6100f260045481565b6040519081526020015b60405180910390f35b600254610118906001600160a01b031681565b6040516001600160a01b0390911681526020016100fc565b6100e761013e366004610cc5565b610470565b6100f2610151366004610cef565b60036020526000908152604090205481565b6100e7610705565b6100e7610179366004610c90565b610719565b6100e761018c366004610cc5565b610848565b6001546001600160a01b0316610118565b6100f26109eb565b6101187f000000000000000000000000000000000000000000000000000000000000000081565b6100e76101df366004610cef565b610a7b565b6100e76101f2366004610cef565b610b15565b6101ff610b8b565b600081116102285760405162461bcd60e51b815260040161021f90610d11565b60405180910390fd5b336000908152600360205260409020548111156102875760405162461bcd60e51b815260206004820152601760248201527f496e73756666696369656e74204c502062616c616e6365000000000000000000604482015260640161021f565b6040516370a0823160e01b81523060048201527f00000000000000000000000000000000000000000000000000000000000000006001600160a01b0316906370a0823190602401602060405180830381865afa1580156102eb573d6000803e3d6000fd5b505050506040513d601f19601f8201168201806040525081019061030f9190610d39565b81111561035e5760405162461bcd60e51b815260206004820152601960248201527f496e73756666696369656e7420706f6f6c2062616c616e636500000000000000604482015260640161021f565b336000908152600360205260408120805483929061037d908490610d68565b9250508190555080600460008282546103969190610d68565b909155505060405163a9059cbb60e01b8152336004820152602481018290527f00000000000000000000000000000000000000000000000000000000000000006001600160a01b03169063a9059cbb906044016020604051808303816000875af1158015610408573d6000803e3d6000fd5b505050506040513d601f19601f8201168201806040525081019061042c9190610d81565b5060405181815233907fb1cce8684b4ffa8667b4577654e61ee3480d661ee9c27522ac80e211f6bd4d25906020015b60405180910390a261046d6001600055565b50565b6002546001600160a01b031633146104b95760405162461bcd60e51b815260206004820152600c60248201526b27b7363c9036b0b730b3b2b960a11b604482015260640161021f565b6104c1610b8b565b6001600160a01b03821661050b5760405162461bcd60e51b8152602060048201526011602482015270125b9d985b1a59081c9958da5c1a595b9d607a1b604482015260640161021f565b6000811161052b5760405162461bcd60e51b815260040161021f90610d11565b6040516370a0823160e01b81523060048201527f00000000000000000000000000000000000000000000000000000000000000006001600160a01b0316906370a0823190602401602060405180830381865afa15801561058f573d6000803e3d6000fd5b505050506040513d601f19601f820116820180604052508101906105b39190610d39565b8111156105f45760405162461bcd60e51b815260206004820152600f60248201526e506f6f6c20696e736f6c76656e637960881b604482015260640161021f565b806004541061061a57806004600082825461060f9190610d68565b909155506106209050565b60006004555b60405163a9059cbb60e01b81526001600160a01b038381166004830152602482018390527f0000000000000000000000000000000000000000000000000000000000000000169063a9059cbb906044016020604051808303816000875af115801561068f573d6000803e3d6000fd5b505050506040513d601f19601f820116820180604052508101906106b39190610d81565b50816001600160a01b03167ff42cf8c29487b42c009006cba2a2a0ca0388229f3183e6e957e0a0b163585cb4826040516106ef91815260200190565b60405180910390a26107016001600055565b5050565b61070d610be4565b6107176000610c3e565b565b610721610b8b565b600081116107415760405162461bcd60e51b815260040161021f90610d11565b6040516323b872dd60e01b8152336004820152306024820152604481018290527f00000000000000000000000000000000000000000000000000000000000000006001600160a01b0316906323b872dd906064016020604051808303816000875af11580156107b4573d6000803e3d6000fd5b505050506040513d601f19601f820116820180604052508101906107d89190610d81565b5033600090815260036020526040812080548392906107f8908490610da3565b9250508190555080600460008282546108119190610da3565b909155505060405181815233907f7ff07ce9a287649537e4b012e45cf012d90228b12e2b56bb03515a6b5436fcdf9060200161045b565b6002546001600160a01b031633146108915760405162461bcd60e51b815260206004820152600c60248201526b27b7363c9036b0b730b3b2b960a11b604482015260640161021f565b610899610b8b565b6001600160a01b0382166108df5760405162461bcd60e51b815260206004820152600d60248201526c24b73b30b634b2103830bcb2b960991b604482015260640161021f565b600081116108ff5760405162461bcd60e51b815260040161021f90610d11565b6040516323b872dd60e01b81526001600160a01b038381166004830152306024830152604482018390527f000000000000000000000000000000000000000000000000000000000000000016906323b872dd906064016020604051808303816000875af1158015610974573d6000803e3d6000fd5b505050506040513d601f19601f820116820180604052508101906109989190610d81565b5080600460008282546109ab9190610da3565b90915550506040518181526001600160a01b038316907f055064f59ab6628ba9c529da6ff89620b1899e1bf0b98385523eb11fbe6621ab906020016106ef565b6040516370a0823160e01b81523060048201526000907f00000000000000000000000000000000000000000000000000000000000000006001600160a01b0316906370a0823190602401602060405180830381865afa158015610a52573d6000803e3d6000fd5b505050506040513d601f19601f82011682018060405250810190610a769190610d39565b905090565b610a83610be4565b6001600160a01b038116610acb5760405162461bcd60e51b815260206004820152600f60248201526e24b73b30b634b21036b0b730b3b2b960891b604482015260640161021f565b600280546001600160a01b0319166001600160a01b0383169081179091556040517f2c1c11af44aa5608f1dca38c00275c30ea091e02417d36e70e9a1538689c433d90600090a250565b610b1d610be4565b6001600160a01b038116610b825760405162461bcd60e51b815260206004820152602660248201527f4f776e61626c653a206e6577206f776e657220697320746865207a65726f206160448201526564647265737360d01b606482015260840161021f565b61046d81610c3e565b600260005403610bdd5760405162461bcd60e51b815260206004820152601f60248201527f5265656e7472616e637947756172643a207265656e7472616e742063616c6c00604482015260640161021f565b6002600055565b6001546001600160a01b031633146107175760405162461bcd60e51b815260206004820181905260248201527f4f776e61626c653a2063616c6c6572206973206e6f7420746865206f776e6572604482015260640161021f565b600180546001600160a01b038381166001600160a01b0319831681179093556040519116919082907f8be0079c531659141344cd1fd0a4f28419497f9722a3daafe3b4186f6b6457e090600090a35050565b600060208284031215610ca257600080fd5b5035919050565b80356001600160a01b0381168114610cc057600080fd5b919050565b60008060408385031215610cd857600080fd5b610ce183610ca9565b946020939093013593505050565b600060208284031215610d0157600080fd5b610d0a82610ca9565b9392505050565b6020808252600e908201526d125b9d985b1a5908185b5bdd5b9d60921b604082015260600190565b600060208284031215610d4b57600080fd5b5051919050565b634e487b7160e01b600052601160045260246000fd5b81810381811115610d7b57610d7b610d52565b92915050565b600060208284031215610d9357600080fd5b81518015158114610d0a57600080fd5b80820180821115610d7b57610d7b610d5256fea26469706673582212203d59750259251a68947ccb8d210bee153c7ded21e5bd38636dd57f90b442e8d864736f6c63430008140033","opcodes":"PUSH1 0xA0 PUSH1 0x40 MSTORE CALLVALUE DUP1 ISZERO PUSH2 0x10 JUMPI PUSH1 0x0 DUP1 REVERT JUMPDEST POP PUSH1 0x40 MLOAD PUSH2 0xF52 CODESIZE SUB DUP1 PUSH2 0xF52 DUP4 CODECOPY DUP2 ADD PUSH1 0x40 DUP2 SWAP1 MSTORE PUSH2 0x2F SWAP2 PUSH2 0xEA JUMP JUMPDEST PUSH1 0x1 PUSH1 0x0 SSTORE PUSH2 0x3D CALLER PUSH2 0x98 JUMP JUMPDEST PUSH1 0x1 PUSH1 0x1 PUSH1 0xA0 SHL SUB DUP2 AND PUSH2 0x87 JUMPI PUSH1 0x40 MLOAD PUSH3 0x461BCD PUSH1 0xE5 SHL DUP2 MSTORE PUSH1 0x20 PUSH1 0x4 DUP3 ADD MSTORE PUSH1 0xD PUSH1 0x24 DUP3 ADD MSTORE PUSH13 0x24B73B30B634B2103A37B5B2B7 PUSH1 0x99 SHL PUSH1 0x44 DUP3 ADD MSTORE PUSH1 0x64 ADD PUSH1 0x40 MLOAD DUP1 SWAP2 SUB SWAP1 REVERT JUMPDEST PUSH1 0x1 PUSH1 0x1 PUSH1 0xA0 SHL SUB AND PUSH1 0x80 MSTORE PUSH2 0x11A JUMP JUMPDEST PUSH1 0x1 DUP1 SLOAD PUSH1 0x1 PUSH1 0x1 PUSH1 0xA0 SHL SUB DUP4 DUP2 AND PUSH1 0x1 PUSH1 0x1 PUSH1 0xA0 SHL SUB NOT DUP4 AND DUP2 OR SWAP1 SWAP4 SSTORE PUSH1 0x40 MLOAD SWAP2 AND SWAP2 SWAP1 DUP3 SWAP1 PUSH32 0x8BE0079C531659141344CD1FD0A4F28419497F9722A3DAAFE3B4186F6B6457E0 SWAP1 PUSH1 0x0 SWAP1 LOG3 POP POP JUMP JUMPDEST PUSH1 0x0 PUSH1 0x20 DUP3 DUP5 SUB SLT ISZERO PUSH2 0xFC JUMPI PUSH1 0x0 DUP1 REVERT JUMPDEST DUP2 MLOAD PUSH1 0x1 PUSH1 0x1 PUSH1 0xA0 SHL SUB DUP2 AND DUP2 EQ PUSH2 0x113 JUMPI PUSH1 0x0 DUP1 REVERT JUMPDEST SWAP4 SWAP3 POP POP POP JUMP JUMPDEST PUSH1 0x80 MLOAD PUSH2 0xDEC PUSH2 0x166 PUSH1 0x0 CODECOPY PUSH1 0x0 DUP2 DUP2 PUSH2 0x1AF ADD MSTORE DUP2 DUP2 PUSH2 0x29C ADD MSTORE DUP2 DUP2 PUSH2 0x3B7 ADD MSTORE DUP2 DUP2 PUSH2 0x540 ADD MSTORE DUP2 DUP2 PUSH2 0x646 ADD MSTORE DUP2 DUP2 PUSH2 0x763 ADD MSTORE DUP2 DUP2 PUSH2 0x92B ADD MSTORE PUSH2 0xA03 ADD MSTORE PUSH2 0xDEC PUSH1 0x0 RETURN INVALID PUSH1 0x80 PUSH1 0x40 MSTORE CALLVALUE DUP1 ISZERO PUSH2 0x10 JUMPI PUSH1 0x0 DUP1 REVERT JUMPDEST POP PUSH1 0x4 CALLDATASIZE LT PUSH2 0xCF JUMPI PUSH1 0x0 CALLDATALOAD PUSH1 0xE0 SHR DUP1 PUSH4 0x76D58E1A GT PUSH2 0x8C JUMPI DUP1 PUSH4 0x96365D44 GT PUSH2 0x66 JUMPI DUP1 PUSH4 0x96365D44 EQ PUSH2 0x1A2 JUMPI DUP1 PUSH4 0xA9D75B2B EQ PUSH2 0x1AA JUMPI DUP1 PUSH4 0xD0EBDBE7 EQ PUSH2 0x1D1 JUMPI DUP1 PUSH4 0xF2FDE38B EQ PUSH2 0x1E4 JUMPI PUSH1 0x0 DUP1 REVERT JUMPDEST DUP1 PUSH4 0x76D58E1A EQ PUSH2 0x16B JUMPI DUP1 PUSH4 0x8C8AC76D EQ PUSH2 0x17E JUMPI DUP1 PUSH4 0x8DA5CB5B EQ PUSH2 0x191 JUMPI PUSH1 0x0 DUP1 REVERT JUMPDEST DUP1 PUSH4 0xA861F2A EQ PUSH2 0xD4 JUMPI DUP1 PUSH4 0x15770F92 EQ PUSH2 0xE9 JUMPI DUP1 PUSH4 0x481C6A75 EQ PUSH2 0x105 JUMPI DUP1 PUSH4 0x62409011 EQ PUSH2 0x130 JUMPI DUP1 PUSH4 0x65119F72 EQ PUSH2 0x143 JUMPI DUP1 PUSH4 0x715018A6 EQ PUSH2 0x163 JUMPI JUMPDEST PUSH1 0x0 DUP1 REVERT JUMPDEST PUSH2 0xE7 PUSH2 0xE2 CALLDATASIZE PUSH1 0x4 PUSH2 0xC90 JUMP JUMPDEST PUSH2 0x1F7 JUMP JUMPDEST STOP JUMPDEST PUSH2 0xF2 PUSH1 0x4 SLOAD DUP2 JUMP JUMPDEST PUSH1 0x40 MLOAD SWAP1 DUP2 MSTORE PUSH1 0x20 ADD JUMPDEST PUSH1 0x40 MLOAD DUP1 SWAP2 SUB SWAP1 RETURN JUMPDEST PUSH1 0x2 SLOAD PUSH2 0x118 SWAP1 PUSH1 0x1 PUSH1 0x1 PUSH1 0xA0 SHL SUB AND DUP2 JUMP JUMPDEST PUSH1 0x40 MLOAD PUSH1 0x1 PUSH1 0x1 PUSH1 0xA0 SHL SUB SWAP1 SWAP2 AND DUP2 MSTORE PUSH1 0x20 ADD PUSH2 0xFC JUMP JUMPDEST PUSH2 0xE7 PUSH2 0x13E CALLDATASIZE PUSH1 0x4 PUSH2 0xCC5 JUMP JUMPDEST PUSH2 0x470 JUMP JUMPDEST PUSH2 0xF2 PUSH2 0x151 CALLDATASIZE PUSH1 0x4 PUSH2 0xCEF JUMP JUMPDEST PUSH1 0x3 PUSH1 0x20 MSTORE PUSH1 0x0 SWAP1 DUP2 MSTORE PUSH1 0x40 SWAP1 KECCAK256 SLOAD DUP2 JUMP JUMPDEST PUSH2 0xE7 PUSH2 0x705 JUMP JUMPDEST PUSH2 0xE7 PUSH2 0x179 CALLDATASIZE PUSH1 0x4 PUSH2 0xC90 JUMP JUMPDEST PUSH2 0x719 JUMP JUMPDEST PUSH2 0xE7 PUSH2 0x18C CALLDATASIZE PUSH1 0x4 PUSH2 0xCC5 JUMP JUMPDEST PUSH2 0x848 JUMP JUMPDEST PUSH1 0x1 SLOAD PUSH1 0x1 PUSH1 0x1 PUSH1 0xA0 SHL SUB AND PUSH2 0x118 JUMP JUMPDEST PUSH2 0xF2 PUSH2 0x9EB JUMP JUMPDEST PUSH2 0x118 PUSH32 0x0 DUP2 JUMP JUMPDEST PUSH2 0xE7 PUSH2 0x1DF CALLDATASIZE PUSH1 0x4 PUSH2 0xCEF JUMP JUMPDEST PUSH2 0xA7B JUMP JUMPDEST PUSH2 0xE7 PUSH2 0x1F2 CALLDATASIZE PUSH1 0x4 PUSH2 0xCEF JUMP JUMPDEST PUSH2 0xB15 JUMP JUMPDEST PUSH2 0x1FF PUSH2 0xB8B JUMP JUMPDEST PUSH1 0x0 DUP2 GT PUSH2 0x228 JUMPI PUSH1 0x40 MLOAD PUSH3 0x461BCD PUSH1 0xE5 SHL DUP2 MSTORE PUSH1 0x4 ADD PUSH2 0x21F SWAP1 PUSH2 0xD11 JUMP JUMPDEST PUSH1 0x40 MLOAD DUP1 SWAP2 SUB SWAP1 REVERT JUMPDEST CALLER PUSH1 0x0 SWAP1 DUP2 MSTORE PUSH1 0x3 PUSH1 0x20 MSTORE PUSH1 0x40 SWAP1 KECCAK256 SLOAD DUP2 GT ISZERO PUSH2 0x287 JUMPI PUSH1 0x40 MLOAD PUSH3 0x461BCD PUSH1 0xE5 SHL DUP2 MSTORE PUSH1 0x20 PUSH1 0x4 DUP3 ADD MSTORE PUSH1 0x17 PUSH1 0x24 DUP3 ADD MSTORE PUSH32 0x496E73756666696369656E74204C502062616C616E6365000000000000000000 PUSH1 0x44 DUP3 ADD MSTORE PUSH1 0x64 ADD PUSH2 0x21F JUMP JUMPDEST PUSH1 0x40 MLOAD PUSH4 0x70A08231 PUSH1 0xE0 SHL DUP2 MSTORE ADDRESS PUSH1 0x4 DUP3 ADD MSTORE PUSH32 0x0 PUSH1 0x1 PUSH1 0x1 PUSH1 0xA0 SHL SUB AND SWAP1 PUSH4 0x70A08231 SWAP1 PUSH1 0x24 ADD PUSH1 0x20 PUSH1 0x40 MLOAD DUP1 DUP4 SUB DUP2 DUP7 GAS STATICCALL ISZERO DUP1 ISZERO PUSH2 0x2EB JUMPI RETURNDATASIZE PUSH1 0x0 DUP1 RETURNDATACOPY RETURNDATASIZE PUSH1 0x0 REVERT JUMPDEST POP POP POP POP PUSH1 0x40 MLOAD RETURNDATASIZE PUSH1 0x1F NOT PUSH1 0x1F DUP3 ADD AND DUP3 ADD DUP1 PUSH1 0x40 MSTORE POP DUP2 ADD SWAP1 PUSH2 0x30F SWAP2 SWAP1 PUSH2 0xD39 JUMP JUMPDEST DUP2 GT ISZERO PUSH2 0x35E JUMPI PUSH1 0x40 MLOAD PUSH3 0x461BCD PUSH1 0xE5 SHL DUP2 MSTORE PUSH1 0x20 PUSH1 0x4 DUP3 ADD MSTORE PUSH1 0x19 PUSH1 0x24 DUP3 ADD MSTORE PUSH32 0x496E73756666696369656E7420706F6F6C2062616C616E636500000000000000 PUSH1 0x44 DUP3 ADD MSTORE PUSH1 0x64 ADD PUSH2 0x21F JUMP JUMPDEST CALLER PUSH1 0x0 SWAP1 DUP2 MSTORE PUSH1 0x3 PUSH1 0x20 MSTORE PUSH1 0x40 DUP2 KECCAK256 DUP1 SLOAD DUP4 SWAP3 SWAP1 PUSH2 0x37D SWAP1 DUP5 SWAP1 PUSH2 0xD68 JUMP JUMPDEST SWAP3 POP POP DUP2 SWAP1 SSTORE POP DUP1 PUSH1 0x4 PUSH1 0x0 DUP3 DUP3 SLOAD PUSH2 0x396 SWAP2 SWAP1 PUSH2 0xD68 JUMP JUMPDEST SWAP1 SWAP2 SSTORE POP POP PUSH1 0x40 MLOAD PUSH4 0xA9059CBB PUSH1 0xE0 SHL DUP2 MSTORE CALLER PUSH1 0x4 DUP3 ADD MSTORE PUSH1 0x24 DUP2 ADD DUP3 SWAP1 MSTORE PUSH32 0x0 PUSH1 0x1 PUSH1 0x1 PUSH1 0xA0 SHL SUB AND SWAP1 PUSH4 0xA9059CBB SWAP1 PUSH1 0x44 ADD PUSH1 0x20 PUSH1 0x40 MLOAD DUP1 DUP4 SUB DUP2 PUSH1 0x0 DUP8 GAS CALL ISZERO DUP1 ISZERO PUSH2 0x408 JUMPI RETURNDATASIZE PUSH1 0x0 DUP1 RETURNDATACOPY RETURNDATASIZE PUSH1 0x0 REVERT JUMPDEST POP POP POP POP PUSH1 0x40 MLOAD RETURNDATASIZE PUSH1 0x1F NOT PUSH1 0x1F DUP3 ADD AND DUP3 ADD DUP1 PUSH1 0x40 MSTORE POP DUP2 ADD SWAP1 PUSH2 0x42C SWAP2 SWAP1 PUSH2 0xD81 JUMP JUMPDEST POP PUSH1 0x40 MLOAD DUP2 DUP2 MSTORE CALLER SWAP1 PUSH32 0xB1CCE8684B4FFA8667B4577654E61EE3480D661EE9C27522AC80E211F6BD4D25 SWAP1 PUSH1 0x20 ADD JUMPDEST PUSH1 0x40 MLOAD DUP1 SWAP2 SUB SWAP1 LOG2 PUSH2 0x46D PUSH1 0x1 PUSH1 0x0 SSTORE JUMP JUMPDEST POP JUMP JUMPDEST PUSH1 0x2 SLOAD PUSH1 0x1 PUSH1 0x1 PUSH1 0xA0 SHL SUB AND CALLER EQ PUSH2 0x4B9 JUMPI PUSH1 0x40 MLOAD PUSH3 0x461BCD PUSH1 0xE5 SHL DUP2 MSTORE PUSH1 0x20 PUSH1 0x4 DUP3 ADD MSTORE PUSH1 0xC PUSH1 0x24 DUP3 ADD MSTORE PUSH12 0x27B7363C9036B0B730B3B2B9 PUSH1 0xA1 SHL PUSH1 0x44 DUP3 ADD MSTORE PUSH1 0x64 ADD PUSH2 0x21F JUMP JUMPDEST PUSH2 0x4C1 PUSH2 0xB8B JUMP JUMPDEST PUSH1 0x1 PUSH1 0x1 PUSH1 0xA0 SHL SUB DUP3 AND PUSH2 0x50B JUMPI PUSH1 0x40 MLOAD PUSH3 0x461BCD PUSH1 0xE5 SHL DUP2 MSTORE PUSH1 0x20 PUSH1 0x4 DUP3 ADD MSTORE PUSH1 0x11 PUSH1 0x24 DUP3 ADD MSTORE PUSH17 0x125B9D985B1A59081C9958DA5C1A595B9D PUSH1 0x7A SHL PUSH1 0x44 DUP3 ADD MSTORE PUSH1 0x64 ADD PUSH2 0x21F JUMP JUMPDEST PUSH1 0x0 DUP2 GT PUSH2 0x52B JUMPI PUSH1 0x40 MLOAD PUSH3 0x461BCD PUSH1 0xE5 SHL DUP2 MSTORE PUSH1 0x4 ADD PUSH2 0x21F SWAP1 PUSH2 0xD11 JUMP JUMPDEST PUSH1 0x40 MLOAD PUSH4 0x70A08231 PUSH1 0xE0 SHL DUP2 MSTORE ADDRESS PUSH1 0x4 DUP3 ADD MSTORE PUSH32 0x0 PUSH1 0x1 PUSH1 0x1 PUSH1 0xA0 SHL SUB AND SWAP1 PUSH4 0x70A08231 SWAP1 PUSH1 0x24 ADD PUSH1 0x20 PUSH1 0x40 MLOAD DUP1 DUP4 SUB DUP2 DUP7 GAS STATICCALL ISZERO DUP1 ISZERO PUSH2 0x58F JUMPI RETURNDATASIZE PUSH1 0x0 DUP1 RETURNDATACOPY RETURNDATASIZE PUSH1 0x0 REVERT JUMPDEST POP POP POP POP PUSH1 0x40 MLOAD RETURNDATASIZE PUSH1 0x1F NOT PUSH1 0x1F DUP3 ADD AND DUP3 ADD DUP1 PUSH1 0x40 MSTORE POP DUP2 ADD SWAP1 PUSH2 0x5B3 SWAP2 SWAP1 PUSH2 0xD39 JUMP JUMPDEST DUP2 GT ISZERO PUSH2 0x5F4 JUMPI PUSH1 0x40 MLOAD PUSH3 0x461BCD PUSH1 0xE5 SHL DUP2 MSTORE PUSH1 0x20 PUSH1 0x4 DUP3 ADD MSTORE PUSH1 0xF PUSH1 0x24 DUP3 ADD MSTORE PUSH15 0x506F6F6C20696E736F6C76656E6379 PUSH1 0x88 SHL PUSH1 0x44 DUP3 ADD MSTORE PUSH1 0x64 ADD PUSH2 0x21F JUMP JUMPDEST DUP1 PUSH1 0x4 SLOAD LT PUSH2 0x61A JUMPI DUP1 PUSH1 0x4 PUSH1 0x0 DUP3 DUP3 SLOAD PUSH2 0x60F SWAP2 SWAP1 PUSH2 0xD68 JUMP JUMPDEST SWAP1 SWAP2 SSTORE POP PUSH2 0x620 SWAP1 POP JUMP JUMPDEST PUSH1 0x0 PUSH1 0x4 SSTORE JUMPDEST PUSH1 0x40 MLOAD PUSH4 0xA9059CBB PUSH1 0xE0 SHL DUP2 MSTORE PUSH1 0x1 PUSH1 0x1 PUSH1 0xA0 SHL SUB DUP4 DUP2 AND PUSH1 0x4 DUP4 ADD MSTORE PUSH1 0x24 DUP3 ADD DUP4 SWAP1 MSTORE PUSH32 0x0 AND SWAP1 PUSH4 0xA9059CBB SWAP1 PUSH1 0x44 ADD PUSH1 0x20 PUSH1 0x40 MLOAD DUP1 DUP4 SUB DUP2 PUSH1 0x0 DUP8 GAS CALL ISZERO DUP1 ISZERO PUSH2 0x68F JUMPI RETURNDATASIZE PUSH1 0x0 DUP1 RETURNDATACOPY RETURNDATASIZE PUSH1 0x0 REVERT JUMPDEST POP POP POP POP PUSH1 0x40 MLOAD RETURNDATASIZE PUSH1 0x1F NOT PUSH1 0x1F DUP3 ADD AND DUP3 ADD DUP1 PUSH1 0x40 MSTORE POP DUP2 ADD SWAP1 PUSH2 0x6B3 SWAP2 SWAP1 PUSH2 0xD81 JUMP JUMPDEST POP DUP2 PUSH1 0x1 PUSH1 0x1 PUSH1 0xA0 SHL SUB AND PUSH32 0xF42CF8C29487B42C009006CBA2A2A0CA0388229F3183E6E957E0A0B163585CB4 DUP3 PUSH1 0x40 MLOAD PUSH2 0x6EF SWAP2 DUP2 MSTORE PUSH1 0x20 ADD SWAP1 JUMP JUMPDEST PUSH1 0x40 MLOAD DUP1 SWAP2 SUB SWAP1 LOG2 PUSH2 0x701 PUSH1 0x1 PUSH1 0x0 SSTORE JUMP JUMPDEST POP POP JUMP JUMPDEST PUSH2 0x70D PUSH2 0xBE4 JUMP JUMPDEST PUSH2 0x717 PUSH1 0x0 PUSH2 0xC3E JUMP JUMPDEST JUMP JUMPDEST PUSH2 0x721 PUSH2 0xB8B JUMP JUMPDEST PUSH1 0x0 DUP2 GT PUSH2 0x741 JUMPI PUSH1 0x40 MLOAD PUSH3 0x461BCD PUSH1 0xE5 SHL DUP2 MSTORE PUSH1 0x4 ADD PUSH2 0x21F SWAP1 PUSH2 0xD11 JUMP JUMPDEST PUSH1 0x40 MLOAD PUSH4 0x23B872DD PUSH1 0xE0 SHL DUP2 MSTORE CALLER PUSH1 0x4 DUP3 ADD MSTORE ADDRESS PUSH1 0x24 DUP3 ADD MSTORE PUSH1 0x44 DUP2 ADD DUP3 SWAP1 MSTORE PUSH32 0x0 PUSH1 0x1 PUSH1 0x1 PUSH1 0xA0 SHL SUB AND SWAP1 PUSH4 0x23B872DD SWAP1 PUSH1 0x64 ADD PUSH1 0x20 PUSH1 0x40 MLOAD DUP1 DUP4 SUB DUP2 PUSH1 0x0 DUP8 GAS CALL ISZERO DUP1 ISZERO PUSH2 0x7B4 JUMPI RETURNDATASIZE PUSH1 0x0 DUP1 RETURNDATACOPY RETURNDATASIZE PUSH1 0x0 REVERT JUMPDEST POP POP POP POP PUSH1 0x40 MLOAD RETURNDATASIZE PUSH1 0x1F NOT PUSH1 0x1F DUP3 ADD AND DUP3 ADD DUP1 PUSH1 0x40 MSTORE POP DUP2 ADD SWAP1 PUSH2 0x7D8 SWAP2 SWAP1 PUSH2 0xD81 JUMP JUMPDEST POP CALLER PUSH1 0x0 SWAP1 DUP2 MSTORE PUSH1 0x3 PUSH1 0x20 MSTORE PUSH1 0x40 DUP2 KECCAK256 DUP1 SLOAD DUP4 SWAP3 SWAP1 PUSH2 0x7F8 SWAP1 DUP5 SWAP1 PUSH2 0xDA3 JUMP JUMPDEST SWAP3 POP POP DUP2 SWAP1 SSTORE POP DUP1 PUSH1 0x4 PUSH1 0x0 DUP3 DUP3 SLOAD PUSH2 0x811 SWAP2 SWAP1 PUSH2 0xDA3 JUMP JUMPDEST SWAP1 SWAP2 SSTORE POP POP PUSH1 0x40 MLOAD DUP2 DUP2 MSTORE CALLER SWAP1 PUSH32 0x7FF07CE9A287649537E4B012E45CF012D90228B12E2B56BB03515A6B5436FCDF SWAP1 PUSH1 0x20 ADD PUSH2 0x45B JUMP JUMPDEST PUSH1 0x2 SLOAD PUSH1 0x1 PUSH1 0x1 PUSH1 0xA0 SHL SUB AND CALLER EQ PUSH2 0x891 JUMPI PUSH1 0x40 MLOAD PUSH3 0x461BCD PUSH1 0xE5 SHL DUP2 MSTORE PUSH1 0x20 PUSH1 0x4 DUP3 ADD MSTORE PUSH1 0xC PUSH1 0x24 DUP3 ADD MSTORE PUSH12 0x27B7363C9036B0B730B3B2B9 PUSH1 0xA1 SHL PUSH1 0x44 DUP3 ADD MSTORE PUSH1 0x64 ADD PUSH2 0x21F JUMP JUMPDEST PUSH2 0x899 PUSH2 0xB8B JUMP JUMPDEST PUSH1 0x1 PUSH1 0x1 PUSH1 0xA0 SHL SUB DUP3 AND PUSH2 0x8DF JUMPI PUSH1 0x40 MLOAD PUSH3 0x461BCD PUSH1 0xE5 SHL DUP2 MSTORE PUSH1 0x20 PUSH1 0x4 DUP3 ADD MSTORE PUSH1 0xD PUSH1 0x24 DUP3 ADD MSTORE PUSH13 0x24B73B30B634B2103830BCB2B9 PUSH1 0x99 SHL PUSH1 0x44 DUP3 ADD MSTORE PUSH1 0x64 ADD PUSH2 0x21F JUMP JUMPDEST PUSH1 0x0 DUP2 GT PUSH2 0x8FF JUMPI PUSH1 0x40 MLOAD PUSH3 0x461BCD PUSH1 0xE5 SHL DUP2 MSTORE PUSH1 0x4 ADD PUSH2 0x21F SWAP1 PUSH2 0xD11 JUMP JUMPDEST PUSH1 0x40 MLOAD PUSH4 0x23B872DD PUSH1 0xE0 SHL DUP2 MSTORE PUSH1 0x1 PUSH1 0x1 PUSH1 0xA0 SHL SUB DUP4 DUP2 AND PUSH1 0x4 DUP4 ADD MSTORE ADDRESS PUSH1 0x24 DUP4 ADD MSTORE PUSH1 0x44 DUP3 ADD DUP4 SWAP1 MSTORE PUSH32 0x0 AND SWAP1 PUSH4 0x23B872DD SWAP1 PUSH1 0x64 ADD PUSH1 0x20 PUSH1 0x40 MLOAD DUP1 DUP4 SUB DUP2 PUSH1 0x0 DUP8 GAS CALL ISZERO DUP1 ISZERO PUSH2 0x974 JUMPI RETURNDATASIZE PUSH1 0x0 DUP1 RETURNDATACOPY RETURNDATASIZE PUSH1 0x0 REVERT JUMPDEST POP POP POP POP PUSH1 0x40 MLOAD RETURNDATASIZE PUSH1 0x1F NOT PUSH1 0x1F DUP3 ADD AND DUP3 ADD DUP1 PUSH1 0x40 MSTORE POP DUP2 ADD SWAP1 PUSH2 0x998 SWAP2 SWAP1 PUSH2 0xD81 JUMP JUMPDEST POP DUP1 PUSH1 0x4 PUSH1 0x0 DUP3 DUP3 SLOAD PUSH2 0x9AB SWAP2 SWAP1 PUSH2 0xDA3 JUMP JUMPDEST SWAP1 SWAP2 SSTORE POP POP PUSH1 0x40 MLOAD DUP2 DUP2 MSTORE PUSH1 0x1 PUSH1 0x1 PUSH1 0xA0 SHL SUB DUP4 AND SWAP1 PUSH32 0x55064F59AB6628BA9C529DA6FF89620B1899E1BF0B98385523EB11FBE6621AB SWAP1 PUSH1 0x20 ADD PUSH2 0x6EF JUMP JUMPDEST PUSH1 0x40 MLOAD PUSH4 0x70A08231 PUSH1 0xE0 SHL DUP2 MSTORE ADDRESS PUSH1 0x4 DUP3 ADD MSTORE PUSH1 0x0 SWAP1 PUSH32 0x0 PUSH1 0x1 PUSH1 0x1 PUSH1 0xA0 SHL SUB AND SWAP1 PUSH4 0x70A08231 SWAP1 PUSH1 0x24 ADD PUSH1 0x20 PUSH1 0x40 MLOAD DUP1 DUP4 SUB DUP2 DUP7 GAS STATICCALL ISZERO DUP1 ISZERO PUSH2 0xA52 JUMPI RETURNDATASIZE PUSH1 0x0 DUP1 RETURNDATACOPY RETURNDATASIZE PUSH1 0x0 REVERT JUMPDEST POP POP POP POP PUSH1 0x40 MLOAD RETURNDATASIZE PUSH1 0x1F NOT PUSH1 0x1F DUP3 ADD AND DUP3 ADD DUP1 PUSH1 0x40 MSTORE POP DUP2 ADD SWAP1 PUSH2 0xA76 SWAP2 SWAP1 PUSH2 0xD39 JUMP JUMPDEST SWAP1 POP SWAP1 JUMP JUMPDEST PUSH2 0xA83 PUSH2 0xBE4 JUMP JUMPDEST PUSH1 0x1 PUSH1 0x1 PUSH1 0xA0 SHL SUB DUP2 AND PUSH2 0xACB JUMPI PUSH1 0x40 MLOAD PUSH3 0x461BCD PUSH1 0xE5 SHL DUP2 MSTORE PUSH1 0x20 PUSH1 0x4 DUP3 ADD MSTORE PUSH1 0xF PUSH1 0x24 DUP3 ADD MSTORE PUSH15 0x24B73B30B634B21036B0B730B3B2B9 PUSH1 0x89 SHL PUSH1 0x44 DUP3 ADD MSTORE PUSH1 0x64 ADD PUSH2 0x21F JUMP JUMPDEST PUSH1 0x2 DUP1 SLOAD PUSH1 0x1 PUSH1 0x1 PUSH1 0xA0 SHL SUB NOT AND PUSH1 0x1 PUSH1 0x1 PUSH1 0xA0 SHL SUB DUP4 AND SWAP1 DUP2 OR SWAP1 SWAP2 SSTORE PUSH1 0x40 MLOAD PUSH32 0x2C1C11AF44AA5608F1DCA38C00275C30EA091E02417D36E70E9A1538689C433D SWAP1 PUSH1 0x0 SWAP1 LOG2 POP JUMP JUMPDEST PUSH2 0xB1D PUSH2 0xBE4 JUMP JUMPDEST PUSH1 0x1 PUSH1 0x1 PUSH1 0xA0 SHL SUB DUP2 AND PUSH2 0xB82 JUMPI PUSH1 0x40 MLOAD PUSH3 0x461BCD PUSH1 0xE5 SHL DUP2 MSTORE PUSH1 0x20 PUSH1 0x4 DUP3 ADD MSTORE PUSH1 0x26 PUSH1 0x24 DUP3 ADD MSTORE PUSH32 0x4F776E61626C653A206E6577206F776E657220697320746865207A65726F2061 PUSH1 0x44 DUP3 ADD MSTORE PUSH6 0x646472657373 PUSH1 0xD0 SHL PUSH1 0x64 DUP3 ADD MSTORE PUSH1 0x84 ADD PUSH2 0x21F JUMP JUMPDEST PUSH2 0x46D DUP2 PUSH2 0xC3E JUMP JUMPDEST PUSH1 0x2 PUSH1 0x0 SLOAD SUB PUSH2 0xBDD JUMPI PUSH1 0x40 MLOAD PUSH3 0x461BCD PUSH1 0xE5 SHL DUP2 MSTORE PUSH1 0x20 PUSH1 0x4 DUP3 ADD MSTORE PUSH1 0x1F PUSH1 0x24 DUP3 ADD MSTORE PUSH32 0x5265656E7472616E637947756172643A207265656E7472616E742063616C6C00 PUSH1 0x44 DUP3 ADD MSTORE PUSH1 0x64 ADD PUSH2 0x21F JUMP JUMPDEST PUSH1 0x2 PUSH1 0x0 SSTORE JUMP JUMPDEST PUSH1 0x1 SLOAD PUSH1 0x1 PUSH1 0x1 PUSH1 0xA0 SHL SUB AND CALLER EQ PUSH2 0x717 JUMPI PUSH1 0x40 MLOAD PUSH3 0x461BCD PUSH1 0xE5 SHL DUP2 MSTORE PUSH1 0x20 PUSH1 0x4 DUP3 ADD DUP2 SWAP1 MSTORE PUSH1 0x24 DUP3 ADD MSTORE PUSH32 0x4F776E61626C653A2063616C6C6572206973206E6F7420746865206F776E6572 PUSH1 0x44 DUP3 ADD MSTORE PUSH1 0x64 ADD PUSH2 0x21F JUMP JUMPDEST PUSH1 0x1 DUP1 SLOAD PUSH1 0x1 PUSH1 0x1 PUSH1 0xA0 SHL SUB DUP4 DUP2 AND PUSH1 0x1 PUSH1 0x1 PUSH1 0xA0 SHL SUB NOT DUP4 AND DUP2 OR SWAP1 SWAP4 SSTORE PUSH1 0x40 MLOAD SWAP2 AND SWAP2 SWAP1 DUP3 SWAP1 PUSH32 0x8BE0079C531659141344CD1FD0A4F28419497F9722A3DAAFE3B4186F6B6457E0 SWAP1 PUSH1 0x0 SWAP1 LOG3 POP POP JUMP JUMPDEST PUSH1 0x0 PUSH1 0x20 DUP3 DUP5 SUB SLT ISZERO PUSH2 0xCA2 JUMPI PUSH1 0x0 DUP1 REVERT JUMPDEST POP CALLDATALOAD SWAP2 SWAP1 POP JUMP JUMPDEST DUP1 CALLDATALOAD PUSH1 0x1 PUSH1 0x1 PUSH1 0xA0 SHL SUB DUP2 AND DUP2 EQ PUSH2 0xCC0 JUMPI PUSH1 0x0 DUP1 REVERT JUMPDEST SWAP2 SWAP1 POP JUMP JUMPDEST PUSH1 0x0 DUP1 PUSH1 0x40 DUP4 DUP6 SUB SLT ISZERO PUSH2 0xCD8 JUMPI PUSH1 0x0 DUP1 REVERT JUMPDEST PUSH2 0xCE1 DUP4 PUSH2 0xCA9 JUMP JUMPDEST SWAP5 PUSH1 0x20 SWAP4 SWAP1 SWAP4 ADD CALLDATALOAD SWAP4 POP POP POP JUMP JUMPDEST PUSH1 0x0 PUSH1 0x20 DUP3 DUP5 SUB SLT ISZERO PUSH2 0xD01 JUMPI PUSH1 0x0 DUP1 REVERT JUMPDEST PUSH2 0xD0A DUP3 PUSH2 0xCA9 JUMP JUMPDEST SWAP4 SWAP3 POP POP POP JUMP JUMPDEST PUSH1 0x20 DUP1 DUP3 MSTORE PUSH1 0xE SWAP1 DUP3 ADD MSTORE PUSH14 0x125B9D985B1A5908185B5BDD5B9D PUSH1 0x92 SHL PUSH1 0x40 DUP3 ADD MSTORE PUSH1 0x60 ADD SWAP1 JUMP JUMPDEST PUSH1 0x0 PUSH1 0x20 DUP3 DUP5 SUB SLT ISZERO PUSH2 0xD4B JUMPI PUSH1 0x0 DUP1 REVERT JUMPDEST POP MLOAD SWAP2 SWAP1 POP JUMP JUMPDEST PUSH4 0x4E487B71 PUSH1 0xE0 SHL PUSH1 0x0 MSTORE PUSH1 0x11 PUSH1 0x4 MSTORE PUSH1 0x24 PUSH1 0x0 REVERT JUMPDEST DUP2 DUP2 SUB DUP2 DUP2 GT ISZERO PUSH2 0xD7B JUMPI PUSH2 0xD7B PUSH2 0xD52 JUMP JUMPDEST SWAP3 SWAP2 POP POP JUMP JUMPDEST PUSH1 0x0 PUSH1 0x20 DUP3 DUP5 SUB SLT ISZERO PUSH2 0xD93 JUMPI PUSH1 0x0 DUP1 REVERT JUMPDEST DUP2 MLOAD DUP1 ISZERO ISZERO DUP2 EQ PUSH2 0xD0A JUMPI PUSH1 0x0 DUP1 REVERT JUMPDEST DUP1 DUP3 ADD DUP1 DUP3 GT ISZERO PUSH2 0xD7B JUMPI PUSH2 0xD7B PUSH2 0xD52 JUMP INVALID LOG2 PUSH5 0x6970667358 0x22 SLT KECCAK256 RETURNDATASIZE MSIZE PUSH22 0x259251A68947CCB8D210BEE153C7DED21E5BD38636D 0xD5 PUSH32 0x90B442E8D864736F6C6343000814003300000000000000000000000000000000 "},"methodIdentifiers":{"collectPremium(address,uint256)":"8c8ac76d","depositLiquidity(uint256)":"76d58e1a","liquidityProvided(address)":"65119f72","manager()":"481c6a75","owner()":"8da5cb5b","payoutClaim(address,uint256)":"62409011","poolBalance()":"96365d44","renounceOwnership()":"715018a6","setManager(address)":"d0ebdbe7","stableToken()":"a9d75b2b","totalLiquidity()":"15770f92","transferOwnership(address)":"f2fde38b","withdrawLiquidity(uint256)":"0a861f2a"}}}}}