{
  "_format": "hh-sol-artifact-1",
  "contractName": "InsuranceManager",
  "sourceName": "contracts/InsuranceManager.sol",
  "abi": [
    {
      "inputs": [
        {
          "internalType": "address",
          "name": "nft",
          "type": "address"
        },
        {
          "internalType": "address",
          "name": "pool",
          "type": "address"
        },
        {
          "internalType": "address",
          "name": "oracle",
          "type": "address"
        }
      ],
      "stateMutability": "nonpayable",
      "type": "constructor"
    },
    {
      "anonymous": false,
      "inputs": [
        {
          "indexed": false,
          "internalType": "uint256",
          "name": "coverageFactorBps",
          "type": "uint256"
        },
        {
          "indexed": false,
          "internalType": "uint256",
          "name": "maxCoverageBps",
          "type": "uint256"
        },
        {
          "indexed": false,
          "internalType": "uint256",
          "name": "minLockPeriod",
          "type": "uint256"
        }
      ],
      "name": "CoverageParamsUpdated",
      "type": "event"
    },
    {
      "anonymous": false,
      "inputs": [
        {
          "indexed": true,
          "internalType": "address",
          "name": "liquidationEngine",
          "type": "address"
        }
      ],
      "name": "LiquidationEngineUpdated",
      "type": "event"
    },
    {
      "anonymous": false,
      "inputs": [
        {
          "indexed": true,
          "internalType": "address",
          "name": "borrower",
          "type": "address"
        },
        {
          "indexed": true,
          "internalType": "uint256",
          "name": "loanId",
          "type": "uint256"
        },
        {
          "indexed": false,
          "internalType": "uint256",
          "name": "lossAmount",
          "type": "uint256"
        }
      ],
      "name": "LiquidationRecorded",
      "type": "event"
    },
    {
      "anonymous": false,
      "inputs": [
        {
          "indexed": true,
          "internalType": "address",
          "name": "previousOwner",
          "type": "address"
        },
        {
          "indexed": true,
          "internalType": "address",
          "name": "newOwner",
          "type": "address"
        }
      ],
      "name": "OwnershipTransferred",
      "type": "event"
    },
    {
      "anonymous": false,
      "inputs": [
        {
          "indexed": true,
          "internalType": "address",
          "name": "borrower",
          "type": "address"
        },
        {
          "indexed": true,
          "internalType": "uint256",
          "name": "policyId",
          "type": "uint256"
        },
        {
          "indexed": false,
          "internalType": "uint256",
          "name": "payoutAmount",
          "type": "uint256"
        }
      ],
      "name": "PolicyClaimed",
      "type": "event"
    },
    {
      "anonymous": false,
      "inputs": [
        {
          "indexed": true,
          "internalType": "address",
          "name": "borrower",
          "type": "address"
        },
        {
          "indexed": true,
          "internalType": "uint256",
          "name": "policyId",
          "type": "uint256"
        },
        {
          "indexed": true,
          "internalType": "uint256",
          "name": "loanId",
          "type": "uint256"
        },
        {
          "indexed": false,
          "internalType": "uint256",
          "name": "premium",
          "type": "uint256"
        },
        {
          "indexed": false,
          "internalType": "uint256",
          "name": "coverageAmount",
          "type": "uint256"
        }
      ],
      "name": "PolicyPurchased",
      "type": "event"
    },
    {
      "inputs": [
        {
          "internalType": "uint256",
          "name": "loanId",
          "type": "uint256"
        },
        {
          "internalType": "uint256",
          "name": "loanAmount",
          "type": "uint256"
        },
        {
          "internalType": "uint256",
          "name": "coverageAmount",
          "type": "uint256"
        },
        {
          "internalType": "uint256",
          "name": "duration",
          "type": "uint256"
        }
      ],
      "name": "buyPolicy",
      "outputs": [
        {
          "internalType": "uint256",
          "name": "policyId",
          "type": "uint256"
        },
        {
          "internalType": "uint256",
          "name": "premium",
          "type": "uint256"
        }
      ],
      "stateMutability": "nonpayable",
      "type": "function"
    },
    {
      "inputs": [
        {
          "internalType": "uint256",
          "name": "policyId",
          "type": "uint256"
        }
      ],
      "name": "claimPolicy",
      "outputs": [
        {
          "internalType": "uint256",
          "name": "payoutAmount",
          "type": "uint256"
        }
      ],
      "stateMutability": "nonpayable",
      "type": "function"
    },
    {
      "inputs": [],
      "name": "coverageFactorBps",
      "outputs": [
        {
          "internalType": "uint256",
          "name": "",
          "type": "uint256"
        }
      ],
      "stateMutability": "view",
      "type": "function"
    },
    {
      "inputs": [],
      "name": "insuranceNFT",
      "outputs": [
        {
          "internalType": "contract InsuranceNFT",
          "name": "",
          "type": "address"
        }
      ],
      "stateMutability": "view",
      "type": "function"
    },
    {
      "inputs": [],
      "name": "insurancePool",
      "outputs": [
        {
          "internalType": "contract InsurancePool",
          "name": "",
          "type": "address"
        }
      ],
      "stateMutability": "view",
      "type": "function"
    },
    {
      "inputs": [],
      "name": "liquidationEngine",
      "outputs": [
        {
          "internalType": "address",
          "name": "",
          "type": "address"
        }
      ],
      "stateMutability": "view",
      "type": "function"
    },
    {
      "inputs": [],
      "name": "maxCoverageBps",
      "outputs": [
        {
          "internalType": "uint256",
          "name": "",
          "type": "uint256"
        }
      ],
      "stateMutability": "view",
      "type": "function"
    },
    {
      "inputs": [],
      "name": "minLockPeriod",
      "outputs": [
        {
          "internalType": "uint256",
          "name": "",
          "type": "uint256"
        }
      ],
      "stateMutability": "view",
      "type": "function"
    },
    {
      "inputs": [],
      "name": "owner",
      "outputs": [
        {
          "internalType": "address",
          "name": "",
          "type": "address"
        }
      ],
      "stateMutability": "view",
      "type": "function"
    },
    {
      "inputs": [
        {
          "internalType": "address",
          "name": "borrower",
          "type": "address"
        },
        {
          "internalType": "uint256",
          "name": "loanId",
          "type": "uint256"
        },
        {
          "internalType": "uint256",
          "name": "coverageAmount",
          "type": "uint256"
        }
      ],
      "name": "quotePremium",
      "outputs": [
        {
          "internalType": "uint256",
          "name": "premium",
          "type": "uint256"
        },
        {
          "internalType": "uint256",
          "name": "riskBps",
          "type": "uint256"
        }
      ],
      "stateMutability": "view",
      "type": "function"
    },
    {
      "inputs": [
        {
          "internalType": "address",
          "name": "borrower",
          "type": "address"
        },
        {
          "internalType": "uint256",
          "name": "loanId",
          "type": "uint256"
        },
        {
          "internalType": "uint256",
          "name": "lossAmount",
          "type": "uint256"
        }
      ],
      "name": "recordLiquidation",
      "outputs": [],
      "stateMutability": "nonpayable",
      "type": "function"
    },
    {
      "inputs": [
        {
          "internalType": "bytes32",
          "name": "",
          "type": "bytes32"
        }
      ],
      "name": "recordedLiquidationLoss",
      "outputs": [
        {
          "internalType": "uint256",
          "name": "",
          "type": "uint256"
        }
      ],
      "stateMutability": "view",
      "type": "function"
    },
    {
      "inputs": [],
      "name": "renounceOwnership",
      "outputs": [],
      "stateMutability": "nonpayable",
      "type": "function"
    },
    {
      "inputs": [],
      "name": "riskOracle",
      "outputs": [
        {
          "internalType": "contract RiskOracle",
          "name": "",
          "type": "address"
        }
      ],
      "stateMutability": "view",
      "type": "function"
    },
    {
      "inputs": [
        {
          "internalType": "uint256",
          "name": "_coverageFactorBps",
          "type": "uint256"
        },
        {
          "internalType": "uint256",
          "name": "_maxCoverageBps",
          "type": "uint256"
        },
        {
          "internalType": "uint256",
          "name": "_minLockPeriod",
          "type": "uint256"
        }
      ],
      "name": "setCoverageParams",
      "outputs": [],
      "stateMutability": "nonpayable",
      "type": "function"
    },
    {
      "inputs": [
        {
          "internalType": "address",
          "name": "engine",
          "type": "address"
        }
      ],
      "name": "setLiquidationEngine",
      "outputs": [],
      "stateMutability": "nonpayable",
      "type": "function"
    },
    {
      "inputs": [
        {
          "internalType": "address",
          "name": "newOwner",
          "type": "address"
        }
      ],
      "name": "transferOwnership",
      "outputs": [],
      "stateMutability": "nonpayable",
      "type": "function"
    }
  ],
  "bytecode": "0x60e0604052611388600255611770600355610e106004553480156200002357600080fd5b506040516200145d3803806200145d833981016040819052620000469162000155565b6200005133620000e8565b6001600160a01b038316158015906200007257506001600160a01b03821615155b80156200008757506001600160a01b03811615155b620000ca5760405162461bcd60e51b815260206004820152600f60248201526e496e76616c6964206164647265737360881b604482015260640160405180910390fd5b6001600160a01b0392831660805290821660a0521660c0526200019f565b600080546001600160a01b038381166001600160a01b0319831681178455604051919092169283917f8be0079c531659141344cd1fd0a4f28419497f9722a3daafe3b4186f6b6457e09190a35050565b80516001600160a01b03811681146200015057600080fd5b919050565b6000806000606084860312156200016b57600080fd5b620001768462000138565b9250620001866020850162000138565b9150620001966040850162000138565b90509250925092565b60805160a05160c05161125d6200020060003960008181610275015261084801526000818161023b0152818161063d0152610d2d01526000818161013b015281816102d6015281816103a8015281816105bf0152610dda015261125d6000f3fe608060405234801561001057600080fd5b506004361061010b5760003560e01c806373ae54b5116100a2578063ab2adc0011610071578063ab2adc0014610236578063cb60c8221461025d578063d50507fd14610270578063e74c64b714610297578063f2fde38b146102a057600080fd5b806373ae54b5146101e95780638da5cb5b146101f25780639e36a45614610203578063a87b978a1461022357600080fd5b80634ef58d60116100de5780634ef58d601461019d57806355b662f5146101c5578063561b1749146101d8578063715018a6146101e157600080fd5b80632aea118d14610110578063328eb4631461013657806344bf3c72146101755780634d298abd14610188575b600080fd5b61012361011e366004610fc0565b6102b3565b6040519081526020015b60405180910390f35b61015d7f000000000000000000000000000000000000000000000000000000000000000081565b6040516001600160a01b03909116815260200161012d565b60015461015d906001600160a01b031681565b61019b610196366004610fee565b6106fa565b005b6101b06101ab366004611012565b610793565b6040805192835260208301919091520161012d565b61019b6101d3366004611047565b610936565b61012360025481565b61019b610a2e565b61012360045481565b6000546001600160a01b031661015d565b610123610211366004610fc0565b60056020526000908152604090205481565b61019b610231366004611012565b610a42565b61015d7f000000000000000000000000000000000000000000000000000000000000000081565b6101b061026b366004611073565b610bc4565b61015d7f000000000000000000000000000000000000000000000000000000000000000081565b61012360035481565b61019b6102ae366004610fee565b610e9d565b6040516331a9108f60e11b81526004810182905260009033906001600160a01b037f00000000000000000000000000000000000000000000000000000000000000001690636352211e90602401602060405180830381865afa15801561031d573d6000803e3d6000fd5b505050506040513d601f19601f8201168201806040525081019061034191906110b5565b6001600160a01b03161461038f5760405162461bcd60e51b815260206004820152601060248201526f2737ba103837b634b1bc9037bbb732b960811b60448201526064015b60405180910390fd5b604051632b07fce360e01b8152600481018390526000907f00000000000000000000000000000000000000000000000000000000000000006001600160a01b031690632b07fce39060240161012060405180830381865afa1580156103f8573d6000803e3d6000fd5b505050506040513d601f19601f8201168201806040525081019061041c919061111a565b90508061010001516104625760405162461bcd60e51b815260206004820152600f60248201526e506f6c69637920696e61637469766560881b6044820152606401610386565b8060e00151156104a65760405162461bcd60e51b815260206004820152600f60248201526e105b1c9958591e4818db185a5b5959608a1b6044820152606401610386565b8060c001514211156104eb5760405162461bcd60e51b815260206004820152600e60248201526d141bdb1a58de48195e1c1a5c995960921b6044820152606401610386565b60008160000151826020015160405160200161052592919060609290921b6bffffffffffffffffffffffff19168252601482015260340190565b60408051601f19818403018152918152815160209283012060008181526005909352912054909150806105925760405162461bcd60e51b8152602060048201526015602482015274139bc81b1a5c5d5a59185d1a5bdb881c9958dbdc99605a1b6044820152606401610386565b80935082604001518411156105a957826040015193505b60405163c2ccc8ef60e01b8152600481018690527f00000000000000000000000000000000000000000000000000000000000000006001600160a01b03169063c2ccc8ef90602401600060405180830381600087803b15801561060b57600080fd5b505af115801561061f573d6000803e3d6000fd5b5050604051636240901160e01b8152336004820152602481018790527f00000000000000000000000000000000000000000000000000000000000000006001600160a01b0316925063624090119150604401600060405180830381600087803b15801561068b57600080fd5b505af115801561069f573d6000803e3d6000fd5b505050600083815260056020526040808220919091555186915033907fed750b94c78c97aa2b3696061ef8e68e83866262d95283e35e178b024b4837cc906106ea9088815260200190565b60405180910390a3505050919050565b610702610f16565b6001600160a01b0381166107495760405162461bcd60e51b815260206004820152600e60248201526d496e76616c696420656e67696e6560901b6044820152606401610386565b600180546001600160a01b0319166001600160a01b0383169081179091556040517f46f5f516f6e3226c27d878e2a87f74ebdc95e752f7d5de0f102a231a8d28f74590600090a250565b6000806001600160a01b0385166107df5760405162461bcd60e51b815260206004820152601060248201526f24b73b30b634b2103137b93937bbb2b960811b6044820152606401610386565b600083116108225760405162461bcd60e51b815260206004820152601060248201526f496e76616c696420636f76657261676560801b6044820152606401610386565b604051636953637b60e01b81526001600160a01b038681166004830152602482018690527f00000000000000000000000000000000000000000000000000000000000000001690636953637b90604401602060405180830381865afa15801561088f573d6000803e3d6000fd5b505050506040513d601f19601f820116820180604052508101906108b391906111a6565b9050600081116108f85760405162461bcd60e51b815260206004820152601060248201526f5269736b20756e617661696c61626c6560801b6044820152606401610386565b6002546305f5e1009061090b83866111d5565b61091591906111d5565b61091f91906111f2565b91508160000361092e57600191505b935093915050565b61093e610f16565b6127108311156109905760405162461bcd60e51b815260206004820152601760248201527f496e76616c696420636f76657261676520666163746f720000000000000000006044820152606401610386565b6127108211156109d95760405162461bcd60e51b8152602060048201526014602482015273496e76616c6964206d617820636f76657261676560601b6044820152606401610386565b60028390556003829055600481905560408051848152602081018490529081018290527f52c85ebb83df3ee630bb87f1fc0dbbc70844f066d7c7af71cc33ed70d81c7f819060600160405180910390a1505050565b610a36610f16565b610a406000610f70565b565b6001546001600160a01b0316331480610a6557506000546001600160a01b031633145b610aa75760405162461bcd60e51b81526020600482015260136024820152722ab730baba3437b934bd32b21031b0b63632b960691b6044820152606401610386565b6001600160a01b038316610af05760405162461bcd60e51b815260206004820152601060248201526f24b73b30b634b2103137b93937bbb2b960811b6044820152606401610386565b60008111610b2f5760405162461bcd60e51b815260206004820152600c60248201526b496e76616c6964206c6f737360a01b6044820152606401610386565b6040516bffffffffffffffffffffffff19606085901b1660208201526034810183905260009060540160408051808303601f1901815282825280516020918201206000818152600583529290922085905584835290925084916001600160a01b038716917f6dedf4870418a0998fa354d0e3f2908e6a67eb9fe466cbf33be5b99a67a58561910160405180910390a350505050565b600080600454831015610c0e5760405162461bcd60e51b8152602060048201526012602482015271111d5c985d1a5bdb881d1bdbc81cda1bdc9d60721b6044820152606401610386565b60008411610c525760405162461bcd60e51b815260206004820152601160248201527010dbdd995c9859d9481c995c5d5a5c9959607a1b6044820152606401610386565b60008511610c995760405162461bcd60e51b8152602060048201526014602482015273131bd85b88185b5bdd5b9d081c995c5d5a5c995960621b6044820152606401610386565b600061271060035487610cac91906111d5565b610cb691906111f2565b905080851115610cff5760405162461bcd60e51b81526020600482015260146024820152730436f7665726167652065786365656473206361760641b6044820152606401610386565b6000610d0c338988610793565b604051638c8ac76d60e01b81523360048201526024810183905291945091507f00000000000000000000000000000000000000000000000000000000000000006001600160a01b031690638c8ac76d90604401600060405180830381600087803b158015610d7957600080fd5b505af1158015610d8d573d6000803e3d6000fd5b5050505060008542610d9f9190611214565b60405163137d90c360e01b8152336004820152602481018b905260448101899052606481018690526084810184905260a481018290529091507f00000000000000000000000000000000000000000000000000000000000000006001600160a01b03169063137d90c39060c4016020604051808303816000875af1158015610e2b573d6000803e3d6000fd5b505050506040513d601f19601f82011682018060405250810190610e4f91906111a6565b60408051868152602081018a90529196508a91879133917f8e63e251f17c4f8c8dd082b9641ba8a3a04d5506e4a1b1782c6e3f57abc39374910160405180910390a450505094509492505050565b610ea5610f16565b6001600160a01b038116610f0a5760405162461bcd60e51b815260206004820152602660248201527f4f776e61626c653a206e6577206f776e657220697320746865207a65726f206160448201526564647265737360d01b6064820152608401610386565b610f1381610f70565b50565b6000546001600160a01b03163314610a405760405162461bcd60e51b815260206004820181905260248201527f4f776e61626c653a2063616c6c6572206973206e6f7420746865206f776e65726044820152606401610386565b600080546001600160a01b038381166001600160a01b0319831681178455604051919092169283917f8be0079c531659141344cd1fd0a4f28419497f9722a3daafe3b4186f6b6457e09190a35050565b600060208284031215610fd257600080fd5b5035919050565b6001600160a01b0381168114610f1357600080fd5b60006020828403121561100057600080fd5b813561100b81610fd9565b9392505050565b60008060006060848603121561102757600080fd5b833561103281610fd9565b95602085013595506040909401359392505050565b60008060006060848603121561105c57600080fd5b505081359360208301359350604090920135919050565b6000806000806080858703121561108957600080fd5b5050823594602084013594506040840135936060013592509050565b80516110b081610fd9565b919050565b6000602082840312156110c757600080fd5b815161100b81610fd9565b604051610120810167ffffffffffffffff8111828210171561110457634e487b7160e01b600052604160045260246000fd5b60405290565b805180151581146110b057600080fd5b6000610120828403121561112d57600080fd5b6111356110d2565b61113e836110a5565b81526020830151602082015260408301516040820152606083015160608201526080830151608082015260a083015160a082015260c083015160c082015261118860e0840161110a565b60e082015261010061119b81850161110a565b908201529392505050565b6000602082840312156111b857600080fd5b5051919050565b634e487b7160e01b600052601160045260246000fd5b80820281158282048414176111ec576111ec6111bf565b92915050565b60008261120f57634e487b7160e01b600052601260045260246000fd5b500490565b808201808211156111ec576111ec6111bf56fea26469706673582212208853224754c74ab5c152d1fb023659281f14c19c5f85a66cbf4ba1306ecee4ff64736f6c63430008140033",
  "linkReferences": {},
  "deployedLinkReferences": {}
}