{
  "_format": "hh-sol-artifact-1",
  "contractName": "InsuranceNFT",
  "sourceName": "contracts/InsuranceNFT.sol",
  "abi": [
    {
      "inputs": [],
      "stateMutability": "nonpayable",
      "type": "constructor"
    },
    {
      "anonymous": false,
      "inputs": [
        {
          "indexed": true,
          "internalType": "address",
          "name": "owner",
          "type": "address"
        },
        {
          "indexed": true,
          "internalType": "address",
          "name": "approved",
          "type": "address"
        },
        {
          "indexed": true,
          "internalType": "uint256",
          "name": "tokenId",
          "type": "uint256"
        }
      ],
      "name": "Approval",
      "type": "event"
    },
    {
      "anonymous": false,
      "inputs": [
        {
          "indexed": true,
          "internalType": "address",
          "name": "owner",
          "type": "address"
        },
        {
          "indexed": true,
          "internalType": "address",
          "name": "operator",
          "type": "address"
        },
        {
          "indexed": false,
          "internalType": "bool",
          "name": "approved",
          "type": "bool"
        }
      ],
      "name": "ApprovalForAll",
      "type": "event"
    },
    {
      "anonymous": false,
      "inputs": [
        {
          "indexed": true,
          "internalType": "address",
          "name": "manager",
          "type": "address"
        }
      ],
      "name": "ManagerUpdated",
      "type": "event"
    },
    {
      "anonymous": false,
      "inputs": [
        {
          "indexed": true,
          "internalType": "address",
          "name": "previousOwner",
          "type": "address"
        },
        {
          "indexed": true,
          "internalType": "address",
          "name": "newOwner",
          "type": "address"
        }
      ],
      "name": "OwnershipTransferred",
      "type": "event"
    },
    {
      "anonymous": false,
      "inputs": [
        {
          "indexed": true,
          "internalType": "uint256",
          "name": "policyId",
          "type": "uint256"
        },
        {
          "indexed": true,
          "internalType": "address",
          "name": "borrower",
          "type": "address"
        }
      ],
      "name": "PolicyClaimed",
      "type": "event"
    },
    {
      "anonymous": false,
      "inputs": [
        {
          "indexed": true,
          "internalType": "uint256",
          "name": "policyId",
          "type": "uint256"
        }
      ],
      "name": "PolicyExpired",
      "type": "event"
    },
    {
      "anonymous": false,
      "inputs": [
        {
          "indexed": true,
          "internalType": "uint256",
          "name": "policyId",
          "type": "uint256"
        },
        {
          "indexed": true,
          "internalType": "address",
          "name": "borrower",
          "type": "address"
        },
        {
          "indexed": true,
          "internalType": "uint256",
          "name": "loanId",
          "type": "uint256"
        },
        {
          "indexed": false,
          "internalType": "uint256",
          "name": "coverageAmount",
          "type": "uint256"
        },
        {
          "indexed": false,
          "internalType": "uint256",
          "name": "premiumPaid",
          "type": "uint256"
        },
        {
          "indexed": false,
          "internalType": "uint256",
          "name": "expiry",
          "type": "uint256"
        }
      ],
      "name": "PolicyMinted",
      "type": "event"
    },
    {
      "anonymous": false,
      "inputs": [
        {
          "indexed": true,
          "internalType": "address",
          "name": "from",
          "type": "address"
        },
        {
          "indexed": true,
          "internalType": "address",
          "name": "to",
          "type": "address"
        },
        {
          "indexed": true,
          "internalType": "uint256",
          "name": "tokenId",
          "type": "uint256"
        }
      ],
      "name": "Transfer",
      "type": "event"
    },
    {
      "inputs": [
        {
          "internalType": "address",
          "name": "to",
          "type": "address"
        },
        {
          "internalType": "uint256",
          "name": "tokenId",
          "type": "uint256"
        }
      ],
      "name": "approve",
      "outputs": [],
      "stateMutability": "nonpayable",
      "type": "function"
    },
    {
      "inputs": [
        {
          "internalType": "address",
          "name": "owner",
          "type": "address"
        }
      ],
      "name": "balanceOf",
      "outputs": [
        {
          "internalType": "uint256",
          "name": "",
          "type": "uint256"
        }
      ],
      "stateMutability": "view",
      "type": "function"
    },
    {
      "inputs": [
        {
          "internalType": "uint256",
          "name": "tokenId",
          "type": "uint256"
        }
      ],
      "name": "getApproved",
      "outputs": [
        {
          "internalType": "address",
          "name": "",
          "type": "address"
        }
      ],
      "stateMutability": "view",
      "type": "function"
    },
    {
      "inputs": [
        {
          "internalType": "uint256",
          "name": "policyId",
          "type": "uint256"
        }
      ],
      "name": "getPolicy",
      "outputs": [
        {
          "components": [
            {
              "internalType": "address",
              "name": "borrower",
              "type": "address"
            },
            {
              "internalType": "uint256",
              "name": "loanId",
              "type": "uint256"
            },
            {
              "internalType": "uint256",
              "name": "coverageAmount",
              "type": "uint256"
            },
            {
              "internalType": "uint256",
              "name": "premiumPaid",
              "type": "uint256"
            },
            {
              "internalType": "uint256",
              "name": "riskBps",
              "type": "uint256"
            },
            {
              "internalType": "uint256",
              "name": "startTime",
              "type": "uint256"
            },
            {
              "internalType": "uint256",
              "name": "expiry",
              "type": "uint256"
            },
            {
              "internalType": "bool",
              "name": "isClaimed",
              "type": "bool"
            },
            {
              "internalType": "bool",
              "name": "isActive",
              "type": "bool"
            }
          ],
          "internalType": "struct InsuranceNFT.Policy",
          "name": "",
          "type": "tuple"
        }
      ],
      "stateMutability": "view",
      "type": "function"
    },
    {
      "inputs": [
        {
          "internalType": "address",
          "name": "owner",
          "type": "address"
        },
        {
          "internalType": "address",
          "name": "operator",
          "type": "address"
        }
      ],
      "name": "isApprovedForAll",
      "outputs": [
        {
          "internalType": "bool",
          "name": "",
          "type": "bool"
        }
      ],
      "stateMutability": "view",
      "type": "function"
    },
    {
      "inputs": [
        {
          "internalType": "uint256",
          "name": "policyId",
          "type": "uint256"
        }
      ],
      "name": "isPolicyActive",
      "outputs": [
        {
          "internalType": "bool",
          "name": "",
          "type": "bool"
        }
      ],
      "stateMutability": "view",
      "type": "function"
    },
    {
      "inputs": [],
      "name": "manager",
      "outputs": [
        {
          "internalType": "address",
          "name": "",
          "type": "address"
        }
      ],
      "stateMutability": "view",
      "type": "function"
    },
    {
      "inputs": [
        {
          "internalType": "uint256",
          "name": "policyId",
          "type": "uint256"
        }
      ],
      "name": "markPolicyClaimed",
      "outputs": [],
      "stateMutability": "nonpayable",
      "type": "function"
    },
    {
      "inputs": [
        {
          "internalType": "uint256",
          "name": "policyId",
          "type": "uint256"
        }
      ],
      "name": "markPolicyExpired",
      "outputs": [],
      "stateMutability": "nonpayable",
      "type": "function"
    },
    {
      "inputs": [
        {
          "internalType": "address",
          "name": "borrower",
          "type": "address"
        },
        {
          "internalType": "uint256",
          "name": "loanId",
          "type": "uint256"
        },
        {
          "internalType": "uint256",
          "name": "coverageAmount",
          "type": "uint256"
        },
        {
          "internalType": "uint256",
          "name": "premiumPaid",
          "type": "uint256"
        },
        {
          "internalType": "uint256",
          "name": "riskBps",
          "type": "uint256"
        },
        {
          "internalType": "uint256",
          "name": "expiry",
          "type": "uint256"
        }
      ],
      "name": "mintPolicy",
      "outputs": [
        {
          "internalType": "uint256",
          "name": "policyId",
          "type": "uint256"
        }
      ],
      "stateMutability": "nonpayable",
      "type": "function"
    },
    {
      "inputs": [],
      "name": "name",
      "outputs": [
        {
          "internalType": "string",
          "name": "",
          "type": "string"
        }
      ],
      "stateMutability": "view",
      "type": "function"
    },
    {
      "inputs": [],
      "name": "nextPolicyId",
      "outputs": [
        {
          "internalType": "uint256",
          "name": "",
          "type": "uint256"
        }
      ],
      "stateMutability": "view",
      "type": "function"
    },
    {
      "inputs": [],
      "name": "owner",
      "outputs": [
        {
          "internalType": "address",
          "name": "",
          "type": "address"
        }
      ],
      "stateMutability": "view",
      "type": "function"
    },
    {
      "inputs": [
        {
          "internalType": "uint256",
          "name": "tokenId",
          "type": "uint256"
        }
      ],
      "name": "ownerOf",
      "outputs": [
        {
          "internalType": "address",
          "name": "",
          "type": "address"
        }
      ],
      "stateMutability": "view",
      "type": "function"
    },
    {
      "inputs": [],
      "name": "renounceOwnership",
      "outputs": [],
      "stateMutability": "nonpayable",
      "type": "function"
    },
    {
      "inputs": [
        {
          "internalType": "address",
          "name": "from",
          "type": "address"
        },
        {
          "internalType": "address",
          "name": "to",
          "type": "address"
        },
        {
          "internalType": "uint256",
          "name": "tokenId",
          "type": "uint256"
        }
      ],
      "name": "safeTransferFrom",
      "outputs": [],
      "stateMutability": "nonpayable",
      "type": "function"
    },
    {
      "inputs": [
        {
          "internalType": "address",
          "name": "from",
          "type": "address"
        },
        {
          "internalType": "address",
          "name": "to",
          "type": "address"
        },
        {
          "internalType": "uint256",
          "name": "tokenId",
          "type": "uint256"
        },
        {
          "internalType": "bytes",
          "name": "data",
          "type": "bytes"
        }
      ],
      "name": "safeTransferFrom",
      "outputs": [],
      "stateMutability": "nonpayable",
      "type": "function"
    },
    {
      "inputs": [
        {
          "internalType": "address",
          "name": "operator",
          "type": "address"
        },
        {
          "internalType": "bool",
          "name": "approved",
          "type": "bool"
        }
      ],
      "name": "setApprovalForAll",
      "outputs": [],
      "stateMutability": "nonpayable",
      "type": "function"
    },
    {
      "inputs": [
        {
          "internalType": "address",
          "name": "_manager",
          "type": "address"
        }
      ],
      "name": "setManager",
      "outputs": [],
      "stateMutability": "nonpayable",
      "type": "function"
    },
    {
      "inputs": [
        {
          "internalType": "bytes4",
          "name": "interfaceId",
          "type": "bytes4"
        }
      ],
      "name": "supportsInterface",
      "outputs": [
        {
          "internalType": "bool",
          "name": "",
          "type": "bool"
        }
      ],
      "stateMutability": "view",
      "type": "function"
    },
    {
      "inputs": [],
      "name": "symbol",
      "outputs": [
        {
          "internalType": "string",
          "name": "",
          "type": "string"
        }
      ],
      "stateMutability": "view",
      "type": "function"
    },
    {
      "inputs": [
        {
          "internalType": "uint256",
          "name": "tokenId",
          "type": "uint256"
        }
      ],
      "name": "tokenURI",
      "outputs": [
        {
          "internalType": "string",
          "name": "",
          "type": "string"
        }
      ],
      "stateMutability": "view",
      "type": "function"
    },
    {
      "inputs": [
        {
          "internalType": "address",
          "name": "from",
          "type": "address"
        },
        {
          "internalType": "address",
          "name": "to",
          "type": "address"
        },
        {
          "internalType": "uint256",
          "name": "tokenId",
          "type": "uint256"
        }
      ],
      "name": "transferFrom",
      "outputs": [],
      "stateMutability": "nonpayable",
      "type": "function"
    },
    {
      "inputs": [
        {
          "internalType": "address",
          "name": "newOwner",
          "type": "address"
        }
      ],
      "name": "transferOwnership",
      "outputs": [],
      "stateMutability": "nonpayable",
      "type": "function"
    }
  ],
  "bytecode": "0x60806040523480156200001157600080fd5b506040518060400160405280601c81526020017f4c69717569646174696f6e20496e737572616e636520506f6c696379000000008152506040518060400160405280600381526020016204c49560ec1b8152508160009081620000759190620001a2565b506001620000848282620001a2565b505050620000a16200009b620000a760201b60201c565b620000ab565b6200026e565b3390565b600680546001600160a01b038381166001600160a01b0319831681179093556040519116919082907f8be0079c531659141344cd1fd0a4f28419497f9722a3daafe3b4186f6b6457e090600090a35050565b634e487b7160e01b600052604160045260246000fd5b600181811c908216806200012857607f821691505b6020821081036200014957634e487b7160e01b600052602260045260246000fd5b50919050565b601f8211156200019d57600081815260208120601f850160051c81016020861015620001785750805b601f850160051c820191505b81811015620001995782815560010162000184565b5050505b505050565b81516001600160401b03811115620001be57620001be620000fd565b620001d681620001cf845462000113565b846200014f565b602080601f8311600181146200020e5760008415620001f55750858301515b600019600386901b1c1916600185901b17855562000199565b600085815260208120601f198616915b828110156200023f578886015182559484019460019091019084016200021e565b50858210156200025e5787850151600019600388901b60f8161c191681555b5050505050600190811b01905550565b611d2e806200027e6000396000f3fe608060405234801561001057600080fd5b50600436106101585760003560e01c80638da5cb5b116100c3578063c87b56dd1161007c578063c87b56dd146102e7578063cad0b8db146102fa578063d0ebdbe714610303578063de73848e14610316578063e985e9c514610329578063f2fde38b1461036557600080fd5b80638da5cb5b1461028257806395d89b4114610293578063a22cb4651461029b578063b88d4fde146102ae578063bd8afa46146102c1578063c2ccc8ef146102d457600080fd5b80632b07fce3116101155780632b07fce31461020e57806342842e0e1461022e578063481c6a75146102415780636352211e1461025457806370a0823114610267578063715018a61461027a57600080fd5b806301ffc9a71461015d57806306fdde0314610185578063081812fc1461019a578063095ea7b3146101c5578063137d90c3146101da57806323b872dd146101fb575b600080fd5b61017061016b3660046117aa565b610378565b60405190151581526020015b60405180910390f35b61018d6103ca565b60405161017c9190611817565b6101ad6101a836600461182a565b61045c565b6040516001600160a01b03909116815260200161017c565b6101d86101d336600461185f565b610483565b005b6101ed6101e8366004611889565b61059d565b60405190815260200161017c565b6101d86102093660046118d3565b610827565b61022161021c36600461182a565b610858565b60405161017c919061190f565b6101d861023c3660046118d3565b610940565b6008546101ad906001600160a01b031681565b6101ad61026236600461182a565b61095b565b6101ed610275366004611988565b6109bb565b6101d8610a41565b6006546001600160a01b03166101ad565b61018d610a55565b6101d86102a93660046119a3565b610a64565b6101d86102bc3660046119f5565b610a73565b6101706102cf36600461182a565b610aab565b6101d86102e236600461182a565b610b56565b61018d6102f536600461182a565b610c6d565b6101ed60075481565b6101d8610311366004611988565b610ce0565b6101d861032436600461182a565b610d7a565b610170610337366004611ad1565b6001600160a01b03918216600090815260056020908152604080832093909416825291909152205460ff1690565b6101d8610373366004611988565b610e7a565b60006001600160e01b031982166380ac58cd60e01b14806103a957506001600160e01b03198216635b5e139f60e01b145b806103c457506301ffc9a760e01b6001600160e01b03198316145b92915050565b6060600080546103d990611b04565b80601f016020809104026020016040519081016040528092919081815260200182805461040590611b04565b80156104525780601f1061042757610100808354040283529160200191610452565b820191906000526020600020905b81548152906001019060200180831161043557829003601f168201915b5050505050905090565b600061046782610ef3565b506000908152600460205260409020546001600160a01b031690565b600061048e8261095b565b9050806001600160a01b0316836001600160a01b0316036105005760405162461bcd60e51b815260206004820152602160248201527f4552433732313a20617070726f76616c20746f2063757272656e74206f776e656044820152603960f91b60648201526084015b60405180910390fd5b336001600160a01b038216148061051c575061051c8133610337565b61058e5760405162461bcd60e51b815260206004820152603d60248201527f4552433732313a20617070726f76652063616c6c6572206973206e6f7420746f60448201527f6b656e206f776e6572206f7220617070726f76656420666f7220616c6c00000060648201526084016104f7565b6105988383610f52565b505050565b6008546000906001600160a01b031633146105ca5760405162461bcd60e51b81526004016104f790611b3e565b6001600160a01b0387166106135760405162461bcd60e51b815260206004820152601060248201526f24b73b30b634b2103137b93937bbb2b960811b60448201526064016104f7565b600085116106565760405162461bcd60e51b815260206004820152601060248201526f496e76616c696420636f76657261676560801b60448201526064016104f7565b4282116106965760405162461bcd60e51b815260206004820152600e60248201526d496e76616c69642065787069727960901b60448201526064016104f7565b6007600081546106a590611b64565b918290555090506106b68782610fc0565b604051806101200160405280886001600160a01b03168152602001878152602001868152602001858152602001848152602001428152602001838152602001600015158152602001600115158152506009600083815260200190815260200160002060008201518160000160006101000a8154816001600160a01b0302191690836001600160a01b031602179055506020820151816001015560408201518160020155606082015181600301556080820151816004015560a0820151816005015560c0820151816006015560e08201518160070160006101000a81548160ff0219169083151502179055506101008201518160070160016101000a81548160ff02191690831515021790555090505085876001600160a01b0316827f836c5c57f5e054cf50aa6902c9019f949d700886b02e625b56ce16a374be9c88888887604051610815939291909283526020830191909152604082015260600190565b60405180910390a49695505050505050565b6108313382610fda565b61084d5760405162461bcd60e51b81526004016104f790611b8b565b610598838383611059565b6108b460405180610120016040528060006001600160a01b031681526020016000815260200160008152602001600081526020016000815260200160008152602001600081526020016000151581526020016000151581525090565b5060009081526009602090815260409182902082516101208101845281546001600160a01b031681526001820154928101929092526002810154928201929092526003820154606082015260048201546080820152600582015460a0820152600682015460c082015260079091015460ff808216151560e0840152610100918290041615159082015290565b61059883838360405180602001604052806000815250610a73565b6000818152600260205260408120546001600160a01b0316806103c45760405162461bcd60e51b8152602060048201526018602482015277115490cdcc8c4e881a5b9d985b1a59081d1bdad95b88125160421b60448201526064016104f7565b60006001600160a01b038216610a255760405162461bcd60e51b815260206004820152602960248201527f4552433732313a2061646472657373207a65726f206973206e6f7420612076616044820152683634b21037bbb732b960b91b60648201526084016104f7565b506001600160a01b031660009081526003602052604090205490565b610a496111bd565b610a536000611217565b565b6060600180546103d990611b04565b610a6f338383611269565b5050565b610a7d3383610fda565b610a995760405162461bcd60e51b81526004016104f790611b8b565b610aa584848484611337565b50505050565b600081815260096020908152604080832081516101208101835281546001600160a01b031681526001820154938101939093526002810154918301919091526003810154606083015260048101546080830152600581015460a0830152600681015460c08301526007015460ff808216151560e08401526101009182900416158015918301829052610b3f57508060e00151155b8015610b4f57508060c001514211155b9392505050565b6008546001600160a01b03163314610b805760405162461bcd60e51b81526004016104f790611b3e565b60008181526009602052604090206007810154610100900460ff16610bd95760405162461bcd60e51b815260206004820152600f60248201526e506f6c69637920696e61637469766560881b60448201526064016104f7565b600781015460ff1615610c205760405162461bcd60e51b815260206004820152600f60248201526e105b1c9958591e4818db185a5b5959608a1b60448201526064016104f7565b60078101805461ffff1916600117905580546040516001600160a01b039091169083907fc7ec6d9a759e329b525c568d4a31eadfd4d47a50a11498317356b63536972cff90600090a35050565b6060610c7882610ef3565b6000610c8f60408051602081019091526000815290565b90506000815111610caf5760405180602001604052806000815250610b4f565b80610cb98461136a565b604051602001610cca929190611bd8565b6040516020818303038152906040529392505050565b610ce86111bd565b6001600160a01b038116610d305760405162461bcd60e51b815260206004820152600f60248201526e24b73b30b634b21036b0b730b3b2b960891b60448201526064016104f7565b600880546001600160a01b0319166001600160a01b0383169081179091556040517f2c1c11af44aa5608f1dca38c00275c30ea091e02417d36e70e9a1538689c433d90600090a250565b6008546001600160a01b03163314610da45760405162461bcd60e51b81526004016104f790611b3e565b60008181526009602052604090206007810154610100900460ff16610dfd5760405162461bcd60e51b815260206004820152600f60248201526e506f6c69637920696e61637469766560881b60448201526064016104f7565b80600601544211610e3e5760405162461bcd60e51b815260206004820152600b60248201526a139bdd08195e1c1a5c995960aa1b60448201526064016104f7565b60078101805461ff001916905560405182907fb22aa541487fc93d989bb5b17d1e3a967f649c4979cfd658c0849e070ae0dca090600090a25050565b610e826111bd565b6001600160a01b038116610ee75760405162461bcd60e51b815260206004820152602660248201527f4f776e61626c653a206e6577206f776e657220697320746865207a65726f206160448201526564647265737360d01b60648201526084016104f7565b610ef081611217565b50565b6000818152600260205260409020546001600160a01b0316610ef05760405162461bcd60e51b8152602060048201526018602482015277115490cdcc8c4e881a5b9d985b1a59081d1bdad95b88125160421b60448201526064016104f7565b600081815260046020526040902080546001600160a01b0319166001600160a01b0384169081179091558190610f878261095b565b6001600160a01b03167f8c5be1e5ebec7d5bd14f71427d1e84f3dd0314c0f7b2291e5b200ac8c7c3b92560405160405180910390a45050565b610a6f8282604051806020016040528060008152506113fd565b600080610fe68361095b565b9050806001600160a01b0316846001600160a01b0316148061102d57506001600160a01b0380821660009081526005602090815260408083209388168352929052205460ff165b806110515750836001600160a01b03166110468461045c565b6001600160a01b0316145b949350505050565b826001600160a01b031661106c8261095b565b6001600160a01b0316146110925760405162461bcd60e51b81526004016104f790611c07565b6001600160a01b0382166110f45760405162461bcd60e51b8152602060048201526024808201527f4552433732313a207472616e7366657220746f20746865207a65726f206164646044820152637265737360e01b60648201526084016104f7565b826001600160a01b03166111078261095b565b6001600160a01b03161461112d5760405162461bcd60e51b81526004016104f790611c07565b600081815260046020908152604080832080546001600160a01b03199081169091556001600160a01b0387811680865260038552838620805460001901905590871680865283862080546001019055868652600290945282852080549092168417909155905184937fddf252ad1be2c89b69c2b068fc378daa952ba7f163c4a11628f55a4df523b3ef91a4505050565b6006546001600160a01b03163314610a535760405162461bcd60e51b815260206004820181905260248201527f4f776e61626c653a2063616c6c6572206973206e6f7420746865206f776e657260448201526064016104f7565b600680546001600160a01b038381166001600160a01b0319831681179093556040519116919082907f8be0079c531659141344cd1fd0a4f28419497f9722a3daafe3b4186f6b6457e090600090a35050565b816001600160a01b0316836001600160a01b0316036112ca5760405162461bcd60e51b815260206004820152601960248201527f4552433732313a20617070726f766520746f2063616c6c65720000000000000060448201526064016104f7565b6001600160a01b03838116600081815260056020908152604080832094871680845294825291829020805460ff191686151590811790915591519182527f17307eab39ab6107e8899845ad3d59bd9653f200f220920489ca2b5937696c31910160405180910390a3505050565b611342848484611059565b61134e84848484611430565b610aa55760405162461bcd60e51b81526004016104f790611c4c565b6060600061137783611531565b600101905060008167ffffffffffffffff811115611397576113976119df565b6040519080825280601f01601f1916602001820160405280156113c1576020820181803683370190505b5090508181016020015b600019016f181899199a1a9b1b9c1cb0b131b232b360811b600a86061a8153600a85049450846113cb57509392505050565b6114078383611609565b6114146000848484611430565b6105985760405162461bcd60e51b81526004016104f790611c4c565b60006001600160a01b0384163b1561152657604051630a85bd0160e11b81526001600160a01b0385169063150b7a0290611474903390899088908890600401611c9e565b6020604051808303816000875af19250505080156114af575060408051601f3d908101601f191682019092526114ac91810190611cdb565b60015b61150c573d8080156114dd576040519150601f19603f3d011682016040523d82523d6000602084013e6114e2565b606091505b5080516000036115045760405162461bcd60e51b81526004016104f790611c4c565b805181602001fd5b6001600160e01b031916630a85bd0160e11b149050611051565b506001949350505050565b60008072184f03e93ff9f4daa797ed6e38ed64bf6a1f0160401b83106115705772184f03e93ff9f4daa797ed6e38ed64bf6a1f0160401b830492506040015b6d04ee2d6d415b85acef8100000000831061159c576d04ee2d6d415b85acef8100000000830492506020015b662386f26fc1000083106115ba57662386f26fc10000830492506010015b6305f5e10083106115d2576305f5e100830492506008015b61271083106115e657612710830492506004015b606483106115f8576064830492506002015b600a83106103c45760010192915050565b6001600160a01b03821661165f5760405162461bcd60e51b815260206004820181905260248201527f4552433732313a206d696e7420746f20746865207a65726f206164647265737360448201526064016104f7565b6000818152600260205260409020546001600160a01b0316156116c45760405162461bcd60e51b815260206004820152601c60248201527f4552433732313a20746f6b656e20616c7265616479206d696e7465640000000060448201526064016104f7565b6000818152600260205260409020546001600160a01b0316156117295760405162461bcd60e51b815260206004820152601c60248201527f4552433732313a20746f6b656e20616c7265616479206d696e7465640000000060448201526064016104f7565b6001600160a01b038216600081815260036020908152604080832080546001019055848352600290915280822080546001600160a01b0319168417905551839291907fddf252ad1be2c89b69c2b068fc378daa952ba7f163c4a11628f55a4df523b3ef908290a45050565b6001600160e01b031981168114610ef057600080fd5b6000602082840312156117bc57600080fd5b8135610b4f81611794565b60005b838110156117e25781810151838201526020016117ca565b50506000910152565b600081518084526118038160208601602086016117c7565b601f01601f19169290920160200192915050565b602081526000610b4f60208301846117eb565b60006020828403121561183c57600080fd5b5035919050565b80356001600160a01b038116811461185a57600080fd5b919050565b6000806040838503121561187257600080fd5b61187b83611843565b946020939093013593505050565b60008060008060008060c087890312156118a257600080fd5b6118ab87611843565b9860208801359850604088013597606081013597506080810135965060a00135945092505050565b6000806000606084860312156118e857600080fd5b6118f184611843565b92506118ff60208501611843565b9150604084013590509250925092565b60006101208201905060018060a01b0383511682526020830151602083015260408301516040830152606083015160608301526080830151608083015260a083015160a083015260c083015160c083015260e0830151151560e0830152610100808401516119808285018215159052565b505092915050565b60006020828403121561199a57600080fd5b610b4f82611843565b600080604083850312156119b657600080fd5b6119bf83611843565b9150602083013580151581146119d457600080fd5b809150509250929050565b634e487b7160e01b600052604160045260246000fd5b60008060008060808587031215611a0b57600080fd5b611a1485611843565b9350611a2260208601611843565b925060408501359150606085013567ffffffffffffffff80821115611a4657600080fd5b818701915087601f830112611a5a57600080fd5b813581811115611a6c57611a6c6119df565b604051601f8201601f19908116603f01168101908382118183101715611a9457611a946119df565b816040528281528a6020848701011115611aad57600080fd5b82602086016020830137600060208483010152809550505050505092959194509250565b60008060408385031215611ae457600080fd5b611aed83611843565b9150611afb60208401611843565b90509250929050565b600181811c90821680611b1857607f821691505b602082108103611b3857634e487b7160e01b600052602260045260246000fd5b50919050565b6020808252600c908201526b27b7363c9036b0b730b3b2b960a11b604082015260600190565b600060018201611b8457634e487b7160e01b600052601160045260246000fd5b5060010190565b6020808252602d908201527f4552433732313a2063616c6c6572206973206e6f7420746f6b656e206f776e6560408201526c1c881bdc88185c1c1c9bdd9959609a1b606082015260800190565b60008351611bea8184602088016117c7565b835190830190611bfe8183602088016117c7565b01949350505050565b60208082526025908201527f4552433732313a207472616e736665722066726f6d20696e636f72726563742060408201526437bbb732b960d91b606082015260800190565b60208082526032908201527f4552433732313a207472616e7366657220746f206e6f6e20455243373231526560408201527131b2b4bb32b91034b6b83632b6b2b73a32b960711b606082015260800190565b6001600160a01b0385811682528416602082015260408101839052608060608201819052600090611cd1908301846117eb565b9695505050505050565b600060208284031215611ced57600080fd5b8151610b4f8161179456fea264697066735822122000c278402d6138413d741c07952f68048f99b649846cbbaed242df047d6dae5664736f6c63430008140033",
  "linkReferences": {},
  "deployedLinkReferences": {}
}