{
  "_format": "hh-sol-artifact-1",
  "contractName": "PriceOracle",
  "sourceName": "contracts/PriceOracle.sol",
  "abi": [
    {
      "inputs": [],
      "stateMutability": "nonpayable",
      "type": "constructor"
    },
    {
      "anonymous": false,
      "inputs": [
        {
          "indexed": true,
          "internalType": "address",
          "name": "token",
          "type": "address"
        },
        {
          "indexed": false,
          "internalType": "uint256",
          "name": "price",
          "type": "uint256"
        }
      ],
      "name": "FallbackPriceSet",
      "type": "event"
    },
    {
      "anonymous": false,
      "inputs": [
        {
          "indexed": true,
          "internalType": "address",
          "name": "previousOwner",
          "type": "address"
        },
        {
          "indexed": true,
          "internalType": "address",
          "name": "newOwner",
          "type": "address"
        }
      ],
      "name": "OwnershipTransferred",
      "type": "event"
    },
    {
      "anonymous": false,
      "inputs": [
        {
          "indexed": true,
          "internalType": "address",
          "name": "token",
          "type": "address"
        },
        {
          "indexed": true,
          "internalType": "address",
          "name": "feed",
          "type": "address"
        }
      ],
      "name": "PriceFeedAdded",
      "type": "event"
    },
    {
      "anonymous": false,
      "inputs": [
        {
          "indexed": true,
          "internalType": "address",
          "name": "token",
          "type": "address"
        }
      ],
      "name": "PriceFeedRemoved",
      "type": "event"
    },
    {
      "inputs": [
        {
          "internalType": "address",
          "name": "token",
          "type": "address"
        }
      ],
      "name": "disableFallback",
      "outputs": [],
      "stateMutability": "nonpayable",
      "type": "function"
    },
    {
      "inputs": [
        {
          "internalType": "address",
          "name": "",
          "type": "address"
        }
      ],
      "name": "fallbackPrices",
      "outputs": [
        {
          "internalType": "uint256",
          "name": "",
          "type": "uint256"
        }
      ],
      "stateMutability": "view",
      "type": "function"
    },
    {
      "inputs": [
        {
          "internalType": "address",
          "name": "collateralToken",
          "type": "address"
        },
        {
          "internalType": "uint256",
          "name": "amount",
          "type": "uint256"
        },
        {
          "internalType": "address",
          "name": "priceToken",
          "type": "address"
        }
      ],
      "name": "getCollateralValue",
      "outputs": [
        {
          "internalType": "uint256",
          "name": "",
          "type": "uint256"
        }
      ],
      "stateMutability": "view",
      "type": "function"
    },
    {
      "inputs": [
        {
          "internalType": "address",
          "name": "token",
          "type": "address"
        }
      ],
      "name": "getPrice",
      "outputs": [
        {
          "internalType": "uint256",
          "name": "",
          "type": "uint256"
        }
      ],
      "stateMutability": "view",
      "type": "function"
    },
    {
      "inputs": [
        {
          "internalType": "address",
          "name": "token",
          "type": "address"
        }
      ],
      "name": "getPriceSafe",
      "outputs": [
        {
          "internalType": "uint256",
          "name": "",
          "type": "uint256"
        },
        {
          "internalType": "bool",
          "name": "",
          "type": "bool"
        }
      ],
      "stateMutability": "view",
      "type": "function"
    },
    {
      "inputs": [
        {
          "internalType": "address[]",
          "name": "tokens",
          "type": "address[]"
        }
      ],
      "name": "getPrices",
      "outputs": [
        {
          "internalType": "uint256[]",
          "name": "prices",
          "type": "uint256[]"
        }
      ],
      "stateMutability": "view",
      "type": "function"
    },
    {
      "inputs": [
        {
          "internalType": "address",
          "name": "token",
          "type": "address"
        }
      ],
      "name": "isPriceFresh",
      "outputs": [
        {
          "internalType": "bool",
          "name": "",
          "type": "bool"
        }
      ],
      "stateMutability": "view",
      "type": "function"
    },
    {
      "inputs": [],
      "name": "maxPriceAge",
      "outputs": [
        {
          "internalType": "uint256",
          "name": "",
          "type": "uint256"
        }
      ],
      "stateMutability": "view",
      "type": "function"
    },
    {
      "inputs": [],
      "name": "owner",
      "outputs": [
        {
          "internalType": "address",
          "name": "",
          "type": "address"
        }
      ],
      "stateMutability": "view",
      "type": "function"
    },
    {
      "inputs": [
        {
          "internalType": "address",
          "name": "",
          "type": "address"
        }
      ],
      "name": "priceFeeds",
      "outputs": [
        {
          "internalType": "contract AggregatorV3Interface",
          "name": "",
          "type": "address"
        }
      ],
      "stateMutability": "view",
      "type": "function"
    },
    {
      "inputs": [
        {
          "internalType": "address",
          "name": "token",
          "type": "address"
        }
      ],
      "name": "removePriceFeed",
      "outputs": [],
      "stateMutability": "nonpayable",
      "type": "function"
    },
    {
      "inputs": [],
      "name": "renounceOwnership",
      "outputs": [],
      "stateMutability": "nonpayable",
      "type": "function"
    },
    {
      "inputs": [
        {
          "internalType": "address",
          "name": "token",
          "type": "address"
        },
        {
          "internalType": "uint256",
          "name": "price",
          "type": "uint256"
        }
      ],
      "name": "setFallbackPrice",
      "outputs": [],
      "stateMutability": "nonpayable",
      "type": "function"
    },
    {
      "inputs": [
        {
          "internalType": "uint256",
          "name": "maxAge",
          "type": "uint256"
        }
      ],
      "name": "setMaxPriceAge",
      "outputs": [],
      "stateMutability": "nonpayable",
      "type": "function"
    },
    {
      "inputs": [
        {
          "internalType": "address",
          "name": "token",
          "type": "address"
        },
        {
          "internalType": "address",
          "name": "priceFeed",
          "type": "address"
        },
        {
          "internalType": "uint8",
          "name": "decimals",
          "type": "uint8"
        }
      ],
      "name": "setPriceFeed",
      "outputs": [],
      "stateMutability": "nonpayable",
      "type": "function"
    },
    {
      "inputs": [
        {
          "internalType": "address",
          "name": "",
          "type": "address"
        }
      ],
      "name": "tokenDecimals",
      "outputs": [
        {
          "internalType": "uint8",
          "name": "",
          "type": "uint8"
        }
      ],
      "stateMutability": "view",
      "type": "function"
    },
    {
      "inputs": [
        {
          "internalType": "address",
          "name": "newOwner",
          "type": "address"
        }
      ],
      "name": "transferOwnership",
      "outputs": [],
      "stateMutability": "nonpayable",
      "type": "function"
    },
    {
      "inputs": [
        {
          "internalType": "address",
          "name": "",
          "type": "address"
        }
      ],
      "name": "useFallback",
      "outputs": [
        {
          "internalType": "bool",
          "name": "",
          "type": "bool"
        }
      ],
      "stateMutability": "view",
      "type": "function"
    }
  ],
  "bytecode": "0x6080604052610e1060055534801561001657600080fd5b5061002033610025565b610075565b600080546001600160a01b038381166001600160a01b0319831681178455604051919092169283917f8be0079c531659141344cd1fd0a4f28419497f9722a3daafe3b4186f6b6457e09190a35050565b611120806100846000396000f3fe608060405234801561001057600080fd5b50600436106101165760003560e01c80638da5cb5b116100a2578063ce09a37b11610071578063ce09a37b1461029b578063d9113d71146102be578063f2fde38b146102d1578063fceb0024146102e4578063fd4690b6146102f757600080fd5b80638da5cb5b146101f85780638ee573ac1461021d5780638fb5a482146102525780639dcb511a1461027257600080fd5b8063241d3a0b116100e9578063241d3a0b1461019757806341976e09146101b75780634d4039e1146101ca57806356447ce8146101dd578063715018a6146101f057600080fd5b806301aecdfa1461011b57806304f2eda2146101485780630af1a39f1461015d5780631584410a14610180575b600080fd5b61012e610129366004610d0d565b61030a565b604080519283529015156020830152015b60405180910390f35b61015b610156366004610d0d565b610438565b005b61017061016b366004610d0d565b610461565b604051901515815260200161013f565b61018960055481565b60405190815260200161013f565b6101896101a5366004610d0d565b60036020526000908152604090205481565b6101896101c5366004610d0d565b610536565b6101896101d8366004610d2f565b6106d2565b61015b6101eb366004610d6b565b610864565b61015b6108b7565b6000546001600160a01b03165b6040516001600160a01b03909116815260200161013f565b61024061022b366004610d0d565b60026020526000908152604090205460ff1681565b60405160ff909116815260200161013f565b610265610260366004610d84565b6108cb565b60405161013f9190610df9565b610205610280366004610d0d565b6001602052600090815260409020546001600160a01b031681565b6101706102a9366004610d0d565b60046020526000908152604090205460ff1681565b61015b6102cc366004610e3d565b6109e9565b61015b6102df366004610d0d565b610a63565b61015b6102f2366004610d0d565b610adc565b61015b610305366004610e67565b610b33565b6001600160a01b038116600090815260046020526040812054819060ff161561034d5750506001600160a01b031660009081526003602052604090205490600190565b6040516341976e0960e01b81526001600160a01b038416600482015230906341976e0990602401602060405180830381865afa9250505080156103ad575060408051601f3d908101601f191682019092526103aa91810190610eb4565b60015b61042e576001600160a01b038316600090815260036020526040902054156103ec5750506001600160a01b031660009081526003602052604081205491565b60405162461bcd60e51b81526020600482015260126024820152714e6f20707269636520617661696c61626c6560701b60448201526064015b60405180910390fd5b9360019350915050565b610440610c47565b6001600160a01b03166000908152600460205260409020805460ff19169055565b6001600160a01b03811660009081526004602052604081205460ff161561048a57506001919050565b6001600160a01b0380831660009081526001602052604090205416806104b35750600092915050565b6000816001600160a01b031663feaf968c6040518163ffffffff1660e01b815260040160a060405180830381865afa1580156104f3573d6000803e3d6000fd5b505050506040513d601f19601f820116820180604052508101906105179190610ee7565b509350505050600554814261052c9190610f4d565b1115949350505050565b6001600160a01b03811660009081526004602052604081205460ff161561057357506001600160a01b031660009081526003602052604090205490565b6001600160a01b0380831660009081526001602052604090205416806105d05760405162461bcd60e51b8152602060048201526012602482015271141c9a58d94819995959081b9bdd081cd95d60721b6044820152606401610425565b600080826001600160a01b031663feaf968c6040518163ffffffff1660e01b815260040160a060405180830381865afa158015610611573d6000803e3d6000fd5b505050506040513d601f19601f820116820180604052508101906106359190610ee7565b509350509250506000821361067c5760405162461bcd60e51b815260206004820152600d60248201526c496e76616c696420707269636560981b6044820152606401610425565b6005546106898242610f4d565b11156106ca5760405162461bcd60e51b815260206004820152601060248201526f50726963652066656564207374616c6560801b6044820152606401610425565b509392505050565b6040516341976e0960e01b81526001600160a01b0384166004820152600090819030906341976e0990602401602060405180830381865afa15801561071b573d6000803e3d6000fd5b505050506040513d601f19601f8201168201806040525081019061073f9190610eb4565b6040516341976e0960e01b81526001600160a01b038516600482015290915060009030906341976e0990602401602060405180830381865afa158015610789573d6000803e3d6000fd5b505050506040513d601f19601f820116820180604052508101906107ad9190610eb4565b6001600160a01b0380881660009081526002602052604080822054928816825281205492935060ff9182169290911690836107e8868a610f60565b6107f29190610f77565b90508160ff168360ff1611156108285761080c8284610f99565b61081790600a611096565b6108219082610f77565b9050610858565b8260ff168260ff161115610858576108408383610f99565b61084b90600a611096565b6108559082610f60565b90505b98975050505050505050565b61086c610c47565b600081116108b25760405162461bcd60e51b815260206004820152601360248201527204d617820616765206d757374206265203e203606c1b6044820152606401610425565b600555565b6108bf610c47565b6108c96000610ca1565b565b60608167ffffffffffffffff8111156108e6576108e66110a5565b60405190808252806020026020018201604052801561090f578160200160208202803683370190505b50905060005b828110156109e157306341976e09858584818110610935576109356110bb565b905060200201602081019061094a9190610d0d565b6040516001600160e01b031960e084901b1681526001600160a01b039091166004820152602401602060405180830381865afa15801561098e573d6000803e3d6000fd5b505050506040513d601f19601f820116820180604052508101906109b29190610eb4565b8282815181106109c4576109c46110bb565b6020908102919091010152806109d9816110d1565b915050610915565b505b92915050565b6109f1610c47565b60008111610a315760405162461bcd60e51b815260206004820152600d60248201526c496e76616c696420707269636560981b6044820152606401610425565b6001600160a01b039091166000908152600360209081526040808320939093556004905220805460ff19166001179055565b610a6b610c47565b6001600160a01b038116610ad05760405162461bcd60e51b815260206004820152602660248201527f4f776e61626c653a206e6577206f776e657220697320746865207a65726f206160448201526564647265737360d01b6064820152608401610425565b610ad981610ca1565b50565b610ae4610c47565b6001600160a01b03811660008181526001602052604080822080546001600160a01b0319169055517ffd58461c4683df397133c7e91fe2aa71559919b405f9e09c9c3af7e875f54e3b9190a250565b610b3b610c47565b6001600160a01b038316610b815760405162461bcd60e51b815260206004820152600d60248201526c24b73b30b634b2103a37b5b2b760991b6044820152606401610425565b6001600160a01b038216610bc65760405162461bcd60e51b815260206004820152600c60248201526b125b9d985b1a59081999595960a21b6044820152606401610425565b6001600160a01b03838116600081815260016020908152604080832080546001600160a01b031916958816958617905560028252808320805460ff1990811660ff89161790915560049092528083208054909216909155517f2940c4bfb544a4b0a5b4262767947b0acc0b8f144197528463c4d476658cff799190a3505050565b6000546001600160a01b031633146108c95760405162461bcd60e51b815260206004820181905260248201527f4f776e61626c653a2063616c6c6572206973206e6f7420746865206f776e65726044820152606401610425565b600080546001600160a01b038381166001600160a01b0319831681178455604051919092169283917f8be0079c531659141344cd1fd0a4f28419497f9722a3daafe3b4186f6b6457e09190a35050565b80356001600160a01b0381168114610d0857600080fd5b919050565b600060208284031215610d1f57600080fd5b610d2882610cf1565b9392505050565b600080600060608486031215610d4457600080fd5b610d4d84610cf1565b925060208401359150610d6260408501610cf1565b90509250925092565b600060208284031215610d7d57600080fd5b5035919050565b60008060208385031215610d9757600080fd5b823567ffffffffffffffff80821115610daf57600080fd5b818501915085601f830112610dc357600080fd5b813581811115610dd257600080fd5b8660208260051b8501011115610de757600080fd5b60209290920196919550909350505050565b6020808252825182820181905260009190848201906040850190845b81811015610e3157835183529284019291840191600101610e15565b50909695505050505050565b60008060408385031215610e5057600080fd5b610e5983610cf1565b946020939093013593505050565b600080600060608486031215610e7c57600080fd5b610e8584610cf1565b9250610e9360208501610cf1565b9150604084013560ff81168114610ea957600080fd5b809150509250925092565b600060208284031215610ec657600080fd5b5051919050565b805169ffffffffffffffffffff81168114610d0857600080fd5b600080600080600060a08688031215610eff57600080fd5b610f0886610ecd565b9450602086015193506040860151925060608601519150610f2b60808701610ecd565b90509295509295909350565b634e487b7160e01b600052601160045260246000fd5b818103818111156109e3576109e3610f37565b80820281158282048414176109e3576109e3610f37565b600082610f9457634e487b7160e01b600052601260045260246000fd5b500490565b60ff82811682821603908111156109e3576109e3610f37565b600181815b80851115610fed578160001904821115610fd357610fd3610f37565b80851615610fe057918102915b93841c9390800290610fb7565b509250929050565b600082611004575060016109e3565b81611011575060006109e3565b816001811461102757600281146110315761104d565b60019150506109e3565b60ff84111561104257611042610f37565b50506001821b6109e3565b5060208310610133831016604e8410600b8410161715611070575081810a6109e3565b61107a8383610fb2565b806000190482111561108e5761108e610f37565b029392505050565b6000610d2860ff841683610ff5565b634e487b7160e01b600052604160045260246000fd5b634e487b7160e01b600052603260045260246000fd5b6000600182016110e3576110e3610f37565b506001019056fea2646970667358221220ca4d08fbcc822db6f3b2fc285bc5080b1c7b6db86f9a63ded0019544135c078564736f6c63430008140033",
  "linkReferences": {},
  "deployedLinkReferences": {}
}