{
  "_format": "hh-sol-artifact-1",
  "contractName": "InsurancePool",
  "sourceName": "contracts/InsurancePool.sol",
  "abi": [
    {
      "inputs": [
        {
          "internalType": "address",
          "name": "stableTokenAddress",
          "type": "address"
        }
      ],
      "stateMutability": "nonpayable",
      "type": "constructor"
    },
    {
      "anonymous": false,
      "inputs": [
        {
          "indexed": true,
          "internalType": "address",
          "name": "recipient",
          "type": "address"
        },
        {
          "indexed": false,
          "internalType": "uint256",
          "name": "amount",
          "type": "uint256"
        }
      ],
      "name": "ClaimPaid",
      "type": "event"
    },
    {
      "anonymous": false,
      "inputs": [
        {
          "indexed": true,
          "internalType": "address",
          "name": "provider",
          "type": "address"
        },
        {
          "indexed": false,
          "internalType": "uint256",
          "name": "amount",
          "type": "uint256"
        }
      ],
      "name": "LiquidityDeposited",
      "type": "event"
    },
    {
      "anonymous": false,
      "inputs": [
        {
          "indexed": true,
          "internalType": "address",
          "name": "provider",
          "type": "address"
        },
        {
          "indexed": false,
          "internalType": "uint256",
          "name": "amount",
          "type": "uint256"
        }
      ],
      "name": "LiquidityWithdrawn",
      "type": "event"
    },
    {
      "anonymous": false,
      "inputs": [
        {
          "indexed": true,
          "internalType": "address",
          "name": "manager",
          "type": "address"
        }
      ],
      "name": "ManagerUpdated",
      "type": "event"
    },
    {
      "anonymous": false,
      "inputs": [
        {
          "indexed": true,
          "internalType": "address",
          "name": "previousOwner",
          "type": "address"
        },
        {
          "indexed": true,
          "internalType": "address",
          "name": "newOwner",
          "type": "address"
        }
      ],
      "name": "OwnershipTransferred",
      "type": "event"
    },
    {
      "anonymous": false,
      "inputs": [
        {
          "indexed": true,
          "internalType": "address",
          "name": "payer",
          "type": "address"
        },
        {
          "indexed": false,
          "internalType": "uint256",
          "name": "amount",
          "type": "uint256"
        }
      ],
      "name": "PremiumCollected",
      "type": "event"
    },
    {
      "inputs": [
        {
          "internalType": "address",
          "name": "payer",
          "type": "address"
        },
        {
          "internalType": "uint256",
          "name": "amount",
          "type": "uint256"
        }
      ],
      "name": "collectPremium",
      "outputs": [],
      "stateMutability": "nonpayable",
      "type": "function"
    },
    {
      "inputs": [
        {
          "internalType": "uint256",
          "name": "amount",
          "type": "uint256"
        }
      ],
      "name": "depositLiquidity",
      "outputs": [],
      "stateMutability": "nonpayable",
      "type": "function"
    },
    {
      "inputs": [
        {
          "internalType": "address",
          "name": "",
          "type": "address"
        }
      ],
      "name": "liquidityProvided",
      "outputs": [
        {
          "internalType": "uint256",
          "name": "",
          "type": "uint256"
        }
      ],
      "stateMutability": "view",
      "type": "function"
    },
    {
      "inputs": [],
      "name": "manager",
      "outputs": [
        {
          "internalType": "address",
          "name": "",
          "type": "address"
        }
      ],
      "stateMutability": "view",
      "type": "function"
    },
    {
      "inputs": [],
      "name": "owner",
      "outputs": [
        {
          "internalType": "address",
          "name": "",
          "type": "address"
        }
      ],
      "stateMutability": "view",
      "type": "function"
    },
    {
      "inputs": [
        {
          "internalType": "address",
          "name": "recipient",
          "type": "address"
        },
        {
          "internalType": "uint256",
          "name": "amount",
          "type": "uint256"
        }
      ],
      "name": "payoutClaim",
      "outputs": [],
      "stateMutability": "nonpayable",
      "type": "function"
    },
    {
      "inputs": [],
      "name": "poolBalance",
      "outputs": [
        {
          "internalType": "uint256",
          "name": "",
          "type": "uint256"
        }
      ],
      "stateMutability": "view",
      "type": "function"
    },
    {
      "inputs": [],
      "name": "renounceOwnership",
      "outputs": [],
      "stateMutability": "nonpayable",
      "type": "function"
    },
    {
      "inputs": [
        {
          "internalType": "address",
          "name": "_manager",
          "type": "address"
        }
      ],
      "name": "setManager",
      "outputs": [],
      "stateMutability": "nonpayable",
      "type": "function"
    },
    {
      "inputs": [],
      "name": "stableToken",
      "outputs": [
        {
          "internalType": "contract IERC20",
          "name": "",
          "type": "address"
        }
      ],
      "stateMutability": "view",
      "type": "function"
    },
    {
      "inputs": [],
      "name": "totalLiquidity",
      "outputs": [
        {
          "internalType": "uint256",
          "name": "",
          "type": "uint256"
        }
      ],
      "stateMutability": "view",
      "type": "function"
    },
    {
      "inputs": [
        {
          "internalType": "address",
          "name": "newOwner",
          "type": "address"
        }
      ],
      "name": "transferOwnership",
      "outputs": [],
      "stateMutability": "nonpayable",
      "type": "function"
    },
    {
      "inputs": [
        {
          "internalType": "uint256",
          "name": "amount",
          "type": "uint256"
        }
      ],
      "name": "withdrawLiquidity",
      "outputs": [],
      "stateMutability": "nonpayable",
      "type": "function"
    }
  ],
  "bytecode": "0x60a060405234801561001057600080fd5b50604051610f52380380610f5283398101604081905261002f916100ea565b600160005561003d33610098565b6001600160a01b0381166100875760405162461bcd60e51b815260206004820152600d60248201526c24b73b30b634b2103a37b5b2b760991b604482015260640160405180910390fd5b6001600160a01b031660805261011a565b600180546001600160a01b038381166001600160a01b0319831681179093556040519116919082907f8be0079c531659141344cd1fd0a4f28419497f9722a3daafe3b4186f6b6457e090600090a35050565b6000602082840312156100fc57600080fd5b81516001600160a01b038116811461011357600080fd5b9392505050565b608051610dec610166600039600081816101af0152818161029c015281816103b70152818161054001528181610646015281816107630152818161092b0152610a030152610dec6000f3fe608060405234801561001057600080fd5b50600436106100cf5760003560e01c806376d58e1a1161008c57806396365d441161006657806396365d44146101a2578063a9d75b2b146101aa578063d0ebdbe7146101d1578063f2fde38b146101e457600080fd5b806376d58e1a1461016b5780638c8ac76d1461017e5780638da5cb5b1461019157600080fd5b80630a861f2a146100d457806315770f92146100e9578063481c6a7514610105578063624090111461013057806365119f7214610143578063715018a614610163575b600080fd5b6100e76100e2366004610c90565b6101f7565b005b6100f260045481565b6040519081526020015b60405180910390f35b600254610118906001600160a01b031681565b6040516001600160a01b0390911681526020016100fc565b6100e761013e366004610cc5565b610470565b6100f2610151366004610cef565b60036020526000908152604090205481565b6100e7610705565b6100e7610179366004610c90565b610719565b6100e761018c366004610cc5565b610848565b6001546001600160a01b0316610118565b6100f26109eb565b6101187f000000000000000000000000000000000000000000000000000000000000000081565b6100e76101df366004610cef565b610a7b565b6100e76101f2366004610cef565b610b15565b6101ff610b8b565b600081116102285760405162461bcd60e51b815260040161021f90610d11565b60405180910390fd5b336000908152600360205260409020548111156102875760405162461bcd60e51b815260206004820152601760248201527f496e73756666696369656e74204c502062616c616e6365000000000000000000604482015260640161021f565b6040516370a0823160e01b81523060048201527f00000000000000000000000000000000000000000000000000000000000000006001600160a01b0316906370a0823190602401602060405180830381865afa1580156102eb573d6000803e3d6000fd5b505050506040513d601f19601f8201168201806040525081019061030f9190610d39565b81111561035e5760405162461bcd60e51b815260206004820152601960248201527f496e73756666696369656e7420706f6f6c2062616c616e636500000000000000604482015260640161021f565b336000908152600360205260408120805483929061037d908490610d68565b9250508190555080600460008282546103969190610d68565b909155505060405163a9059cbb60e01b8152336004820152602481018290527f00000000000000000000000000000000000000000000000000000000000000006001600160a01b03169063a9059cbb906044016020604051808303816000875af1158015610408573d6000803e3d6000fd5b505050506040513d601f19601f8201168201806040525081019061042c9190610d81565b5060405181815233907fb1cce8684b4ffa8667b4577654e61ee3480d661ee9c27522ac80e211f6bd4d25906020015b60405180910390a261046d6001600055565b50565b6002546001600160a01b031633146104b95760405162461bcd60e51b815260206004820152600c60248201526b27b7363c9036b0b730b3b2b960a11b604482015260640161021f565b6104c1610b8b565b6001600160a01b03821661050b5760405162461bcd60e51b8152602060048201526011602482015270125b9d985b1a59081c9958da5c1a595b9d607a1b604482015260640161021f565b6000811161052b5760405162461bcd60e51b815260040161021f90610d11565b6040516370a0823160e01b81523060048201527f00000000000000000000000000000000000000000000000000000000000000006001600160a01b0316906370a0823190602401602060405180830381865afa15801561058f573d6000803e3d6000fd5b505050506040513d601f19601f820116820180604052508101906105b39190610d39565b8111156105f45760405162461bcd60e51b815260206004820152600f60248201526e506f6f6c20696e736f6c76656e637960881b604482015260640161021f565b806004541061061a57806004600082825461060f9190610d68565b909155506106209050565b60006004555b60405163a9059cbb60e01b81526001600160a01b038381166004830152602482018390527f0000000000000000000000000000000000000000000000000000000000000000169063a9059cbb906044016020604051808303816000875af115801561068f573d6000803e3d6000fd5b505050506040513d601f19601f820116820180604052508101906106b39190610d81565b50816001600160a01b03167ff42cf8c29487b42c009006cba2a2a0ca0388229f3183e6e957e0a0b163585cb4826040516106ef91815260200190565b60405180910390a26107016001600055565b5050565b61070d610be4565b6107176000610c3e565b565b610721610b8b565b600081116107415760405162461bcd60e51b815260040161021f90610d11565b6040516323b872dd60e01b8152336004820152306024820152604481018290527f00000000000000000000000000000000000000000000000000000000000000006001600160a01b0316906323b872dd906064016020604051808303816000875af11580156107b4573d6000803e3d6000fd5b505050506040513d601f19601f820116820180604052508101906107d89190610d81565b5033600090815260036020526040812080548392906107f8908490610da3565b9250508190555080600460008282546108119190610da3565b909155505060405181815233907f7ff07ce9a287649537e4b012e45cf012d90228b12e2b56bb03515a6b5436fcdf9060200161045b565b6002546001600160a01b031633146108915760405162461bcd60e51b815260206004820152600c60248201526b27b7363c9036b0b730b3b2b960a11b604482015260640161021f565b610899610b8b565b6001600160a01b0382166108df5760405162461bcd60e51b815260206004820152600d60248201526c24b73b30b634b2103830bcb2b960991b604482015260640161021f565b600081116108ff5760405162461bcd60e51b815260040161021f90610d11565b6040516323b872dd60e01b81526001600160a01b038381166004830152306024830152604482018390527f000000000000000000000000000000000000000000000000000000000000000016906323b872dd906064016020604051808303816000875af1158015610974573d6000803e3d6000fd5b505050506040513d601f19601f820116820180604052508101906109989190610d81565b5080600460008282546109ab9190610da3565b90915550506040518181526001600160a01b038316907f055064f59ab6628ba9c529da6ff89620b1899e1bf0b98385523eb11fbe6621ab906020016106ef565b6040516370a0823160e01b81523060048201526000907f00000000000000000000000000000000000000000000000000000000000000006001600160a01b0316906370a0823190602401602060405180830381865afa158015610a52573d6000803e3d6000fd5b505050506040513d601f19601f82011682018060405250810190610a769190610d39565b905090565b610a83610be4565b6001600160a01b038116610acb5760405162461bcd60e51b815260206004820152600f60248201526e24b73b30b634b21036b0b730b3b2b960891b604482015260640161021f565b600280546001600160a01b0319166001600160a01b0383169081179091556040517f2c1c11af44aa5608f1dca38c00275c30ea091e02417d36e70e9a1538689c433d90600090a250565b610b1d610be4565b6001600160a01b038116610b825760405162461bcd60e51b815260206004820152602660248201527f4f776e61626c653a206e6577206f776e657220697320746865207a65726f206160448201526564647265737360d01b606482015260840161021f565b61046d81610c3e565b600260005403610bdd5760405162461bcd60e51b815260206004820152601f60248201527f5265656e7472616e637947756172643a207265656e7472616e742063616c6c00604482015260640161021f565b6002600055565b6001546001600160a01b031633146107175760405162461bcd60e51b815260206004820181905260248201527f4f776e61626c653a2063616c6c6572206973206e6f7420746865206f776e6572604482015260640161021f565b600180546001600160a01b038381166001600160a01b0319831681179093556040519116919082907f8be0079c531659141344cd1fd0a4f28419497f9722a3daafe3b4186f6b6457e090600090a35050565b600060208284031215610ca257600080fd5b5035919050565b80356001600160a01b0381168114610cc057600080fd5b919050565b60008060408385031215610cd857600080fd5b610ce183610ca9565b946020939093013593505050565b600060208284031215610d0157600080fd5b610d0a82610ca9565b9392505050565b6020808252600e908201526d125b9d985b1a5908185b5bdd5b9d60921b604082015260600190565b600060208284031215610d4b57600080fd5b5051919050565b634e487b7160e01b600052601160045260246000fd5b81810381811115610d7b57610d7b610d52565b92915050565b600060208284031215610d9357600080fd5b81518015158114610d0a57600080fd5b80820180821115610d7b57610d7b610d5256fea26469706673582212203d59750259251a68947ccb8d210bee153c7ded21e5bd38636dd57f90b442e8d864736f6c63430008140033",
  "linkReferences": {},
  "deployedLinkReferences": {}
}